{
	"contracts/ERC20.sol": {
		"ERC20": {
			"abi": [
				{
					"inputs": [],
					"name": "InvalidInitialization",
					"type": "error"
				},
				{
					"inputs": [],
					"name": "NotInitializing",
					"type": "error"
				},
				{
					"anonymous": false,
					"inputs": [
						{
							"indexed": true,
							"internalType": "address",
							"name": "owner",
							"type": "address"
						},
						{
							"indexed": true,
							"internalType": "address",
							"name": "spender",
							"type": "address"
						},
						{
							"indexed": false,
							"internalType": "uint256",
							"name": "value",
							"type": "uint256"
						}
					],
					"name": "Approval",
					"type": "event"
				},
				{
					"anonymous": false,
					"inputs": [
						{
							"indexed": false,
							"internalType": "uint64",
							"name": "version",
							"type": "uint64"
						}
					],
					"name": "Initialized",
					"type": "event"
				},
				{
					"anonymous": false,
					"inputs": [
						{
							"indexed": true,
							"internalType": "address",
							"name": "from",
							"type": "address"
						},
						{
							"indexed": true,
							"internalType": "address",
							"name": "to",
							"type": "address"
						},
						{
							"indexed": false,
							"internalType": "uint256",
							"name": "value",
							"type": "uint256"
						}
					],
					"name": "Transfer",
					"type": "event"
				},
				{
					"inputs": [
						{
							"internalType": "address",
							"name": "owner",
							"type": "address"
						},
						{
							"internalType": "address",
							"name": "spender",
							"type": "address"
						}
					],
					"name": "allowance",
					"outputs": [
						{
							"internalType": "uint256",
							"name": "",
							"type": "uint256"
						}
					],
					"stateMutability": "view",
					"type": "function"
				},
				{
					"inputs": [
						{
							"internalType": "address",
							"name": "spender",
							"type": "address"
						},
						{
							"internalType": "uint256",
							"name": "amount",
							"type": "uint256"
						}
					],
					"name": "approve",
					"outputs": [
						{
							"internalType": "bool",
							"name": "",
							"type": "bool"
						}
					],
					"stateMutability": "nonpayable",
					"type": "function"
				},
				{
					"inputs": [
						{
							"internalType": "address",
							"name": "account",
							"type": "address"
						}
					],
					"name": "balanceOf",
					"outputs": [
						{
							"internalType": "uint256",
							"name": "",
							"type": "uint256"
						}
					],
					"stateMutability": "view",
					"type": "function"
				},
				{
					"inputs": [
						{
							"internalType": "uint256",
							"name": "amount",
							"type": "uint256"
						}
					],
					"name": "burn",
					"outputs": [],
					"stateMutability": "nonpayable",
					"type": "function"
				},
				{
					"inputs": [
						{
							"internalType": "address",
							"name": "account",
							"type": "address"
						},
						{
							"internalType": "uint256",
							"name": "amount",
							"type": "uint256"
						}
					],
					"name": "burnFrom",
					"outputs": [],
					"stateMutability": "nonpayable",
					"type": "function"
				},
				{
					"inputs": [],
					"name": "decimals",
					"outputs": [
						{
							"internalType": "uint8",
							"name": "",
							"type": "uint8"
						}
					],
					"stateMutability": "view",
					"type": "function"
				},
				{
					"inputs": [
						{
							"internalType": "address",
							"name": "spender",
							"type": "address"
						},
						{
							"internalType": "uint256",
							"name": "subtractedValue",
							"type": "uint256"
						}
					],
					"name": "decreaseAllowance",
					"outputs": [
						{
							"internalType": "bool",
							"name": "",
							"type": "bool"
						}
					],
					"stateMutability": "nonpayable",
					"type": "function"
				},
				{
					"inputs": [
						{
							"internalType": "address",
							"name": "spender",
							"type": "address"
						},
						{
							"internalType": "uint256",
							"name": "addedValue",
							"type": "uint256"
						}
					],
					"name": "increaseAllowance",
					"outputs": [
						{
							"internalType": "bool",
							"name": "",
							"type": "bool"
						}
					],
					"stateMutability": "nonpayable",
					"type": "function"
				},
				{
					"inputs": [],
					"name": "maxSupply",
					"outputs": [
						{
							"internalType": "uint256",
							"name": "",
							"type": "uint256"
						}
					],
					"stateMutability": "view",
					"type": "function"
				},
				{
					"inputs": [],
					"name": "name",
					"outputs": [
						{
							"internalType": "string",
							"name": "",
							"type": "string"
						}
					],
					"stateMutability": "view",
					"type": "function"
				},
				{
					"inputs": [],
					"name": "symbol",
					"outputs": [
						{
							"internalType": "string",
							"name": "",
							"type": "string"
						}
					],
					"stateMutability": "view",
					"type": "function"
				},
				{
					"inputs": [],
					"name": "totalSupply",
					"outputs": [
						{
							"internalType": "uint256",
							"name": "",
							"type": "uint256"
						}
					],
					"stateMutability": "view",
					"type": "function"
				},
				{
					"inputs": [
						{
							"internalType": "address",
							"name": "to",
							"type": "address"
						},
						{
							"internalType": "uint256",
							"name": "amount",
							"type": "uint256"
						}
					],
					"name": "transfer",
					"outputs": [
						{
							"internalType": "bool",
							"name": "",
							"type": "bool"
						}
					],
					"stateMutability": "nonpayable",
					"type": "function"
				},
				{
					"inputs": [
						{
							"internalType": "address",
							"name": "from",
							"type": "address"
						},
						{
							"internalType": "address",
							"name": "to",
							"type": "address"
						},
						{
							"internalType": "uint256",
							"name": "amount",
							"type": "uint256"
						}
					],
					"name": "transferFrom",
					"outputs": [
						{
							"internalType": "bool",
							"name": "",
							"type": "bool"
						}
					],
					"stateMutability": "nonpayable",
					"type": "function"
				}
			],
			"devdoc": {
				"errors": {
					"InvalidInitialization()": [
						{
							"details": "The contract is already initialized."
						}
					],
					"NotInitializing()": [
						{
							"details": "The contract is not initializing."
						}
					]
				},
				"events": {
					"Approval(address,address,uint256)": {
						"details": "Emitted when the allowance of a `spender` for an `owner` is set by a call to {approve}. `value` is the new allowance."
					},
					"Initialized(uint64)": {
						"details": "Triggered when the contract has been initialized or reinitialized."
					},
					"Transfer(address,address,uint256)": {
						"details": "Emitted when `value` tokens are moved from one account (`from`) to another (`to`). Note that `value` may be zero."
					}
				},
				"kind": "dev",
				"methods": {
					"allowance(address,address)": {
						"details": "Returns the remaining number of tokens that `spender` will be allowed to spend on behalf of `owner` through {transferFrom}. This is zero by default. This value changes when {approve} or {transferFrom} are called."
					},
					"balanceOf(address)": {
						"details": "Returns the value of tokens owned by `account`."
					},
					"decimals()": {
						"details": "Returns the decimals places of the token."
					},
					"name()": {
						"details": "Returns the name of the token."
					},
					"symbol()": {
						"details": "Returns the symbol of the token."
					},
					"totalSupply()": {
						"details": "Returns the value of tokens in existence."
					}
				},
				"version": 1
			},
			"evm": {
				"assembly": "    /* \"contracts/ERC20.sol\":199:6127  contract ERC20 is Initializable, IERC20Metadata {... */\n  mstore(0x40, 0x80)\n  callvalue\n  dup1\n  iszero\n  tag_1\n  jumpi\n  0x00\n  dup1\n  revert\ntag_1:\n  pop\n  dataSize(sub_0)\n  dup1\n  dataOffset(sub_0)\n  0x00\n  codecopy\n  0x00\n  return\nstop\n\nsub_0: assembly {\n        /* \"contracts/ERC20.sol\":199:6127  contract ERC20 is Initializable, IERC20Metadata {... */\n      mstore(0x40, 0x80)\n      callvalue\n      dup1\n      iszero\n      tag_1\n      jumpi\n      0x00\n      dup1\n      revert\n    tag_1:\n      pop\n      jumpi(tag_2, lt(calldatasize, 0x04))\n      shr(0xe0, calldataload(0x00))\n      dup1\n      0x70a08231\n      gt\n      tag_17\n      jumpi\n      dup1\n      0xa457c2d7\n      gt\n      tag_18\n      jumpi\n      dup1\n      0xa457c2d7\n      eq\n      tag_13\n      jumpi\n      dup1\n      0xa9059cbb\n      eq\n      tag_14\n      jumpi\n      dup1\n      0xd5abeb01\n      eq\n      tag_15\n      jumpi\n      dup1\n      0xdd62ed3e\n      eq\n      tag_16\n      jumpi\n      0x00\n      dup1\n      revert\n    tag_18:\n      dup1\n      0x70a08231\n      eq\n      tag_10\n      jumpi\n      dup1\n      0x79cc6790\n      eq\n      tag_11\n      jumpi\n      dup1\n      0x95d89b41\n      eq\n      tag_12\n      jumpi\n      0x00\n      dup1\n      revert\n    tag_17:\n      dup1\n      0x23b872dd\n      gt\n      tag_19\n      jumpi\n      dup1\n      0x23b872dd\n      eq\n      tag_6\n      jumpi\n      dup1\n      0x313ce567\n      eq\n      tag_7\n      jumpi\n      dup1\n      0x39509351\n      eq\n      tag_8\n      jumpi\n      dup1\n      0x42966c68\n      eq\n      tag_9\n      jumpi\n      0x00\n      dup1\n      revert\n    tag_19:\n      dup1\n      0x06fdde03\n      eq\n      tag_3\n      jumpi\n      dup1\n      0x095ea7b3\n      eq\n      tag_4\n      jumpi\n      dup1\n      0x18160ddd\n      eq\n      tag_5\n      jumpi\n    tag_2:\n      0x00\n      dup1\n      revert\n        /* \"contracts/ERC20.sol\":817:915  function name() public view virtual override returns (string memory) {... */\n    tag_3:\n      tag_20\n      tag_21\n      jump\t// in\n    tag_20:\n      mload(0x40)\n      tag_22\n      swap2\n      swap1\n      tag_23\n      jump\t// in\n    tag_22:\n      mload(0x40)\n      dup1\n      swap2\n      sub\n      swap1\n      return\n        /* \"contracts/ERC20.sol\":1792:1956  function approve(address spender, uint256 amount) public virtual override returns (bool) {... */\n    tag_4:\n      tag_24\n      tag_25\n      calldatasize\n      0x04\n      tag_26\n      jump\t// in\n    tag_25:\n      tag_27\n      jump\t// in\n    tag_24:\n      mload(0x40)\n        /* \"#utility.yul\":1169:1183   */\n      swap1\n      iszero\n        /* \"#utility.yul\":1162:1184   */\n      iszero\n        /* \"#utility.yul\":1144:1185   */\n      dup2\n      mstore\n        /* \"#utility.yul\":1132:1134   */\n      0x20\n        /* \"#utility.yul\":1117:1135   */\n      add\n        /* \"contracts/ERC20.sol\":1792:1956  function approve(address spender, uint256 amount) public virtual override returns (bool) {... */\n      tag_22\n        /* \"#utility.yul\":1004:1191   */\n      jump\n        /* \"contracts/ERC20.sol\":1133:1239  function totalSupply() public view virtual override returns (uint256) {... */\n    tag_5:\n        /* \"contracts/ERC20.sol\":1220:1232  _totalSupply */\n      sload(0x02)\n        /* \"contracts/ERC20.sol\":1133:1239  function totalSupply() public view virtual override returns (uint256) {... */\n    tag_30:\n      mload(0x40)\n        /* \"#utility.yul\":1342:1367   */\n      swap1\n      dup2\n      mstore\n        /* \"#utility.yul\":1330:1332   */\n      0x20\n        /* \"#utility.yul\":1315:1333   */\n      add\n        /* \"contracts/ERC20.sol\":1133:1239  function totalSupply() public view virtual override returns (uint256) {... */\n      tag_22\n        /* \"#utility.yul\":1196:1373   */\n      jump\n        /* \"contracts/ERC20.sol\":1962:2181  function transferFrom(address from, address to, uint256 amount) public virtual override returns (bool) {... */\n    tag_6:\n      tag_24\n      tag_35\n      calldatasize\n      0x04\n      tag_36\n      jump\t// in\n    tag_35:\n      tag_37\n      jump\t// in\n        /* \"contracts/ERC20.sol\":1029:1127  function decimals() public view virtual override returns (uint8) {... */\n    tag_7:\n        /* \"contracts/ERC20.sol\":1111:1120  _decimals */\n      sload(0x06)\n        /* \"contracts/ERC20.sol\":1029:1127  function decimals() public view virtual override returns (uint8) {... */\n      mload(0x40)\n        /* \"contracts/ERC20.sol\":1111:1120  _decimals */\n      0xff\n      swap1\n      swap2\n      and\n        /* \"#utility.yul\":1853:1889   */\n      dup2\n      mstore\n        /* \"#utility.yul\":1841:1843   */\n      0x20\n        /* \"#utility.yul\":1826:1844   */\n      add\n        /* \"contracts/ERC20.sol\":1029:1127  function decimals() public view virtual override returns (uint8) {... */\n      tag_22\n        /* \"#utility.yul\":1711:1895   */\n      jump\n        /* \"contracts/ERC20.sol\":2187:2419  function increaseAllowance(address spender, uint256 addedValue) public virtual returns (bool) {... */\n    tag_8:\n      tag_24\n      tag_44\n      calldatasize\n      0x04\n      tag_26\n      jump\t// in\n    tag_44:\n      tag_45\n      jump\t// in\n        /* \"contracts/ERC20.sol\":2856:2943  function burn(uint256 amount) public virtual {... */\n    tag_9:\n      tag_47\n      tag_48\n      calldatasize\n      0x04\n      tag_49\n      jump\t// in\n    tag_48:\n      tag_50\n      jump\t// in\n    tag_47:\n      stop\n        /* \"contracts/ERC20.sol\":1344:1469  function balanceOf(address account) public view virtual override returns (uint256) {... */\n    tag_10:\n      tag_30\n      tag_52\n      calldatasize\n      0x04\n      tag_53\n      jump\t// in\n    tag_52:\n      sub(shl(0xa0, 0x01), 0x01)\n        /* \"contracts/ERC20.sol\":1444:1462  _balances[account] */\n      and\n        /* \"contracts/ERC20.sol\":1418:1425  uint256 */\n      0x00\n        /* \"contracts/ERC20.sol\":1444:1462  _balances[account] */\n      swap1\n      dup2\n      mstore\n      0x20\n      dup2\n      swap1\n      mstore\n      0x40\n      swap1\n      keccak256\n      sload\n      swap1\n        /* \"contracts/ERC20.sol\":1344:1469  function balanceOf(address account) public view virtual override returns (uint256) {... */\n      jump\n        /* \"contracts/ERC20.sol\":2949:3108  function burnFrom(address account, uint256 amount) public virtual {... */\n    tag_11:\n      tag_47\n      tag_57\n      calldatasize\n      0x04\n      tag_26\n      jump\t// in\n    tag_57:\n      tag_58\n      jump\t// in\n        /* \"contracts/ERC20.sol\":921:1023  function symbol() public view virtual override returns (string memory) {... */\n    tag_12:\n      tag_20\n      tag_60\n      jump\t// in\n        /* \"contracts/ERC20.sol\":2425:2850  function decreaseAllowance(address spender, uint256 subtractedValue) public virtual returns (bool) {... */\n    tag_13:\n      tag_24\n      tag_63\n      calldatasize\n      0x04\n      tag_26\n      jump\t// in\n    tag_63:\n      tag_64\n      jump\t// in\n        /* \"contracts/ERC20.sol\":1475:1631  function transfer(address to, uint256 amount) public virtual override returns (bool) {... */\n    tag_14:\n      tag_24\n      tag_67\n      calldatasize\n      0x04\n      tag_26\n      jump\t// in\n    tag_67:\n      tag_68\n      jump\t// in\n        /* \"contracts/ERC20.sol\":1245:1338  function maxSupply() public view virtual returns (uint256) {... */\n    tag_15:\n        /* \"contracts/ERC20.sol\":1321:1331  _maxSupply */\n      sload(0x03)\n        /* \"contracts/ERC20.sol\":1245:1338  function maxSupply() public view virtual returns (uint256) {... */\n      jump(tag_30)\n        /* \"contracts/ERC20.sol\":1637:1786  function allowance(address owner, address spender) public view virtual override returns (uint256) {... */\n    tag_16:\n      tag_30\n      tag_74\n      calldatasize\n      0x04\n      tag_75\n      jump\t// in\n    tag_74:\n      tag_76\n      jump\t// in\n        /* \"contracts/ERC20.sol\":817:915  function name() public view virtual override returns (string memory) {... */\n    tag_21:\n        /* \"contracts/ERC20.sol\":871:884  string memory */\n      0x60\n        /* \"contracts/ERC20.sol\":903:908  _name */\n      0x04\n        /* \"contracts/ERC20.sol\":896:908  return _name */\n      dup1\n      sload\n      tag_79\n      swap1\n      tag_80\n      jump\t// in\n    tag_79:\n      dup1\n      0x1f\n      add\n      0x20\n      dup1\n      swap2\n      div\n      mul\n      0x20\n      add\n      mload(0x40)\n      swap1\n      dup2\n      add\n      0x40\n      mstore\n      dup1\n      swap3\n      swap2\n      swap1\n      dup2\n      dup2\n      mstore\n      0x20\n      add\n      dup3\n      dup1\n      sload\n      tag_81\n      swap1\n      tag_80\n      jump\t// in\n    tag_81:\n      dup1\n      iszero\n      tag_82\n      jumpi\n      dup1\n      0x1f\n      lt\n      tag_83\n      jumpi\n      0x0100\n      dup1\n      dup4\n      sload\n      div\n      mul\n      dup4\n      mstore\n      swap2\n      0x20\n      add\n      swap2\n      jump(tag_82)\n    tag_83:\n      dup3\n      add\n      swap2\n      swap1\n      0x00\n      mstore\n      keccak256(0x00, 0x20)\n      swap1\n    tag_84:\n      dup2\n      sload\n      dup2\n      mstore\n      swap1\n      0x01\n      add\n      swap1\n      0x20\n      add\n      dup1\n      dup4\n      gt\n      tag_84\n      jumpi\n      dup3\n      swap1\n      sub\n      0x1f\n      and\n      dup3\n      add\n      swap2\n    tag_82:\n      pop\n      pop\n      pop\n      pop\n      pop\n      swap1\n      pop\n        /* \"contracts/ERC20.sol\":817:915  function name() public view virtual override returns (string memory) {... */\n      swap1\n      jump\t// out\n        /* \"contracts/ERC20.sol\":1792:1956  function approve(address spender, uint256 amount) public virtual override returns (bool) {... */\n    tag_27:\n        /* \"contracts/ERC20.sol\":1875:1879  bool */\n      0x00\n        /* \"contracts/ERC20.sol\":1891:1928  _approve(msg.sender, spender, amount) */\n      tag_86\n        /* \"contracts/ERC20.sol\":1900:1910  msg.sender */\n      caller\n        /* \"contracts/ERC20.sol\":1912:1919  spender */\n      dup5\n        /* \"contracts/ERC20.sol\":1921:1927  amount */\n      dup5\n        /* \"contracts/ERC20.sol\":1891:1899  _approve */\n      tag_87\n        /* \"contracts/ERC20.sol\":1891:1928  _approve(msg.sender, spender, amount) */\n      jump\t// in\n    tag_86:\n      pop\n        /* \"contracts/ERC20.sol\":1945:1949  true */\n      0x01\n        /* \"contracts/ERC20.sol\":1792:1956  function approve(address spender, uint256 amount) public virtual override returns (bool) {... */\n    tag_85:\n      swap3\n      swap2\n      pop\n      pop\n      jump\t// out\n        /* \"contracts/ERC20.sol\":1962:2181  function transferFrom(address from, address to, uint256 amount) public virtual override returns (bool) {... */\n    tag_37:\n        /* \"contracts/ERC20.sol\":2059:2063  bool */\n      0x00\n        /* \"contracts/ERC20.sol\":2075:2116  _spendAllowance(from, msg.sender, amount) */\n      tag_90\n        /* \"contracts/ERC20.sol\":2091:2095  from */\n      dup5\n        /* \"contracts/ERC20.sol\":2097:2107  msg.sender */\n      caller\n        /* \"contracts/ERC20.sol\":2109:2115  amount */\n      dup5\n        /* \"contracts/ERC20.sol\":2075:2090  _spendAllowance */\n      tag_91\n        /* \"contracts/ERC20.sol\":2075:2116  _spendAllowance(from, msg.sender, amount) */\n      jump\t// in\n    tag_90:\n        /* \"contracts/ERC20.sol\":2126:2153  _transfer(from, to, amount) */\n      tag_92\n        /* \"contracts/ERC20.sol\":2136:2140  from */\n      dup5\n        /* \"contracts/ERC20.sol\":2142:2144  to */\n      dup5\n        /* \"contracts/ERC20.sol\":2146:2152  amount */\n      dup5\n        /* \"contracts/ERC20.sol\":2126:2135  _transfer */\n      tag_93\n        /* \"contracts/ERC20.sol\":2126:2153  _transfer(from, to, amount) */\n      jump\t// in\n    tag_92:\n      pop\n        /* \"contracts/ERC20.sol\":2170:2174  true */\n      0x01\n        /* \"contracts/ERC20.sol\":1962:2181  function transferFrom(address from, address to, uint256 amount) public virtual override returns (bool) {... */\n      swap4\n      swap3\n      pop\n      pop\n      pop\n      jump\t// out\n        /* \"contracts/ERC20.sol\":2187:2419  function increaseAllowance(address spender, uint256 addedValue) public virtual returns (bool) {... */\n    tag_45:\n        /* \"contracts/ERC20.sol\":2275:2279  bool */\n      0x00\n        /* \"contracts/ERC20.sol\":2307:2317  msg.sender */\n      caller\n        /* \"contracts/ERC20.sol\":2327:2391  _approve(owner, spender, allowance(owner, spender) + addedValue) */\n      tag_92\n        /* \"contracts/ERC20.sol\":2307:2317  msg.sender */\n      dup2\n        /* \"contracts/ERC20.sol\":2343:2350  spender */\n      dup6\n        /* \"contracts/ERC20.sol\":2380:2390  addedValue */\n      dup6\n        /* \"contracts/ERC20.sol\":2352:2377  allowance(owner, spender) */\n      tag_97\n        /* \"contracts/ERC20.sol\":2307:2317  msg.sender */\n      dup4\n        /* \"contracts/ERC20.sol\":2343:2350  spender */\n      dup4\n        /* \"contracts/ERC20.sol\":2352:2361  allowance */\n      tag_76\n        /* \"contracts/ERC20.sol\":2352:2377  allowance(owner, spender) */\n      jump\t// in\n    tag_97:\n        /* \"contracts/ERC20.sol\":2352:2390  allowance(owner, spender) + addedValue */\n      tag_98\n      swap2\n      swap1\n      tag_99\n      jump\t// in\n    tag_98:\n        /* \"contracts/ERC20.sol\":2327:2335  _approve */\n      tag_87\n        /* \"contracts/ERC20.sol\":2327:2391  _approve(owner, spender, allowance(owner, spender) + addedValue) */\n      jump\t// in\n        /* \"contracts/ERC20.sol\":2856:2943  function burn(uint256 amount) public virtual {... */\n    tag_50:\n        /* \"contracts/ERC20.sol\":2911:2936  _burn(msg.sender, amount) */\n      tag_101\n        /* \"contracts/ERC20.sol\":2917:2927  msg.sender */\n      caller\n        /* \"contracts/ERC20.sol\":2929:2935  amount */\n      dup3\n        /* \"contracts/ERC20.sol\":2911:2916  _burn */\n      tag_102\n        /* \"contracts/ERC20.sol\":2911:2936  _burn(msg.sender, amount) */\n      jump\t// in\n    tag_101:\n        /* \"contracts/ERC20.sol\":2856:2943  function burn(uint256 amount) public virtual {... */\n      pop\n      jump\t// out\n        /* \"contracts/ERC20.sol\":2949:3108  function burnFrom(address account, uint256 amount) public virtual {... */\n    tag_58:\n        /* \"contracts/ERC20.sol\":3025:3069  _spendAllowance(account, msg.sender, amount) */\n      tag_105\n        /* \"contracts/ERC20.sol\":3041:3048  account */\n      dup3\n        /* \"contracts/ERC20.sol\":3050:3060  msg.sender */\n      caller\n        /* \"contracts/ERC20.sol\":3062:3068  amount */\n      dup4\n        /* \"contracts/ERC20.sol\":3025:3040  _spendAllowance */\n      tag_91\n        /* \"contracts/ERC20.sol\":3025:3069  _spendAllowance(account, msg.sender, amount) */\n      jump\t// in\n    tag_105:\n        /* \"contracts/ERC20.sol\":3079:3101  _burn(account, amount) */\n      tag_106\n        /* \"contracts/ERC20.sol\":3085:3092  account */\n      dup3\n        /* \"contracts/ERC20.sol\":3094:3100  amount */\n      dup3\n        /* \"contracts/ERC20.sol\":3079:3084  _burn */\n      tag_102\n        /* \"contracts/ERC20.sol\":3079:3101  _burn(account, amount) */\n      jump\t// in\n    tag_106:\n        /* \"contracts/ERC20.sol\":2949:3108  function burnFrom(address account, uint256 amount) public virtual {... */\n      pop\n      pop\n      jump\t// out\n        /* \"contracts/ERC20.sol\":921:1023  function symbol() public view virtual override returns (string memory) {... */\n    tag_60:\n        /* \"contracts/ERC20.sol\":977:990  string memory */\n      0x60\n        /* \"contracts/ERC20.sol\":1009:1016  _symbol */\n      0x05\n        /* \"contracts/ERC20.sol\":1002:1016  return _symbol */\n      dup1\n      sload\n      tag_79\n      swap1\n      tag_80\n      jump\t// in\n        /* \"contracts/ERC20.sol\":2425:2850  function decreaseAllowance(address spender, uint256 subtractedValue) public virtual returns (bool) {... */\n    tag_64:\n        /* \"contracts/ERC20.sol\":2518:2522  bool */\n      0x00\n        /* \"contracts/ERC20.sol\":2550:2560  msg.sender */\n      caller\n        /* \"contracts/ERC20.sol\":2518:2522  bool */\n      dup2\n        /* \"contracts/ERC20.sol\":2597:2622  allowance(owner, spender) */\n      tag_114\n        /* \"contracts/ERC20.sol\":2550:2560  msg.sender */\n      dup3\n        /* \"contracts/ERC20.sol\":2614:2621  spender */\n      dup7\n        /* \"contracts/ERC20.sol\":2597:2606  allowance */\n      tag_76\n        /* \"contracts/ERC20.sol\":2597:2622  allowance(owner, spender) */\n      jump\t// in\n    tag_114:\n        /* \"contracts/ERC20.sol\":2570:2622  uint256 currentAllowance = allowance(owner, spender) */\n      swap1\n      pop\n        /* \"contracts/ERC20.sol\":2660:2675  subtractedValue */\n      dup4\n        /* \"contracts/ERC20.sol\":2640:2656  currentAllowance */\n      dup2\n        /* \"contracts/ERC20.sol\":2640:2675  currentAllowance >= subtractedValue */\n      lt\n      iszero\n        /* \"contracts/ERC20.sol\":2632:2717  require(currentAllowance >= subtractedValue, \"ERC20: decreased allowance below zero\") */\n      tag_115\n      jumpi\n      mload(0x40)\n      shl(0xe5, 0x461bcd)\n      dup2\n      mstore\n        /* \"#utility.yul\":3355:3357   */\n      0x20\n        /* \"contracts/ERC20.sol\":2632:2717  require(currentAllowance >= subtractedValue, \"ERC20: decreased allowance below zero\") */\n      0x04\n      dup3\n      add\n        /* \"#utility.yul\":3337:3358   */\n      mstore\n        /* \"#utility.yul\":3394:3396   */\n      0x25\n        /* \"#utility.yul\":3374:3392   */\n      0x24\n      dup3\n      add\n        /* \"#utility.yul\":3367:3397   */\n      mstore\n        /* \"#utility.yul\":3433:3467   */\n      0x45524332303a2064656372656173656420616c6c6f77616e63652062656c6f77\n        /* \"#utility.yul\":3413:3431   */\n      0x44\n      dup3\n      add\n        /* \"#utility.yul\":3406:3468   */\n      mstore\n      shl(0xd8, 0x207a65726f)\n        /* \"#utility.yul\":3484:3502   */\n      0x64\n      dup3\n      add\n        /* \"#utility.yul\":3477:3512   */\n      mstore\n        /* \"#utility.yul\":3529:3548   */\n      0x84\n      add\n        /* \"contracts/ERC20.sol\":2632:2717  require(currentAllowance >= subtractedValue, \"ERC20: decreased allowance below zero\") */\n    tag_116:\n      mload(0x40)\n      dup1\n      swap2\n      sub\n      swap1\n      revert\n    tag_115:\n        /* \"contracts/ERC20.sol\":2751:2811  _approve(owner, spender, currentAllowance - subtractedValue) */\n      tag_118\n        /* \"contracts/ERC20.sol\":2760:2765  owner */\n      dup3\n        /* \"contracts/ERC20.sol\":2767:2774  spender */\n      dup7\n        /* \"contracts/ERC20.sol\":2795:2810  subtractedValue */\n      dup7\n        /* \"contracts/ERC20.sol\":2776:2792  currentAllowance */\n      dup5\n        /* \"contracts/ERC20.sol\":2776:2810  currentAllowance - subtractedValue */\n      sub\n        /* \"contracts/ERC20.sol\":2751:2759  _approve */\n      tag_87\n        /* \"contracts/ERC20.sol\":2751:2811  _approve(owner, spender, currentAllowance - subtractedValue) */\n      jump\t// in\n    tag_118:\n      pop\n        /* \"contracts/ERC20.sol\":2839:2843  true */\n      0x01\n      swap5\n        /* \"contracts/ERC20.sol\":2425:2850  function decreaseAllowance(address spender, uint256 subtractedValue) public virtual returns (bool) {... */\n      swap4\n      pop\n      pop\n      pop\n      pop\n      jump\t// out\n        /* \"contracts/ERC20.sol\":1475:1631  function transfer(address to, uint256 amount) public virtual override returns (bool) {... */\n    tag_68:\n        /* \"contracts/ERC20.sol\":1554:1558  bool */\n      0x00\n        /* \"contracts/ERC20.sol\":1570:1603  _transfer(msg.sender, to, amount) */\n      tag_86\n        /* \"contracts/ERC20.sol\":1580:1590  msg.sender */\n      caller\n        /* \"contracts/ERC20.sol\":1592:1594  to */\n      dup5\n        /* \"contracts/ERC20.sol\":1596:1602  amount */\n      dup5\n        /* \"contracts/ERC20.sol\":1570:1579  _transfer */\n      tag_93\n        /* \"contracts/ERC20.sol\":1570:1603  _transfer(msg.sender, to, amount) */\n      jump\t// in\n        /* \"contracts/ERC20.sol\":1637:1786  function allowance(address owner, address spender) public view virtual override returns (uint256) {... */\n    tag_76:\n      sub(shl(0xa0, 0x01), 0x01)\n        /* \"contracts/ERC20.sol\":1752:1770  _allowances[owner] */\n      swap2\n      dup3\n      and\n        /* \"contracts/ERC20.sol\":1726:1733  uint256 */\n      0x00\n        /* \"contracts/ERC20.sol\":1752:1770  _allowances[owner] */\n      swap1\n      dup2\n      mstore\n        /* \"contracts/ERC20.sol\":1752:1763  _allowances */\n      0x01\n        /* \"contracts/ERC20.sol\":1752:1770  _allowances[owner] */\n      0x20\n      swap1\n      dup2\n      mstore\n      0x40\n      dup1\n      dup4\n      keccak256\n        /* \"contracts/ERC20.sol\":1752:1779  _allowances[owner][spender] */\n      swap4\n      swap1\n      swap5\n      and\n      dup3\n      mstore\n      swap2\n      swap1\n      swap2\n      mstore\n      keccak256\n      sload\n      swap1\n        /* \"contracts/ERC20.sol\":1637:1786  function allowance(address owner, address spender) public view virtual override returns (uint256) {... */\n      jump\t// out\n        /* \"contracts/ERC20.sol\":5175:5515  function _approve(address owner, address spender, uint256 amount) internal virtual {... */\n    tag_87:\n      sub(shl(0xa0, 0x01), 0x01)\n        /* \"contracts/ERC20.sol\":5276:5295  owner != address(0) */\n      dup4\n      and\n        /* \"contracts/ERC20.sol\":5268:5336  require(owner != address(0), \"ERC20: approve from the zero address\") */\n      tag_124\n      jumpi\n      mload(0x40)\n      shl(0xe5, 0x461bcd)\n      dup2\n      mstore\n        /* \"#utility.yul\":3761:3763   */\n      0x20\n        /* \"contracts/ERC20.sol\":5268:5336  require(owner != address(0), \"ERC20: approve from the zero address\") */\n      0x04\n      dup3\n      add\n        /* \"#utility.yul\":3743:3764   */\n      mstore\n        /* \"#utility.yul\":3800:3802   */\n      0x24\n        /* \"#utility.yul\":3780:3798   */\n      dup1\n      dup3\n      add\n        /* \"#utility.yul\":3773:3803   */\n      mstore\n        /* \"#utility.yul\":3839:3873   */\n      0x45524332303a20617070726f76652066726f6d20746865207a65726f20616464\n        /* \"#utility.yul\":3819:3837   */\n      0x44\n      dup3\n      add\n        /* \"#utility.yul\":3812:3874   */\n      mstore\n      shl(0xe0, 0x72657373)\n        /* \"#utility.yul\":3890:3908   */\n      0x64\n      dup3\n      add\n        /* \"#utility.yul\":3883:3917   */\n      mstore\n        /* \"#utility.yul\":3934:3953   */\n      0x84\n      add\n        /* \"contracts/ERC20.sol\":5268:5336  require(owner != address(0), \"ERC20: approve from the zero address\") */\n      tag_116\n        /* \"#utility.yul\":3559:3959   */\n      jump\n        /* \"contracts/ERC20.sol\":5268:5336  require(owner != address(0), \"ERC20: approve from the zero address\") */\n    tag_124:\n      sub(shl(0xa0, 0x01), 0x01)\n        /* \"contracts/ERC20.sol\":5354:5375  spender != address(0) */\n      dup3\n      and\n        /* \"contracts/ERC20.sol\":5346:5414  require(spender != address(0), \"ERC20: approve to the zero address\") */\n      tag_127\n      jumpi\n      mload(0x40)\n      shl(0xe5, 0x461bcd)\n      dup2\n      mstore\n        /* \"#utility.yul\":4166:4168   */\n      0x20\n        /* \"contracts/ERC20.sol\":5346:5414  require(spender != address(0), \"ERC20: approve to the zero address\") */\n      0x04\n      dup3\n      add\n        /* \"#utility.yul\":4148:4169   */\n      mstore\n        /* \"#utility.yul\":4205:4207   */\n      0x22\n        /* \"#utility.yul\":4185:4203   */\n      0x24\n      dup3\n      add\n        /* \"#utility.yul\":4178:4208   */\n      mstore\n        /* \"#utility.yul\":4244:4278   */\n      0x45524332303a20617070726f766520746f20746865207a65726f206164647265\n        /* \"#utility.yul\":4224:4242   */\n      0x44\n      dup3\n      add\n        /* \"#utility.yul\":4217:4279   */\n      mstore\n      shl(0xf0, 0x7373)\n        /* \"#utility.yul\":4295:4313   */\n      0x64\n      dup3\n      add\n        /* \"#utility.yul\":4288:4320   */\n      mstore\n        /* \"#utility.yul\":4337:4356   */\n      0x84\n      add\n        /* \"contracts/ERC20.sol\":5346:5414  require(spender != address(0), \"ERC20: approve to the zero address\") */\n      tag_116\n        /* \"#utility.yul\":3964:4362   */\n      jump\n        /* \"contracts/ERC20.sol\":5346:5414  require(spender != address(0), \"ERC20: approve to the zero address\") */\n    tag_127:\n      sub(shl(0xa0, 0x01), 0x01)\n        /* \"contracts/ERC20.sol\":5425:5443  _allowances[owner] */\n      dup4\n      dup2\n      and\n      0x00\n      dup2\n      dup2\n      mstore\n        /* \"contracts/ERC20.sol\":5425:5436  _allowances */\n      0x01\n        /* \"contracts/ERC20.sol\":5425:5443  _allowances[owner] */\n      0x20\n      swap1\n      dup2\n      mstore\n      0x40\n      dup1\n      dup4\n      keccak256\n        /* \"contracts/ERC20.sol\":5425:5452  _allowances[owner][spender] */\n      swap5\n      dup8\n      and\n      dup1\n      dup5\n      mstore\n      swap5\n      dup3\n      mstore\n      swap2\n      dup3\n      swap1\n      keccak256\n        /* \"contracts/ERC20.sol\":5425:5461  _allowances[owner][spender] = amount */\n      dup6\n      swap1\n      sstore\n        /* \"contracts/ERC20.sol\":5476:5508  Approval(owner, spender, amount) */\n      swap1\n      mload\n        /* \"#utility.yul\":1342:1367   */\n      dup5\n      dup2\n      mstore\n        /* \"contracts/ERC20.sol\":5476:5508  Approval(owner, spender, amount) */\n      0x8c5be1e5ebec7d5bd14f71427d1e84f3dd0314c0f7b2291e5b200ac8c7c3b925\n      swap2\n        /* \"#utility.yul\":1315:1333   */\n      add\n        /* \"contracts/ERC20.sol\":5476:5508  Approval(owner, spender, amount) */\n    tag_130:\n      mload(0x40)\n      dup1\n      swap2\n      sub\n      swap1\n      log3\n        /* \"contracts/ERC20.sol\":5175:5515  function _approve(address owner, address spender, uint256 amount) internal virtual {... */\n      pop\n      pop\n      pop\n      jump\t// out\n        /* \"contracts/ERC20.sol\":5521:5932  function _spendAllowance(address owner, address spender, uint256 amount) internal virtual {... */\n    tag_91:\n        /* \"contracts/ERC20.sol\":5621:5645  uint256 currentAllowance */\n      0x00\n        /* \"contracts/ERC20.sol\":5648:5673  allowance(owner, spender) */\n      tag_132\n        /* \"contracts/ERC20.sol\":5658:5663  owner */\n      dup5\n        /* \"contracts/ERC20.sol\":5665:5672  spender */\n      dup5\n        /* \"contracts/ERC20.sol\":5648:5657  allowance */\n      tag_76\n        /* \"contracts/ERC20.sol\":5648:5673  allowance(owner, spender) */\n      jump\t// in\n    tag_132:\n        /* \"contracts/ERC20.sol\":5621:5673  uint256 currentAllowance = allowance(owner, spender) */\n      swap1\n      pop\n      not(0x00)\n        /* \"contracts/ERC20.sol\":5687:5703  currentAllowance */\n      dup2\n        /* \"contracts/ERC20.sol\":5687:5724  currentAllowance != type(uint256).max */\n      eq\n        /* \"contracts/ERC20.sol\":5683:5926  if (currentAllowance != type(uint256).max) {... */\n      tag_137\n      jumpi\n        /* \"contracts/ERC20.sol\":5768:5774  amount */\n      dup2\n        /* \"contracts/ERC20.sol\":5748:5764  currentAllowance */\n      dup2\n        /* \"contracts/ERC20.sol\":5748:5774  currentAllowance >= amount */\n      lt\n      iszero\n        /* \"contracts/ERC20.sol\":5740:5808  require(currentAllowance >= amount, \"ERC20: insufficient allowance\") */\n      tag_134\n      jumpi\n      mload(0x40)\n      shl(0xe5, 0x461bcd)\n      dup2\n      mstore\n        /* \"#utility.yul\":4569:4571   */\n      0x20\n        /* \"contracts/ERC20.sol\":5740:5808  require(currentAllowance >= amount, \"ERC20: insufficient allowance\") */\n      0x04\n      dup3\n      add\n        /* \"#utility.yul\":4551:4572   */\n      mstore\n        /* \"#utility.yul\":4608:4610   */\n      0x1d\n        /* \"#utility.yul\":4588:4606   */\n      0x24\n      dup3\n      add\n        /* \"#utility.yul\":4581:4611   */\n      mstore\n        /* \"#utility.yul\":4647:4678   */\n      0x45524332303a20696e73756666696369656e7420616c6c6f77616e6365000000\n        /* \"#utility.yul\":4627:4645   */\n      0x44\n      dup3\n      add\n        /* \"#utility.yul\":4620:4679   */\n      mstore\n        /* \"#utility.yul\":4696:4714   */\n      0x64\n      add\n        /* \"contracts/ERC20.sol\":5740:5808  require(currentAllowance >= amount, \"ERC20: insufficient allowance\") */\n      tag_116\n        /* \"#utility.yul\":4367:4720   */\n      jump\n        /* \"contracts/ERC20.sol\":5740:5808  require(currentAllowance >= amount, \"ERC20: insufficient allowance\") */\n    tag_134:\n        /* \"contracts/ERC20.sol\":5850:5901  _approve(owner, spender, currentAllowance - amount) */\n      tag_137\n        /* \"contracts/ERC20.sol\":5859:5864  owner */\n      dup5\n        /* \"contracts/ERC20.sol\":5866:5873  spender */\n      dup5\n        /* \"contracts/ERC20.sol\":5894:5900  amount */\n      dup5\n        /* \"contracts/ERC20.sol\":5875:5891  currentAllowance */\n      dup5\n        /* \"contracts/ERC20.sol\":5875:5900  currentAllowance - amount */\n      sub\n        /* \"contracts/ERC20.sol\":5850:5858  _approve */\n      tag_87\n        /* \"contracts/ERC20.sol\":5850:5901  _approve(owner, spender, currentAllowance - amount) */\n      jump\t// in\n    tag_137:\n        /* \"contracts/ERC20.sol\":5611:5932  {... */\n      pop\n        /* \"contracts/ERC20.sol\":5521:5932  function _spendAllowance(address owner, address spender, uint256 amount) internal virtual {... */\n      pop\n      pop\n      pop\n      jump\t// out\n        /* \"contracts/ERC20.sol\":3114:3894  function _transfer(address from, address to, uint256 amount) internal virtual {... */\n    tag_93:\n      sub(shl(0xa0, 0x01), 0x01)\n        /* \"contracts/ERC20.sol\":3210:3228  from != address(0) */\n      dup4\n      and\n        /* \"contracts/ERC20.sol\":3202:3270  require(from != address(0), \"ERC20: transfer from the zero address\") */\n      tag_139\n      jumpi\n      mload(0x40)\n      shl(0xe5, 0x461bcd)\n      dup2\n      mstore\n        /* \"#utility.yul\":4927:4929   */\n      0x20\n        /* \"contracts/ERC20.sol\":3202:3270  require(from != address(0), \"ERC20: transfer from the zero address\") */\n      0x04\n      dup3\n      add\n        /* \"#utility.yul\":4909:4930   */\n      mstore\n        /* \"#utility.yul\":4966:4968   */\n      0x25\n        /* \"#utility.yul\":4946:4964   */\n      0x24\n      dup3\n      add\n        /* \"#utility.yul\":4939:4969   */\n      mstore\n        /* \"#utility.yul\":5005:5039   */\n      0x45524332303a207472616e736665722066726f6d20746865207a65726f206164\n        /* \"#utility.yul\":4985:5003   */\n      0x44\n      dup3\n      add\n        /* \"#utility.yul\":4978:5040   */\n      mstore\n      shl(0xd8, 0x6472657373)\n        /* \"#utility.yul\":5056:5074   */\n      0x64\n      dup3\n      add\n        /* \"#utility.yul\":5049:5084   */\n      mstore\n        /* \"#utility.yul\":5101:5120   */\n      0x84\n      add\n        /* \"contracts/ERC20.sol\":3202:3270  require(from != address(0), \"ERC20: transfer from the zero address\") */\n      tag_116\n        /* \"#utility.yul\":4725:5126   */\n      jump\n        /* \"contracts/ERC20.sol\":3202:3270  require(from != address(0), \"ERC20: transfer from the zero address\") */\n    tag_139:\n      sub(shl(0xa0, 0x01), 0x01)\n        /* \"contracts/ERC20.sol\":3288:3304  to != address(0) */\n      dup3\n      and\n        /* \"contracts/ERC20.sol\":3280:3344  require(to != address(0), \"ERC20: transfer to the zero address\") */\n      tag_142\n      jumpi\n      mload(0x40)\n      shl(0xe5, 0x461bcd)\n      dup2\n      mstore\n        /* \"#utility.yul\":5333:5335   */\n      0x20\n        /* \"contracts/ERC20.sol\":3280:3344  require(to != address(0), \"ERC20: transfer to the zero address\") */\n      0x04\n      dup3\n      add\n        /* \"#utility.yul\":5315:5336   */\n      mstore\n        /* \"#utility.yul\":5372:5374   */\n      0x23\n        /* \"#utility.yul\":5352:5370   */\n      0x24\n      dup3\n      add\n        /* \"#utility.yul\":5345:5375   */\n      mstore\n        /* \"#utility.yul\":5411:5445   */\n      0x45524332303a207472616e7366657220746f20746865207a65726f2061646472\n        /* \"#utility.yul\":5391:5409   */\n      0x44\n      dup3\n      add\n        /* \"#utility.yul\":5384:5446   */\n      mstore\n      shl(0xe8, 0x657373)\n        /* \"#utility.yul\":5462:5480   */\n      0x64\n      dup3\n      add\n        /* \"#utility.yul\":5455:5488   */\n      mstore\n        /* \"#utility.yul\":5505:5524   */\n      0x84\n      add\n        /* \"contracts/ERC20.sol\":3280:3344  require(to != address(0), \"ERC20: transfer to the zero address\") */\n      tag_116\n        /* \"#utility.yul\":5131:5530   */\n      jump\n        /* \"contracts/ERC20.sol\":3280:3344  require(to != address(0), \"ERC20: transfer to the zero address\") */\n    tag_142:\n      sub(shl(0xa0, 0x01), 0x01)\n        /* \"contracts/ERC20.sol\":3426:3441  _balances[from] */\n      dup4\n      and\n        /* \"contracts/ERC20.sol\":3404:3423  uint256 fromBalance */\n      0x00\n        /* \"contracts/ERC20.sol\":3426:3441  _balances[from] */\n      swap1\n      dup2\n      mstore\n      0x20\n      dup2\n      swap1\n      mstore\n      0x40\n      swap1\n      keccak256\n      sload\n        /* \"contracts/ERC20.sol\":3459:3480  fromBalance >= amount */\n      dup2\n      dup2\n      lt\n      iszero\n        /* \"contracts/ERC20.sol\":3451:3523  require(fromBalance >= amount, \"ERC20: transfer amount exceeds balance\") */\n      tag_147\n      jumpi\n      mload(0x40)\n      shl(0xe5, 0x461bcd)\n      dup2\n      mstore\n        /* \"#utility.yul\":5737:5739   */\n      0x20\n        /* \"contracts/ERC20.sol\":3451:3523  require(fromBalance >= amount, \"ERC20: transfer amount exceeds balance\") */\n      0x04\n      dup3\n      add\n        /* \"#utility.yul\":5719:5740   */\n      mstore\n        /* \"#utility.yul\":5776:5778   */\n      0x26\n        /* \"#utility.yul\":5756:5774   */\n      0x24\n      dup3\n      add\n        /* \"#utility.yul\":5749:5779   */\n      mstore\n        /* \"#utility.yul\":5815:5849   */\n      0x45524332303a207472616e7366657220616d6f756e7420657863656564732062\n        /* \"#utility.yul\":5795:5813   */\n      0x44\n      dup3\n      add\n        /* \"#utility.yul\":5788:5850   */\n      mstore\n      shl(0xd0, 0x616c616e6365)\n        /* \"#utility.yul\":5866:5884   */\n      0x64\n      dup3\n      add\n        /* \"#utility.yul\":5859:5895   */\n      mstore\n        /* \"#utility.yul\":5912:5931   */\n      0x84\n      add\n        /* \"contracts/ERC20.sol\":3451:3523  require(fromBalance >= amount, \"ERC20: transfer amount exceeds balance\") */\n      tag_116\n        /* \"#utility.yul\":5535:5937   */\n      jump\n        /* \"contracts/ERC20.sol\":3451:3523  require(fromBalance >= amount, \"ERC20: transfer amount exceeds balance\") */\n    tag_147:\n      sub(shl(0xa0, 0x01), 0x01)\n        /* \"contracts/ERC20.sol\":3557:3572  _balances[from] */\n      dup5\n      dup2\n      and\n        /* \"contracts/ERC20.sol\":3557:3566  _balances */\n      0x00\n        /* \"contracts/ERC20.sol\":3557:3572  _balances[from] */\n      dup2\n      dup2\n      mstore\n      0x20\n      dup2\n      dup2\n      mstore\n      0x40\n      dup1\n      dup4\n      keccak256\n        /* \"contracts/ERC20.sol\":3575:3595  fromBalance - amount */\n      dup8\n      dup8\n      sub\n        /* \"contracts/ERC20.sol\":3557:3595  _balances[from] = fromBalance - amount */\n      swap1\n      sstore\n        /* \"contracts/ERC20.sol\":3764:3777  _balances[to] */\n      swap4\n      dup8\n      and\n      dup1\n      dup4\n      mstore\n      swap2\n      dup5\n      swap1\n      keccak256\n        /* \"contracts/ERC20.sol\":3764:3787  _balances[to] += amount */\n      dup1\n      sload\n      dup8\n      add\n      swap1\n      sstore\n        /* \"contracts/ERC20.sol\":3813:3839  Transfer(from, to, amount) */\n      swap3\n      mload\n        /* \"#utility.yul\":1342:1367   */\n      dup6\n      dup2\n      mstore\n        /* \"contracts/ERC20.sol\":3764:3777  _balances[to] */\n      swap1\n      swap3\n        /* \"contracts/ERC20.sol\":3813:3839  Transfer(from, to, amount) */\n      0xddf252ad1be2c89b69c2b068fc378daa952ba7f163c4a11628f55a4df523b3ef\n      swap2\n        /* \"#utility.yul\":1315:1333   */\n      add\n        /* \"contracts/ERC20.sol\":3813:3839  Transfer(from, to, amount) */\n      mload(0x40)\n      dup1\n      swap2\n      sub\n      swap1\n      log3\n        /* \"contracts/ERC20.sol\":3850:3887  _afterTokenTransfer(from, to, amount) */\n      tag_137\n        /* \"contracts/ERC20.sol\":4514:5169  function _burn(address account, uint256 amount) internal virtual {... */\n      jump\n    tag_102:\n      sub(shl(0xa0, 0x01), 0x01)\n        /* \"contracts/ERC20.sol\":4597:4618  account != address(0) */\n      dup3\n      and\n        /* \"contracts/ERC20.sol\":4589:4656  require(account != address(0), \"ERC20: burn from the zero address\") */\n      tag_154\n      jumpi\n      mload(0x40)\n      shl(0xe5, 0x461bcd)\n      dup2\n      mstore\n        /* \"#utility.yul\":6144:6146   */\n      0x20\n        /* \"contracts/ERC20.sol\":4589:4656  require(account != address(0), \"ERC20: burn from the zero address\") */\n      0x04\n      dup3\n      add\n        /* \"#utility.yul\":6126:6147   */\n      mstore\n        /* \"#utility.yul\":6183:6185   */\n      0x21\n        /* \"#utility.yul\":6163:6181   */\n      0x24\n      dup3\n      add\n        /* \"#utility.yul\":6156:6186   */\n      mstore\n        /* \"#utility.yul\":6222:6256   */\n      0x45524332303a206275726e2066726f6d20746865207a65726f20616464726573\n        /* \"#utility.yul\":6202:6220   */\n      0x44\n      dup3\n      add\n        /* \"#utility.yul\":6195:6257   */\n      mstore\n      shl(0xf8, 0x73)\n        /* \"#utility.yul\":6273:6291   */\n      0x64\n      dup3\n      add\n        /* \"#utility.yul\":6266:6297   */\n      mstore\n        /* \"#utility.yul\":6314:6333   */\n      0x84\n      add\n        /* \"contracts/ERC20.sol\":4589:4656  require(account != address(0), \"ERC20: burn from the zero address\") */\n      tag_116\n        /* \"#utility.yul\":5942:6339   */\n      jump\n        /* \"contracts/ERC20.sol\":4589:4656  require(account != address(0), \"ERC20: burn from the zero address\") */\n    tag_154:\n      sub(shl(0xa0, 0x01), 0x01)\n        /* \"contracts/ERC20.sol\":4752:4770  _balances[account] */\n      dup3\n      and\n        /* \"contracts/ERC20.sol\":4727:4749  uint256 accountBalance */\n      0x00\n        /* \"contracts/ERC20.sol\":4752:4770  _balances[account] */\n      swap1\n      dup2\n      mstore\n      0x20\n      dup2\n      swap1\n      mstore\n      0x40\n      swap1\n      keccak256\n      sload\n        /* \"contracts/ERC20.sol\":4788:4812  accountBalance >= amount */\n      dup2\n      dup2\n      lt\n      iszero\n        /* \"contracts/ERC20.sol\":4780:4851  require(accountBalance >= amount, \"ERC20: burn amount exceeds balance\") */\n      tag_158\n      jumpi\n      mload(0x40)\n      shl(0xe5, 0x461bcd)\n      dup2\n      mstore\n        /* \"#utility.yul\":6546:6548   */\n      0x20\n        /* \"contracts/ERC20.sol\":4780:4851  require(accountBalance >= amount, \"ERC20: burn amount exceeds balance\") */\n      0x04\n      dup3\n      add\n        /* \"#utility.yul\":6528:6549   */\n      mstore\n        /* \"#utility.yul\":6585:6587   */\n      0x22\n        /* \"#utility.yul\":6565:6583   */\n      0x24\n      dup3\n      add\n        /* \"#utility.yul\":6558:6588   */\n      mstore\n        /* \"#utility.yul\":6624:6658   */\n      0x45524332303a206275726e20616d6f756e7420657863656564732062616c616e\n        /* \"#utility.yul\":6604:6622   */\n      0x44\n      dup3\n      add\n        /* \"#utility.yul\":6597:6659   */\n      mstore\n      shl(0xf0, 0x6365)\n        /* \"#utility.yul\":6675:6693   */\n      0x64\n      dup3\n      add\n        /* \"#utility.yul\":6668:6700   */\n      mstore\n        /* \"#utility.yul\":6717:6736   */\n      0x84\n      add\n        /* \"contracts/ERC20.sol\":4780:4851  require(accountBalance >= amount, \"ERC20: burn amount exceeds balance\") */\n      tag_116\n        /* \"#utility.yul\":6344:6742   */\n      jump\n        /* \"contracts/ERC20.sol\":4780:4851  require(accountBalance >= amount, \"ERC20: burn amount exceeds balance\") */\n    tag_158:\n      sub(shl(0xa0, 0x01), 0x01)\n        /* \"contracts/ERC20.sol\":4885:4903  _balances[account] */\n      dup4\n      and\n        /* \"contracts/ERC20.sol\":4885:4894  _balances */\n      0x00\n        /* \"contracts/ERC20.sol\":4885:4903  _balances[account] */\n      dup2\n      dup2\n      mstore\n      0x20\n      dup2\n      dup2\n      mstore\n      0x40\n      dup1\n      dup4\n      keccak256\n        /* \"contracts/ERC20.sol\":4906:4929  accountBalance - amount */\n      dup7\n      dup7\n      sub\n        /* \"contracts/ERC20.sol\":4885:4929  _balances[account] = accountBalance - amount */\n      swap1\n      sstore\n        /* \"contracts/ERC20.sol\":5018:5030  _totalSupply */\n      0x02\n        /* \"contracts/ERC20.sol\":5018:5040  _totalSupply -= amount */\n      dup1\n      sload\n      dup8\n      swap1\n      sub\n      swap1\n      sstore\n        /* \"contracts/ERC20.sol\":5066:5103  Transfer(account, address(0), amount) */\n      mload\n        /* \"#utility.yul\":1342:1367   */\n      dup6\n      dup2\n      mstore\n        /* \"contracts/ERC20.sol\":4885:4894  _balances */\n      swap2\n      swap3\n        /* \"contracts/ERC20.sol\":4885:4903  _balances[account] */\n      swap2\n        /* \"contracts/ERC20.sol\":5066:5103  Transfer(account, address(0), amount) */\n      0xddf252ad1be2c89b69c2b068fc378daa952ba7f163c4a11628f55a4df523b3ef\n      swap2\n        /* \"#utility.yul\":1315:1333   */\n      add\n        /* \"contracts/ERC20.sol\":5066:5103  Transfer(account, address(0), amount) */\n      tag_130\n        /* \"#utility.yul\":1196:1373   */\n      jump\n        /* \"#utility.yul\":14:562   */\n    tag_23:\n        /* \"#utility.yul\":126:130   */\n      0x00\n        /* \"#utility.yul\":155:157   */\n      0x20\n        /* \"#utility.yul\":184:186   */\n      dup1\n        /* \"#utility.yul\":173:182   */\n      dup4\n        /* \"#utility.yul\":166:187   */\n      mstore\n        /* \"#utility.yul\":216:222   */\n      dup4\n        /* \"#utility.yul\":210:223   */\n      mload\n        /* \"#utility.yul\":259:265   */\n      dup1\n        /* \"#utility.yul\":254:256   */\n      0x20\n        /* \"#utility.yul\":243:252   */\n      dup6\n        /* \"#utility.yul\":239:257   */\n      add\n        /* \"#utility.yul\":232:266   */\n      mstore\n        /* \"#utility.yul\":284:285   */\n      0x00\n        /* \"#utility.yul\":294:434   */\n    tag_168:\n        /* \"#utility.yul\":308:314   */\n      dup2\n        /* \"#utility.yul\":305:306   */\n      dup2\n        /* \"#utility.yul\":302:315   */\n      lt\n        /* \"#utility.yul\":294:434   */\n      iszero\n      tag_170\n      jumpi\n        /* \"#utility.yul\":403:417   */\n      dup6\n      dup2\n      add\n        /* \"#utility.yul\":399:422   */\n      dup4\n      add\n        /* \"#utility.yul\":393:423   */\n      mload\n        /* \"#utility.yul\":369:386   */\n      dup6\n      dup3\n      add\n        /* \"#utility.yul\":388:390   */\n      0x40\n        /* \"#utility.yul\":365:391   */\n      add\n        /* \"#utility.yul\":358:424   */\n      mstore\n        /* \"#utility.yul\":323:333   */\n      dup3\n      add\n        /* \"#utility.yul\":294:434   */\n      jump(tag_168)\n    tag_170:\n        /* \"#utility.yul\":298:301   */\n      pop\n        /* \"#utility.yul\":483:484   */\n      0x00\n        /* \"#utility.yul\":478:480   */\n      0x40\n        /* \"#utility.yul\":469:475   */\n      dup3\n        /* \"#utility.yul\":458:467   */\n      dup7\n        /* \"#utility.yul\":454:476   */\n      add\n        /* \"#utility.yul\":450:481   */\n      add\n        /* \"#utility.yul\":443:485   */\n      mstore\n        /* \"#utility.yul\":553:555   */\n      0x40\n        /* \"#utility.yul\":546:548   */\n      0x1f\n        /* \"#utility.yul\":542:549   */\n      not\n        /* \"#utility.yul\":537:539   */\n      0x1f\n        /* \"#utility.yul\":529:535   */\n      dup4\n        /* \"#utility.yul\":525:540   */\n      add\n        /* \"#utility.yul\":521:550   */\n      and\n        /* \"#utility.yul\":510:519   */\n      dup6\n        /* \"#utility.yul\":506:551   */\n      add\n        /* \"#utility.yul\":502:556   */\n      add\n        /* \"#utility.yul\":494:556   */\n      swap3\n      pop\n      pop\n      pop\n        /* \"#utility.yul\":14:562   */\n      swap3\n      swap2\n      pop\n      pop\n      jump\t// out\n        /* \"#utility.yul\":567:740   */\n    tag_165:\n        /* \"#utility.yul\":635:655   */\n      dup1\n      calldataload\n      sub(shl(0xa0, 0x01), 0x01)\n        /* \"#utility.yul\":684:715   */\n      dup2\n      and\n        /* \"#utility.yul\":674:716   */\n      dup2\n      eq\n        /* \"#utility.yul\":664:734   */\n      tag_172\n      jumpi\n        /* \"#utility.yul\":730:731   */\n      0x00\n        /* \"#utility.yul\":727:728   */\n      dup1\n        /* \"#utility.yul\":720:732   */\n      revert\n        /* \"#utility.yul\":664:734   */\n    tag_172:\n        /* \"#utility.yul\":567:740   */\n      swap2\n      swap1\n      pop\n      jump\t// out\n        /* \"#utility.yul\":745:999   */\n    tag_26:\n        /* \"#utility.yul\":813:819   */\n      0x00\n        /* \"#utility.yul\":821:827   */\n      dup1\n        /* \"#utility.yul\":874:876   */\n      0x40\n        /* \"#utility.yul\":862:871   */\n      dup4\n        /* \"#utility.yul\":853:860   */\n      dup6\n        /* \"#utility.yul\":849:872   */\n      sub\n        /* \"#utility.yul\":845:877   */\n      slt\n        /* \"#utility.yul\":842:894   */\n      iszero\n      tag_174\n      jumpi\n        /* \"#utility.yul\":890:891   */\n      0x00\n        /* \"#utility.yul\":887:888   */\n      dup1\n        /* \"#utility.yul\":880:892   */\n      revert\n        /* \"#utility.yul\":842:894   */\n    tag_174:\n        /* \"#utility.yul\":913:942   */\n      tag_175\n        /* \"#utility.yul\":932:941   */\n      dup4\n        /* \"#utility.yul\":913:942   */\n      tag_165\n      jump\t// in\n    tag_175:\n        /* \"#utility.yul\":903:942   */\n      swap5\n        /* \"#utility.yul\":989:991   */\n      0x20\n        /* \"#utility.yul\":974:992   */\n      swap4\n      swap1\n      swap4\n      add\n        /* \"#utility.yul\":961:993   */\n      calldataload\n      swap4\n      pop\n      pop\n      pop\n        /* \"#utility.yul\":745:999   */\n      jump\t// out\n        /* \"#utility.yul\":1378:1706   */\n    tag_36:\n        /* \"#utility.yul\":1455:1461   */\n      0x00\n        /* \"#utility.yul\":1463:1469   */\n      dup1\n        /* \"#utility.yul\":1471:1477   */\n      0x00\n        /* \"#utility.yul\":1524:1526   */\n      0x60\n        /* \"#utility.yul\":1512:1521   */\n      dup5\n        /* \"#utility.yul\":1503:1510   */\n      dup7\n        /* \"#utility.yul\":1499:1522   */\n      sub\n        /* \"#utility.yul\":1495:1527   */\n      slt\n        /* \"#utility.yul\":1492:1544   */\n      iszero\n      tag_179\n      jumpi\n        /* \"#utility.yul\":1540:1541   */\n      0x00\n        /* \"#utility.yul\":1537:1538   */\n      dup1\n        /* \"#utility.yul\":1530:1542   */\n      revert\n        /* \"#utility.yul\":1492:1544   */\n    tag_179:\n        /* \"#utility.yul\":1563:1592   */\n      tag_180\n        /* \"#utility.yul\":1582:1591   */\n      dup5\n        /* \"#utility.yul\":1563:1592   */\n      tag_165\n      jump\t// in\n    tag_180:\n        /* \"#utility.yul\":1553:1592   */\n      swap3\n      pop\n        /* \"#utility.yul\":1611:1649   */\n      tag_181\n        /* \"#utility.yul\":1645:1647   */\n      0x20\n        /* \"#utility.yul\":1634:1643   */\n      dup6\n        /* \"#utility.yul\":1630:1648   */\n      add\n        /* \"#utility.yul\":1611:1649   */\n      tag_165\n      jump\t// in\n    tag_181:\n        /* \"#utility.yul\":1601:1649   */\n      swap2\n      pop\n        /* \"#utility.yul\":1696:1698   */\n      0x40\n        /* \"#utility.yul\":1685:1694   */\n      dup5\n        /* \"#utility.yul\":1681:1699   */\n      add\n        /* \"#utility.yul\":1668:1700   */\n      calldataload\n        /* \"#utility.yul\":1658:1700   */\n      swap1\n      pop\n        /* \"#utility.yul\":1378:1706   */\n      swap3\n      pop\n      swap3\n      pop\n      swap3\n      jump\t// out\n        /* \"#utility.yul\":1900:2080   */\n    tag_49:\n        /* \"#utility.yul\":1959:1965   */\n      0x00\n        /* \"#utility.yul\":2012:2014   */\n      0x20\n        /* \"#utility.yul\":2000:2009   */\n      dup3\n        /* \"#utility.yul\":1991:1998   */\n      dup5\n        /* \"#utility.yul\":1987:2010   */\n      sub\n        /* \"#utility.yul\":1983:2015   */\n      slt\n        /* \"#utility.yul\":1980:2032   */\n      iszero\n      tag_184\n      jumpi\n        /* \"#utility.yul\":2028:2029   */\n      0x00\n        /* \"#utility.yul\":2025:2026   */\n      dup1\n        /* \"#utility.yul\":2018:2030   */\n      revert\n        /* \"#utility.yul\":1980:2032   */\n    tag_184:\n      pop\n        /* \"#utility.yul\":2051:2074   */\n      calldataload\n      swap2\n        /* \"#utility.yul\":1900:2080   */\n      swap1\n      pop\n      jump\t// out\n        /* \"#utility.yul\":2085:2271   */\n    tag_53:\n        /* \"#utility.yul\":2144:2150   */\n      0x00\n        /* \"#utility.yul\":2197:2199   */\n      0x20\n        /* \"#utility.yul\":2185:2194   */\n      dup3\n        /* \"#utility.yul\":2176:2183   */\n      dup5\n        /* \"#utility.yul\":2172:2195   */\n      sub\n        /* \"#utility.yul\":2168:2200   */\n      slt\n        /* \"#utility.yul\":2165:2217   */\n      iszero\n      tag_186\n      jumpi\n        /* \"#utility.yul\":2213:2214   */\n      0x00\n        /* \"#utility.yul\":2210:2211   */\n      dup1\n        /* \"#utility.yul\":2203:2215   */\n      revert\n        /* \"#utility.yul\":2165:2217   */\n    tag_186:\n        /* \"#utility.yul\":2236:2265   */\n      tag_187\n        /* \"#utility.yul\":2255:2264   */\n      dup3\n        /* \"#utility.yul\":2236:2265   */\n      tag_165\n      jump\t// in\n    tag_187:\n        /* \"#utility.yul\":2226:2265   */\n      swap4\n        /* \"#utility.yul\":2085:2271   */\n      swap3\n      pop\n      pop\n      pop\n      jump\t// out\n        /* \"#utility.yul\":2276:2536   */\n    tag_75:\n        /* \"#utility.yul\":2344:2350   */\n      0x00\n        /* \"#utility.yul\":2352:2358   */\n      dup1\n        /* \"#utility.yul\":2405:2407   */\n      0x40\n        /* \"#utility.yul\":2393:2402   */\n      dup4\n        /* \"#utility.yul\":2384:2391   */\n      dup6\n        /* \"#utility.yul\":2380:2403   */\n      sub\n        /* \"#utility.yul\":2376:2408   */\n      slt\n        /* \"#utility.yul\":2373:2425   */\n      iszero\n      tag_189\n      jumpi\n        /* \"#utility.yul\":2421:2422   */\n      0x00\n        /* \"#utility.yul\":2418:2419   */\n      dup1\n        /* \"#utility.yul\":2411:2423   */\n      revert\n        /* \"#utility.yul\":2373:2425   */\n    tag_189:\n        /* \"#utility.yul\":2444:2473   */\n      tag_190\n        /* \"#utility.yul\":2463:2472   */\n      dup4\n        /* \"#utility.yul\":2444:2473   */\n      tag_165\n      jump\t// in\n    tag_190:\n        /* \"#utility.yul\":2434:2473   */\n      swap2\n      pop\n        /* \"#utility.yul\":2492:2530   */\n      tag_191\n        /* \"#utility.yul\":2526:2528   */\n      0x20\n        /* \"#utility.yul\":2515:2524   */\n      dup5\n        /* \"#utility.yul\":2511:2529   */\n      add\n        /* \"#utility.yul\":2492:2530   */\n      tag_165\n      jump\t// in\n    tag_191:\n        /* \"#utility.yul\":2482:2530   */\n      swap1\n      pop\n        /* \"#utility.yul\":2276:2536   */\n      swap3\n      pop\n      swap3\n      swap1\n      pop\n      jump\t// out\n        /* \"#utility.yul\":2541:2921   */\n    tag_80:\n        /* \"#utility.yul\":2620:2621   */\n      0x01\n        /* \"#utility.yul\":2616:2628   */\n      dup2\n      dup2\n      shr\n      swap1\n        /* \"#utility.yul\":2663:2675   */\n      dup3\n      and\n      dup1\n        /* \"#utility.yul\":2684:2745   */\n      tag_193\n      jumpi\n        /* \"#utility.yul\":2738:2742   */\n      0x7f\n        /* \"#utility.yul\":2730:2736   */\n      dup3\n        /* \"#utility.yul\":2726:2743   */\n      and\n        /* \"#utility.yul\":2716:2743   */\n      swap2\n      pop\n        /* \"#utility.yul\":2684:2745   */\n    tag_193:\n        /* \"#utility.yul\":2791:2793   */\n      0x20\n        /* \"#utility.yul\":2783:2789   */\n      dup3\n        /* \"#utility.yul\":2780:2794   */\n      lt\n        /* \"#utility.yul\":2760:2778   */\n      dup2\n        /* \"#utility.yul\":2757:2795   */\n      sub\n        /* \"#utility.yul\":2754:2915   */\n      tag_194\n      jumpi\n        /* \"#utility.yul\":2837:2847   */\n      0x4e487b71\n        /* \"#utility.yul\":2832:2835   */\n      0xe0\n        /* \"#utility.yul\":2828:2848   */\n      shl\n        /* \"#utility.yul\":2825:2826   */\n      0x00\n        /* \"#utility.yul\":2818:2849   */\n      mstore\n        /* \"#utility.yul\":2872:2876   */\n      0x22\n        /* \"#utility.yul\":2869:2870   */\n      0x04\n        /* \"#utility.yul\":2862:2877   */\n      mstore\n        /* \"#utility.yul\":2900:2904   */\n      0x24\n        /* \"#utility.yul\":2897:2898   */\n      0x00\n        /* \"#utility.yul\":2890:2905   */\n      revert\n        /* \"#utility.yul\":2754:2915   */\n    tag_194:\n      pop\n        /* \"#utility.yul\":2541:2921   */\n      swap2\n      swap1\n      pop\n      jump\t// out\n        /* \"#utility.yul\":2926:3148   */\n    tag_99:\n        /* \"#utility.yul\":2991:3000   */\n      dup1\n      dup3\n      add\n        /* \"#utility.yul\":3012:3022   */\n      dup1\n      dup3\n      gt\n        /* \"#utility.yul\":3009:3142   */\n      iszero\n      tag_85\n      jumpi\n        /* \"#utility.yul\":3064:3074   */\n      0x4e487b71\n        /* \"#utility.yul\":3059:3062   */\n      0xe0\n        /* \"#utility.yul\":3055:3075   */\n      shl\n        /* \"#utility.yul\":3052:3053   */\n      0x00\n        /* \"#utility.yul\":3045:3076   */\n      mstore\n        /* \"#utility.yul\":3099:3103   */\n      0x11\n        /* \"#utility.yul\":3096:3097   */\n      0x04\n        /* \"#utility.yul\":3089:3104   */\n      mstore\n        /* \"#utility.yul\":3127:3131   */\n      0x24\n        /* \"#utility.yul\":3124:3125   */\n      0x00\n        /* \"#utility.yul\":3117:3132   */\n      revert\n\n    auxdata: 0xa2646970667358221220a56be57f57e76a1676d85dc795ad21ac057b4b2160fd2a6c843b8ceec4bec7fb64736f6c63430008180033\n}\n",
				"bytecode": {
					"linkReferences": {},
					"object": "608060405234801561000f575f80fd5b50610a108061001d5f395ff3fe608060405234801561000f575f80fd5b50600436106100e5575f3560e01c806370a0823111610088578063a457c2d711610063578063a457c2d7146101cf578063a9059cbb146101e2578063d5abeb01146101f5578063dd62ed3e146101fd575f80fd5b806370a082311461018c57806379cc6790146101b457806395d89b41146101c7575f80fd5b806323b872dd116100c357806323b872dd1461013c578063313ce5671461014f578063395093511461016457806342966c6814610177575f80fd5b806306fdde03146100e9578063095ea7b31461010757806318160ddd1461012a575b5f80fd5b6100f1610210565b6040516100fe9190610853565b60405180910390f35b61011a6101153660046108ba565b6102a0565b60405190151581526020016100fe565b6002545b6040519081526020016100fe565b61011a61014a3660046108e2565b6102b6565b60065460405160ff90911681526020016100fe565b61011a6101723660046108ba565b6102d7565b61018a61018536600461091b565b6102f8565b005b61012e61019a366004610932565b6001600160a01b03165f9081526020819052604090205490565b61018a6101c23660046108ba565b610305565b6100f161031e565b61011a6101dd3660046108ba565b61032d565b61011a6101f03660046108ba565b6103b7565b60035461012e565b61012e61020b366004610952565b6103c3565b60606004805461021f90610983565b80601f016020809104026020016040519081016040528092919081815260200182805461024b90610983565b80156102965780601f1061026d57610100808354040283529160200191610296565b820191905f5260205f20905b81548152906001019060200180831161027957829003601f168201915b5050505050905090565b5f6102ac3384846103ed565b5060015b92915050565b5f6102c2843384610511565b6102cd848484610589565b5060019392505050565b5f336102cd8185856102e983836103c3565b6102f391906109bb565b6103ed565b610302338261072b565b50565b610310823383610511565b61031a828261072b565b5050565b60606005805461021f90610983565b5f338161033a82866103c3565b90508381101561039f5760405162461bcd60e51b815260206004820152602560248201527f45524332303a2064656372656173656420616c6c6f77616e63652062656c6f77604482015264207a65726f60d81b60648201526084015b60405180910390fd5b6103ac82868684036103ed565b506001949350505050565b5f6102ac338484610589565b6001600160a01b039182165f90815260016020908152604080832093909416825291909152205490565b6001600160a01b03831661044f5760405162461bcd60e51b8152602060048201526024808201527f45524332303a20617070726f76652066726f6d20746865207a65726f206164646044820152637265737360e01b6064820152608401610396565b6001600160a01b0382166104b05760405162461bcd60e51b815260206004820152602260248201527f45524332303a20617070726f766520746f20746865207a65726f206164647265604482015261737360f01b6064820152608401610396565b6001600160a01b038381165f8181526001602090815260408083209487168084529482529182902085905590518481527f8c5be1e5ebec7d5bd14f71427d1e84f3dd0314c0f7b2291e5b200ac8c7c3b92591015b60405180910390a3505050565b5f61051c84846103c3565b90505f19811461058357818110156105765760405162461bcd60e51b815260206004820152601d60248201527f45524332303a20696e73756666696369656e7420616c6c6f77616e63650000006044820152606401610396565b61058384848484036103ed565b50505050565b6001600160a01b0383166105ed5760405162461bcd60e51b815260206004820152602560248201527f45524332303a207472616e736665722066726f6d20746865207a65726f206164604482015264647265737360d81b6064820152608401610396565b6001600160a01b03821661064f5760405162461bcd60e51b815260206004820152602360248201527f45524332303a207472616e7366657220746f20746865207a65726f206164647260448201526265737360e81b6064820152608401610396565b6001600160a01b0383165f90815260208190526040902054818110156106c65760405162461bcd60e51b815260206004820152602660248201527f45524332303a207472616e7366657220616d6f756e7420657863656564732062604482015265616c616e636560d01b6064820152608401610396565b6001600160a01b038481165f81815260208181526040808320878703905593871680835291849020805487019055925185815290927fddf252ad1be2c89b69c2b068fc378daa952ba7f163c4a11628f55a4df523b3ef910160405180910390a3610583565b6001600160a01b03821661078b5760405162461bcd60e51b815260206004820152602160248201527f45524332303a206275726e2066726f6d20746865207a65726f206164647265736044820152607360f81b6064820152608401610396565b6001600160a01b0382165f90815260208190526040902054818110156107fe5760405162461bcd60e51b815260206004820152602260248201527f45524332303a206275726e20616d6f756e7420657863656564732062616c616e604482015261636560f01b6064820152608401610396565b6001600160a01b0383165f818152602081815260408083208686039055600280548790039055518581529192917fddf252ad1be2c89b69c2b068fc378daa952ba7f163c4a11628f55a4df523b3ef9101610504565b5f602080835283518060208501525f5b8181101561087f57858101830151858201604001528201610863565b505f604082860101526040601f19601f8301168501019250505092915050565b80356001600160a01b03811681146108b5575f80fd5b919050565b5f80604083850312156108cb575f80fd5b6108d48361089f565b946020939093013593505050565b5f805f606084860312156108f4575f80fd5b6108fd8461089f565b925061090b6020850161089f565b9150604084013590509250925092565b5f6020828403121561092b575f80fd5b5035919050565b5f60208284031215610942575f80fd5b61094b8261089f565b9392505050565b5f8060408385031215610963575f80fd5b61096c8361089f565b915061097a6020840161089f565b90509250929050565b600181811c9082168061099757607f821691505b6020821081036109b557634e487b7160e01b5f52602260045260245ffd5b50919050565b808201808211156102b057634e487b7160e01b5f52601160045260245ffdfea2646970667358221220a56be57f57e76a1676d85dc795ad21ac057b4b2160fd2a6c843b8ceec4bec7fb64736f6c63430008180033",
					"opcodes": "PUSH1 0x80 PUSH1 0x40 MSTORE CALLVALUE DUP1 ISZERO PUSH2 0xF JUMPI PUSH0 DUP1 REVERT JUMPDEST POP PUSH2 0xA10 DUP1 PUSH2 0x1D PUSH0 CODECOPY PUSH0 RETURN INVALID PUSH1 0x80 PUSH1 0x40 MSTORE CALLVALUE DUP1 ISZERO PUSH2 0xF JUMPI PUSH0 DUP1 REVERT JUMPDEST POP PUSH1 0x4 CALLDATASIZE LT PUSH2 0xE5 JUMPI PUSH0 CALLDATALOAD PUSH1 0xE0 SHR DUP1 PUSH4 0x70A08231 GT PUSH2 0x88 JUMPI DUP1 PUSH4 0xA457C2D7 GT PUSH2 0x63 JUMPI DUP1 PUSH4 0xA457C2D7 EQ PUSH2 0x1CF JUMPI DUP1 PUSH4 0xA9059CBB EQ PUSH2 0x1E2 JUMPI DUP1 PUSH4 0xD5ABEB01 EQ PUSH2 0x1F5 JUMPI DUP1 PUSH4 0xDD62ED3E EQ PUSH2 0x1FD JUMPI PUSH0 DUP1 REVERT JUMPDEST DUP1 PUSH4 0x70A08231 EQ PUSH2 0x18C JUMPI DUP1 PUSH4 0x79CC6790 EQ PUSH2 0x1B4 JUMPI DUP1 PUSH4 0x95D89B41 EQ PUSH2 0x1C7 JUMPI PUSH0 DUP1 REVERT JUMPDEST DUP1 PUSH4 0x23B872DD GT PUSH2 0xC3 JUMPI DUP1 PUSH4 0x23B872DD EQ PUSH2 0x13C JUMPI DUP1 PUSH4 0x313CE567 EQ PUSH2 0x14F JUMPI DUP1 PUSH4 0x39509351 EQ PUSH2 0x164 JUMPI DUP1 PUSH4 0x42966C68 EQ PUSH2 0x177 JUMPI PUSH0 DUP1 REVERT JUMPDEST DUP1 PUSH4 0x6FDDE03 EQ PUSH2 0xE9 JUMPI DUP1 PUSH4 0x95EA7B3 EQ PUSH2 0x107 JUMPI DUP1 PUSH4 0x18160DDD EQ PUSH2 0x12A JUMPI JUMPDEST PUSH0 DUP1 REVERT JUMPDEST PUSH2 0xF1 PUSH2 0x210 JUMP JUMPDEST PUSH1 0x40 MLOAD PUSH2 0xFE SWAP2 SWAP1 PUSH2 0x853 JUMP JUMPDEST PUSH1 0x40 MLOAD DUP1 SWAP2 SUB SWAP1 RETURN JUMPDEST PUSH2 0x11A PUSH2 0x115 CALLDATASIZE PUSH1 0x4 PUSH2 0x8BA JUMP JUMPDEST PUSH2 0x2A0 JUMP JUMPDEST PUSH1 0x40 MLOAD SWAP1 ISZERO ISZERO DUP2 MSTORE PUSH1 0x20 ADD PUSH2 0xFE JUMP JUMPDEST PUSH1 0x2 SLOAD JUMPDEST PUSH1 0x40 MLOAD SWAP1 DUP2 MSTORE PUSH1 0x20 ADD PUSH2 0xFE JUMP JUMPDEST PUSH2 0x11A PUSH2 0x14A CALLDATASIZE PUSH1 0x4 PUSH2 0x8E2 JUMP JUMPDEST PUSH2 0x2B6 JUMP JUMPDEST PUSH1 0x6 SLOAD PUSH1 0x40 MLOAD PUSH1 0xFF SWAP1 SWAP2 AND DUP2 MSTORE PUSH1 0x20 ADD PUSH2 0xFE JUMP JUMPDEST PUSH2 0x11A PUSH2 0x172 CALLDATASIZE PUSH1 0x4 PUSH2 0x8BA JUMP JUMPDEST PUSH2 0x2D7 JUMP JUMPDEST PUSH2 0x18A PUSH2 0x185 CALLDATASIZE PUSH1 0x4 PUSH2 0x91B JUMP JUMPDEST PUSH2 0x2F8 JUMP JUMPDEST STOP JUMPDEST PUSH2 0x12E PUSH2 0x19A CALLDATASIZE PUSH1 0x4 PUSH2 0x932 JUMP JUMPDEST PUSH1 0x1 PUSH1 0x1 PUSH1 0xA0 SHL SUB AND PUSH0 SWAP1 DUP2 MSTORE PUSH1 0x20 DUP2 SWAP1 MSTORE PUSH1 0x40 SWAP1 KECCAK256 SLOAD SWAP1 JUMP JUMPDEST PUSH2 0x18A PUSH2 0x1C2 CALLDATASIZE PUSH1 0x4 PUSH2 0x8BA JUMP JUMPDEST PUSH2 0x305 JUMP JUMPDEST PUSH2 0xF1 PUSH2 0x31E JUMP JUMPDEST PUSH2 0x11A PUSH2 0x1DD CALLDATASIZE PUSH1 0x4 PUSH2 0x8BA JUMP JUMPDEST PUSH2 0x32D JUMP JUMPDEST PUSH2 0x11A PUSH2 0x1F0 CALLDATASIZE PUSH1 0x4 PUSH2 0x8BA JUMP JUMPDEST PUSH2 0x3B7 JUMP JUMPDEST PUSH1 0x3 SLOAD PUSH2 0x12E JUMP JUMPDEST PUSH2 0x12E PUSH2 0x20B CALLDATASIZE PUSH1 0x4 PUSH2 0x952 JUMP JUMPDEST PUSH2 0x3C3 JUMP JUMPDEST PUSH1 0x60 PUSH1 0x4 DUP1 SLOAD PUSH2 0x21F SWAP1 PUSH2 0x983 JUMP JUMPDEST DUP1 PUSH1 0x1F ADD PUSH1 0x20 DUP1 SWAP2 DIV MUL PUSH1 0x20 ADD PUSH1 0x40 MLOAD SWAP1 DUP2 ADD PUSH1 0x40 MSTORE DUP1 SWAP3 SWAP2 SWAP1 DUP2 DUP2 MSTORE PUSH1 0x20 ADD DUP3 DUP1 SLOAD PUSH2 0x24B SWAP1 PUSH2 0x983 JUMP JUMPDEST DUP1 ISZERO PUSH2 0x296 JUMPI DUP1 PUSH1 0x1F LT PUSH2 0x26D JUMPI PUSH2 0x100 DUP1 DUP4 SLOAD DIV MUL DUP4 MSTORE SWAP2 PUSH1 0x20 ADD SWAP2 PUSH2 0x296 JUMP JUMPDEST DUP3 ADD SWAP2 SWAP1 PUSH0 MSTORE PUSH1 0x20 PUSH0 KECCAK256 SWAP1 JUMPDEST DUP2 SLOAD DUP2 MSTORE SWAP1 PUSH1 0x1 ADD SWAP1 PUSH1 0x20 ADD DUP1 DUP4 GT PUSH2 0x279 JUMPI DUP3 SWAP1 SUB PUSH1 0x1F AND DUP3 ADD SWAP2 JUMPDEST POP POP POP POP POP SWAP1 POP SWAP1 JUMP JUMPDEST PUSH0 PUSH2 0x2AC CALLER DUP5 DUP5 PUSH2 0x3ED JUMP JUMPDEST POP PUSH1 0x1 JUMPDEST SWAP3 SWAP2 POP POP JUMP JUMPDEST PUSH0 PUSH2 0x2C2 DUP5 CALLER DUP5 PUSH2 0x511 JUMP JUMPDEST PUSH2 0x2CD DUP5 DUP5 DUP5 PUSH2 0x589 JUMP JUMPDEST POP PUSH1 0x1 SWAP4 SWAP3 POP POP POP JUMP JUMPDEST PUSH0 CALLER PUSH2 0x2CD DUP2 DUP6 DUP6 PUSH2 0x2E9 DUP4 DUP4 PUSH2 0x3C3 JUMP JUMPDEST PUSH2 0x2F3 SWAP2 SWAP1 PUSH2 0x9BB JUMP JUMPDEST PUSH2 0x3ED JUMP JUMPDEST PUSH2 0x302 CALLER DUP3 PUSH2 0x72B JUMP JUMPDEST POP JUMP JUMPDEST PUSH2 0x310 DUP3 CALLER DUP4 PUSH2 0x511 JUMP JUMPDEST PUSH2 0x31A DUP3 DUP3 PUSH2 0x72B JUMP JUMPDEST POP POP JUMP JUMPDEST PUSH1 0x60 PUSH1 0x5 DUP1 SLOAD PUSH2 0x21F SWAP1 PUSH2 0x983 JUMP JUMPDEST PUSH0 CALLER DUP2 PUSH2 0x33A DUP3 DUP7 PUSH2 0x3C3 JUMP JUMPDEST SWAP1 POP DUP4 DUP2 LT ISZERO PUSH2 0x39F JUMPI PUSH1 0x40 MLOAD PUSH3 0x461BCD PUSH1 0xE5 SHL DUP2 MSTORE PUSH1 0x20 PUSH1 0x4 DUP3 ADD MSTORE PUSH1 0x25 PUSH1 0x24 DUP3 ADD MSTORE PUSH32 0x45524332303A2064656372656173656420616C6C6F77616E63652062656C6F77 PUSH1 0x44 DUP3 ADD MSTORE PUSH5 0x207A65726F PUSH1 0xD8 SHL PUSH1 0x64 DUP3 ADD MSTORE PUSH1 0x84 ADD JUMPDEST PUSH1 0x40 MLOAD DUP1 SWAP2 SUB SWAP1 REVERT JUMPDEST PUSH2 0x3AC DUP3 DUP7 DUP7 DUP5 SUB PUSH2 0x3ED JUMP JUMPDEST POP PUSH1 0x1 SWAP5 SWAP4 POP POP POP POP JUMP JUMPDEST PUSH0 PUSH2 0x2AC CALLER DUP5 DUP5 PUSH2 0x589 JUMP JUMPDEST PUSH1 0x1 PUSH1 0x1 PUSH1 0xA0 SHL SUB SWAP2 DUP3 AND PUSH0 SWAP1 DUP2 MSTORE PUSH1 0x1 PUSH1 0x20 SWAP1 DUP2 MSTORE PUSH1 0x40 DUP1 DUP4 KECCAK256 SWAP4 SWAP1 SWAP5 AND DUP3 MSTORE SWAP2 SWAP1 SWAP2 MSTORE KECCAK256 SLOAD SWAP1 JUMP JUMPDEST PUSH1 0x1 PUSH1 0x1 PUSH1 0xA0 SHL SUB DUP4 AND PUSH2 0x44F JUMPI PUSH1 0x40 MLOAD PUSH3 0x461BCD PUSH1 0xE5 SHL DUP2 MSTORE PUSH1 0x20 PUSH1 0x4 DUP3 ADD MSTORE PUSH1 0x24 DUP1 DUP3 ADD MSTORE PUSH32 0x45524332303A20617070726F76652066726F6D20746865207A65726F20616464 PUSH1 0x44 DUP3 ADD MSTORE PUSH4 0x72657373 PUSH1 0xE0 SHL PUSH1 0x64 DUP3 ADD MSTORE PUSH1 0x84 ADD PUSH2 0x396 JUMP JUMPDEST PUSH1 0x1 PUSH1 0x1 PUSH1 0xA0 SHL SUB DUP3 AND PUSH2 0x4B0 JUMPI PUSH1 0x40 MLOAD PUSH3 0x461BCD PUSH1 0xE5 SHL DUP2 MSTORE PUSH1 0x20 PUSH1 0x4 DUP3 ADD MSTORE PUSH1 0x22 PUSH1 0x24 DUP3 ADD MSTORE PUSH32 0x45524332303A20617070726F766520746F20746865207A65726F206164647265 PUSH1 0x44 DUP3 ADD MSTORE PUSH2 0x7373 PUSH1 0xF0 SHL PUSH1 0x64 DUP3 ADD MSTORE PUSH1 0x84 ADD PUSH2 0x396 JUMP JUMPDEST PUSH1 0x1 PUSH1 0x1 PUSH1 0xA0 SHL SUB DUP4 DUP2 AND PUSH0 DUP2 DUP2 MSTORE PUSH1 0x1 PUSH1 0x20 SWAP1 DUP2 MSTORE PUSH1 0x40 DUP1 DUP4 KECCAK256 SWAP5 DUP8 AND DUP1 DUP5 MSTORE SWAP5 DUP3 MSTORE SWAP2 DUP3 SWAP1 KECCAK256 DUP6 SWAP1 SSTORE SWAP1 MLOAD DUP5 DUP2 MSTORE PUSH32 0x8C5BE1E5EBEC7D5BD14F71427D1E84F3DD0314C0F7B2291E5B200AC8C7C3B925 SWAP2 ADD JUMPDEST PUSH1 0x40 MLOAD DUP1 SWAP2 SUB SWAP1 LOG3 POP POP POP JUMP JUMPDEST PUSH0 PUSH2 0x51C DUP5 DUP5 PUSH2 0x3C3 JUMP JUMPDEST SWAP1 POP PUSH0 NOT DUP2 EQ PUSH2 0x583 JUMPI DUP2 DUP2 LT ISZERO PUSH2 0x576 JUMPI PUSH1 0x40 MLOAD PUSH3 0x461BCD PUSH1 0xE5 SHL DUP2 MSTORE PUSH1 0x20 PUSH1 0x4 DUP3 ADD MSTORE PUSH1 0x1D PUSH1 0x24 DUP3 ADD MSTORE PUSH32 0x45524332303A20696E73756666696369656E7420616C6C6F77616E6365000000 PUSH1 0x44 DUP3 ADD MSTORE PUSH1 0x64 ADD PUSH2 0x396 JUMP JUMPDEST PUSH2 0x583 DUP5 DUP5 DUP5 DUP5 SUB PUSH2 0x3ED JUMP JUMPDEST POP POP POP POP JUMP JUMPDEST PUSH1 0x1 PUSH1 0x1 PUSH1 0xA0 SHL SUB DUP4 AND PUSH2 0x5ED JUMPI PUSH1 0x40 MLOAD PUSH3 0x461BCD PUSH1 0xE5 SHL DUP2 MSTORE PUSH1 0x20 PUSH1 0x4 DUP3 ADD MSTORE PUSH1 0x25 PUSH1 0x24 DUP3 ADD MSTORE PUSH32 0x45524332303A207472616E736665722066726F6D20746865207A65726F206164 PUSH1 0x44 DUP3 ADD MSTORE PUSH5 0x6472657373 PUSH1 0xD8 SHL PUSH1 0x64 DUP3 ADD MSTORE PUSH1 0x84 ADD PUSH2 0x396 JUMP JUMPDEST PUSH1 0x1 PUSH1 0x1 PUSH1 0xA0 SHL SUB DUP3 AND PUSH2 0x64F JUMPI PUSH1 0x40 MLOAD PUSH3 0x461BCD PUSH1 0xE5 SHL DUP2 MSTORE PUSH1 0x20 PUSH1 0x4 DUP3 ADD MSTORE PUSH1 0x23 PUSH1 0x24 DUP3 ADD MSTORE PUSH32 0x45524332303A207472616E7366657220746F20746865207A65726F2061646472 PUSH1 0x44 DUP3 ADD MSTORE PUSH3 0x657373 PUSH1 0xE8 SHL PUSH1 0x64 DUP3 ADD MSTORE PUSH1 0x84 ADD PUSH2 0x396 JUMP JUMPDEST PUSH1 0x1 PUSH1 0x1 PUSH1 0xA0 SHL SUB DUP4 AND PUSH0 SWAP1 DUP2 MSTORE PUSH1 0x20 DUP2 SWAP1 MSTORE PUSH1 0x40 SWAP1 KECCAK256 SLOAD DUP2 DUP2 LT ISZERO PUSH2 0x6C6 JUMPI PUSH1 0x40 MLOAD PUSH3 0x461BCD PUSH1 0xE5 SHL DUP2 MSTORE PUSH1 0x20 PUSH1 0x4 DUP3 ADD MSTORE PUSH1 0x26 PUSH1 0x24 DUP3 ADD MSTORE PUSH32 0x45524332303A207472616E7366657220616D6F756E7420657863656564732062 PUSH1 0x44 DUP3 ADD MSTORE PUSH6 0x616C616E6365 PUSH1 0xD0 SHL PUSH1 0x64 DUP3 ADD MSTORE PUSH1 0x84 ADD PUSH2 0x396 JUMP JUMPDEST PUSH1 0x1 PUSH1 0x1 PUSH1 0xA0 SHL SUB DUP5 DUP2 AND PUSH0 DUP2 DUP2 MSTORE PUSH1 0x20 DUP2 DUP2 MSTORE PUSH1 0x40 DUP1 DUP4 KECCAK256 DUP8 DUP8 SUB SWAP1 SSTORE SWAP4 DUP8 AND DUP1 DUP4 MSTORE SWAP2 DUP5 SWAP1 KECCAK256 DUP1 SLOAD DUP8 ADD SWAP1 SSTORE SWAP3 MLOAD DUP6 DUP2 MSTORE SWAP1 SWAP3 PUSH32 0xDDF252AD1BE2C89B69C2B068FC378DAA952BA7F163C4A11628F55A4DF523B3EF SWAP2 ADD PUSH1 0x40 MLOAD DUP1 SWAP2 SUB SWAP1 LOG3 PUSH2 0x583 JUMP JUMPDEST PUSH1 0x1 PUSH1 0x1 PUSH1 0xA0 SHL SUB DUP3 AND PUSH2 0x78B JUMPI PUSH1 0x40 MLOAD PUSH3 0x461BCD PUSH1 0xE5 SHL DUP2 MSTORE PUSH1 0x20 PUSH1 0x4 DUP3 ADD MSTORE PUSH1 0x21 PUSH1 0x24 DUP3 ADD MSTORE PUSH32 0x45524332303A206275726E2066726F6D20746865207A65726F20616464726573 PUSH1 0x44 DUP3 ADD MSTORE PUSH1 0x73 PUSH1 0xF8 SHL PUSH1 0x64 DUP3 ADD MSTORE PUSH1 0x84 ADD PUSH2 0x396 JUMP JUMPDEST PUSH1 0x1 PUSH1 0x1 PUSH1 0xA0 SHL SUB DUP3 AND PUSH0 SWAP1 DUP2 MSTORE PUSH1 0x20 DUP2 SWAP1 MSTORE PUSH1 0x40 SWAP1 KECCAK256 SLOAD DUP2 DUP2 LT ISZERO PUSH2 0x7FE JUMPI PUSH1 0x40 MLOAD PUSH3 0x461BCD PUSH1 0xE5 SHL DUP2 MSTORE PUSH1 0x20 PUSH1 0x4 DUP3 ADD MSTORE PUSH1 0x22 PUSH1 0x24 DUP3 ADD MSTORE PUSH32 0x45524332303A206275726E20616D6F756E7420657863656564732062616C616E PUSH1 0x44 DUP3 ADD MSTORE PUSH2 0x6365 PUSH1 0xF0 SHL PUSH1 0x64 DUP3 ADD MSTORE PUSH1 0x84 ADD PUSH2 0x396 JUMP JUMPDEST PUSH1 0x1 PUSH1 0x1 PUSH1 0xA0 SHL SUB DUP4 AND PUSH0 DUP2 DUP2 MSTORE PUSH1 0x20 DUP2 DUP2 MSTORE PUSH1 0x40 DUP1 DUP4 KECCAK256 DUP7 DUP7 SUB SWAP1 SSTORE PUSH1 0x2 DUP1 SLOAD DUP8 SWAP1 SUB SWAP1 SSTORE MLOAD DUP6 DUP2 MSTORE SWAP2 SWAP3 SWAP2 PUSH32 0xDDF252AD1BE2C89B69C2B068FC378DAA952BA7F163C4A11628F55A4DF523B3EF SWAP2 ADD PUSH2 0x504 JUMP JUMPDEST PUSH0 PUSH1 0x20 DUP1 DUP4 MSTORE DUP4 MLOAD DUP1 PUSH1 0x20 DUP6 ADD MSTORE PUSH0 JUMPDEST DUP2 DUP2 LT ISZERO PUSH2 0x87F JUMPI DUP6 DUP2 ADD DUP4 ADD MLOAD DUP6 DUP3 ADD PUSH1 0x40 ADD MSTORE DUP3 ADD PUSH2 0x863 JUMP JUMPDEST POP PUSH0 PUSH1 0x40 DUP3 DUP7 ADD ADD MSTORE PUSH1 0x40 PUSH1 0x1F NOT PUSH1 0x1F DUP4 ADD AND DUP6 ADD ADD SWAP3 POP POP POP SWAP3 SWAP2 POP POP JUMP JUMPDEST DUP1 CALLDATALOAD PUSH1 0x1 PUSH1 0x1 PUSH1 0xA0 SHL SUB DUP2 AND DUP2 EQ PUSH2 0x8B5 JUMPI PUSH0 DUP1 REVERT JUMPDEST SWAP2 SWAP1 POP JUMP JUMPDEST PUSH0 DUP1 PUSH1 0x40 DUP4 DUP6 SUB SLT ISZERO PUSH2 0x8CB JUMPI PUSH0 DUP1 REVERT JUMPDEST PUSH2 0x8D4 DUP4 PUSH2 0x89F JUMP JUMPDEST SWAP5 PUSH1 0x20 SWAP4 SWAP1 SWAP4 ADD CALLDATALOAD SWAP4 POP POP POP JUMP JUMPDEST PUSH0 DUP1 PUSH0 PUSH1 0x60 DUP5 DUP7 SUB SLT ISZERO PUSH2 0x8F4 JUMPI PUSH0 DUP1 REVERT JUMPDEST PUSH2 0x8FD DUP5 PUSH2 0x89F JUMP JUMPDEST SWAP3 POP PUSH2 0x90B PUSH1 0x20 DUP6 ADD PUSH2 0x89F JUMP JUMPDEST SWAP2 POP PUSH1 0x40 DUP5 ADD CALLDATALOAD SWAP1 POP SWAP3 POP SWAP3 POP SWAP3 JUMP JUMPDEST PUSH0 PUSH1 0x20 DUP3 DUP5 SUB SLT ISZERO PUSH2 0x92B JUMPI PUSH0 DUP1 REVERT JUMPDEST POP CALLDATALOAD SWAP2 SWAP1 POP JUMP JUMPDEST PUSH0 PUSH1 0x20 DUP3 DUP5 SUB SLT ISZERO PUSH2 0x942 JUMPI PUSH0 DUP1 REVERT JUMPDEST PUSH2 0x94B DUP3 PUSH2 0x89F JUMP JUMPDEST SWAP4 SWAP3 POP POP POP JUMP JUMPDEST PUSH0 DUP1 PUSH1 0x40 DUP4 DUP6 SUB SLT ISZERO PUSH2 0x963 JUMPI PUSH0 DUP1 REVERT JUMPDEST PUSH2 0x96C DUP4 PUSH2 0x89F JUMP JUMPDEST SWAP2 POP PUSH2 0x97A PUSH1 0x20 DUP5 ADD PUSH2 0x89F JUMP JUMPDEST SWAP1 POP SWAP3 POP SWAP3 SWAP1 POP JUMP JUMPDEST PUSH1 0x1 DUP2 DUP2 SHR SWAP1 DUP3 AND DUP1 PUSH2 0x997 JUMPI PUSH1 0x7F DUP3 AND SWAP2 POP JUMPDEST PUSH1 0x20 DUP3 LT DUP2 SUB PUSH2 0x9B5 JUMPI PUSH4 0x4E487B71 PUSH1 0xE0 SHL PUSH0 MSTORE PUSH1 0x22 PUSH1 0x4 MSTORE PUSH1 0x24 PUSH0 REVERT JUMPDEST POP SWAP2 SWAP1 POP JUMP JUMPDEST DUP1 DUP3 ADD DUP1 DUP3 GT ISZERO PUSH2 0x2B0 JUMPI PUSH4 0x4E487B71 PUSH1 0xE0 SHL PUSH0 MSTORE PUSH1 0x11 PUSH1 0x4 MSTORE PUSH1 0x24 PUSH0 REVERT INVALID LOG2 PUSH5 0x6970667358 0x22 SLT KECCAK256 0xA5 PUSH12 0xE57F57E76A1676D85DC795AD 0x21 0xAC SDIV PUSH28 0x4B2160FD2A6C843B8CEEC4BEC7FB64736F6C63430008180033000000 "
				},
				"gasEstimates": {
					"creation": {
						"codeDepositCost": "515200",
						"executionCost": "547",
						"totalCost": "515747"
					},
					"external": {
						"allowance(address,address)": "infinite",
						"approve(address,uint256)": "24640",
						"balanceOf(address)": "2560",
						"burn(uint256)": "50845",
						"burnFrom(address,uint256)": "infinite",
						"decimals()": "2333",
						"decreaseAllowance(address,uint256)": "26968",
						"increaseAllowance(address,uint256)": "27046",
						"maxSupply()": "2357",
						"name()": "infinite",
						"symbol()": "infinite",
						"totalSupply()": "2348",
						"transfer(address,uint256)": "51081",
						"transferFrom(address,address,uint256)": "infinite"
					},
					"internal": {
						"_afterTokenTransfer(address,address,uint256)": "infinite",
						"_approve(address,address,uint256)": "infinite",
						"_beforeTokenTransfer(address,address,uint256)": "infinite",
						"_burn(address,uint256)": "infinite",
						"_mint(address,uint256)": "infinite",
						"_spendAllowance(address,address,uint256)": "infinite",
						"_transfer(address,address,uint256)": "infinite",
						"init(string memory,string memory,uint8,uint256)": "infinite"
					}
				},
				"methodIdentifiers": {
					"allowance(address,address)": "dd62ed3e",
					"approve(address,uint256)": "095ea7b3",
					"balanceOf(address)": "70a08231",
					"burn(uint256)": "42966c68",
					"burnFrom(address,uint256)": "79cc6790",
					"decimals()": "313ce567",
					"decreaseAllowance(address,uint256)": "a457c2d7",
					"increaseAllowance(address,uint256)": "39509351",
					"maxSupply()": "d5abeb01",
					"name()": "06fdde03",
					"symbol()": "95d89b41",
					"totalSupply()": "18160ddd",
					"transfer(address,uint256)": "a9059cbb",
					"transferFrom(address,address,uint256)": "23b872dd"
				}
			},
			"storageLayout": {
				"storage": [
					{
						"astId": 584,
						"contract": "contracts/ERC20.sol:ERC20",
						"label": "_balances",
						"offset": 0,
						"slot": "0",
						"type": "t_mapping(t_address,t_uint256)"
					},
					{
						"astId": 590,
						"contract": "contracts/ERC20.sol:ERC20",
						"label": "_allowances",
						"offset": 0,
						"slot": "1",
						"type": "t_mapping(t_address,t_mapping(t_address,t_uint256))"
					},
					{
						"astId": 592,
						"contract": "contracts/ERC20.sol:ERC20",
						"label": "_totalSupply",
						"offset": 0,
						"slot": "2",
						"type": "t_uint256"
					},
					{
						"astId": 594,
						"contract": "contracts/ERC20.sol:ERC20",
						"label": "_maxSupply",
						"offset": 0,
						"slot": "3",
						"type": "t_uint256"
					},
					{
						"astId": 596,
						"contract": "contracts/ERC20.sol:ERC20",
						"label": "_name",
						"offset": 0,
						"slot": "4",
						"type": "t_string_storage"
					},
					{
						"astId": 598,
						"contract": "contracts/ERC20.sol:ERC20",
						"label": "_symbol",
						"offset": 0,
						"slot": "5",
						"type": "t_string_storage"
					},
					{
						"astId": 600,
						"contract": "contracts/ERC20.sol:ERC20",
						"label": "_decimals",
						"offset": 0,
						"slot": "6",
						"type": "t_uint8"
					}
				],
				"types": {
					"t_address": {
						"encoding": "inplace",
						"label": "address",
						"numberOfBytes": "20"
					},
					"t_mapping(t_address,t_mapping(t_address,t_uint256))": {
						"encoding": "mapping",
						"key": "t_address",
						"label": "mapping(address => mapping(address => uint256))",
						"numberOfBytes": "32",
						"value": "t_mapping(t_address,t_uint256)"
					},
					"t_mapping(t_address,t_uint256)": {
						"encoding": "mapping",
						"key": "t_address",
						"label": "mapping(address => uint256)",
						"numberOfBytes": "32",
						"value": "t_uint256"
					},
					"t_string_storage": {
						"encoding": "bytes",
						"label": "string",
						"numberOfBytes": "32"
					},
					"t_uint256": {
						"encoding": "inplace",
						"label": "uint256",
						"numberOfBytes": "32"
					},
					"t_uint8": {
						"encoding": "inplace",
						"label": "uint8",
						"numberOfBytes": "1"
					}
				}
			},
			"userdoc": {
				"kind": "user",
				"methods": {},
				"version": 1
			}
		}
	}
}