{
	"contracts/MinimalProxy.sol": {
		"MinimalProxy": {
			"abi": [
				{
					"inputs": [
						{
							"internalType": "address payable",
							"name": "_owner",
							"type": "address"
						}
					],
					"stateMutability": "nonpayable",
					"type": "constructor"
				},
				{
					"anonymous": false,
					"inputs": [
						{
							"indexed": false,
							"internalType": "address",
							"name": "proxyAddress",
							"type": "address"
						}
					],
					"name": "ProxyDeployed",
					"type": "event"
				},
				{
					"inputs": [],
					"name": "Owner",
					"outputs": [
						{
							"internalType": "address payable",
							"name": "",
							"type": "address"
						}
					],
					"stateMutability": "view",
					"type": "function"
				},
				{
					"inputs": [
						{
							"internalType": "address payable",
							"name": "_newOwner",
							"type": "address"
						}
					],
					"name": "_transferOwnership",
					"outputs": [],
					"stateMutability": "nonpayable",
					"type": "function"
				},
				{
					"inputs": [
						{
							"internalType": "address",
							"name": "target",
							"type": "address"
						},
						{
							"internalType": "address",
							"name": "_owner",
							"type": "address"
						},
						{
							"internalType": "string",
							"name": "_name",
							"type": "string"
						},
						{
							"internalType": "string",
							"name": "_symbol",
							"type": "string"
						},
						{
							"internalType": "uint8",
							"name": "_decimals",
							"type": "uint8"
						},
						{
							"internalType": "uint256",
							"name": "_initialSupply",
							"type": "uint256"
						},
						{
							"internalType": "uint256",
							"name": "_maxSupply",
							"type": "uint256"
						},
						{
							"internalType": "bool",
							"name": "_isBurnable",
							"type": "bool"
						},
						{
							"internalType": "bool",
							"name": "_isPausable",
							"type": "bool"
						}
					],
					"name": "cloneAndInitialize",
					"outputs": [
						{
							"internalType": "address",
							"name": "result",
							"type": "address"
						}
					],
					"stateMutability": "payable",
					"type": "function"
				}
			],
			"devdoc": {
				"kind": "dev",
				"methods": {},
				"version": 1
			},
			"evm": {
				"assembly": "    /* \"contracts/MinimalProxy.sol\":58:1930  contract MinimalProxy {... */\n  mstore(0x40, 0x80)\n    /* \"contracts/MinimalProxy.sol\":170:237  constructor(address payable  _owner){... */\n  callvalue\n  dup1\n  iszero\n  tag_1\n  jumpi\n  0x00\n  dup1\n  revert\ntag_1:\n  pop\n  mload(0x40)\n  sub(codesize, bytecodeSize)\n  dup1\n  bytecodeSize\n  dup4\n  codecopy\n  dup2\n  add\n  0x40\n  dup2\n  swap1\n  mstore\n  tag_2\n  swap2\n  tag_3\n  jump\t// in\ntag_2:\n    /* \"contracts/MinimalProxy.sol\":216:221  Owner */\n  0x00\n    /* \"contracts/MinimalProxy.sol\":216:230  Owner = _owner */\n  dup1\n  sload\n  not(sub(shl(0xa0, 0x01), 0x01))\n  and\n  sub(shl(0xa0, 0x01), 0x01)\n  swap3\n  swap1\n  swap3\n  and\n  swap2\n  swap1\n  swap2\n  or\n  swap1\n  sstore\n    /* \"contracts/MinimalProxy.sol\":58:1930  contract MinimalProxy {... */\n  jump(tag_7)\n    /* \"#utility.yul\":14:312   */\ntag_3:\n    /* \"#utility.yul\":92:98   */\n  0x00\n    /* \"#utility.yul\":145:147   */\n  0x20\n    /* \"#utility.yul\":133:142   */\n  dup3\n    /* \"#utility.yul\":124:131   */\n  dup5\n    /* \"#utility.yul\":120:143   */\n  sub\n    /* \"#utility.yul\":116:148   */\n  slt\n    /* \"#utility.yul\":113:165   */\n  iszero\n  tag_9\n  jumpi\n    /* \"#utility.yul\":161:162   */\n  0x00\n    /* \"#utility.yul\":158:159   */\n  dup1\n    /* \"#utility.yul\":151:163   */\n  revert\n    /* \"#utility.yul\":113:165   */\ntag_9:\n    /* \"#utility.yul\":187:203   */\n  dup2\n  mload\n  sub(shl(0xa0, 0x01), 0x01)\n    /* \"#utility.yul\":232:263   */\n  dup2\n  and\n    /* \"#utility.yul\":222:264   */\n  dup2\n  eq\n    /* \"#utility.yul\":212:282   */\n  tag_10\n  jumpi\n    /* \"#utility.yul\":278:279   */\n  0x00\n    /* \"#utility.yul\":275:276   */\n  dup1\n    /* \"#utility.yul\":268:280   */\n  revert\n    /* \"#utility.yul\":212:282   */\ntag_10:\n    /* \"#utility.yul\":301:306   */\n  swap4\n    /* \"#utility.yul\":14:312   */\n  swap3\n  pop\n  pop\n  pop\n  jump\t// out\ntag_7:\n    /* \"contracts/MinimalProxy.sol\":58:1930  contract MinimalProxy {... */\n  dataSize(sub_0)\n  dup1\n  dataOffset(sub_0)\n  0x00\n  codecopy\n  0x00\n  return\nstop\n\nsub_0: assembly {\n        /* \"contracts/MinimalProxy.sol\":58:1930  contract MinimalProxy {... */\n      mstore(0x40, 0x80)\n      jumpi(tag_1, lt(calldatasize, 0x04))\n      shr(0xe0, calldataload(0x00))\n      dup1\n      0x09d44127\n      eq\n      tag_2\n      jumpi\n      dup1\n      0xb4a99a4e\n      eq\n      tag_3\n      jumpi\n      dup1\n      0xd29d44ee\n      eq\n      tag_4\n      jumpi\n    tag_1:\n      0x00\n      dup1\n      revert\n        /* \"contracts/MinimalProxy.sol\":343:1808  function cloneAndInitialize(... */\n    tag_2:\n      tag_5\n      tag_6\n      calldatasize\n      0x04\n      tag_7\n      jump\t// in\n    tag_6:\n      tag_8\n      jump\t// in\n    tag_5:\n      mload(0x40)\n      sub(shl(0xa0, 0x01), 0x01)\n        /* \"#utility.yul\":2668:2700   */\n      swap1\n      swap2\n      and\n        /* \"#utility.yul\":2650:2701   */\n      dup2\n      mstore\n        /* \"#utility.yul\":2638:2640   */\n      0x20\n        /* \"#utility.yul\":2623:2641   */\n      add\n        /* \"contracts/MinimalProxy.sol\":343:1808  function cloneAndInitialize(... */\n      mload(0x40)\n      dup1\n      swap2\n      sub\n      swap1\n      return\n        /* \"contracts/MinimalProxy.sol\":134:162  address payable public Owner */\n    tag_3:\n      callvalue\n      dup1\n      iszero\n      tag_11\n      jumpi\n      0x00\n      dup1\n      revert\n    tag_11:\n      pop\n      sload(0x00)\n      tag_5\n      swap1\n      sub(shl(0xa0, 0x01), 0x01)\n      and\n      dup2\n      jump\n        /* \"contracts/MinimalProxy.sol\":1818:1928  function _transferOwnership(address payable  _newOwner) public onlyOwner{... */\n    tag_4:\n      callvalue\n      dup1\n      iszero\n      tag_16\n      jumpi\n      0x00\n      dup1\n      revert\n    tag_16:\n      pop\n      tag_17\n      tag_18\n      calldatasize\n      0x04\n      tag_19\n      jump\t// in\n    tag_18:\n      tag_20\n      jump\t// in\n    tag_17:\n      stop\n        /* \"contracts/MinimalProxy.sol\":343:1808  function cloneAndInitialize(... */\n    tag_8:\n        /* \"contracts/MinimalProxy.sol\":650:664  address result */\n      0x00\n        /* \"contracts/MinimalProxy.sol\":696:706  0.15 ether */\n      0x0214e8348c4f0000\n        /* \"contracts/MinimalProxy.sol\":684:693  msg.value */\n      callvalue\n        /* \"contracts/MinimalProxy.sol\":684:706  msg.value > 0.15 ether */\n      gt\n        /* \"contracts/MinimalProxy.sol\":676:737  require(msg.value > 0.15 ether, \"Insufficient Amount to Pay\") */\n      tag_22\n      jumpi\n      mload(0x40)\n      shl(0xe5, 0x461bcd)\n      dup2\n      mstore\n        /* \"#utility.yul\":3398:3400   */\n      0x20\n        /* \"contracts/MinimalProxy.sol\":676:737  require(msg.value > 0.15 ether, \"Insufficient Amount to Pay\") */\n      0x04\n      dup3\n      add\n        /* \"#utility.yul\":3380:3401   */\n      mstore\n        /* \"#utility.yul\":3437:3439   */\n      0x1a\n        /* \"#utility.yul\":3417:3435   */\n      0x24\n      dup3\n      add\n        /* \"#utility.yul\":3410:3440   */\n      mstore\n        /* \"#utility.yul\":3476:3504   */\n      0x496e73756666696369656e7420416d6f756e7420746f20506179000000000000\n        /* \"#utility.yul\":3456:3474   */\n      0x44\n      dup3\n      add\n        /* \"#utility.yul\":3449:3505   */\n      mstore\n        /* \"#utility.yul\":3522:3540   */\n      0x64\n      add\n        /* \"contracts/MinimalProxy.sol\":676:737  require(msg.value > 0.15 ether, \"Insufficient Amount to Pay\") */\n    tag_23:\n      mload(0x40)\n      dup1\n      swap2\n      sub\n      swap1\n      revert\n    tag_22:\n        /* \"contracts/MinimalProxy.sol\":747:752  Owner */\n      0x00\n      dup1\n      sload\n        /* \"contracts/MinimalProxy.sol\":747:772  Owner.transfer(msg.value) */\n      mload(0x40)\n      sub(shl(0xa0, 0x01), 0x01)\n        /* \"contracts/MinimalProxy.sol\":747:752  Owner */\n      swap1\n      swap2\n      and\n      swap2\n        /* \"contracts/MinimalProxy.sol\":762:771  msg.value */\n      callvalue\n        /* \"contracts/MinimalProxy.sol\":747:772  Owner.transfer(msg.value) */\n      dup1\n      iszero\n      0x08fc\n      mul\n      swap3\n        /* \"contracts/MinimalProxy.sol\":762:771  msg.value */\n      swap1\n      swap2\n        /* \"contracts/MinimalProxy.sol\":747:772  Owner.transfer(msg.value) */\n      dup2\n        /* \"contracts/MinimalProxy.sol\":747:752  Owner */\n      dup2\n        /* \"contracts/MinimalProxy.sol\":747:772  Owner.transfer(msg.value) */\n      dup2\n        /* \"contracts/MinimalProxy.sol\":762:771  msg.value */\n      dup6\n        /* \"contracts/MinimalProxy.sol\":747:752  Owner */\n      dup9\n        /* \"contracts/MinimalProxy.sol\":747:772  Owner.transfer(msg.value) */\n      dup9\n      call\n      swap4\n      pop\n      pop\n      pop\n      pop\n      iszero\n      dup1\n      iszero\n      tag_26\n      jumpi\n      returndatasize\n      0x00\n      dup1\n      returndatacopy\n      revert(0x00, returndatasize)\n    tag_26:\n      pop\n        /* \"contracts/MinimalProxy.sol\":782:801  bytes20 targetBytes */\n      0x00\n        /* \"contracts/MinimalProxy.sol\":812:818  target */\n      dup11\n        /* \"contracts/MinimalProxy.sol\":804:819  bytes20(target) */\n      0x60\n      shl\n        /* \"contracts/MinimalProxy.sol\":782:819  bytes20 targetBytes = bytes20(target) */\n      swap1\n      pop\n        /* \"contracts/MinimalProxy.sol\":880:884  0x40 */\n      0x40\n        /* \"contracts/MinimalProxy.sol\":874:885  mload(0x40) */\n      mload\n      shl(0x60, 0x3d602d80600a3d3981f3363d3d373d3d3d363d73)\n        /* \"contracts/MinimalProxy.sol\":922:927  clone */\n      dup2\n        /* \"contracts/MinimalProxy.sol\":898:1025  mstore(... */\n      mstore\n        /* \"contracts/MinimalProxy.sol\":1063:1074  targetBytes */\n      dup2\n        /* \"contracts/MinimalProxy.sol\":1056:1060  0x14 */\n      0x14\n        /* \"contracts/MinimalProxy.sol\":1049:1054  clone */\n      dup3\n        /* \"contracts/MinimalProxy.sol\":1045:1061  add(clone, 0x14) */\n      add\n        /* \"contracts/MinimalProxy.sol\":1038:1075  mstore(add(clone, 0x14), targetBytes) */\n      mstore\n      shl(0x88, 0x5af43d82803e903d91602b57fd5bf3)\n        /* \"contracts/MinimalProxy.sol\":1123:1127  0x28 */\n      0x28\n        /* \"contracts/MinimalProxy.sol\":1116:1121  clone */\n      dup3\n        /* \"contracts/MinimalProxy.sol\":1112:1128  add(clone, 0x28) */\n      add\n        /* \"contracts/MinimalProxy.sol\":1088:1226  mstore(... */\n      mstore\n        /* \"contracts/MinimalProxy.sol\":1266:1270  0x37 */\n      0x37\n        /* \"contracts/MinimalProxy.sol\":1259:1264  clone */\n      dup2\n        /* \"contracts/MinimalProxy.sol\":1256:1257  0 */\n      0x00\n        /* \"contracts/MinimalProxy.sol\":1249:1271  create(0, clone, 0x37) */\n      create\n        /* \"contracts/MinimalProxy.sol\":1239:1271  result := create(0, clone, 0x37) */\n      swap3\n      pop\n      pop\n        /* \"contracts/MinimalProxy.sol\":1340:1357  bytes memory data */\n      0x00\n        /* \"contracts/MinimalProxy.sol\":1479:1485  _owner */\n      dup11\n        /* \"contracts/MinimalProxy.sol\":1500:1505  _name */\n      dup11\n        /* \"contracts/MinimalProxy.sol\":1520:1527  _symbol */\n      dup11\n        /* \"contracts/MinimalProxy.sol\":1542:1551  _decimals */\n      dup11\n        /* \"contracts/MinimalProxy.sol\":1566:1580  _initialSupply */\n      dup11\n        /* \"contracts/MinimalProxy.sol\":1595:1605  _maxSupply */\n      dup11\n        /* \"contracts/MinimalProxy.sol\":1620:1631  _isBurnable */\n      dup11\n        /* \"contracts/MinimalProxy.sol\":1646:1657  _isPausable */\n      dup11\n        /* \"contracts/MinimalProxy.sol\":1360:1667  abi.encodeWithSignature(... */\n      add(0x24, mload(0x40))\n      tag_27\n      swap9\n      swap8\n      swap7\n      swap6\n      swap5\n      swap4\n      swap3\n      swap2\n      swap1\n      tag_28\n      jump\t// in\n    tag_27:\n      0x40\n      dup1\n      mload\n      not(0x1f)\n      dup2\n      dup5\n      sub\n      add\n      dup2\n      mstore\n      swap2\n      dup2\n      mstore\n      0x20\n      dup3\n      add\n      dup1\n      mload\n      sub(shl(0xe0, 0x01), 0x01)\n      and\n      shl(0xe0, 0x764776e7)\n      or\n      swap1\n      mstore\n        /* \"contracts/MinimalProxy.sol\":1696:1713  result.call(data) */\n      mload\n        /* \"contracts/MinimalProxy.sol\":1360:1667  abi.encodeWithSignature(... */\n      swap1\n      swap2\n      pop\n      0x00\n      swap1\n      sub(shl(0xa0, 0x01), 0x01)\n        /* \"contracts/MinimalProxy.sol\":1696:1707  result.call */\n      dup6\n      and\n      swap1\n        /* \"contracts/MinimalProxy.sol\":1696:1713  result.call(data) */\n      tag_29\n      swap1\n        /* \"contracts/MinimalProxy.sol\":1360:1667  abi.encodeWithSignature(... */\n      dup5\n      swap1\n        /* \"contracts/MinimalProxy.sol\":1696:1713  result.call(data) */\n      tag_30\n      jump\t// in\n    tag_29:\n      0x00\n      mload(0x40)\n      dup1\n      dup4\n      sub\n      dup2\n      0x00\n      dup7\n      gas\n      call\n      swap2\n      pop\n      pop\n      returndatasize\n      dup1\n      0x00\n      dup2\n      eq\n      tag_33\n      jumpi\n      mload(0x40)\n      swap2\n      pop\n      and(add(returndatasize, 0x3f), not(0x1f))\n      dup3\n      add\n      0x40\n      mstore\n      returndatasize\n      dup3\n      mstore\n      returndatasize\n      0x00\n      0x20\n      dup5\n      add\n      returndatacopy\n      jump(tag_32)\n    tag_33:\n      0x60\n      swap2\n      pop\n    tag_32:\n      pop\n        /* \"contracts/MinimalProxy.sol\":1678:1713  (bool success,) = result.call(data) */\n      pop\n      swap1\n      pop\n        /* \"contracts/MinimalProxy.sol\":1731:1738  success */\n      dup1\n        /* \"contracts/MinimalProxy.sol\":1723:1764  require(success, \"Initialization failed\") */\n      tag_34\n      jumpi\n      mload(0x40)\n      shl(0xe5, 0x461bcd)\n      dup2\n      mstore\n        /* \"#utility.yul\":5469:5471   */\n      0x20\n        /* \"contracts/MinimalProxy.sol\":1723:1764  require(success, \"Initialization failed\") */\n      0x04\n      dup3\n      add\n        /* \"#utility.yul\":5451:5472   */\n      mstore\n        /* \"#utility.yul\":5508:5510   */\n      0x15\n        /* \"#utility.yul\":5488:5506   */\n      0x24\n      dup3\n      add\n        /* \"#utility.yul\":5481:5511   */\n      mstore\n      shl(0x5a, 0x125b9a5d1a585b1a5e985d1a5bdb8819985a5b1959)\n        /* \"#utility.yul\":5527:5545   */\n      0x44\n      dup3\n      add\n        /* \"#utility.yul\":5520:5571   */\n      mstore\n        /* \"#utility.yul\":5588:5606   */\n      0x64\n      add\n        /* \"contracts/MinimalProxy.sol\":1723:1764  require(success, \"Initialization failed\") */\n      tag_23\n        /* \"#utility.yul\":5267:5612   */\n      jump\n        /* \"contracts/MinimalProxy.sol\":1723:1764  require(success, \"Initialization failed\") */\n    tag_34:\n        /* \"contracts/MinimalProxy.sol\":1780:1801  ProxyDeployed(result) */\n      mload(0x40)\n      sub(shl(0xa0, 0x01), 0x01)\n        /* \"#utility.yul\":2668:2700   */\n      dup6\n      and\n        /* \"#utility.yul\":2650:2701   */\n      dup2\n      mstore\n        /* \"contracts/MinimalProxy.sol\":1780:1801  ProxyDeployed(result) */\n      0xe542a942474a745be15595bbad9536fc3040d687435b060b2b9f07c1b7449818\n      swap1\n        /* \"#utility.yul\":2638:2640   */\n      0x20\n        /* \"#utility.yul\":2623:2641   */\n      add\n        /* \"contracts/MinimalProxy.sol\":1780:1801  ProxyDeployed(result) */\n      mload(0x40)\n      dup1\n      swap2\n      sub\n      swap1\n      log1\n        /* \"contracts/MinimalProxy.sol\":666:1808  {... */\n      pop\n      pop\n      pop\n        /* \"contracts/MinimalProxy.sol\":343:1808  function cloneAndInitialize(... */\n      swap10\n      swap9\n      pop\n      pop\n      pop\n      pop\n      pop\n      pop\n      pop\n      pop\n      pop\n      jump\t// out\n        /* \"contracts/MinimalProxy.sol\":1818:1928  function _transferOwnership(address payable  _newOwner) public onlyOwner{... */\n    tag_20:\n        /* \"contracts/MinimalProxy.sol\":300:305  Owner */\n      and(sub(shl(0xa0, 0x01), 0x01), sload(0x00))\n        /* \"contracts/MinimalProxy.sol\":286:296  msg.sender */\n      caller\n        /* \"contracts/MinimalProxy.sol\":286:305  msg.sender == Owner */\n      eq\n        /* \"contracts/MinimalProxy.sol\":278:319  require(msg.sender == Owner, \"Not owner\") */\n      tag_39\n      jumpi\n      mload(0x40)\n      shl(0xe5, 0x461bcd)\n      dup2\n      mstore\n        /* \"#utility.yul\":5819:5821   */\n      0x20\n        /* \"contracts/MinimalProxy.sol\":278:319  require(msg.sender == Owner, \"Not owner\") */\n      0x04\n      dup3\n      add\n        /* \"#utility.yul\":5801:5822   */\n      mstore\n        /* \"#utility.yul\":5858:5859   */\n      0x09\n        /* \"#utility.yul\":5838:5856   */\n      0x24\n      dup3\n      add\n        /* \"#utility.yul\":5831:5860   */\n      mstore\n      shl(0xb9, 0x2737ba1037bbb732b9)\n        /* \"#utility.yul\":5876:5894   */\n      0x44\n      dup3\n      add\n        /* \"#utility.yul\":5869:5908   */\n      mstore\n        /* \"#utility.yul\":5925:5943   */\n      0x64\n      add\n        /* \"contracts/MinimalProxy.sol\":278:319  require(msg.sender == Owner, \"Not owner\") */\n      tag_23\n        /* \"#utility.yul\":5617:5949   */\n      jump\n        /* \"contracts/MinimalProxy.sol\":278:319  require(msg.sender == Owner, \"Not owner\") */\n    tag_39:\n        /* \"contracts/MinimalProxy.sol\":1904:1909  Owner */\n      0x00\n        /* \"contracts/MinimalProxy.sol\":1904:1921  Owner = _newOwner */\n      dup1\n      sload\n      not(sub(shl(0xa0, 0x01), 0x01))\n      and\n      sub(shl(0xa0, 0x01), 0x01)\n      swap3\n      swap1\n      swap3\n      and\n      swap2\n      swap1\n      swap2\n      or\n      swap1\n      sstore\n        /* \"contracts/MinimalProxy.sol\":1818:1928  function _transferOwnership(address payable  _newOwner) public onlyOwner{... */\n      jump\t// out\n        /* \"#utility.yul\":14:145   */\n    tag_43:\n      sub(shl(0xa0, 0x01), 0x01)\n        /* \"#utility.yul\":89:120   */\n      dup2\n      and\n        /* \"#utility.yul\":79:121   */\n      dup2\n      eq\n        /* \"#utility.yul\":69:139   */\n      tag_52\n      jumpi\n        /* \"#utility.yul\":135:136   */\n      0x00\n        /* \"#utility.yul\":132:133   */\n      dup1\n        /* \"#utility.yul\":125:137   */\n      revert\n        /* \"#utility.yul\":69:139   */\n    tag_52:\n        /* \"#utility.yul\":14:145   */\n      pop\n      jump\t// out\n        /* \"#utility.yul\":150:277   */\n    tag_44:\n        /* \"#utility.yul\":211:221   */\n      0x4e487b71\n        /* \"#utility.yul\":206:209   */\n      0xe0\n        /* \"#utility.yul\":202:222   */\n      shl\n        /* \"#utility.yul\":199:200   */\n      0x00\n        /* \"#utility.yul\":192:223   */\n      mstore\n        /* \"#utility.yul\":242:246   */\n      0x41\n        /* \"#utility.yul\":239:240   */\n      0x04\n        /* \"#utility.yul\":232:247   */\n      mstore\n        /* \"#utility.yul\":266:270   */\n      0x24\n        /* \"#utility.yul\":263:264   */\n      0x00\n        /* \"#utility.yul\":256:271   */\n      revert\n        /* \"#utility.yul\":282:1001   */\n    tag_45:\n        /* \"#utility.yul\":325:330   */\n      0x00\n        /* \"#utility.yul\":378:381   */\n      dup3\n        /* \"#utility.yul\":371:375   */\n      0x1f\n        /* \"#utility.yul\":363:369   */\n      dup4\n        /* \"#utility.yul\":359:376   */\n      add\n        /* \"#utility.yul\":355:382   */\n      slt\n        /* \"#utility.yul\":345:400   */\n      tag_55\n      jumpi\n        /* \"#utility.yul\":396:397   */\n      0x00\n        /* \"#utility.yul\":393:394   */\n      dup1\n        /* \"#utility.yul\":386:398   */\n      revert\n        /* \"#utility.yul\":345:400   */\n    tag_55:\n        /* \"#utility.yul\":432:438   */\n      dup2\n        /* \"#utility.yul\":419:439   */\n      calldataload\n        /* \"#utility.yul\":458:476   */\n      0xffffffffffffffff\n        /* \"#utility.yul\":495:497   */\n      dup1\n        /* \"#utility.yul\":491:493   */\n      dup3\n        /* \"#utility.yul\":488:498   */\n      gt\n        /* \"#utility.yul\":485:521   */\n      iszero\n      tag_57\n      jumpi\n        /* \"#utility.yul\":501:519   */\n      tag_57\n      tag_44\n      jump\t// in\n    tag_57:\n        /* \"#utility.yul\":576:578   */\n      0x40\n        /* \"#utility.yul\":570:579   */\n      mload\n        /* \"#utility.yul\":544:546   */\n      0x1f\n        /* \"#utility.yul\":630:643   */\n      dup4\n      add\n      not(0x1f)\n        /* \"#utility.yul\":626:648   */\n      swap1\n      dup2\n      and\n        /* \"#utility.yul\":650:652   */\n      0x3f\n        /* \"#utility.yul\":622:653   */\n      add\n        /* \"#utility.yul\":618:658   */\n      and\n        /* \"#utility.yul\":606:659   */\n      dup2\n      add\n      swap1\n        /* \"#utility.yul\":674:692   */\n      dup3\n      dup3\n      gt\n        /* \"#utility.yul\":694:716   */\n      dup2\n      dup4\n      lt\n        /* \"#utility.yul\":671:717   */\n      or\n        /* \"#utility.yul\":668:740   */\n      iszero\n      tag_59\n      jumpi\n        /* \"#utility.yul\":720:738   */\n      tag_59\n      tag_44\n      jump\t// in\n    tag_59:\n        /* \"#utility.yul\":760:770   */\n      dup2\n        /* \"#utility.yul\":756:758   */\n      0x40\n        /* \"#utility.yul\":749:771   */\n      mstore\n        /* \"#utility.yul\":795:797   */\n      dup4\n        /* \"#utility.yul\":787:793   */\n      dup2\n        /* \"#utility.yul\":780:798   */\n      mstore\n        /* \"#utility.yul\":841:844   */\n      dup7\n        /* \"#utility.yul\":834:838   */\n      0x20\n        /* \"#utility.yul\":829:831   */\n      dup6\n        /* \"#utility.yul\":821:827   */\n      dup9\n        /* \"#utility.yul\":817:832   */\n      add\n        /* \"#utility.yul\":813:839   */\n      add\n        /* \"#utility.yul\":810:845   */\n      gt\n        /* \"#utility.yul\":807:862   */\n      iszero\n      tag_60\n      jumpi\n        /* \"#utility.yul\":858:859   */\n      0x00\n        /* \"#utility.yul\":855:856   */\n      dup1\n        /* \"#utility.yul\":848:860   */\n      revert\n        /* \"#utility.yul\":807:862   */\n    tag_60:\n        /* \"#utility.yul\":922:924   */\n      dup4\n        /* \"#utility.yul\":915:919   */\n      0x20\n        /* \"#utility.yul\":907:913   */\n      dup8\n        /* \"#utility.yul\":903:920   */\n      add\n        /* \"#utility.yul\":896:900   */\n      0x20\n        /* \"#utility.yul\":888:894   */\n      dup4\n        /* \"#utility.yul\":884:901   */\n      add\n        /* \"#utility.yul\":871:925   */\n      calldatacopy\n        /* \"#utility.yul\":969:970   */\n      0x00\n        /* \"#utility.yul\":962:966   */\n      0x20\n        /* \"#utility.yul\":957:959   */\n      dup6\n        /* \"#utility.yul\":949:955   */\n      dup4\n        /* \"#utility.yul\":945:960   */\n      add\n        /* \"#utility.yul\":941:967   */\n      add\n        /* \"#utility.yul\":934:971   */\n      mstore\n        /* \"#utility.yul\":989:995   */\n      dup1\n        /* \"#utility.yul\":980:995   */\n      swap5\n      pop\n      pop\n      pop\n      pop\n      pop\n        /* \"#utility.yul\":282:1001   */\n      swap3\n      swap2\n      pop\n      pop\n      jump\t// out\n        /* \"#utility.yul\":1006:1162   */\n    tag_46:\n        /* \"#utility.yul\":1072:1092   */\n      dup1\n      calldataload\n        /* \"#utility.yul\":1132:1136   */\n      0xff\n        /* \"#utility.yul\":1121:1137   */\n      dup2\n      and\n        /* \"#utility.yul\":1111:1138   */\n      dup2\n      eq\n        /* \"#utility.yul\":1101:1156   */\n      tag_62\n      jumpi\n        /* \"#utility.yul\":1152:1153   */\n      0x00\n        /* \"#utility.yul\":1149:1150   */\n      dup1\n        /* \"#utility.yul\":1142:1154   */\n      revert\n        /* \"#utility.yul\":1101:1156   */\n    tag_62:\n        /* \"#utility.yul\":1006:1162   */\n      swap2\n      swap1\n      pop\n      jump\t// out\n        /* \"#utility.yul\":1167:1327   */\n    tag_47:\n        /* \"#utility.yul\":1232:1252   */\n      dup1\n      calldataload\n        /* \"#utility.yul\":1288:1301   */\n      dup1\n      iszero\n        /* \"#utility.yul\":1281:1302   */\n      iszero\n        /* \"#utility.yul\":1271:1303   */\n      dup2\n      eq\n        /* \"#utility.yul\":1261:1321   */\n      tag_62\n      jumpi\n        /* \"#utility.yul\":1317:1318   */\n      0x00\n        /* \"#utility.yul\":1314:1315   */\n      dup1\n        /* \"#utility.yul\":1307:1319   */\n      revert\n        /* \"#utility.yul\":1332:2499   */\n    tag_7:\n        /* \"#utility.yul\":1475:1481   */\n      0x00\n        /* \"#utility.yul\":1483:1489   */\n      dup1\n        /* \"#utility.yul\":1491:1497   */\n      0x00\n        /* \"#utility.yul\":1499:1505   */\n      dup1\n        /* \"#utility.yul\":1507:1513   */\n      0x00\n        /* \"#utility.yul\":1515:1521   */\n      dup1\n        /* \"#utility.yul\":1523:1529   */\n      0x00\n        /* \"#utility.yul\":1531:1537   */\n      dup1\n        /* \"#utility.yul\":1539:1545   */\n      0x00\n        /* \"#utility.yul\":1592:1595   */\n      0x0120\n        /* \"#utility.yul\":1580:1589   */\n      dup11\n        /* \"#utility.yul\":1571:1578   */\n      dup13\n        /* \"#utility.yul\":1567:1590   */\n      sub\n        /* \"#utility.yul\":1563:1596   */\n      slt\n        /* \"#utility.yul\":1560:1613   */\n      iszero\n      tag_66\n      jumpi\n        /* \"#utility.yul\":1609:1610   */\n      0x00\n        /* \"#utility.yul\":1606:1607   */\n      dup1\n        /* \"#utility.yul\":1599:1611   */\n      revert\n        /* \"#utility.yul\":1560:1613   */\n    tag_66:\n        /* \"#utility.yul\":1648:1657   */\n      dup10\n        /* \"#utility.yul\":1635:1658   */\n      calldataload\n        /* \"#utility.yul\":1667:1698   */\n      tag_67\n        /* \"#utility.yul\":1692:1697   */\n      dup2\n        /* \"#utility.yul\":1667:1698   */\n      tag_43\n      jump\t// in\n    tag_67:\n        /* \"#utility.yul\":1717:1722   */\n      swap9\n      pop\n        /* \"#utility.yul\":1774:1776   */\n      0x20\n        /* \"#utility.yul\":1759:1777   */\n      dup11\n      add\n        /* \"#utility.yul\":1746:1778   */\n      calldataload\n        /* \"#utility.yul\":1787:1820   */\n      tag_68\n        /* \"#utility.yul\":1746:1778   */\n      dup2\n        /* \"#utility.yul\":1787:1820   */\n      tag_43\n      jump\t// in\n    tag_68:\n        /* \"#utility.yul\":1839:1846   */\n      swap8\n      pop\n        /* \"#utility.yul\":1897:1899   */\n      0x40\n        /* \"#utility.yul\":1882:1900   */\n      dup11\n      add\n        /* \"#utility.yul\":1869:1901   */\n      calldataload\n        /* \"#utility.yul\":1920:1938   */\n      0xffffffffffffffff\n        /* \"#utility.yul\":1950:1964   */\n      dup1\n      dup3\n      gt\n        /* \"#utility.yul\":1947:1981   */\n      iszero\n      tag_69\n      jumpi\n        /* \"#utility.yul\":1977:1978   */\n      0x00\n        /* \"#utility.yul\":1974:1975   */\n      dup1\n        /* \"#utility.yul\":1967:1979   */\n      revert\n        /* \"#utility.yul\":1947:1981   */\n    tag_69:\n        /* \"#utility.yul\":2000:2050   */\n      tag_70\n        /* \"#utility.yul\":2042:2049   */\n      dup14\n        /* \"#utility.yul\":2033:2039   */\n      dup4\n        /* \"#utility.yul\":2022:2031   */\n      dup15\n        /* \"#utility.yul\":2018:2040   */\n      add\n        /* \"#utility.yul\":2000:2050   */\n      tag_45\n      jump\t// in\n    tag_70:\n        /* \"#utility.yul\":1990:2050   */\n      swap9\n      pop\n        /* \"#utility.yul\":2103:2105   */\n      0x60\n        /* \"#utility.yul\":2092:2101   */\n      dup13\n        /* \"#utility.yul\":2088:2106   */\n      add\n        /* \"#utility.yul\":2075:2107   */\n      calldataload\n        /* \"#utility.yul\":2059:2107   */\n      swap2\n      pop\n        /* \"#utility.yul\":2132:2134   */\n      dup1\n        /* \"#utility.yul\":2122:2130   */\n      dup3\n        /* \"#utility.yul\":2119:2135   */\n      gt\n        /* \"#utility.yul\":2116:2152   */\n      iszero\n      tag_71\n      jumpi\n        /* \"#utility.yul\":2148:2149   */\n      0x00\n        /* \"#utility.yul\":2145:2146   */\n      dup1\n        /* \"#utility.yul\":2138:2150   */\n      revert\n        /* \"#utility.yul\":2116:2152   */\n    tag_71:\n      pop\n        /* \"#utility.yul\":2171:2223   */\n      tag_72\n        /* \"#utility.yul\":2215:2222   */\n      dup13\n        /* \"#utility.yul\":2204:2212   */\n      dup3\n        /* \"#utility.yul\":2193:2202   */\n      dup14\n        /* \"#utility.yul\":2189:2213   */\n      add\n        /* \"#utility.yul\":2171:2223   */\n      tag_45\n      jump\t// in\n    tag_72:\n        /* \"#utility.yul\":2161:2223   */\n      swap7\n      pop\n      pop\n        /* \"#utility.yul\":2242:2279   */\n      tag_73\n        /* \"#utility.yul\":2274:2277   */\n      0x80\n        /* \"#utility.yul\":2263:2272   */\n      dup12\n        /* \"#utility.yul\":2259:2278   */\n      add\n        /* \"#utility.yul\":2242:2279   */\n      tag_46\n      jump\t// in\n    tag_73:\n        /* \"#utility.yul\":2232:2279   */\n      swap5\n      pop\n        /* \"#utility.yul\":2326:2329   */\n      0xa0\n        /* \"#utility.yul\":2315:2324   */\n      dup11\n        /* \"#utility.yul\":2311:2330   */\n      add\n        /* \"#utility.yul\":2298:2331   */\n      calldataload\n        /* \"#utility.yul\":2288:2331   */\n      swap4\n      pop\n        /* \"#utility.yul\":2378:2381   */\n      0xc0\n        /* \"#utility.yul\":2367:2376   */\n      dup11\n        /* \"#utility.yul\":2363:2382   */\n      add\n        /* \"#utility.yul\":2350:2383   */\n      calldataload\n        /* \"#utility.yul\":2340:2383   */\n      swap3\n      pop\n        /* \"#utility.yul\":2402:2438   */\n      tag_74\n        /* \"#utility.yul\":2433:2436   */\n      0xe0\n        /* \"#utility.yul\":2422:2431   */\n      dup12\n        /* \"#utility.yul\":2418:2437   */\n      add\n        /* \"#utility.yul\":2402:2438   */\n      tag_47\n      jump\t// in\n    tag_74:\n        /* \"#utility.yul\":2392:2438   */\n      swap2\n      pop\n        /* \"#utility.yul\":2457:2493   */\n      tag_75\n        /* \"#utility.yul\":2488:2491   */\n      0x0100\n        /* \"#utility.yul\":2477:2486   */\n      dup12\n        /* \"#utility.yul\":2473:2492   */\n      add\n        /* \"#utility.yul\":2457:2493   */\n      tag_47\n      jump\t// in\n    tag_75:\n        /* \"#utility.yul\":2447:2493   */\n      swap1\n      pop\n        /* \"#utility.yul\":1332:2499   */\n      swap3\n      swap6\n      swap9\n      pop\n      swap3\n      swap6\n      swap9\n      pop\n      swap3\n      swap6\n      swap9\n      jump\t// out\n        /* \"#utility.yul\":2936:3191   */\n    tag_19:\n        /* \"#utility.yul\":3003:3009   */\n      0x00\n        /* \"#utility.yul\":3056:3058   */\n      0x20\n        /* \"#utility.yul\":3044:3053   */\n      dup3\n        /* \"#utility.yul\":3035:3042   */\n      dup5\n        /* \"#utility.yul\":3031:3054   */\n      sub\n        /* \"#utility.yul\":3027:3059   */\n      slt\n        /* \"#utility.yul\":3024:3076   */\n      iszero\n      tag_79\n      jumpi\n        /* \"#utility.yul\":3072:3073   */\n      0x00\n        /* \"#utility.yul\":3069:3070   */\n      dup1\n        /* \"#utility.yul\":3062:3074   */\n      revert\n        /* \"#utility.yul\":3024:3076   */\n    tag_79:\n        /* \"#utility.yul\":3111:3120   */\n      dup2\n        /* \"#utility.yul\":3098:3121   */\n      calldataload\n        /* \"#utility.yul\":3130:3161   */\n      tag_80\n        /* \"#utility.yul\":3155:3160   */\n      dup2\n        /* \"#utility.yul\":3130:3161   */\n      tag_43\n      jump\t// in\n    tag_80:\n        /* \"#utility.yul\":3180:3185   */\n      swap4\n        /* \"#utility.yul\":2936:3191   */\n      swap3\n      pop\n      pop\n      pop\n      jump\t// out\n        /* \"#utility.yul\":3551:3801   */\n    tag_48:\n        /* \"#utility.yul\":3636:3637   */\n      0x00\n        /* \"#utility.yul\":3646:3759   */\n    tag_83:\n        /* \"#utility.yul\":3660:3666   */\n      dup4\n        /* \"#utility.yul\":3657:3658   */\n      dup2\n        /* \"#utility.yul\":3654:3667   */\n      lt\n        /* \"#utility.yul\":3646:3759   */\n      iszero\n      tag_85\n      jumpi\n        /* \"#utility.yul\":3736:3747   */\n      dup2\n      dup2\n      add\n        /* \"#utility.yul\":3730:3748   */\n      mload\n        /* \"#utility.yul\":3717:3728   */\n      dup4\n      dup3\n      add\n        /* \"#utility.yul\":3710:3749   */\n      mstore\n        /* \"#utility.yul\":3682:3684   */\n      0x20\n        /* \"#utility.yul\":3675:3685   */\n      add\n        /* \"#utility.yul\":3646:3759   */\n      jump(tag_83)\n    tag_85:\n      pop\n      pop\n        /* \"#utility.yul\":3793:3794   */\n      0x00\n        /* \"#utility.yul\":3775:3791   */\n      swap2\n      add\n        /* \"#utility.yul\":3768:3795   */\n      mstore\n        /* \"#utility.yul\":3551:3801   */\n      jump\t// out\n        /* \"#utility.yul\":3806:4077   */\n    tag_49:\n        /* \"#utility.yul\":3848:3851   */\n      0x00\n        /* \"#utility.yul\":3886:3891   */\n      dup2\n        /* \"#utility.yul\":3880:3892   */\n      mload\n        /* \"#utility.yul\":3913:3919   */\n      dup1\n        /* \"#utility.yul\":3908:3911   */\n      dup5\n        /* \"#utility.yul\":3901:3920   */\n      mstore\n        /* \"#utility.yul\":3929:4005   */\n      tag_87\n        /* \"#utility.yul\":3998:4004   */\n      dup2\n        /* \"#utility.yul\":3991:3995   */\n      0x20\n        /* \"#utility.yul\":3986:3989   */\n      dup7\n        /* \"#utility.yul\":3982:3996   */\n      add\n        /* \"#utility.yul\":3975:3979   */\n      0x20\n        /* \"#utility.yul\":3968:3973   */\n      dup7\n        /* \"#utility.yul\":3964:3980   */\n      add\n        /* \"#utility.yul\":3929:4005   */\n      tag_48\n      jump\t// in\n    tag_87:\n        /* \"#utility.yul\":4059:4061   */\n      0x1f\n        /* \"#utility.yul\":4038:4053   */\n      add\n      not(0x1f)\n        /* \"#utility.yul\":4034:4063   */\n      and\n        /* \"#utility.yul\":4025:4064   */\n      swap3\n      swap1\n      swap3\n      add\n        /* \"#utility.yul\":4066:4070   */\n      0x20\n        /* \"#utility.yul\":4021:4071   */\n      add\n      swap3\n        /* \"#utility.yul\":3806:4077   */\n      swap2\n      pop\n      pop\n      jump\t// out\n        /* \"#utility.yul\":4082:4970   */\n    tag_28:\n      sub(shl(0xa0, 0x01), 0x01)\n        /* \"#utility.yul\":4453:4485   */\n      dup10\n      and\n        /* \"#utility.yul\":4435:4486   */\n      dup2\n      mstore\n        /* \"#utility.yul\":4423:4426   */\n      0x0100\n        /* \"#utility.yul\":4517:4519   */\n      0x20\n        /* \"#utility.yul\":4502:4520   */\n      dup3\n      add\n        /* \"#utility.yul\":4495:4525   */\n      dup2\n      swap1\n      mstore\n        /* \"#utility.yul\":4394:4398   */\n      0x00\n      swap1\n        /* \"#utility.yul\":4548:4593   */\n      tag_89\n        /* \"#utility.yul\":4574:4592   */\n      dup4\n      dup3\n      add\n        /* \"#utility.yul\":4566:4572   */\n      dup12\n        /* \"#utility.yul\":4548:4593   */\n      tag_49\n      jump\t// in\n    tag_89:\n        /* \"#utility.yul\":4534:4593   */\n      swap1\n      pop\n        /* \"#utility.yul\":4641:4650   */\n      dup3\n        /* \"#utility.yul\":4633:4639   */\n      dup2\n        /* \"#utility.yul\":4629:4651   */\n      sub\n        /* \"#utility.yul\":4624:4626   */\n      0x40\n        /* \"#utility.yul\":4613:4622   */\n      dup5\n        /* \"#utility.yul\":4609:4627   */\n      add\n        /* \"#utility.yul\":4602:4652   */\n      mstore\n        /* \"#utility.yul\":4669:4702   */\n      tag_90\n        /* \"#utility.yul\":4695:4701   */\n      dup2\n        /* \"#utility.yul\":4687:4693   */\n      dup11\n        /* \"#utility.yul\":4669:4702   */\n      tag_49\n      jump\t// in\n    tag_90:\n        /* \"#utility.yul\":4750:4754   */\n      0xff\n        /* \"#utility.yul\":4738:4755   */\n      swap9\n      swap1\n      swap9\n      and\n        /* \"#utility.yul\":4733:4735   */\n      0x60\n        /* \"#utility.yul\":4718:4736   */\n      dup5\n      add\n        /* \"#utility.yul\":4711:4756   */\n      mstore\n      pop\n      pop\n        /* \"#utility.yul\":4787:4790   */\n      0x80\n        /* \"#utility.yul\":4772:4791   */\n      dup2\n      add\n        /* \"#utility.yul\":4765:4800   */\n      swap5\n      swap1\n      swap5\n      mstore\n        /* \"#utility.yul\":4831:4834   */\n      0xa0\n        /* \"#utility.yul\":4816:4835   */\n      dup5\n      add\n        /* \"#utility.yul\":4809:4844   */\n      swap3\n      swap1\n      swap3\n      mstore\n        /* \"#utility.yul\":4888:4902   */\n      iszero\n        /* \"#utility.yul\":4881:4903   */\n      iszero\n        /* \"#utility.yul\":4875:4878   */\n      0xc0\n        /* \"#utility.yul\":4860:4879   */\n      dup4\n      add\n        /* \"#utility.yul\":4853:4904   */\n      mstore\n        /* \"#utility.yul\":4948:4962   */\n      iszero\n        /* \"#utility.yul\":4941:4963   */\n      iszero\n        /* \"#utility.yul\":4935:4938   */\n      0xe0\n        /* \"#utility.yul\":4920:4939   */\n      swap1\n      swap2\n      add\n        /* \"#utility.yul\":4913:4964   */\n      mstore\n        /* \"#utility.yul\":4661:4702   */\n      swap4\n        /* \"#utility.yul\":4082:4970   */\n      swap3\n      pop\n      pop\n      pop\n      jump\t// out\n        /* \"#utility.yul\":4975:5262   */\n    tag_30:\n        /* \"#utility.yul\":5104:5107   */\n      0x00\n        /* \"#utility.yul\":5142:5148   */\n      dup3\n        /* \"#utility.yul\":5136:5149   */\n      mload\n        /* \"#utility.yul\":5158:5224   */\n      tag_92\n        /* \"#utility.yul\":5217:5223   */\n      dup2\n        /* \"#utility.yul\":5212:5215   */\n      dup5\n        /* \"#utility.yul\":5205:5209   */\n      0x20\n        /* \"#utility.yul\":5197:5203   */\n      dup8\n        /* \"#utility.yul\":5193:5210   */\n      add\n        /* \"#utility.yul\":5158:5224   */\n      tag_48\n      jump\t// in\n    tag_92:\n        /* \"#utility.yul\":5240:5256   */\n      swap2\n      swap1\n      swap2\n      add\n      swap3\n        /* \"#utility.yul\":4975:5262   */\n      swap2\n      pop\n      pop\n      jump\t// out\n\n    auxdata: 0xa26469706673582212200252f2b57e74ca13ab08ad727f8282cba861273168b65d0b357fdb55c45010ca64736f6c63430008180033\n}\n",
				"bytecode": {
					"linkReferences": {},
					"object": "608060405234801561000f575f80fd5b5060405161067938038061067983398101604081905261002e91610052565b5f80546001600160a01b0319166001600160a01b039290921691909117905561007f565b5f60208284031215610062575f80fd5b81516001600160a01b0381168114610078575f80fd5b9392505050565b6105ed8061008c5f395ff3fe608060405260043610610033575f3560e01c806309d4412714610037578063b4a99a4e14610066578063d29d44ee14610084575b5f80fd5b61004a6100453660046103fb565b6100a5565b6040516001600160a01b03909116815260200160405180910390f35b348015610071575f80fd5b505f5461004a906001600160a01b031681565b34801561008f575f80fd5b506100a361009e3660046104c2565b6102bd565b005b5f670214e8348c4f000034116101025760405162461bcd60e51b815260206004820152601a60248201527f496e73756666696369656e7420416d6f756e7420746f2050617900000000000060448201526064015b60405180910390fd5b5f80546040516001600160a01b03909116913480156108fc02929091818181858888f19350505050158015610139573d5f803e3d5ffd5b505f8a60601b9050604051733d602d80600a3d3981f3363d3d373d3d3d363d7360601b81528160148201526e5af43d82803e903d91602b57fd5bf360881b60288201526037815ff09250505f8a8a8a8a8a8a8a8a6040516024016101a4989796959493929190610531565b60408051601f198184030181529181526020820180516001600160e01b031663764776e760e01b179052519091505f906001600160a01b038516906101ea90849061059c565b5f604051808303815f865af19150503d805f8114610223576040519150601f19603f3d011682016040523d82523d5f602084013e610228565b606091505b50509050806102715760405162461bcd60e51b8152602060048201526015602482015274125b9a5d1a585b1a5e985d1a5bdb8819985a5b1959605a1b60448201526064016100f9565b6040516001600160a01b03851681527fe542a942474a745be15595bbad9536fc3040d687435b060b2b9f07c1b74498189060200160405180910390a15050509998505050505050505050565b5f546001600160a01b031633146103025760405162461bcd60e51b81526020600482015260096024820152682737ba1037bbb732b960b91b60448201526064016100f9565b5f80546001600160a01b0319166001600160a01b0392909216919091179055565b6001600160a01b0381168114610337575f80fd5b50565b634e487b7160e01b5f52604160045260245ffd5b5f82601f83011261035d575f80fd5b813567ffffffffffffffff808211156103785761037861033a565b604051601f8301601f19908116603f011681019082821181831017156103a0576103a061033a565b816040528381528660208588010111156103b8575f80fd5b836020870160208301375f602085830101528094505050505092915050565b803560ff811681146103e7575f80fd5b919050565b803580151581146103e7575f80fd5b5f805f805f805f805f6101208a8c031215610414575f80fd5b893561041f81610323565b985060208a013561042f81610323565b975060408a013567ffffffffffffffff8082111561044b575f80fd5b6104578d838e0161034e565b985060608c013591508082111561046c575f80fd5b506104798c828d0161034e565b96505061048860808b016103d7565b945060a08a0135935060c08a013592506104a460e08b016103ec565b91506104b36101008b016103ec565b90509295985092959850929598565b5f602082840312156104d2575f80fd5b81356104dd81610323565b9392505050565b5f5b838110156104fe5781810151838201526020016104e6565b50505f910152565b5f815180845261051d8160208601602086016104e4565b601f01601f19169290920160200192915050565b6001600160a01b0389168152610100602082018190525f906105558382018b610506565b90508281036040840152610569818a610506565b60ff9890981660608401525050608081019490945260a0840192909252151560c0830152151560e0909101529392505050565b5f82516105ad8184602087016104e4565b919091019291505056fea26469706673582212200252f2b57e74ca13ab08ad727f8282cba861273168b65d0b357fdb55c45010ca64736f6c63430008180033",
					"opcodes": "PUSH1 0x80 PUSH1 0x40 MSTORE CALLVALUE DUP1 ISZERO PUSH2 0xF JUMPI PUSH0 DUP1 REVERT JUMPDEST POP PUSH1 0x40 MLOAD PUSH2 0x679 CODESIZE SUB DUP1 PUSH2 0x679 DUP4 CODECOPY DUP2 ADD PUSH1 0x40 DUP2 SWAP1 MSTORE PUSH2 0x2E SWAP2 PUSH2 0x52 JUMP JUMPDEST PUSH0 DUP1 SLOAD PUSH1 0x1 PUSH1 0x1 PUSH1 0xA0 SHL SUB NOT AND PUSH1 0x1 PUSH1 0x1 PUSH1 0xA0 SHL SUB SWAP3 SWAP1 SWAP3 AND SWAP2 SWAP1 SWAP2 OR SWAP1 SSTORE PUSH2 0x7F JUMP JUMPDEST PUSH0 PUSH1 0x20 DUP3 DUP5 SUB SLT ISZERO PUSH2 0x62 JUMPI PUSH0 DUP1 REVERT JUMPDEST DUP2 MLOAD PUSH1 0x1 PUSH1 0x1 PUSH1 0xA0 SHL SUB DUP2 AND DUP2 EQ PUSH2 0x78 JUMPI PUSH0 DUP1 REVERT JUMPDEST SWAP4 SWAP3 POP POP POP JUMP JUMPDEST PUSH2 0x5ED DUP1 PUSH2 0x8C PUSH0 CODECOPY PUSH0 RETURN INVALID PUSH1 0x80 PUSH1 0x40 MSTORE PUSH1 0x4 CALLDATASIZE LT PUSH2 0x33 JUMPI PUSH0 CALLDATALOAD PUSH1 0xE0 SHR DUP1 PUSH4 0x9D44127 EQ PUSH2 0x37 JUMPI DUP1 PUSH4 0xB4A99A4E EQ PUSH2 0x66 JUMPI DUP1 PUSH4 0xD29D44EE EQ PUSH2 0x84 JUMPI JUMPDEST PUSH0 DUP1 REVERT JUMPDEST PUSH2 0x4A PUSH2 0x45 CALLDATASIZE PUSH1 0x4 PUSH2 0x3FB JUMP JUMPDEST PUSH2 0xA5 JUMP JUMPDEST PUSH1 0x40 MLOAD PUSH1 0x1 PUSH1 0x1 PUSH1 0xA0 SHL SUB SWAP1 SWAP2 AND DUP2 MSTORE PUSH1 0x20 ADD PUSH1 0x40 MLOAD DUP1 SWAP2 SUB SWAP1 RETURN JUMPDEST CALLVALUE DUP1 ISZERO PUSH2 0x71 JUMPI PUSH0 DUP1 REVERT JUMPDEST POP PUSH0 SLOAD PUSH2 0x4A SWAP1 PUSH1 0x1 PUSH1 0x1 PUSH1 0xA0 SHL SUB AND DUP2 JUMP JUMPDEST CALLVALUE DUP1 ISZERO PUSH2 0x8F JUMPI PUSH0 DUP1 REVERT JUMPDEST POP PUSH2 0xA3 PUSH2 0x9E CALLDATASIZE PUSH1 0x4 PUSH2 0x4C2 JUMP JUMPDEST PUSH2 0x2BD JUMP JUMPDEST STOP JUMPDEST PUSH0 PUSH8 0x214E8348C4F0000 CALLVALUE GT PUSH2 0x102 JUMPI PUSH1 0x40 MLOAD PUSH3 0x461BCD PUSH1 0xE5 SHL DUP2 MSTORE PUSH1 0x20 PUSH1 0x4 DUP3 ADD MSTORE PUSH1 0x1A PUSH1 0x24 DUP3 ADD MSTORE PUSH32 0x496E73756666696369656E7420416D6F756E7420746F20506179000000000000 PUSH1 0x44 DUP3 ADD MSTORE PUSH1 0x64 ADD JUMPDEST PUSH1 0x40 MLOAD DUP1 SWAP2 SUB SWAP1 REVERT JUMPDEST PUSH0 DUP1 SLOAD PUSH1 0x40 MLOAD PUSH1 0x1 PUSH1 0x1 PUSH1 0xA0 SHL SUB SWAP1 SWAP2 AND SWAP2 CALLVALUE DUP1 ISZERO PUSH2 0x8FC MUL SWAP3 SWAP1 SWAP2 DUP2 DUP2 DUP2 DUP6 DUP9 DUP9 CALL SWAP4 POP POP POP POP ISZERO DUP1 ISZERO PUSH2 0x139 JUMPI RETURNDATASIZE PUSH0 DUP1 RETURNDATACOPY RETURNDATASIZE PUSH0 REVERT JUMPDEST POP PUSH0 DUP11 PUSH1 0x60 SHL SWAP1 POP PUSH1 0x40 MLOAD PUSH20 0x3D602D80600A3D3981F3363D3D373D3D3D363D73 PUSH1 0x60 SHL DUP2 MSTORE DUP2 PUSH1 0x14 DUP3 ADD MSTORE PUSH15 0x5AF43D82803E903D91602B57FD5BF3 PUSH1 0x88 SHL PUSH1 0x28 DUP3 ADD MSTORE PUSH1 0x37 DUP2 PUSH0 CREATE SWAP3 POP POP PUSH0 DUP11 DUP11 DUP11 DUP11 DUP11 DUP11 DUP11 DUP11 PUSH1 0x40 MLOAD PUSH1 0x24 ADD PUSH2 0x1A4 SWAP9 SWAP8 SWAP7 SWAP6 SWAP5 SWAP4 SWAP3 SWAP2 SWAP1 PUSH2 0x531 JUMP JUMPDEST PUSH1 0x40 DUP1 MLOAD PUSH1 0x1F NOT DUP2 DUP5 SUB ADD DUP2 MSTORE SWAP2 DUP2 MSTORE PUSH1 0x20 DUP3 ADD DUP1 MLOAD PUSH1 0x1 PUSH1 0x1 PUSH1 0xE0 SHL SUB AND PUSH4 0x764776E7 PUSH1 0xE0 SHL OR SWAP1 MSTORE MLOAD SWAP1 SWAP2 POP PUSH0 SWAP1 PUSH1 0x1 PUSH1 0x1 PUSH1 0xA0 SHL SUB DUP6 AND SWAP1 PUSH2 0x1EA SWAP1 DUP5 SWAP1 PUSH2 0x59C JUMP JUMPDEST PUSH0 PUSH1 0x40 MLOAD DUP1 DUP4 SUB DUP2 PUSH0 DUP7 GAS CALL SWAP2 POP POP RETURNDATASIZE DUP1 PUSH0 DUP2 EQ PUSH2 0x223 JUMPI PUSH1 0x40 MLOAD SWAP2 POP PUSH1 0x1F NOT PUSH1 0x3F RETURNDATASIZE ADD AND DUP3 ADD PUSH1 0x40 MSTORE RETURNDATASIZE DUP3 MSTORE RETURNDATASIZE PUSH0 PUSH1 0x20 DUP5 ADD RETURNDATACOPY PUSH2 0x228 JUMP JUMPDEST PUSH1 0x60 SWAP2 POP JUMPDEST POP POP SWAP1 POP DUP1 PUSH2 0x271 JUMPI PUSH1 0x40 MLOAD PUSH3 0x461BCD PUSH1 0xE5 SHL DUP2 MSTORE PUSH1 0x20 PUSH1 0x4 DUP3 ADD MSTORE PUSH1 0x15 PUSH1 0x24 DUP3 ADD MSTORE PUSH21 0x125B9A5D1A585B1A5E985D1A5BDB8819985A5B1959 PUSH1 0x5A SHL PUSH1 0x44 DUP3 ADD MSTORE PUSH1 0x64 ADD PUSH2 0xF9 JUMP JUMPDEST PUSH1 0x40 MLOAD PUSH1 0x1 PUSH1 0x1 PUSH1 0xA0 SHL SUB DUP6 AND DUP2 MSTORE PUSH32 0xE542A942474A745BE15595BBAD9536FC3040D687435B060B2B9F07C1B7449818 SWAP1 PUSH1 0x20 ADD PUSH1 0x40 MLOAD DUP1 SWAP2 SUB SWAP1 LOG1 POP POP POP SWAP10 SWAP9 POP POP POP POP POP POP POP POP POP JUMP JUMPDEST PUSH0 SLOAD PUSH1 0x1 PUSH1 0x1 PUSH1 0xA0 SHL SUB AND CALLER EQ PUSH2 0x302 JUMPI PUSH1 0x40 MLOAD PUSH3 0x461BCD PUSH1 0xE5 SHL DUP2 MSTORE PUSH1 0x20 PUSH1 0x4 DUP3 ADD MSTORE PUSH1 0x9 PUSH1 0x24 DUP3 ADD MSTORE PUSH9 0x2737BA1037BBB732B9 PUSH1 0xB9 SHL PUSH1 0x44 DUP3 ADD MSTORE PUSH1 0x64 ADD PUSH2 0xF9 JUMP JUMPDEST PUSH0 DUP1 SLOAD PUSH1 0x1 PUSH1 0x1 PUSH1 0xA0 SHL SUB NOT AND PUSH1 0x1 PUSH1 0x1 PUSH1 0xA0 SHL SUB SWAP3 SWAP1 SWAP3 AND SWAP2 SWAP1 SWAP2 OR SWAP1 SSTORE JUMP JUMPDEST PUSH1 0x1 PUSH1 0x1 PUSH1 0xA0 SHL SUB DUP2 AND DUP2 EQ PUSH2 0x337 JUMPI PUSH0 DUP1 REVERT JUMPDEST POP JUMP JUMPDEST PUSH4 0x4E487B71 PUSH1 0xE0 SHL PUSH0 MSTORE PUSH1 0x41 PUSH1 0x4 MSTORE PUSH1 0x24 PUSH0 REVERT JUMPDEST PUSH0 DUP3 PUSH1 0x1F DUP4 ADD SLT PUSH2 0x35D JUMPI PUSH0 DUP1 REVERT JUMPDEST DUP2 CALLDATALOAD PUSH8 0xFFFFFFFFFFFFFFFF DUP1 DUP3 GT ISZERO PUSH2 0x378 JUMPI PUSH2 0x378 PUSH2 0x33A JUMP JUMPDEST PUSH1 0x40 MLOAD PUSH1 0x1F DUP4 ADD PUSH1 0x1F NOT SWAP1 DUP2 AND PUSH1 0x3F ADD AND DUP2 ADD SWAP1 DUP3 DUP3 GT DUP2 DUP4 LT OR ISZERO PUSH2 0x3A0 JUMPI PUSH2 0x3A0 PUSH2 0x33A JUMP JUMPDEST DUP2 PUSH1 0x40 MSTORE DUP4 DUP2 MSTORE DUP7 PUSH1 0x20 DUP6 DUP9 ADD ADD GT ISZERO PUSH2 0x3B8 JUMPI PUSH0 DUP1 REVERT JUMPDEST DUP4 PUSH1 0x20 DUP8 ADD PUSH1 0x20 DUP4 ADD CALLDATACOPY PUSH0 PUSH1 0x20 DUP6 DUP4 ADD ADD MSTORE DUP1 SWAP5 POP POP POP POP POP SWAP3 SWAP2 POP POP JUMP JUMPDEST DUP1 CALLDATALOAD PUSH1 0xFF DUP2 AND DUP2 EQ PUSH2 0x3E7 JUMPI PUSH0 DUP1 REVERT JUMPDEST SWAP2 SWAP1 POP JUMP JUMPDEST DUP1 CALLDATALOAD DUP1 ISZERO ISZERO DUP2 EQ PUSH2 0x3E7 JUMPI PUSH0 DUP1 REVERT JUMPDEST PUSH0 DUP1 PUSH0 DUP1 PUSH0 DUP1 PUSH0 DUP1 PUSH0 PUSH2 0x120 DUP11 DUP13 SUB SLT ISZERO PUSH2 0x414 JUMPI PUSH0 DUP1 REVERT JUMPDEST DUP10 CALLDATALOAD PUSH2 0x41F DUP2 PUSH2 0x323 JUMP JUMPDEST SWAP9 POP PUSH1 0x20 DUP11 ADD CALLDATALOAD PUSH2 0x42F DUP2 PUSH2 0x323 JUMP JUMPDEST SWAP8 POP PUSH1 0x40 DUP11 ADD CALLDATALOAD PUSH8 0xFFFFFFFFFFFFFFFF DUP1 DUP3 GT ISZERO PUSH2 0x44B JUMPI PUSH0 DUP1 REVERT JUMPDEST PUSH2 0x457 DUP14 DUP4 DUP15 ADD PUSH2 0x34E JUMP JUMPDEST SWAP9 POP PUSH1 0x60 DUP13 ADD CALLDATALOAD SWAP2 POP DUP1 DUP3 GT ISZERO PUSH2 0x46C JUMPI PUSH0 DUP1 REVERT JUMPDEST POP PUSH2 0x479 DUP13 DUP3 DUP14 ADD PUSH2 0x34E JUMP JUMPDEST SWAP7 POP POP PUSH2 0x488 PUSH1 0x80 DUP12 ADD PUSH2 0x3D7 JUMP JUMPDEST SWAP5 POP PUSH1 0xA0 DUP11 ADD CALLDATALOAD SWAP4 POP PUSH1 0xC0 DUP11 ADD CALLDATALOAD SWAP3 POP PUSH2 0x4A4 PUSH1 0xE0 DUP12 ADD PUSH2 0x3EC JUMP JUMPDEST SWAP2 POP PUSH2 0x4B3 PUSH2 0x100 DUP12 ADD PUSH2 0x3EC JUMP JUMPDEST SWAP1 POP SWAP3 SWAP6 SWAP9 POP SWAP3 SWAP6 SWAP9 POP SWAP3 SWAP6 SWAP9 JUMP JUMPDEST PUSH0 PUSH1 0x20 DUP3 DUP5 SUB SLT ISZERO PUSH2 0x4D2 JUMPI PUSH0 DUP1 REVERT JUMPDEST DUP2 CALLDATALOAD PUSH2 0x4DD DUP2 PUSH2 0x323 JUMP JUMPDEST SWAP4 SWAP3 POP POP POP JUMP JUMPDEST PUSH0 JUMPDEST DUP4 DUP2 LT ISZERO PUSH2 0x4FE JUMPI DUP2 DUP2 ADD MLOAD DUP4 DUP3 ADD MSTORE PUSH1 0x20 ADD PUSH2 0x4E6 JUMP JUMPDEST POP POP PUSH0 SWAP2 ADD MSTORE JUMP JUMPDEST PUSH0 DUP2 MLOAD DUP1 DUP5 MSTORE PUSH2 0x51D DUP2 PUSH1 0x20 DUP7 ADD PUSH1 0x20 DUP7 ADD PUSH2 0x4E4 JUMP JUMPDEST PUSH1 0x1F ADD PUSH1 0x1F NOT AND SWAP3 SWAP1 SWAP3 ADD PUSH1 0x20 ADD SWAP3 SWAP2 POP POP JUMP JUMPDEST PUSH1 0x1 PUSH1 0x1 PUSH1 0xA0 SHL SUB DUP10 AND DUP2 MSTORE PUSH2 0x100 PUSH1 0x20 DUP3 ADD DUP2 SWAP1 MSTORE PUSH0 SWAP1 PUSH2 0x555 DUP4 DUP3 ADD DUP12 PUSH2 0x506 JUMP JUMPDEST SWAP1 POP DUP3 DUP2 SUB PUSH1 0x40 DUP5 ADD MSTORE PUSH2 0x569 DUP2 DUP11 PUSH2 0x506 JUMP JUMPDEST PUSH1 0xFF SWAP9 SWAP1 SWAP9 AND PUSH1 0x60 DUP5 ADD MSTORE POP POP PUSH1 0x80 DUP2 ADD SWAP5 SWAP1 SWAP5 MSTORE PUSH1 0xA0 DUP5 ADD SWAP3 SWAP1 SWAP3 MSTORE ISZERO ISZERO PUSH1 0xC0 DUP4 ADD MSTORE ISZERO ISZERO PUSH1 0xE0 SWAP1 SWAP2 ADD MSTORE SWAP4 SWAP3 POP POP POP JUMP JUMPDEST PUSH0 DUP3 MLOAD PUSH2 0x5AD DUP2 DUP5 PUSH1 0x20 DUP8 ADD PUSH2 0x4E4 JUMP JUMPDEST SWAP2 SWAP1 SWAP2 ADD SWAP3 SWAP2 POP POP JUMP INVALID LOG2 PUSH5 0x6970667358 0x22 SLT KECCAK256 MUL MSTORE CALLCODE 0xB5 PUSH31 0x74CA13AB08AD727F8282CBA861273168B65D0B357FDB55C45010CA64736F6C PUSH4 0x43000818 STOP CALLER "
				},
				"gasEstimates": {
					"creation": {
						"codeDepositCost": "303400",
						"executionCost": "infinite",
						"totalCost": "infinite"
					},
					"external": {
						"Owner()": "2323",
						"_transferOwnership(address)": "26723",
						"cloneAndInitialize(address,address,string,string,uint8,uint256,uint256,bool,bool)": "infinite"
					}
				},
				"methodIdentifiers": {
					"Owner()": "b4a99a4e",
					"_transferOwnership(address)": "d29d44ee",
					"cloneAndInitialize(address,address,string,string,uint8,uint256,uint256,bool,bool)": "09d44127"
				}
			},
			"storageLayout": {
				"storage": [
					{
						"astId": 7,
						"contract": "contracts/MinimalProxy.sol:MinimalProxy",
						"label": "Owner",
						"offset": 0,
						"slot": "0",
						"type": "t_address_payable"
					}
				],
				"types": {
					"t_address_payable": {
						"encoding": "inplace",
						"label": "address payable",
						"numberOfBytes": "20"
					}
				}
			},
			"userdoc": {
				"kind": "user",
				"methods": {},
				"version": 1
			}
		}
	}
}