{
	"contracts/EssentialToken.sol": {
		"EssentialToken": {
			"abi": [
				{
					"inputs": [],
					"name": "InvalidInitialization",
					"type": "error"
				},
				{
					"inputs": [],
					"name": "NotInitializing",
					"type": "error"
				},
				{
					"anonymous": false,
					"inputs": [
						{
							"indexed": true,
							"internalType": "address",
							"name": "owner",
							"type": "address"
						},
						{
							"indexed": true,
							"internalType": "address",
							"name": "spender",
							"type": "address"
						},
						{
							"indexed": false,
							"internalType": "uint256",
							"name": "value",
							"type": "uint256"
						}
					],
					"name": "Approval",
					"type": "event"
				},
				{
					"anonymous": false,
					"inputs": [
						{
							"indexed": true,
							"internalType": "address",
							"name": "_account",
							"type": "address"
						}
					],
					"name": "BlockedAccount",
					"type": "event"
				},
				{
					"anonymous": false,
					"inputs": [
						{
							"indexed": false,
							"internalType": "uint64",
							"name": "version",
							"type": "uint64"
						}
					],
					"name": "Initialized",
					"type": "event"
				},
				{
					"anonymous": false,
					"inputs": [
						{
							"indexed": false,
							"internalType": "address",
							"name": "account",
							"type": "address"
						}
					],
					"name": "Paused",
					"type": "event"
				},
				{
					"anonymous": false,
					"inputs": [
						{
							"indexed": true,
							"internalType": "address",
							"name": "from",
							"type": "address"
						},
						{
							"indexed": true,
							"internalType": "address",
							"name": "to",
							"type": "address"
						},
						{
							"indexed": false,
							"internalType": "uint256",
							"name": "value",
							"type": "uint256"
						}
					],
					"name": "Transfer",
					"type": "event"
				},
				{
					"anonymous": false,
					"inputs": [
						{
							"indexed": true,
							"internalType": "address",
							"name": "_account",
							"type": "address"
						}
					],
					"name": "UnblockedAccount",
					"type": "event"
				},
				{
					"anonymous": false,
					"inputs": [
						{
							"indexed": false,
							"internalType": "address",
							"name": "account",
							"type": "address"
						}
					],
					"name": "Unpaused",
					"type": "event"
				},
				{
					"inputs": [
						{
							"internalType": "address",
							"name": "_newOwner",
							"type": "address"
						}
					],
					"name": "_transferOwnership",
					"outputs": [],
					"stateMutability": "nonpayable",
					"type": "function"
				},
				{
					"inputs": [
						{
							"internalType": "address",
							"name": "owner",
							"type": "address"
						},
						{
							"internalType": "address",
							"name": "spender",
							"type": "address"
						}
					],
					"name": "allowance",
					"outputs": [
						{
							"internalType": "uint256",
							"name": "",
							"type": "uint256"
						}
					],
					"stateMutability": "view",
					"type": "function"
				},
				{
					"inputs": [
						{
							"internalType": "address",
							"name": "spender",
							"type": "address"
						},
						{
							"internalType": "uint256",
							"name": "amount",
							"type": "uint256"
						}
					],
					"name": "approve",
					"outputs": [
						{
							"internalType": "bool",
							"name": "",
							"type": "bool"
						}
					],
					"stateMutability": "nonpayable",
					"type": "function"
				},
				{
					"inputs": [
						{
							"internalType": "address",
							"name": "account",
							"type": "address"
						}
					],
					"name": "balanceOf",
					"outputs": [
						{
							"internalType": "uint256",
							"name": "",
							"type": "uint256"
						}
					],
					"stateMutability": "view",
					"type": "function"
				},
				{
					"inputs": [
						{
							"internalType": "address",
							"name": "_account",
							"type": "address"
						}
					],
					"name": "blockAccount",
					"outputs": [],
					"stateMutability": "nonpayable",
					"type": "function"
				},
				{
					"inputs": [
						{
							"internalType": "uint256",
							"name": "amount",
							"type": "uint256"
						}
					],
					"name": "burn",
					"outputs": [],
					"stateMutability": "nonpayable",
					"type": "function"
				},
				{
					"inputs": [
						{
							"internalType": "address",
							"name": "account",
							"type": "address"
						},
						{
							"internalType": "uint256",
							"name": "amount",
							"type": "uint256"
						}
					],
					"name": "burnFrom",
					"outputs": [],
					"stateMutability": "nonpayable",
					"type": "function"
				},
				{
					"inputs": [],
					"name": "decimals",
					"outputs": [
						{
							"internalType": "uint8",
							"name": "",
							"type": "uint8"
						}
					],
					"stateMutability": "view",
					"type": "function"
				},
				{
					"inputs": [
						{
							"internalType": "address",
							"name": "spender",
							"type": "address"
						},
						{
							"internalType": "uint256",
							"name": "subtractedValue",
							"type": "uint256"
						}
					],
					"name": "decreaseAllowance",
					"outputs": [
						{
							"internalType": "bool",
							"name": "",
							"type": "bool"
						}
					],
					"stateMutability": "nonpayable",
					"type": "function"
				},
				{
					"inputs": [
						{
							"internalType": "address",
							"name": "spender",
							"type": "address"
						},
						{
							"internalType": "uint256",
							"name": "addedValue",
							"type": "uint256"
						}
					],
					"name": "increaseAllowance",
					"outputs": [
						{
							"internalType": "bool",
							"name": "",
							"type": "bool"
						}
					],
					"stateMutability": "nonpayable",
					"type": "function"
				},
				{
					"inputs": [
						{
							"internalType": "address",
							"name": "_owner",
							"type": "address"
						},
						{
							"internalType": "string",
							"name": "_name",
							"type": "string"
						},
						{
							"internalType": "string",
							"name": "_symbol",
							"type": "string"
						},
						{
							"internalType": "uint8",
							"name": "_decimals",
							"type": "uint8"
						},
						{
							"internalType": "uint256",
							"name": "_initialSupply",
							"type": "uint256"
						},
						{
							"internalType": "uint256",
							"name": "_maxSupply",
							"type": "uint256"
						},
						{
							"internalType": "bool",
							"name": "_isBurnable",
							"type": "bool"
						},
						{
							"internalType": "bool",
							"name": "_isPausable",
							"type": "bool"
						}
					],
					"name": "initialize",
					"outputs": [],
					"stateMutability": "nonpayable",
					"type": "function"
				},
				{
					"inputs": [
						{
							"internalType": "address",
							"name": "_account",
							"type": "address"
						}
					],
					"name": "isAccountBlocked",
					"outputs": [
						{
							"internalType": "bool",
							"name": "",
							"type": "bool"
						}
					],
					"stateMutability": "view",
					"type": "function"
				},
				{
					"inputs": [],
					"name": "isBurnable",
					"outputs": [
						{
							"internalType": "bool",
							"name": "",
							"type": "bool"
						}
					],
					"stateMutability": "view",
					"type": "function"
				},
				{
					"inputs": [],
					"name": "isInitialized",
					"outputs": [
						{
							"internalType": "bool",
							"name": "",
							"type": "bool"
						}
					],
					"stateMutability": "view",
					"type": "function"
				},
				{
					"inputs": [],
					"name": "isPausable",
					"outputs": [
						{
							"internalType": "bool",
							"name": "",
							"type": "bool"
						}
					],
					"stateMutability": "view",
					"type": "function"
				},
				{
					"inputs": [],
					"name": "maxSupply",
					"outputs": [
						{
							"internalType": "uint256",
							"name": "",
							"type": "uint256"
						}
					],
					"stateMutability": "view",
					"type": "function"
				},
				{
					"inputs": [
						{
							"internalType": "address",
							"name": "to",
							"type": "address"
						},
						{
							"internalType": "uint256",
							"name": "amount",
							"type": "uint256"
						}
					],
					"name": "mint",
					"outputs": [],
					"stateMutability": "nonpayable",
					"type": "function"
				},
				{
					"inputs": [],
					"name": "name",
					"outputs": [
						{
							"internalType": "string",
							"name": "",
							"type": "string"
						}
					],
					"stateMutability": "view",
					"type": "function"
				},
				{
					"inputs": [],
					"name": "owner",
					"outputs": [
						{
							"internalType": "address",
							"name": "",
							"type": "address"
						}
					],
					"stateMutability": "view",
					"type": "function"
				},
				{
					"inputs": [],
					"name": "pause",
					"outputs": [],
					"stateMutability": "nonpayable",
					"type": "function"
				},
				{
					"inputs": [],
					"name": "paused",
					"outputs": [
						{
							"internalType": "bool",
							"name": "",
							"type": "bool"
						}
					],
					"stateMutability": "view",
					"type": "function"
				},
				{
					"inputs": [],
					"name": "symbol",
					"outputs": [
						{
							"internalType": "string",
							"name": "",
							"type": "string"
						}
					],
					"stateMutability": "view",
					"type": "function"
				},
				{
					"inputs": [],
					"name": "totalSupply",
					"outputs": [
						{
							"internalType": "uint256",
							"name": "",
							"type": "uint256"
						}
					],
					"stateMutability": "view",
					"type": "function"
				},
				{
					"inputs": [
						{
							"internalType": "address",
							"name": "to",
							"type": "address"
						},
						{
							"internalType": "uint256",
							"name": "amount",
							"type": "uint256"
						}
					],
					"name": "transfer",
					"outputs": [
						{
							"internalType": "bool",
							"name": "",
							"type": "bool"
						}
					],
					"stateMutability": "nonpayable",
					"type": "function"
				},
				{
					"inputs": [
						{
							"internalType": "address",
							"name": "from",
							"type": "address"
						},
						{
							"internalType": "address",
							"name": "to",
							"type": "address"
						},
						{
							"internalType": "uint256",
							"name": "amount",
							"type": "uint256"
						}
					],
					"name": "transferFrom",
					"outputs": [
						{
							"internalType": "bool",
							"name": "",
							"type": "bool"
						}
					],
					"stateMutability": "nonpayable",
					"type": "function"
				},
				{
					"inputs": [
						{
							"internalType": "address",
							"name": "_account",
							"type": "address"
						}
					],
					"name": "unblockAccount",
					"outputs": [],
					"stateMutability": "nonpayable",
					"type": "function"
				},
				{
					"inputs": [],
					"name": "unpause",
					"outputs": [],
					"stateMutability": "nonpayable",
					"type": "function"
				}
			],
			"devdoc": {
				"errors": {
					"InvalidInitialization()": [
						{
							"details": "The contract is already initialized."
						}
					],
					"NotInitializing()": [
						{
							"details": "The contract is not initializing."
						}
					]
				},
				"events": {
					"Approval(address,address,uint256)": {
						"details": "Emitted when the allowance of a `spender` for an `owner` is set by a call to {approve}. `value` is the new allowance."
					},
					"BlockedAccount(address)": {
						"details": "Emitted when the `_account` blocked."
					},
					"Initialized(uint64)": {
						"details": "Triggered when the contract has been initialized or reinitialized."
					},
					"Paused(address)": {
						"details": "Emitted when the pause is triggered by `account`."
					},
					"Transfer(address,address,uint256)": {
						"details": "Emitted when `value` tokens are moved from one account (`from`) to another (`to`). Note that `value` may be zero."
					},
					"UnblockedAccount(address)": {
						"details": "Emitted when the `_account` unblocked."
					},
					"Unpaused(address)": {
						"details": "Emitted when the pause is lifted by `account`."
					}
				},
				"kind": "dev",
				"methods": {
					"allowance(address,address)": {
						"details": "Returns the remaining number of tokens that `spender` will be allowed to spend on behalf of `owner` through {transferFrom}. This is zero by default. This value changes when {approve} or {transferFrom} are called."
					},
					"balanceOf(address)": {
						"details": "Returns the value of tokens owned by `account`."
					},
					"decimals()": {
						"details": "Returns the decimals places of the token."
					},
					"name()": {
						"details": "Returns the name of the token."
					},
					"paused()": {
						"details": "Returns true if the contract is paused, and false otherwise."
					},
					"symbol()": {
						"details": "Returns the symbol of the token."
					},
					"totalSupply()": {
						"details": "Returns the value of tokens in existence."
					}
				},
				"version": 1
			},
			"evm": {
				"assembly": "    /* \"contracts/EssentialToken.sol\":164:2480  contract EssentialToken is ERC20, Pausable,  BlackList {... */\n  mstore(0x40, 0x80)\n    /* \"contracts/EssentialToken.sol\":225:258  bool public isInitialized = false */\n  0x08\n  dup1\n  sload\n  not(0xff)\n  and\n  swap1\n  sstore\n    /* \"contracts/EssentialToken.sol\":164:2480  contract EssentialToken is ERC20, Pausable,  BlackList {... */\n  callvalue\n  dup1\n  iszero\n  tag_1\n  jumpi\n  0x00\n  dup1\n  revert\ntag_1:\n  pop\n    /* \"@openzeppelin/contracts/security/Pausable.sol\":996:1003  _paused */\n  0x06\n    /* \"@openzeppelin/contracts/security/Pausable.sol\":996:1011  _paused = false */\n  dup1\n  sload\n  not(0xff00)\n  and\n  swap1\n  sstore\n    /* \"contracts/EssentialToken.sol\":164:2480  contract EssentialToken is ERC20, Pausable,  BlackList {... */\n  dataSize(sub_0)\n  dup1\n  dataOffset(sub_0)\n  0x00\n  codecopy\n  0x00\n  return\nstop\n\nsub_0: assembly {\n        /* \"contracts/EssentialToken.sol\":164:2480  contract EssentialToken is ERC20, Pausable,  BlackList {... */\n      mstore(0x40, 0x80)\n      callvalue\n      dup1\n      iszero\n      tag_1\n      jumpi\n      0x00\n      dup1\n      revert\n    tag_1:\n      pop\n      jumpi(tag_2, lt(calldatasize, 0x04))\n      shr(0xe0, calldataload(0x00))\n      dup1\n      0x764776e7\n      gt\n      tag_30\n      jumpi\n      dup1\n      0xa09a1601\n      gt\n      tag_31\n      jumpi\n      dup1\n      0xca88bd5b\n      gt\n      tag_32\n      jumpi\n      dup1\n      0xca88bd5b\n      eq\n      tag_26\n      jumpi\n      dup1\n      0xd29d44ee\n      eq\n      tag_27\n      jumpi\n      dup1\n      0xd5abeb01\n      eq\n      tag_28\n      jumpi\n      dup1\n      0xdd62ed3e\n      eq\n      tag_29\n      jumpi\n      0x00\n      dup1\n      revert\n    tag_32:\n      dup1\n      0xa09a1601\n      eq\n      tag_23\n      jumpi\n      dup1\n      0xa457c2d7\n      eq\n      tag_24\n      jumpi\n      dup1\n      0xa9059cbb\n      eq\n      tag_25\n      jumpi\n      0x00\n      dup1\n      revert\n    tag_31:\n      dup1\n      0x8456cb59\n      gt\n      tag_33\n      jumpi\n      dup1\n      0x8456cb59\n      eq\n      tag_19\n      jumpi\n      dup1\n      0x883356d9\n      eq\n      tag_20\n      jumpi\n      dup1\n      0x8da5cb5b\n      eq\n      tag_21\n      jumpi\n      dup1\n      0x95d89b41\n      eq\n      tag_22\n      jumpi\n      0x00\n      dup1\n      revert\n    tag_33:\n      dup1\n      0x764776e7\n      eq\n      tag_16\n      jumpi\n      dup1\n      0x79cc6790\n      eq\n      tag_17\n      jumpi\n      dup1\n      0x7c0a893d\n      eq\n      tag_18\n      jumpi\n      0x00\n      dup1\n      revert\n    tag_30:\n      dup1\n      0x39509351\n      gt\n      tag_34\n      jumpi\n      dup1\n      0x42966c68\n      gt\n      tag_35\n      jumpi\n      dup1\n      0x42966c68\n      eq\n      tag_12\n      jumpi\n      dup1\n      0x4d78fdc6\n      eq\n      tag_13\n      jumpi\n      dup1\n      0x5c975abb\n      eq\n      tag_14\n      jumpi\n      dup1\n      0x70a08231\n      eq\n      tag_15\n      jumpi\n      0x00\n      dup1\n      revert\n    tag_35:\n      dup1\n      0x39509351\n      eq\n      tag_9\n      jumpi\n      dup1\n      0x3f4ba83a\n      eq\n      tag_10\n      jumpi\n      dup1\n      0x40c10f19\n      eq\n      tag_11\n      jumpi\n      0x00\n      dup1\n      revert\n    tag_34:\n      dup1\n      0x06fdde03\n      eq\n      tag_3\n      jumpi\n      dup1\n      0x095ea7b3\n      eq\n      tag_4\n      jumpi\n      dup1\n      0x18160ddd\n      eq\n      tag_5\n      jumpi\n      dup1\n      0x23b872dd\n      eq\n      tag_6\n      jumpi\n      dup1\n      0x313ce567\n      eq\n      tag_7\n      jumpi\n      dup1\n      0x392e53cd\n      eq\n      tag_8\n      jumpi\n    tag_2:\n      0x00\n      dup1\n      revert\n        /* \"contracts/ERC20.sol\":817:915  function name() public view virtual override returns (string memory) {... */\n    tag_3:\n      tag_36\n      tag_37\n      jump\t// in\n    tag_36:\n      mload(0x40)\n      tag_38\n      swap2\n      swap1\n      tag_39\n      jump\t// in\n    tag_38:\n      mload(0x40)\n      dup1\n      swap2\n      sub\n      swap1\n      return\n        /* \"contracts/ERC20.sol\":1792:1956  function approve(address spender, uint256 amount) public virtual override returns (bool) {... */\n    tag_4:\n      tag_40\n      tag_41\n      calldatasize\n      0x04\n      tag_42\n      jump\t// in\n    tag_41:\n      tag_43\n      jump\t// in\n    tag_40:\n      mload(0x40)\n        /* \"#utility.yul\":1085:1099   */\n      swap1\n      iszero\n        /* \"#utility.yul\":1078:1100   */\n      iszero\n        /* \"#utility.yul\":1060:1101   */\n      dup2\n      mstore\n        /* \"#utility.yul\":1048:1050   */\n      0x20\n        /* \"#utility.yul\":1033:1051   */\n      add\n        /* \"contracts/ERC20.sol\":1792:1956  function approve(address spender, uint256 amount) public virtual override returns (bool) {... */\n      tag_38\n        /* \"#utility.yul\":920:1107   */\n      jump\n        /* \"contracts/ERC20.sol\":1133:1239  function totalSupply() public view virtual override returns (uint256) {... */\n    tag_5:\n        /* \"contracts/ERC20.sol\":1220:1232  _totalSupply */\n      sload(0x02)\n        /* \"contracts/ERC20.sol\":1133:1239  function totalSupply() public view virtual override returns (uint256) {... */\n    tag_46:\n      mload(0x40)\n        /* \"#utility.yul\":1258:1283   */\n      swap1\n      dup2\n      mstore\n        /* \"#utility.yul\":1246:1248   */\n      0x20\n        /* \"#utility.yul\":1231:1249   */\n      add\n        /* \"contracts/ERC20.sol\":1133:1239  function totalSupply() public view virtual override returns (uint256) {... */\n      tag_38\n        /* \"#utility.yul\":1112:1289   */\n      jump\n        /* \"contracts/ERC20.sol\":1962:2181  function transferFrom(address from, address to, uint256 amount) public virtual override returns (bool) {... */\n    tag_6:\n      tag_40\n      tag_51\n      calldatasize\n      0x04\n      tag_52\n      jump\t// in\n    tag_51:\n      tag_53\n      jump\t// in\n        /* \"contracts/ERC20.sol\":1029:1127  function decimals() public view virtual override returns (uint8) {... */\n    tag_7:\n        /* \"contracts/ERC20.sol\":1111:1120  _decimals */\n      sload(0x06)\n        /* \"contracts/ERC20.sol\":1029:1127  function decimals() public view virtual override returns (uint8) {... */\n      mload(0x40)\n        /* \"contracts/ERC20.sol\":1111:1120  _decimals */\n      0xff\n      swap1\n      swap2\n      and\n        /* \"#utility.yul\":1815:1851   */\n      dup2\n      mstore\n        /* \"#utility.yul\":1803:1805   */\n      0x20\n        /* \"#utility.yul\":1788:1806   */\n      add\n        /* \"contracts/ERC20.sol\":1029:1127  function decimals() public view virtual override returns (uint8) {... */\n      tag_38\n        /* \"#utility.yul\":1673:1857   */\n      jump\n        /* \"contracts/EssentialToken.sol\":225:258  bool public isInitialized = false */\n    tag_8:\n      sload(0x08)\n      tag_40\n      swap1\n      0xff\n      and\n      dup2\n      jump\n        /* \"contracts/ERC20.sol\":2187:2419  function increaseAllowance(address spender, uint256 addedValue) public virtual returns (bool) {... */\n    tag_9:\n      tag_40\n      tag_63\n      calldatasize\n      0x04\n      tag_42\n      jump\t// in\n    tag_63:\n      tag_64\n      jump\t// in\n        /* \"contracts/EssentialToken.sol\":1532:1603  function unpause() public onlyOwner canPause{... */\n    tag_10:\n      tag_66\n      tag_67\n      jump\t// in\n    tag_66:\n      stop\n        /* \"contracts/EssentialToken.sol\":1609:1702  function mint(address to, uint256 amount) public onlyOwner {... */\n    tag_11:\n      tag_66\n      tag_69\n      calldatasize\n      0x04\n      tag_42\n      jump\t// in\n    tag_69:\n      tag_70\n      jump\t// in\n        /* \"contracts/EssentialToken.sol\":2255:2344  function burn(uint256 amount) public override canBurn {... */\n    tag_12:\n      tag_66\n      tag_72\n      calldatasize\n      0x04\n      tag_73\n      jump\t// in\n    tag_72:\n      tag_74\n      jump\t// in\n        /* \"contracts/EssentialToken.sol\":1811:1912  function unblockAccount(address _account) public onlyOwner {... */\n    tag_13:\n      tag_66\n      tag_76\n      calldatasize\n      0x04\n      tag_77\n      jump\t// in\n    tag_76:\n      tag_78\n      jump\t// in\n        /* \"@openzeppelin/contracts/security/Pausable.sol\":1615:1699  function paused() public view virtual returns (bool) {... */\n    tag_14:\n        /* \"@openzeppelin/contracts/security/Pausable.sol\":1685:1692  _paused */\n      sload(0x06)\n      0x0100\n      swap1\n      div\n      0xff\n      and\n        /* \"@openzeppelin/contracts/security/Pausable.sol\":1615:1699  function paused() public view virtual returns (bool) {... */\n      jump(tag_40)\n        /* \"contracts/ERC20.sol\":1344:1469  function balanceOf(address account) public view virtual override returns (uint256) {... */\n    tag_15:\n      tag_46\n      tag_83\n      calldatasize\n      0x04\n      tag_77\n      jump\t// in\n    tag_83:\n      sub(shl(0xa0, 0x01), 0x01)\n        /* \"contracts/ERC20.sol\":1444:1462  _balances[account] */\n      and\n        /* \"contracts/ERC20.sol\":1418:1425  uint256 */\n      0x00\n        /* \"contracts/ERC20.sol\":1444:1462  _balances[account] */\n      swap1\n      dup2\n      mstore\n      0x20\n      dup2\n      swap1\n      mstore\n      0x40\n      swap1\n      keccak256\n      sload\n      swap1\n        /* \"contracts/ERC20.sol\":1344:1469  function balanceOf(address account) public view virtual override returns (uint256) {... */\n      jump\n        /* \"contracts/EssentialToken.sol\":348:1056  function initialize(... */\n    tag_16:\n      tag_66\n      tag_87\n      calldatasize\n      0x04\n      tag_88\n      jump\t// in\n    tag_87:\n      tag_89\n      jump\t// in\n        /* \"contracts/EssentialToken.sol\":2350:2473  function burnFrom(address account, uint256 amount) public override  canBurn{... */\n    tag_17:\n      tag_66\n      tag_91\n      calldatasize\n      0x04\n      tag_42\n      jump\t// in\n    tag_91:\n      tag_92\n      jump\t// in\n        /* \"contracts/EssentialToken.sol\":1708:1805  function blockAccount(address _account) public onlyOwner {... */\n    tag_18:\n      tag_66\n      tag_94\n      calldatasize\n      0x04\n      tag_77\n      jump\t// in\n    tag_94:\n      tag_95\n      jump\t// in\n        /* \"contracts/EssentialToken.sol\":1458:1526  function pause() public onlyOwner canPause {... */\n    tag_19:\n      tag_66\n      tag_97\n      jump\t// in\n        /* \"contracts/EssentialToken.sol\":292:314  bool public isBurnable */\n    tag_20:\n      sload(0x08)\n      tag_40\n      swap1\n      0x010000\n      swap1\n      div\n      0xff\n      and\n      dup2\n      jump\n        /* \"contracts/EssentialToken.sol\":320:341  address public  owner */\n    tag_21:\n      sload(0x08)\n      tag_101\n      swap1\n      0x01000000\n      swap1\n      div\n      sub(shl(0xa0, 0x01), 0x01)\n      and\n      dup2\n      jump\n    tag_101:\n      mload(0x40)\n      sub(shl(0xa0, 0x01), 0x01)\n        /* \"#utility.yul\":4631:4663   */\n      swap1\n      swap2\n      and\n        /* \"#utility.yul\":4613:4664   */\n      dup2\n      mstore\n        /* \"#utility.yul\":4601:4603   */\n      0x20\n        /* \"#utility.yul\":4586:4604   */\n      add\n        /* \"contracts/EssentialToken.sol\":320:341  address public  owner */\n      tag_38\n        /* \"#utility.yul\":4467:4670   */\n      jump\n        /* \"contracts/ERC20.sol\":921:1023  function symbol() public view virtual override returns (string memory) {... */\n    tag_22:\n      tag_36\n      tag_106\n      jump\t// in\n        /* \"contracts/EssentialToken.sol\":264:286  bool public isPausable */\n    tag_23:\n      sload(0x08)\n      tag_40\n      swap1\n      0x0100\n      swap1\n      div\n      0xff\n      and\n      dup2\n      jump\n        /* \"contracts/ERC20.sol\":2425:2850  function decreaseAllowance(address spender, uint256 subtractedValue) public virtual returns (bool) {... */\n    tag_24:\n      tag_40\n      tag_112\n      calldatasize\n      0x04\n      tag_42\n      jump\t// in\n    tag_112:\n      tag_113\n      jump\t// in\n        /* \"contracts/ERC20.sol\":1475:1631  function transfer(address to, uint256 amount) public virtual override returns (bool) {... */\n    tag_25:\n      tag_40\n      tag_116\n      calldatasize\n      0x04\n      tag_42\n      jump\t// in\n    tag_116:\n      tag_117\n      jump\t// in\n        /* \"contracts/Blacklist.sol\":387:506  function isAccountBlocked(address _account) public view returns (bool) {... */\n    tag_26:\n      tag_40\n      tag_120\n      calldatasize\n      0x04\n      tag_77\n      jump\t// in\n    tag_120:\n      sub(shl(0xa0, 0x01), 0x01)\n        /* \"contracts/Blacklist.sol\":475:499  _isBlackListed[_account] */\n      and\n        /* \"contracts/Blacklist.sol\":452:456  bool */\n      0x00\n        /* \"contracts/Blacklist.sol\":475:499  _isBlackListed[_account] */\n      swap1\n      dup2\n      mstore\n        /* \"contracts/Blacklist.sol\":475:489  _isBlackListed */\n      0x07\n        /* \"contracts/Blacklist.sol\":475:499  _isBlackListed[_account] */\n      0x20\n      mstore\n      0x40\n      swap1\n      keccak256\n      sload\n      0xff\n      and\n      swap1\n        /* \"contracts/Blacklist.sol\":387:506  function isAccountBlocked(address _account) public view returns (bool) {... */\n      jump\n        /* \"contracts/EssentialToken.sol\":1351:1452  function _transferOwnership(address _newOwner) public onlyOwner{... */\n    tag_27:\n      tag_66\n      tag_124\n      calldatasize\n      0x04\n      tag_77\n      jump\t// in\n    tag_124:\n      tag_125\n      jump\t// in\n        /* \"contracts/ERC20.sol\":1245:1338  function maxSupply() public view virtual returns (uint256) {... */\n    tag_28:\n        /* \"contracts/ERC20.sol\":1321:1331  _maxSupply */\n      sload(0x03)\n        /* \"contracts/ERC20.sol\":1245:1338  function maxSupply() public view virtual returns (uint256) {... */\n      jump(tag_46)\n        /* \"contracts/ERC20.sol\":1637:1786  function allowance(address owner, address spender) public view virtual override returns (uint256) {... */\n    tag_29:\n      tag_46\n      tag_130\n      calldatasize\n      0x04\n      tag_131\n      jump\t// in\n    tag_130:\n      tag_132\n      jump\t// in\n        /* \"contracts/ERC20.sol\":817:915  function name() public view virtual override returns (string memory) {... */\n    tag_37:\n        /* \"contracts/ERC20.sol\":871:884  string memory */\n      0x60\n        /* \"contracts/ERC20.sol\":903:908  _name */\n      0x04\n        /* \"contracts/ERC20.sol\":896:908  return _name */\n      dup1\n      sload\n      tag_135\n      swap1\n      tag_136\n      jump\t// in\n    tag_135:\n      dup1\n      0x1f\n      add\n      0x20\n      dup1\n      swap2\n      div\n      mul\n      0x20\n      add\n      mload(0x40)\n      swap1\n      dup2\n      add\n      0x40\n      mstore\n      dup1\n      swap3\n      swap2\n      swap1\n      dup2\n      dup2\n      mstore\n      0x20\n      add\n      dup3\n      dup1\n      sload\n      tag_137\n      swap1\n      tag_136\n      jump\t// in\n    tag_137:\n      dup1\n      iszero\n      tag_138\n      jumpi\n      dup1\n      0x1f\n      lt\n      tag_139\n      jumpi\n      0x0100\n      dup1\n      dup4\n      sload\n      div\n      mul\n      dup4\n      mstore\n      swap2\n      0x20\n      add\n      swap2\n      jump(tag_138)\n    tag_139:\n      dup3\n      add\n      swap2\n      swap1\n      0x00\n      mstore\n      keccak256(0x00, 0x20)\n      swap1\n    tag_140:\n      dup2\n      sload\n      dup2\n      mstore\n      swap1\n      0x01\n      add\n      swap1\n      0x20\n      add\n      dup1\n      dup4\n      gt\n      tag_140\n      jumpi\n      dup3\n      swap1\n      sub\n      0x1f\n      and\n      dup3\n      add\n      swap2\n    tag_138:\n      pop\n      pop\n      pop\n      pop\n      pop\n      swap1\n      pop\n        /* \"contracts/ERC20.sol\":817:915  function name() public view virtual override returns (string memory) {... */\n      swap1\n      jump\t// out\n        /* \"contracts/ERC20.sol\":1792:1956  function approve(address spender, uint256 amount) public virtual override returns (bool) {... */\n    tag_43:\n        /* \"contracts/ERC20.sol\":1875:1879  bool */\n      0x00\n        /* \"contracts/ERC20.sol\":1891:1928  _approve(msg.sender, spender, amount) */\n      tag_142\n        /* \"contracts/ERC20.sol\":1900:1910  msg.sender */\n      caller\n        /* \"contracts/ERC20.sol\":1912:1919  spender */\n      dup5\n        /* \"contracts/ERC20.sol\":1921:1927  amount */\n      dup5\n        /* \"contracts/ERC20.sol\":1891:1899  _approve */\n      tag_143\n        /* \"contracts/ERC20.sol\":1891:1928  _approve(msg.sender, spender, amount) */\n      jump\t// in\n    tag_142:\n      pop\n        /* \"contracts/ERC20.sol\":1945:1949  true */\n      0x01\n        /* \"contracts/ERC20.sol\":1792:1956  function approve(address spender, uint256 amount) public virtual override returns (bool) {... */\n    tag_141:\n      swap3\n      swap2\n      pop\n      pop\n      jump\t// out\n        /* \"contracts/ERC20.sol\":1962:2181  function transferFrom(address from, address to, uint256 amount) public virtual override returns (bool) {... */\n    tag_53:\n        /* \"contracts/ERC20.sol\":2059:2063  bool */\n      0x00\n        /* \"contracts/ERC20.sol\":2075:2116  _spendAllowance(from, msg.sender, amount) */\n      tag_146\n        /* \"contracts/ERC20.sol\":2091:2095  from */\n      dup5\n        /* \"contracts/ERC20.sol\":2097:2107  msg.sender */\n      caller\n        /* \"contracts/ERC20.sol\":2109:2115  amount */\n      dup5\n        /* \"contracts/ERC20.sol\":2075:2090  _spendAllowance */\n      tag_147\n        /* \"contracts/ERC20.sol\":2075:2116  _spendAllowance(from, msg.sender, amount) */\n      jump\t// in\n    tag_146:\n        /* \"contracts/ERC20.sol\":2126:2153  _transfer(from, to, amount) */\n      tag_148\n        /* \"contracts/ERC20.sol\":2136:2140  from */\n      dup5\n        /* \"contracts/ERC20.sol\":2142:2144  to */\n      dup5\n        /* \"contracts/ERC20.sol\":2146:2152  amount */\n      dup5\n        /* \"contracts/ERC20.sol\":2126:2135  _transfer */\n      tag_149\n        /* \"contracts/ERC20.sol\":2126:2153  _transfer(from, to, amount) */\n      jump\t// in\n    tag_148:\n      pop\n        /* \"contracts/ERC20.sol\":2170:2174  true */\n      0x01\n        /* \"contracts/ERC20.sol\":1962:2181  function transferFrom(address from, address to, uint256 amount) public virtual override returns (bool) {... */\n      swap4\n      swap3\n      pop\n      pop\n      pop\n      jump\t// out\n        /* \"contracts/ERC20.sol\":2187:2419  function increaseAllowance(address spender, uint256 addedValue) public virtual returns (bool) {... */\n    tag_64:\n        /* \"contracts/ERC20.sol\":2275:2279  bool */\n      0x00\n        /* \"contracts/ERC20.sol\":2307:2317  msg.sender */\n      caller\n        /* \"contracts/ERC20.sol\":2327:2391  _approve(owner, spender, allowance(owner, spender) + addedValue) */\n      tag_148\n        /* \"contracts/ERC20.sol\":2307:2317  msg.sender */\n      dup2\n        /* \"contracts/ERC20.sol\":2343:2350  spender */\n      dup6\n        /* \"contracts/ERC20.sol\":2380:2390  addedValue */\n      dup6\n        /* \"contracts/ERC20.sol\":2352:2377  allowance(owner, spender) */\n      tag_153\n        /* \"contracts/ERC20.sol\":2307:2317  msg.sender */\n      dup4\n        /* \"contracts/ERC20.sol\":2343:2350  spender */\n      dup4\n        /* \"contracts/ERC20.sol\":2352:2361  allowance */\n      tag_132\n        /* \"contracts/ERC20.sol\":2352:2377  allowance(owner, spender) */\n      jump\t// in\n    tag_153:\n        /* \"contracts/ERC20.sol\":2352:2390  allowance(owner, spender) + addedValue */\n      tag_154\n      swap2\n      swap1\n      tag_155\n      jump\t// in\n    tag_154:\n        /* \"contracts/ERC20.sol\":2327:2335  _approve */\n      tag_143\n        /* \"contracts/ERC20.sol\":2327:2391  _approve(owner, spender, allowance(owner, spender) + addedValue) */\n      jump\t// in\n        /* \"contracts/EssentialToken.sol\":1532:1603  function unpause() public onlyOwner canPause{... */\n    tag_67:\n        /* \"contracts/EssentialToken.sol\":1115:1120  owner */\n      sload(0x08)\n      0x01000000\n      swap1\n      div\n      sub(shl(0xa0, 0x01), 0x01)\n      and\n        /* \"contracts/EssentialToken.sol\":1101:1111  msg.sender */\n      caller\n        /* \"contracts/EssentialToken.sol\":1101:1120  msg.sender == owner */\n      eq\n        /* \"contracts/EssentialToken.sol\":1093:1134  require(msg.sender == owner, \"Not owner\") */\n      tag_157\n      jumpi\n      mload(0x40)\n      shl(0xe5, 0x461bcd)\n      dup2\n      mstore\n      0x04\n      add\n      tag_158\n      swap1\n      tag_159\n      jump\t// in\n    tag_158:\n      mload(0x40)\n      dup1\n      swap2\n      sub\n      swap1\n      revert\n    tag_157:\n        /* \"contracts/EssentialToken.sol\":1196:1206  isPausable */\n      sload(0x08)\n      0xff\n      0x0100\n      swap1\n      swap2\n      div\n      and\n        /* \"contracts/EssentialToken.sol\":1196:1214  isPausable == true */\n      iszero\n      iszero\n        /* \"contracts/EssentialToken.sol\":1196:1206  isPausable */\n      0x01\n        /* \"contracts/EssentialToken.sol\":1196:1214  isPausable == true */\n      eq\n        /* \"contracts/EssentialToken.sol\":1188:1231  require(isPausable == true, \"Not Pausable\") */\n      tag_161\n      jumpi\n      mload(0x40)\n      shl(0xe5, 0x461bcd)\n      dup2\n      mstore\n        /* \"#utility.yul\":6126:6128   */\n      0x20\n        /* \"contracts/EssentialToken.sol\":1188:1231  require(isPausable == true, \"Not Pausable\") */\n      0x04\n      dup3\n      add\n        /* \"#utility.yul\":6108:6129   */\n      mstore\n        /* \"#utility.yul\":6165:6167   */\n      0x0c\n        /* \"#utility.yul\":6145:6163   */\n      0x24\n      dup3\n      add\n        /* \"#utility.yul\":6138:6168   */\n      mstore\n      shl(0xa0, 0x4e6f74205061757361626c65)\n        /* \"#utility.yul\":6184:6202   */\n      0x44\n      dup3\n      add\n        /* \"#utility.yul\":6177:6219   */\n      mstore\n        /* \"#utility.yul\":6236:6254   */\n      0x64\n      add\n        /* \"contracts/EssentialToken.sol\":1188:1231  require(isPausable == true, \"Not Pausable\") */\n      tag_158\n        /* \"#utility.yul\":5924:6260   */\n      jump\n        /* \"contracts/EssentialToken.sol\":1188:1231  require(isPausable == true, \"Not Pausable\") */\n    tag_161:\n        /* \"contracts/EssentialToken.sol\":1586:1596  _unpause() */\n      tag_165\n        /* \"contracts/EssentialToken.sol\":1586:1594  _unpause */\n      tag_166\n        /* \"contracts/EssentialToken.sol\":1586:1596  _unpause() */\n      jump\t// in\n    tag_165:\n        /* \"contracts/EssentialToken.sol\":1532:1603  function unpause() public onlyOwner canPause{... */\n      jump\t// out\n        /* \"contracts/EssentialToken.sol\":1609:1702  function mint(address to, uint256 amount) public onlyOwner {... */\n    tag_70:\n        /* \"contracts/EssentialToken.sol\":1115:1120  owner */\n      sload(0x08)\n      0x01000000\n      swap1\n      div\n      sub(shl(0xa0, 0x01), 0x01)\n      and\n        /* \"contracts/EssentialToken.sol\":1101:1111  msg.sender */\n      caller\n        /* \"contracts/EssentialToken.sol\":1101:1120  msg.sender == owner */\n      eq\n        /* \"contracts/EssentialToken.sol\":1093:1134  require(msg.sender == owner, \"Not owner\") */\n      tag_168\n      jumpi\n      mload(0x40)\n      shl(0xe5, 0x461bcd)\n      dup2\n      mstore\n      0x04\n      add\n      tag_158\n      swap1\n      tag_159\n      jump\t// in\n    tag_168:\n        /* \"contracts/EssentialToken.sol\":1678:1695  _mint(to, amount) */\n      tag_171\n        /* \"contracts/EssentialToken.sol\":1684:1686  to */\n      dup3\n        /* \"contracts/EssentialToken.sol\":1688:1694  amount */\n      dup3\n        /* \"contracts/EssentialToken.sol\":1678:1683  _mint */\n      tag_172\n        /* \"contracts/EssentialToken.sol\":1678:1695  _mint(to, amount) */\n      jump\t// in\n    tag_171:\n        /* \"contracts/EssentialToken.sol\":1609:1702  function mint(address to, uint256 amount) public onlyOwner {... */\n      pop\n      pop\n      jump\t// out\n        /* \"contracts/EssentialToken.sol\":2255:2344  function burn(uint256 amount) public override canBurn {... */\n    tag_74:\n        /* \"contracts/EssentialToken.sol\":1292:1302  isBurnable */\n      sload(0x08)\n      0x010000\n      swap1\n      div\n      0xff\n      and\n        /* \"contracts/EssentialToken.sol\":1292:1310  isBurnable == true */\n      iszero\n      iszero\n        /* \"contracts/EssentialToken.sol\":1306:1310  true */\n      0x01\n        /* \"contracts/EssentialToken.sol\":1292:1310  isBurnable == true */\n      eq\n        /* \"contracts/EssentialToken.sol\":1284:1327  require(isBurnable == true, \"Not Burnable\") */\n      tag_174\n      jumpi\n      mload(0x40)\n      shl(0xe5, 0x461bcd)\n      dup2\n      mstore\n        /* \"#utility.yul\":6467:6469   */\n      0x20\n        /* \"contracts/EssentialToken.sol\":1284:1327  require(isBurnable == true, \"Not Burnable\") */\n      0x04\n      dup3\n      add\n        /* \"#utility.yul\":6449:6470   */\n      mstore\n        /* \"#utility.yul\":6506:6508   */\n      0x0c\n        /* \"#utility.yul\":6486:6504   */\n      0x24\n      dup3\n      add\n        /* \"#utility.yul\":6479:6509   */\n      mstore\n      shl(0xa0, 0x4e6f74204275726e61626c65)\n        /* \"#utility.yul\":6525:6543   */\n      0x44\n      dup3\n      add\n        /* \"#utility.yul\":6518:6560   */\n      mstore\n        /* \"#utility.yul\":6577:6595   */\n      0x64\n      add\n        /* \"contracts/EssentialToken.sol\":1284:1327  require(isBurnable == true, \"Not Burnable\") */\n      tag_158\n        /* \"#utility.yul\":6265:6601   */\n      jump\n        /* \"contracts/EssentialToken.sol\":1284:1327  require(isBurnable == true, \"Not Burnable\") */\n    tag_174:\n        /* \"contracts/EssentialToken.sol\":2319:2337  super.burn(amount) */\n      tag_178\n        /* \"contracts/EssentialToken.sol\":2330:2336  amount */\n      dup2\n        /* \"contracts/EssentialToken.sol\":2319:2329  super.burn */\n      tag_179\n        /* \"contracts/EssentialToken.sol\":2319:2337  super.burn(amount) */\n      jump\t// in\n    tag_178:\n        /* \"contracts/EssentialToken.sol\":2255:2344  function burn(uint256 amount) public override canBurn {... */\n      pop\n      jump\t// out\n        /* \"contracts/EssentialToken.sol\":1811:1912  function unblockAccount(address _account) public onlyOwner {... */\n    tag_78:\n        /* \"contracts/EssentialToken.sol\":1115:1120  owner */\n      sload(0x08)\n      0x01000000\n      swap1\n      div\n      sub(shl(0xa0, 0x01), 0x01)\n      and\n        /* \"contracts/EssentialToken.sol\":1101:1111  msg.sender */\n      caller\n        /* \"contracts/EssentialToken.sol\":1101:1120  msg.sender == owner */\n      eq\n        /* \"contracts/EssentialToken.sol\":1093:1134  require(msg.sender == owner, \"Not owner\") */\n      tag_181\n      jumpi\n      mload(0x40)\n      shl(0xe5, 0x461bcd)\n      dup2\n      mstore\n      0x04\n      add\n      tag_158\n      swap1\n      tag_159\n      jump\t// in\n    tag_181:\n        /* \"contracts/EssentialToken.sol\":1880:1905  _unblockAccount(_account) */\n      tag_178\n        /* \"contracts/EssentialToken.sol\":1896:1904  _account */\n      dup2\n        /* \"contracts/EssentialToken.sol\":1880:1895  _unblockAccount */\n      tag_185\n        /* \"contracts/EssentialToken.sol\":1880:1905  _unblockAccount(_account) */\n      jump\t// in\n        /* \"contracts/EssentialToken.sol\":348:1056  function initialize(... */\n    tag_89:\n        /* \"@openzeppelin/contracts/proxy/utils/Initializable.sol\":8870:8891  INITIALIZABLE_STORAGE */\n      0xf0c57e16840df040f15088dc2f81fe391c3923bec73e23a9662efc9c229c6a00\n        /* \"@openzeppelin/contracts/proxy/utils/Initializable.sol\":4302:4317  $._initializing */\n      dup1\n      sload\n      shl(0x40, 0x01)\n      dup2\n      div\n      0xff\n      and\n        /* \"@openzeppelin/contracts/proxy/utils/Initializable.sol\":4301:4317  !$._initializing */\n      iszero\n      swap1\n        /* \"@openzeppelin/contracts/proxy/utils/Initializable.sol\":4348:4362  $._initialized */\n      0xffffffffffffffff\n      and\n        /* \"@openzeppelin/contracts/proxy/utils/Initializable.sol\":4158:4188  InitializableStorage storage $ */\n      0x00\n        /* \"@openzeppelin/contracts/proxy/utils/Initializable.sol\":4726:4742  initialized == 0 */\n      dup2\n      iszero\n        /* \"@openzeppelin/contracts/proxy/utils/Initializable.sol\":4726:4760  initialized == 0 && isTopLevelCall */\n      dup1\n      iszero\n      tag_191\n      jumpi\n      pop\n        /* \"@openzeppelin/contracts/proxy/utils/Initializable.sol\":4746:4760  isTopLevelCall */\n      dup3\n        /* \"@openzeppelin/contracts/proxy/utils/Initializable.sol\":4726:4760  initialized == 0 && isTopLevelCall */\n    tag_191:\n        /* \"@openzeppelin/contracts/proxy/utils/Initializable.sol\":4706:4760  bool initialSetup = initialized == 0 && isTopLevelCall */\n      swap1\n      pop\n        /* \"@openzeppelin/contracts/proxy/utils/Initializable.sol\":4770:4787  bool construction */\n      0x00\n        /* \"@openzeppelin/contracts/proxy/utils/Initializable.sol\":4790:4801  initialized */\n      dup3\n        /* \"@openzeppelin/contracts/proxy/utils/Initializable.sol\":4790:4806  initialized == 1 */\n      0xffffffffffffffff\n      and\n        /* \"@openzeppelin/contracts/proxy/utils/Initializable.sol\":4805:4806  1 */\n      0x01\n        /* \"@openzeppelin/contracts/proxy/utils/Initializable.sol\":4790:4806  initialized == 1 */\n      eq\n        /* \"@openzeppelin/contracts/proxy/utils/Initializable.sol\":4790:4840  initialized == 1 && address(this).code.length == 0 */\n      dup1\n      iszero\n      tag_192\n      jumpi\n      pop\n        /* \"@openzeppelin/contracts/proxy/utils/Initializable.sol\":4818:4822  this */\n      address\n        /* \"@openzeppelin/contracts/proxy/utils/Initializable.sol\":4810:4835  address(this).code.length */\n      extcodesize\n        /* \"@openzeppelin/contracts/proxy/utils/Initializable.sol\":4810:4840  address(this).code.length == 0 */\n      iszero\n        /* \"@openzeppelin/contracts/proxy/utils/Initializable.sol\":4790:4840  initialized == 1 && address(this).code.length == 0 */\n    tag_192:\n        /* \"@openzeppelin/contracts/proxy/utils/Initializable.sol\":4770:4840  bool construction = initialized == 1 && address(this).code.length == 0 */\n      swap1\n      pop\n        /* \"@openzeppelin/contracts/proxy/utils/Initializable.sol\":4856:4868  initialSetup */\n      dup2\n        /* \"@openzeppelin/contracts/proxy/utils/Initializable.sol\":4855:4868  !initialSetup */\n      iszero\n        /* \"@openzeppelin/contracts/proxy/utils/Initializable.sol\":4855:4885  !initialSetup && !construction */\n      dup1\n      iszero\n      tag_193\n      jumpi\n      pop\n        /* \"@openzeppelin/contracts/proxy/utils/Initializable.sol\":4873:4885  construction */\n      dup1\n        /* \"@openzeppelin/contracts/proxy/utils/Initializable.sol\":4872:4885  !construction */\n      iszero\n        /* \"@openzeppelin/contracts/proxy/utils/Initializable.sol\":4855:4885  !initialSetup && !construction */\n    tag_193:\n        /* \"@openzeppelin/contracts/proxy/utils/Initializable.sol\":4851:4942  if (!initialSetup && !construction) {... */\n      iszero\n      tag_194\n      jumpi\n        /* \"@openzeppelin/contracts/proxy/utils/Initializable.sol\":4908:4931  InvalidInitialization() */\n      mload(0x40)\n      shl(0xe0, 0xf92ee8a9)\n      dup2\n      mstore\n      0x04\n      add\n      mload(0x40)\n      dup1\n      swap2\n      sub\n      swap1\n      revert\n        /* \"@openzeppelin/contracts/proxy/utils/Initializable.sol\":4851:4942  if (!initialSetup && !construction) {... */\n    tag_194:\n        /* \"@openzeppelin/contracts/proxy/utils/Initializable.sol\":4951:4969  $._initialized = 1 */\n      dup5\n      sload\n      not(0xffffffffffffffff)\n      and\n        /* \"@openzeppelin/contracts/proxy/utils/Initializable.sol\":4968:4969  1 */\n      0x01\n        /* \"@openzeppelin/contracts/proxy/utils/Initializable.sol\":4951:4969  $._initialized = 1 */\n      or\n      dup6\n      sstore\n        /* \"@openzeppelin/contracts/proxy/utils/Initializable.sol\":4979:5046  if (isTopLevelCall) {... */\n      dup4\n      iszero\n      tag_195\n      jumpi\n        /* \"@openzeppelin/contracts/proxy/utils/Initializable.sol\":5013:5035  $._initializing = true */\n      dup5\n      sload\n      not(shl(0x40, 0xff))\n      and\n      shl(0x40, 0x01)\n      or\n      dup6\n      sstore\n        /* \"@openzeppelin/contracts/proxy/utils/Initializable.sol\":4979:5046  if (isTopLevelCall) {... */\n    tag_195:\n        /* \"contracts/EssentialToken.sol\":634:647  isInitialized */\n      and(0xff, sload(0x08))\n        /* \"contracts/EssentialToken.sol\":634:656  isInitialized == false */\n      iszero\n        /* \"contracts/EssentialToken.sol\":626:681  require(isInitialized == false, \"Already Initialised\" ) */\n      tag_197\n      jumpi\n      mload(0x40)\n      shl(0xe5, 0x461bcd)\n      dup2\n      mstore\n        /* \"#utility.yul\":6808:6810   */\n      0x20\n        /* \"contracts/EssentialToken.sol\":626:681  require(isInitialized == false, \"Already Initialised\" ) */\n      0x04\n      dup3\n      add\n        /* \"#utility.yul\":6790:6811   */\n      mstore\n        /* \"#utility.yul\":6847:6849   */\n      0x13\n        /* \"#utility.yul\":6827:6845   */\n      0x24\n      dup3\n      add\n        /* \"#utility.yul\":6820:6850   */\n      mstore\n      shl(0x6a, 0x105b1c9958591e48125b9a5d1a585b1a5cd959)\n        /* \"#utility.yul\":6866:6884   */\n      0x44\n      dup3\n      add\n        /* \"#utility.yul\":6859:6908   */\n      mstore\n        /* \"#utility.yul\":6925:6943   */\n      0x64\n      add\n        /* \"contracts/EssentialToken.sol\":626:681  require(isInitialized == false, \"Already Initialised\" ) */\n      tag_158\n        /* \"#utility.yul\":6606:6949   */\n      jump\n        /* \"contracts/EssentialToken.sol\":626:681  require(isInitialized == false, \"Already Initialised\" ) */\n    tag_197:\n        /* \"contracts/EssentialToken.sol\":699:705  _owner */\n      dup13\n        /* \"contracts/EssentialToken.sol\":691:696  owner */\n      0x08\n      0x03\n        /* \"contracts/EssentialToken.sol\":691:705  owner = _owner */\n      0x0100\n      exp\n      dup2\n      sload\n      dup2\n      sub(shl(0xa0, 0x01), 0x01)\n      mul\n      not\n      and\n      swap1\n      dup4\n      sub(shl(0xa0, 0x01), 0x01)\n      and\n      mul\n      or\n      swap1\n      sstore\n      pop\n        /* \"contracts/EssentialToken.sol\":731:735  true */\n      0x01\n        /* \"contracts/EssentialToken.sol\":715:728  isInitialized */\n      0x08\n      0x00\n        /* \"contracts/EssentialToken.sol\":715:735  isInitialized = true */\n      0x0100\n      exp\n      dup2\n      sload\n      dup2\n      0xff\n      mul\n      not\n      and\n      swap1\n      dup4\n      iszero\n      iszero\n      mul\n      or\n      swap1\n      sstore\n      pop\n        /* \"contracts/EssentialToken.sol\":758:769  _isBurnable */\n      dup7\n        /* \"contracts/EssentialToken.sol\":745:755  isBurnable */\n      0x08\n      0x02\n        /* \"contracts/EssentialToken.sol\":745:769  isBurnable = _isBurnable */\n      0x0100\n      exp\n      dup2\n      sload\n      dup2\n      0xff\n      mul\n      not\n      and\n      swap1\n      dup4\n      iszero\n      iszero\n      mul\n      or\n      swap1\n      sstore\n      pop\n        /* \"contracts/EssentialToken.sol\":792:803  _isPausable */\n      dup6\n        /* \"contracts/EssentialToken.sol\":779:789  isPausable */\n      0x08\n      0x01\n        /* \"contracts/EssentialToken.sol\":779:803  isPausable = _isPausable */\n      0x0100\n      exp\n      dup2\n      sload\n      dup2\n      0xff\n      mul\n      not\n      and\n      swap1\n      dup4\n      iszero\n      iszero\n      mul\n      or\n      swap1\n      sstore\n      pop\n        /* \"contracts/EssentialToken.sol\":813:992  ERC20.init(... */\n      tag_200\n        /* \"contracts/EssentialToken.sol\":837:842  _name */\n      dup13\n        /* \"contracts/EssentialToken.sol\":856:863  _symbol */\n      dup13\n        /* \"contracts/EssentialToken.sol\":877:886  _decimals */\n      dup13\n      not(0x00)\n        /* \"contracts/EssentialToken.sol\":900:910  _maxSupply */\n      dup13\n        /* \"contracts/EssentialToken.sol\":900:931  _maxSupply == type(uint256).max */\n      eq\n        /* \"contracts/EssentialToken.sol\":900:982  _maxSupply == type(uint256).max ? type(uint256).max : _maxSupply * 10 ** _decimals */\n      tag_201\n      jumpi\n        /* \"contracts/EssentialToken.sol\":967:982  10 ** _decimals */\n      tag_202\n        /* \"contracts/EssentialToken.sol\":973:982  _decimals */\n      dup15\n        /* \"contracts/EssentialToken.sol\":967:969  10 */\n      0x0a\n        /* \"contracts/EssentialToken.sol\":967:982  10 ** _decimals */\n      tag_203\n      jump\t// in\n    tag_202:\n        /* \"contracts/EssentialToken.sol\":954:982  _maxSupply * 10 ** _decimals */\n      tag_204\n      swap1\n        /* \"contracts/EssentialToken.sol\":954:964  _maxSupply */\n      dup14\n        /* \"contracts/EssentialToken.sol\":954:982  _maxSupply * 10 ** _decimals */\n      tag_205\n      jump\t// in\n    tag_204:\n        /* \"contracts/EssentialToken.sol\":813:823  ERC20.init */\n      tag_207\n        /* \"contracts/EssentialToken.sol\":813:992  ERC20.init(... */\n      jump\t// in\n        /* \"contracts/EssentialToken.sol\":900:982  _maxSupply == type(uint256).max ? type(uint256).max : _maxSupply * 10 ** _decimals */\n    tag_201:\n      not(0x00)\n        /* \"contracts/EssentialToken.sol\":813:823  ERC20.init */\n      tag_207\n        /* \"contracts/EssentialToken.sol\":813:992  ERC20.init(... */\n      jump\t// in\n    tag_200:\n        /* \"contracts/EssentialToken.sol\":1002:1049  _mint(_owner, _initialSupply * 10 ** _decimals) */\n      tag_208\n        /* \"contracts/EssentialToken.sol\":1008:1014  _owner */\n      dup14\n        /* \"contracts/EssentialToken.sol\":1033:1048  10 ** _decimals */\n      tag_209\n        /* \"contracts/EssentialToken.sol\":1039:1048  _decimals */\n      dup13\n        /* \"contracts/EssentialToken.sol\":1033:1035  10 */\n      0x0a\n        /* \"contracts/EssentialToken.sol\":1033:1048  10 ** _decimals */\n      tag_203\n      jump\t// in\n    tag_209:\n        /* \"contracts/EssentialToken.sol\":1016:1048  _initialSupply * 10 ** _decimals */\n      tag_210\n      swap1\n        /* \"contracts/EssentialToken.sol\":1016:1030  _initialSupply */\n      dup13\n        /* \"contracts/EssentialToken.sol\":1016:1048  _initialSupply * 10 ** _decimals */\n      tag_205\n      jump\t// in\n    tag_210:\n        /* \"contracts/EssentialToken.sol\":1002:1007  _mint */\n      tag_172\n        /* \"contracts/EssentialToken.sol\":1002:1049  _mint(_owner, _initialSupply * 10 ** _decimals) */\n      jump\t// in\n    tag_208:\n        /* \"@openzeppelin/contracts/proxy/utils/Initializable.sol\":5070:5084  isTopLevelCall */\n      dup4\n        /* \"@openzeppelin/contracts/proxy/utils/Initializable.sol\":5066:5167  if (isTopLevelCall) {... */\n      iszero\n      tag_211\n      jumpi\n        /* \"@openzeppelin/contracts/proxy/utils/Initializable.sol\":5100:5123  $._initializing = false */\n      dup5\n      sload\n      not(shl(0x40, 0xff))\n      and\n      dup6\n      sstore\n        /* \"@openzeppelin/contracts/proxy/utils/Initializable.sol\":5142:5156  Initialized(1) */\n      mload(0x40)\n      0x01\n        /* \"#utility.yul\":8712:8762   */\n      dup2\n      mstore\n        /* \"@openzeppelin/contracts/proxy/utils/Initializable.sol\":5142:5156  Initialized(1) */\n      0xc7f505b2f371ae2175ee4913f4499e1f2633a7b5936321eed1cdaeb6115181d2\n      swap1\n        /* \"#utility.yul\":8700:8702   */\n      0x20\n        /* \"#utility.yul\":8685:8703   */\n      add\n        /* \"@openzeppelin/contracts/proxy/utils/Initializable.sol\":5142:5156  Initialized(1) */\n      mload(0x40)\n      dup1\n      swap2\n      sub\n      swap1\n      log1\n        /* \"@openzeppelin/contracts/proxy/utils/Initializable.sol\":5066:5167  if (isTopLevelCall) {... */\n    tag_211:\n        /* \"@openzeppelin/contracts/proxy/utils/Initializable.sol\":4092:5173  {... */\n      pop\n      pop\n      pop\n      pop\n      pop\n        /* \"contracts/EssentialToken.sol\":348:1056  function initialize(... */\n      pop\n      pop\n      pop\n      pop\n      pop\n      pop\n      pop\n      pop\n      jump\t// out\n        /* \"contracts/EssentialToken.sol\":2350:2473  function burnFrom(address account, uint256 amount) public override  canBurn{... */\n    tag_92:\n        /* \"contracts/EssentialToken.sol\":1292:1302  isBurnable */\n      sload(0x08)\n      0x010000\n      swap1\n      div\n      0xff\n      and\n        /* \"contracts/EssentialToken.sol\":1292:1310  isBurnable == true */\n      iszero\n      iszero\n        /* \"contracts/EssentialToken.sol\":1306:1310  true */\n      0x01\n        /* \"contracts/EssentialToken.sol\":1292:1310  isBurnable == true */\n      eq\n        /* \"contracts/EssentialToken.sol\":1284:1327  require(isBurnable == true, \"Not Burnable\") */\n      tag_215\n      jumpi\n      mload(0x40)\n      shl(0xe5, 0x461bcd)\n      dup2\n      mstore\n        /* \"#utility.yul\":6467:6469   */\n      0x20\n        /* \"contracts/EssentialToken.sol\":1284:1327  require(isBurnable == true, \"Not Burnable\") */\n      0x04\n      dup3\n      add\n        /* \"#utility.yul\":6449:6470   */\n      mstore\n        /* \"#utility.yul\":6506:6508   */\n      0x0c\n        /* \"#utility.yul\":6486:6504   */\n      0x24\n      dup3\n      add\n        /* \"#utility.yul\":6479:6509   */\n      mstore\n      shl(0xa0, 0x4e6f74204275726e61626c65)\n        /* \"#utility.yul\":6525:6543   */\n      0x44\n      dup3\n      add\n        /* \"#utility.yul\":6518:6560   */\n      mstore\n        /* \"#utility.yul\":6577:6595   */\n      0x64\n      add\n        /* \"contracts/EssentialToken.sol\":1284:1327  require(isBurnable == true, \"Not Burnable\") */\n      tag_158\n        /* \"#utility.yul\":6265:6601   */\n      jump\n        /* \"contracts/EssentialToken.sol\":1284:1327  require(isBurnable == true, \"Not Burnable\") */\n    tag_215:\n        /* \"contracts/EssentialToken.sol\":2435:2466  super.burnFrom(account, amount) */\n      tag_171\n        /* \"contracts/EssentialToken.sol\":2450:2457  account */\n      dup3\n        /* \"contracts/EssentialToken.sol\":2459:2465  amount */\n      dup3\n        /* \"contracts/EssentialToken.sol\":2435:2449  super.burnFrom */\n      tag_219\n        /* \"contracts/EssentialToken.sol\":2435:2466  super.burnFrom(account, amount) */\n      jump\t// in\n        /* \"contracts/EssentialToken.sol\":1708:1805  function blockAccount(address _account) public onlyOwner {... */\n    tag_95:\n        /* \"contracts/EssentialToken.sol\":1115:1120  owner */\n      sload(0x08)\n      0x01000000\n      swap1\n      div\n      sub(shl(0xa0, 0x01), 0x01)\n      and\n        /* \"contracts/EssentialToken.sol\":1101:1111  msg.sender */\n      caller\n        /* \"contracts/EssentialToken.sol\":1101:1120  msg.sender == owner */\n      eq\n        /* \"contracts/EssentialToken.sol\":1093:1134  require(msg.sender == owner, \"Not owner\") */\n      tag_221\n      jumpi\n      mload(0x40)\n      shl(0xe5, 0x461bcd)\n      dup2\n      mstore\n      0x04\n      add\n      tag_158\n      swap1\n      tag_159\n      jump\t// in\n    tag_221:\n        /* \"contracts/EssentialToken.sol\":1775:1798  _blockAccount(_account) */\n      tag_178\n        /* \"contracts/EssentialToken.sol\":1789:1797  _account */\n      dup2\n        /* \"contracts/EssentialToken.sol\":1775:1788  _blockAccount */\n      tag_225\n        /* \"contracts/EssentialToken.sol\":1775:1798  _blockAccount(_account) */\n      jump\t// in\n        /* \"contracts/EssentialToken.sol\":1458:1526  function pause() public onlyOwner canPause {... */\n    tag_97:\n        /* \"contracts/EssentialToken.sol\":1115:1120  owner */\n      sload(0x08)\n      0x01000000\n      swap1\n      div\n      sub(shl(0xa0, 0x01), 0x01)\n      and\n        /* \"contracts/EssentialToken.sol\":1101:1111  msg.sender */\n      caller\n        /* \"contracts/EssentialToken.sol\":1101:1120  msg.sender == owner */\n      eq\n        /* \"contracts/EssentialToken.sol\":1093:1134  require(msg.sender == owner, \"Not owner\") */\n      tag_227\n      jumpi\n      mload(0x40)\n      shl(0xe5, 0x461bcd)\n      dup2\n      mstore\n      0x04\n      add\n      tag_158\n      swap1\n      tag_159\n      jump\t// in\n    tag_227:\n        /* \"contracts/EssentialToken.sol\":1196:1206  isPausable */\n      sload(0x08)\n      0xff\n      0x0100\n      swap1\n      swap2\n      div\n      and\n        /* \"contracts/EssentialToken.sol\":1196:1214  isPausable == true */\n      iszero\n      iszero\n        /* \"contracts/EssentialToken.sol\":1196:1206  isPausable */\n      0x01\n        /* \"contracts/EssentialToken.sol\":1196:1214  isPausable == true */\n      eq\n        /* \"contracts/EssentialToken.sol\":1188:1231  require(isPausable == true, \"Not Pausable\") */\n      tag_230\n      jumpi\n      mload(0x40)\n      shl(0xe5, 0x461bcd)\n      dup2\n      mstore\n        /* \"#utility.yul\":6126:6128   */\n      0x20\n        /* \"contracts/EssentialToken.sol\":1188:1231  require(isPausable == true, \"Not Pausable\") */\n      0x04\n      dup3\n      add\n        /* \"#utility.yul\":6108:6129   */\n      mstore\n        /* \"#utility.yul\":6165:6167   */\n      0x0c\n        /* \"#utility.yul\":6145:6163   */\n      0x24\n      dup3\n      add\n        /* \"#utility.yul\":6138:6168   */\n      mstore\n      shl(0xa0, 0x4e6f74205061757361626c65)\n        /* \"#utility.yul\":6184:6202   */\n      0x44\n      dup3\n      add\n        /* \"#utility.yul\":6177:6219   */\n      mstore\n        /* \"#utility.yul\":6236:6254   */\n      0x64\n      add\n        /* \"contracts/EssentialToken.sol\":1188:1231  require(isPausable == true, \"Not Pausable\") */\n      tag_158\n        /* \"#utility.yul\":5924:6260   */\n      jump\n        /* \"contracts/EssentialToken.sol\":1188:1231  require(isPausable == true, \"Not Pausable\") */\n    tag_230:\n        /* \"contracts/EssentialToken.sol\":1511:1519  _pause() */\n      tag_165\n        /* \"contracts/EssentialToken.sol\":1511:1517  _pause */\n      tag_234\n        /* \"contracts/EssentialToken.sol\":1511:1519  _pause() */\n      jump\t// in\n        /* \"contracts/ERC20.sol\":921:1023  function symbol() public view virtual override returns (string memory) {... */\n    tag_106:\n        /* \"contracts/ERC20.sol\":977:990  string memory */\n      0x60\n        /* \"contracts/ERC20.sol\":1009:1016  _symbol */\n      0x05\n        /* \"contracts/ERC20.sol\":1002:1016  return _symbol */\n      dup1\n      sload\n      tag_135\n      swap1\n      tag_136\n      jump\t// in\n        /* \"contracts/ERC20.sol\":2425:2850  function decreaseAllowance(address spender, uint256 subtractedValue) public virtual returns (bool) {... */\n    tag_113:\n        /* \"contracts/ERC20.sol\":2518:2522  bool */\n      0x00\n        /* \"contracts/ERC20.sol\":2550:2560  msg.sender */\n      caller\n        /* \"contracts/ERC20.sol\":2518:2522  bool */\n      dup2\n        /* \"contracts/ERC20.sol\":2597:2622  allowance(owner, spender) */\n      tag_242\n        /* \"contracts/ERC20.sol\":2550:2560  msg.sender */\n      dup3\n        /* \"contracts/ERC20.sol\":2614:2621  spender */\n      dup7\n        /* \"contracts/ERC20.sol\":2597:2606  allowance */\n      tag_132\n        /* \"contracts/ERC20.sol\":2597:2622  allowance(owner, spender) */\n      jump\t// in\n    tag_242:\n        /* \"contracts/ERC20.sol\":2570:2622  uint256 currentAllowance = allowance(owner, spender) */\n      swap1\n      pop\n        /* \"contracts/ERC20.sol\":2660:2675  subtractedValue */\n      dup4\n        /* \"contracts/ERC20.sol\":2640:2656  currentAllowance */\n      dup2\n        /* \"contracts/ERC20.sol\":2640:2675  currentAllowance >= subtractedValue */\n      lt\n      iszero\n        /* \"contracts/ERC20.sol\":2632:2717  require(currentAllowance >= subtractedValue, \"ERC20: decreased allowance below zero\") */\n      tag_243\n      jumpi\n      mload(0x40)\n      shl(0xe5, 0x461bcd)\n      dup2\n      mstore\n        /* \"#utility.yul\":8975:8977   */\n      0x20\n        /* \"contracts/ERC20.sol\":2632:2717  require(currentAllowance >= subtractedValue, \"ERC20: decreased allowance below zero\") */\n      0x04\n      dup3\n      add\n        /* \"#utility.yul\":8957:8978   */\n      mstore\n        /* \"#utility.yul\":9014:9016   */\n      0x25\n        /* \"#utility.yul\":8994:9012   */\n      0x24\n      dup3\n      add\n        /* \"#utility.yul\":8987:9017   */\n      mstore\n        /* \"#utility.yul\":9053:9087   */\n      0x45524332303a2064656372656173656420616c6c6f77616e63652062656c6f77\n        /* \"#utility.yul\":9033:9051   */\n      0x44\n      dup3\n      add\n        /* \"#utility.yul\":9026:9088   */\n      mstore\n      shl(0xd8, 0x207a65726f)\n        /* \"#utility.yul\":9104:9122   */\n      0x64\n      dup3\n      add\n        /* \"#utility.yul\":9097:9132   */\n      mstore\n        /* \"#utility.yul\":9149:9168   */\n      0x84\n      add\n        /* \"contracts/ERC20.sol\":2632:2717  require(currentAllowance >= subtractedValue, \"ERC20: decreased allowance below zero\") */\n      tag_158\n        /* \"#utility.yul\":8773:9174   */\n      jump\n        /* \"contracts/ERC20.sol\":2632:2717  require(currentAllowance >= subtractedValue, \"ERC20: decreased allowance below zero\") */\n    tag_243:\n        /* \"contracts/ERC20.sol\":2751:2811  _approve(owner, spender, currentAllowance - subtractedValue) */\n      tag_246\n        /* \"contracts/ERC20.sol\":2760:2765  owner */\n      dup3\n        /* \"contracts/ERC20.sol\":2767:2774  spender */\n      dup7\n        /* \"contracts/ERC20.sol\":2795:2810  subtractedValue */\n      dup7\n        /* \"contracts/ERC20.sol\":2776:2792  currentAllowance */\n      dup5\n        /* \"contracts/ERC20.sol\":2776:2810  currentAllowance - subtractedValue */\n      sub\n        /* \"contracts/ERC20.sol\":2751:2759  _approve */\n      tag_143\n        /* \"contracts/ERC20.sol\":2751:2811  _approve(owner, spender, currentAllowance - subtractedValue) */\n      jump\t// in\n    tag_246:\n      pop\n        /* \"contracts/ERC20.sol\":2839:2843  true */\n      0x01\n      swap5\n        /* \"contracts/ERC20.sol\":2425:2850  function decreaseAllowance(address spender, uint256 subtractedValue) public virtual returns (bool) {... */\n      swap4\n      pop\n      pop\n      pop\n      pop\n      jump\t// out\n        /* \"contracts/ERC20.sol\":1475:1631  function transfer(address to, uint256 amount) public virtual override returns (bool) {... */\n    tag_117:\n        /* \"contracts/ERC20.sol\":1554:1558  bool */\n      0x00\n        /* \"contracts/ERC20.sol\":1570:1603  _transfer(msg.sender, to, amount) */\n      tag_142\n        /* \"contracts/ERC20.sol\":1580:1590  msg.sender */\n      caller\n        /* \"contracts/ERC20.sol\":1592:1594  to */\n      dup5\n        /* \"contracts/ERC20.sol\":1596:1602  amount */\n      dup5\n        /* \"contracts/ERC20.sol\":1570:1579  _transfer */\n      tag_149\n        /* \"contracts/ERC20.sol\":1570:1603  _transfer(msg.sender, to, amount) */\n      jump\t// in\n        /* \"contracts/EssentialToken.sol\":1351:1452  function _transferOwnership(address _newOwner) public onlyOwner{... */\n    tag_125:\n        /* \"contracts/EssentialToken.sol\":1115:1120  owner */\n      sload(0x08)\n      0x01000000\n      swap1\n      div\n      sub(shl(0xa0, 0x01), 0x01)\n      and\n        /* \"contracts/EssentialToken.sol\":1101:1111  msg.sender */\n      caller\n        /* \"contracts/EssentialToken.sol\":1101:1120  msg.sender == owner */\n      eq\n        /* \"contracts/EssentialToken.sol\":1093:1134  require(msg.sender == owner, \"Not owner\") */\n      tag_251\n      jumpi\n      mload(0x40)\n      shl(0xe5, 0x461bcd)\n      dup2\n      mstore\n      0x04\n      add\n      tag_158\n      swap1\n      tag_159\n      jump\t// in\n    tag_251:\n        /* \"contracts/EssentialToken.sol\":1428:1433  owner */\n      0x08\n        /* \"contracts/EssentialToken.sol\":1428:1445  owner = _newOwner */\n      dup1\n      sload\n      sub(shl(0xa0, 0x01), 0x01)\n      swap1\n      swap3\n      and\n      0x01000000\n      mul\n      not(sub(shl(0xb8, 0x01), 0x01000000))\n      swap1\n      swap3\n      and\n      swap2\n      swap1\n      swap2\n      or\n      swap1\n      sstore\n        /* \"contracts/EssentialToken.sol\":1351:1452  function _transferOwnership(address _newOwner) public onlyOwner{... */\n      jump\t// out\n        /* \"contracts/ERC20.sol\":1637:1786  function allowance(address owner, address spender) public view virtual override returns (uint256) {... */\n    tag_132:\n      sub(shl(0xa0, 0x01), 0x01)\n        /* \"contracts/ERC20.sol\":1752:1770  _allowances[owner] */\n      swap2\n      dup3\n      and\n        /* \"contracts/ERC20.sol\":1726:1733  uint256 */\n      0x00\n        /* \"contracts/ERC20.sol\":1752:1770  _allowances[owner] */\n      swap1\n      dup2\n      mstore\n        /* \"contracts/ERC20.sol\":1752:1763  _allowances */\n      0x01\n        /* \"contracts/ERC20.sol\":1752:1770  _allowances[owner] */\n      0x20\n      swap1\n      dup2\n      mstore\n      0x40\n      dup1\n      dup4\n      keccak256\n        /* \"contracts/ERC20.sol\":1752:1779  _allowances[owner][spender] */\n      swap4\n      swap1\n      swap5\n      and\n      dup3\n      mstore\n      swap2\n      swap1\n      swap2\n      mstore\n      keccak256\n      sload\n      swap1\n        /* \"contracts/ERC20.sol\":1637:1786  function allowance(address owner, address spender) public view virtual override returns (uint256) {... */\n      jump\t// out\n        /* \"contracts/ERC20.sol\":5175:5515  function _approve(address owner, address spender, uint256 amount) internal virtual {... */\n    tag_143:\n      sub(shl(0xa0, 0x01), 0x01)\n        /* \"contracts/ERC20.sol\":5276:5295  owner != address(0) */\n      dup4\n      and\n        /* \"contracts/ERC20.sol\":5268:5336  require(owner != address(0), \"ERC20: approve from the zero address\") */\n      tag_257\n      jumpi\n      mload(0x40)\n      shl(0xe5, 0x461bcd)\n      dup2\n      mstore\n        /* \"#utility.yul\":9381:9383   */\n      0x20\n        /* \"contracts/ERC20.sol\":5268:5336  require(owner != address(0), \"ERC20: approve from the zero address\") */\n      0x04\n      dup3\n      add\n        /* \"#utility.yul\":9363:9384   */\n      mstore\n        /* \"#utility.yul\":9420:9422   */\n      0x24\n        /* \"#utility.yul\":9400:9418   */\n      dup1\n      dup3\n      add\n        /* \"#utility.yul\":9393:9423   */\n      mstore\n        /* \"#utility.yul\":9459:9493   */\n      0x45524332303a20617070726f76652066726f6d20746865207a65726f20616464\n        /* \"#utility.yul\":9439:9457   */\n      0x44\n      dup3\n      add\n        /* \"#utility.yul\":9432:9494   */\n      mstore\n      shl(0xe0, 0x72657373)\n        /* \"#utility.yul\":9510:9528   */\n      0x64\n      dup3\n      add\n        /* \"#utility.yul\":9503:9537   */\n      mstore\n        /* \"#utility.yul\":9554:9573   */\n      0x84\n      add\n        /* \"contracts/ERC20.sol\":5268:5336  require(owner != address(0), \"ERC20: approve from the zero address\") */\n      tag_158\n        /* \"#utility.yul\":9179:9579   */\n      jump\n        /* \"contracts/ERC20.sol\":5268:5336  require(owner != address(0), \"ERC20: approve from the zero address\") */\n    tag_257:\n      sub(shl(0xa0, 0x01), 0x01)\n        /* \"contracts/ERC20.sol\":5354:5375  spender != address(0) */\n      dup3\n      and\n        /* \"contracts/ERC20.sol\":5346:5414  require(spender != address(0), \"ERC20: approve to the zero address\") */\n      tag_260\n      jumpi\n      mload(0x40)\n      shl(0xe5, 0x461bcd)\n      dup2\n      mstore\n        /* \"#utility.yul\":9786:9788   */\n      0x20\n        /* \"contracts/ERC20.sol\":5346:5414  require(spender != address(0), \"ERC20: approve to the zero address\") */\n      0x04\n      dup3\n      add\n        /* \"#utility.yul\":9768:9789   */\n      mstore\n        /* \"#utility.yul\":9825:9827   */\n      0x22\n        /* \"#utility.yul\":9805:9823   */\n      0x24\n      dup3\n      add\n        /* \"#utility.yul\":9798:9828   */\n      mstore\n        /* \"#utility.yul\":9864:9898   */\n      0x45524332303a20617070726f766520746f20746865207a65726f206164647265\n        /* \"#utility.yul\":9844:9862   */\n      0x44\n      dup3\n      add\n        /* \"#utility.yul\":9837:9899   */\n      mstore\n      shl(0xf0, 0x7373)\n        /* \"#utility.yul\":9915:9933   */\n      0x64\n      dup3\n      add\n        /* \"#utility.yul\":9908:9940   */\n      mstore\n        /* \"#utility.yul\":9957:9976   */\n      0x84\n      add\n        /* \"contracts/ERC20.sol\":5346:5414  require(spender != address(0), \"ERC20: approve to the zero address\") */\n      tag_158\n        /* \"#utility.yul\":9584:9982   */\n      jump\n        /* \"contracts/ERC20.sol\":5346:5414  require(spender != address(0), \"ERC20: approve to the zero address\") */\n    tag_260:\n      sub(shl(0xa0, 0x01), 0x01)\n        /* \"contracts/ERC20.sol\":5425:5443  _allowances[owner] */\n      dup4\n      dup2\n      and\n      0x00\n      dup2\n      dup2\n      mstore\n        /* \"contracts/ERC20.sol\":5425:5436  _allowances */\n      0x01\n        /* \"contracts/ERC20.sol\":5425:5443  _allowances[owner] */\n      0x20\n      swap1\n      dup2\n      mstore\n      0x40\n      dup1\n      dup4\n      keccak256\n        /* \"contracts/ERC20.sol\":5425:5452  _allowances[owner][spender] */\n      swap5\n      dup8\n      and\n      dup1\n      dup5\n      mstore\n      swap5\n      dup3\n      mstore\n      swap2\n      dup3\n      swap1\n      keccak256\n        /* \"contracts/ERC20.sol\":5425:5461  _allowances[owner][spender] = amount */\n      dup6\n      swap1\n      sstore\n        /* \"contracts/ERC20.sol\":5476:5508  Approval(owner, spender, amount) */\n      swap1\n      mload\n        /* \"#utility.yul\":1258:1283   */\n      dup5\n      dup2\n      mstore\n        /* \"contracts/ERC20.sol\":5476:5508  Approval(owner, spender, amount) */\n      0x8c5be1e5ebec7d5bd14f71427d1e84f3dd0314c0f7b2291e5b200ac8c7c3b925\n      swap2\n        /* \"#utility.yul\":1231:1249   */\n      add\n        /* \"contracts/ERC20.sol\":5476:5508  Approval(owner, spender, amount) */\n      mload(0x40)\n      dup1\n      swap2\n      sub\n      swap1\n      log3\n        /* \"contracts/ERC20.sol\":5175:5515  function _approve(address owner, address spender, uint256 amount) internal virtual {... */\n      pop\n      pop\n      pop\n      jump\t// out\n        /* \"contracts/ERC20.sol\":5521:5932  function _spendAllowance(address owner, address spender, uint256 amount) internal virtual {... */\n    tag_147:\n        /* \"contracts/ERC20.sol\":5621:5645  uint256 currentAllowance */\n      0x00\n        /* \"contracts/ERC20.sol\":5648:5673  allowance(owner, spender) */\n      tag_265\n        /* \"contracts/ERC20.sol\":5658:5663  owner */\n      dup5\n        /* \"contracts/ERC20.sol\":5665:5672  spender */\n      dup5\n        /* \"contracts/ERC20.sol\":5648:5657  allowance */\n      tag_132\n        /* \"contracts/ERC20.sol\":5648:5673  allowance(owner, spender) */\n      jump\t// in\n    tag_265:\n        /* \"contracts/ERC20.sol\":5621:5673  uint256 currentAllowance = allowance(owner, spender) */\n      swap1\n      pop\n      not(0x00)\n        /* \"contracts/ERC20.sol\":5687:5703  currentAllowance */\n      dup2\n        /* \"contracts/ERC20.sol\":5687:5724  currentAllowance != type(uint256).max */\n      eq\n        /* \"contracts/ERC20.sol\":5683:5926  if (currentAllowance != type(uint256).max) {... */\n      tag_270\n      jumpi\n        /* \"contracts/ERC20.sol\":5768:5774  amount */\n      dup2\n        /* \"contracts/ERC20.sol\":5748:5764  currentAllowance */\n      dup2\n        /* \"contracts/ERC20.sol\":5748:5774  currentAllowance >= amount */\n      lt\n      iszero\n        /* \"contracts/ERC20.sol\":5740:5808  require(currentAllowance >= amount, \"ERC20: insufficient allowance\") */\n      tag_267\n      jumpi\n      mload(0x40)\n      shl(0xe5, 0x461bcd)\n      dup2\n      mstore\n        /* \"#utility.yul\":10189:10191   */\n      0x20\n        /* \"contracts/ERC20.sol\":5740:5808  require(currentAllowance >= amount, \"ERC20: insufficient allowance\") */\n      0x04\n      dup3\n      add\n        /* \"#utility.yul\":10171:10192   */\n      mstore\n        /* \"#utility.yul\":10228:10230   */\n      0x1d\n        /* \"#utility.yul\":10208:10226   */\n      0x24\n      dup3\n      add\n        /* \"#utility.yul\":10201:10231   */\n      mstore\n        /* \"#utility.yul\":10267:10298   */\n      0x45524332303a20696e73756666696369656e7420616c6c6f77616e6365000000\n        /* \"#utility.yul\":10247:10265   */\n      0x44\n      dup3\n      add\n        /* \"#utility.yul\":10240:10299   */\n      mstore\n        /* \"#utility.yul\":10316:10334   */\n      0x64\n      add\n        /* \"contracts/ERC20.sol\":5740:5808  require(currentAllowance >= amount, \"ERC20: insufficient allowance\") */\n      tag_158\n        /* \"#utility.yul\":9987:10340   */\n      jump\n        /* \"contracts/ERC20.sol\":5740:5808  require(currentAllowance >= amount, \"ERC20: insufficient allowance\") */\n    tag_267:\n        /* \"contracts/ERC20.sol\":5850:5901  _approve(owner, spender, currentAllowance - amount) */\n      tag_270\n        /* \"contracts/ERC20.sol\":5859:5864  owner */\n      dup5\n        /* \"contracts/ERC20.sol\":5866:5873  spender */\n      dup5\n        /* \"contracts/ERC20.sol\":5894:5900  amount */\n      dup5\n        /* \"contracts/ERC20.sol\":5875:5891  currentAllowance */\n      dup5\n        /* \"contracts/ERC20.sol\":5875:5900  currentAllowance - amount */\n      sub\n        /* \"contracts/ERC20.sol\":5850:5858  _approve */\n      tag_143\n        /* \"contracts/ERC20.sol\":5850:5901  _approve(owner, spender, currentAllowance - amount) */\n      jump\t// in\n    tag_270:\n        /* \"contracts/ERC20.sol\":5611:5932  {... */\n      pop\n        /* \"contracts/ERC20.sol\":5521:5932  function _spendAllowance(address owner, address spender, uint256 amount) internal virtual {... */\n      pop\n      pop\n      pop\n      jump\t// out\n        /* \"contracts/ERC20.sol\":3114:3894  function _transfer(address from, address to, uint256 amount) internal virtual {... */\n    tag_149:\n      sub(shl(0xa0, 0x01), 0x01)\n        /* \"contracts/ERC20.sol\":3210:3228  from != address(0) */\n      dup4\n      and\n        /* \"contracts/ERC20.sol\":3202:3270  require(from != address(0), \"ERC20: transfer from the zero address\") */\n      tag_272\n      jumpi\n      mload(0x40)\n      shl(0xe5, 0x461bcd)\n      dup2\n      mstore\n        /* \"#utility.yul\":10547:10549   */\n      0x20\n        /* \"contracts/ERC20.sol\":3202:3270  require(from != address(0), \"ERC20: transfer from the zero address\") */\n      0x04\n      dup3\n      add\n        /* \"#utility.yul\":10529:10550   */\n      mstore\n        /* \"#utility.yul\":10586:10588   */\n      0x25\n        /* \"#utility.yul\":10566:10584   */\n      0x24\n      dup3\n      add\n        /* \"#utility.yul\":10559:10589   */\n      mstore\n        /* \"#utility.yul\":10625:10659   */\n      0x45524332303a207472616e736665722066726f6d20746865207a65726f206164\n        /* \"#utility.yul\":10605:10623   */\n      0x44\n      dup3\n      add\n        /* \"#utility.yul\":10598:10660   */\n      mstore\n      shl(0xd8, 0x6472657373)\n        /* \"#utility.yul\":10676:10694   */\n      0x64\n      dup3\n      add\n        /* \"#utility.yul\":10669:10704   */\n      mstore\n        /* \"#utility.yul\":10721:10740   */\n      0x84\n      add\n        /* \"contracts/ERC20.sol\":3202:3270  require(from != address(0), \"ERC20: transfer from the zero address\") */\n      tag_158\n        /* \"#utility.yul\":10345:10746   */\n      jump\n        /* \"contracts/ERC20.sol\":3202:3270  require(from != address(0), \"ERC20: transfer from the zero address\") */\n    tag_272:\n      sub(shl(0xa0, 0x01), 0x01)\n        /* \"contracts/ERC20.sol\":3288:3304  to != address(0) */\n      dup3\n      and\n        /* \"contracts/ERC20.sol\":3280:3344  require(to != address(0), \"ERC20: transfer to the zero address\") */\n      tag_275\n      jumpi\n      mload(0x40)\n      shl(0xe5, 0x461bcd)\n      dup2\n      mstore\n        /* \"#utility.yul\":10953:10955   */\n      0x20\n        /* \"contracts/ERC20.sol\":3280:3344  require(to != address(0), \"ERC20: transfer to the zero address\") */\n      0x04\n      dup3\n      add\n        /* \"#utility.yul\":10935:10956   */\n      mstore\n        /* \"#utility.yul\":10992:10994   */\n      0x23\n        /* \"#utility.yul\":10972:10990   */\n      0x24\n      dup3\n      add\n        /* \"#utility.yul\":10965:10995   */\n      mstore\n        /* \"#utility.yul\":11031:11065   */\n      0x45524332303a207472616e7366657220746f20746865207a65726f2061646472\n        /* \"#utility.yul\":11011:11029   */\n      0x44\n      dup3\n      add\n        /* \"#utility.yul\":11004:11066   */\n      mstore\n      shl(0xe8, 0x657373)\n        /* \"#utility.yul\":11082:11100   */\n      0x64\n      dup3\n      add\n        /* \"#utility.yul\":11075:11108   */\n      mstore\n        /* \"#utility.yul\":11125:11144   */\n      0x84\n      add\n        /* \"contracts/ERC20.sol\":3280:3344  require(to != address(0), \"ERC20: transfer to the zero address\") */\n      tag_158\n        /* \"#utility.yul\":10751:11150   */\n      jump\n        /* \"contracts/ERC20.sol\":3280:3344  require(to != address(0), \"ERC20: transfer to the zero address\") */\n    tag_275:\n        /* \"contracts/ERC20.sol\":3355:3393  _beforeTokenTransfer(from, to, amount) */\n      tag_278\n        /* \"contracts/ERC20.sol\":3376:3380  from */\n      dup4\n        /* \"contracts/ERC20.sol\":3382:3384  to */\n      dup4\n        /* \"contracts/ERC20.sol\":3386:3392  amount */\n      dup4\n        /* \"contracts/ERC20.sol\":3355:3375  _beforeTokenTransfer */\n      tag_279\n        /* \"contracts/ERC20.sol\":3355:3393  _beforeTokenTransfer(from, to, amount) */\n      jump\t// in\n    tag_278:\n      sub(shl(0xa0, 0x01), 0x01)\n        /* \"contracts/ERC20.sol\":3426:3441  _balances[from] */\n      dup4\n      and\n        /* \"contracts/ERC20.sol\":3404:3423  uint256 fromBalance */\n      0x00\n        /* \"contracts/ERC20.sol\":3426:3441  _balances[from] */\n      swap1\n      dup2\n      mstore\n      0x20\n      dup2\n      swap1\n      mstore\n      0x40\n      swap1\n      keccak256\n      sload\n        /* \"contracts/ERC20.sol\":3459:3480  fromBalance >= amount */\n      dup2\n      dup2\n      lt\n      iszero\n        /* \"contracts/ERC20.sol\":3451:3523  require(fromBalance >= amount, \"ERC20: transfer amount exceeds balance\") */\n      tag_280\n      jumpi\n      mload(0x40)\n      shl(0xe5, 0x461bcd)\n      dup2\n      mstore\n        /* \"#utility.yul\":11357:11359   */\n      0x20\n        /* \"contracts/ERC20.sol\":3451:3523  require(fromBalance >= amount, \"ERC20: transfer amount exceeds balance\") */\n      0x04\n      dup3\n      add\n        /* \"#utility.yul\":11339:11360   */\n      mstore\n        /* \"#utility.yul\":11396:11398   */\n      0x26\n        /* \"#utility.yul\":11376:11394   */\n      0x24\n      dup3\n      add\n        /* \"#utility.yul\":11369:11399   */\n      mstore\n        /* \"#utility.yul\":11435:11469   */\n      0x45524332303a207472616e7366657220616d6f756e7420657863656564732062\n        /* \"#utility.yul\":11415:11433   */\n      0x44\n      dup3\n      add\n        /* \"#utility.yul\":11408:11470   */\n      mstore\n      shl(0xd0, 0x616c616e6365)\n        /* \"#utility.yul\":11486:11504   */\n      0x64\n      dup3\n      add\n        /* \"#utility.yul\":11479:11515   */\n      mstore\n        /* \"#utility.yul\":11532:11551   */\n      0x84\n      add\n        /* \"contracts/ERC20.sol\":3451:3523  require(fromBalance >= amount, \"ERC20: transfer amount exceeds balance\") */\n      tag_158\n        /* \"#utility.yul\":11155:11557   */\n      jump\n        /* \"contracts/ERC20.sol\":3451:3523  require(fromBalance >= amount, \"ERC20: transfer amount exceeds balance\") */\n    tag_280:\n      sub(shl(0xa0, 0x01), 0x01)\n        /* \"contracts/ERC20.sol\":3557:3572  _balances[from] */\n      dup5\n      dup2\n      and\n        /* \"contracts/ERC20.sol\":3557:3566  _balances */\n      0x00\n        /* \"contracts/ERC20.sol\":3557:3572  _balances[from] */\n      dup2\n      dup2\n      mstore\n      0x20\n      dup2\n      dup2\n      mstore\n      0x40\n      dup1\n      dup4\n      keccak256\n        /* \"contracts/ERC20.sol\":3575:3595  fromBalance - amount */\n      dup8\n      dup8\n      sub\n        /* \"contracts/ERC20.sol\":3557:3595  _balances[from] = fromBalance - amount */\n      swap1\n      sstore\n        /* \"contracts/ERC20.sol\":3764:3777  _balances[to] */\n      swap4\n      dup8\n      and\n      dup1\n      dup4\n      mstore\n      swap2\n      dup5\n      swap1\n      keccak256\n        /* \"contracts/ERC20.sol\":3764:3787  _balances[to] += amount */\n      dup1\n      sload\n      dup8\n      add\n      swap1\n      sstore\n        /* \"contracts/ERC20.sol\":3813:3839  Transfer(from, to, amount) */\n      swap3\n      mload\n        /* \"#utility.yul\":1258:1283   */\n      dup6\n      dup2\n      mstore\n        /* \"contracts/ERC20.sol\":3764:3777  _balances[to] */\n      swap1\n      swap3\n        /* \"contracts/ERC20.sol\":3813:3839  Transfer(from, to, amount) */\n      0xddf252ad1be2c89b69c2b068fc378daa952ba7f163c4a11628f55a4df523b3ef\n      swap2\n        /* \"#utility.yul\":1231:1249   */\n      add\n        /* \"contracts/ERC20.sol\":3813:3839  Transfer(from, to, amount) */\n      mload(0x40)\n      dup1\n      swap2\n      sub\n      swap1\n      log3\n        /* \"contracts/ERC20.sol\":3850:3887  _afterTokenTransfer(from, to, amount) */\n      tag_270\n        /* \"contracts/EssentialToken.sol\":1918:2249  function _beforeTokenTransfer(address from, address to, uint256 amount) internal override whenNotPaused {... */\n      jump\n        /* \"@openzeppelin/contracts/security/Pausable.sol\":2433:2550  function _unpause() internal virtual whenPaused {... */\n    tag_166:\n        /* \"@openzeppelin/contracts/security/Pausable.sol\":1486:1502  _requirePaused() */\n      tag_287\n        /* \"@openzeppelin/contracts/security/Pausable.sol\":1486:1500  _requirePaused */\n      tag_288\n        /* \"@openzeppelin/contracts/security/Pausable.sol\":1486:1502  _requirePaused() */\n      jump\t// in\n    tag_287:\n        /* \"@openzeppelin/contracts/security/Pausable.sol\":2491:2498  _paused */\n      0x06\n        /* \"@openzeppelin/contracts/security/Pausable.sol\":2491:2506  _paused = false */\n      dup1\n      sload\n      not(0xff00)\n      and\n      swap1\n      sstore\n        /* \"@openzeppelin/contracts/security/Pausable.sol\":2521:2543  Unpaused(_msgSender()) */\n      0x5db9ee0a495bf2e6ff9c91a7834c1ba4fdd244a5e8aa4e537bd38aeae4b073aa\n        /* \"@openzeppelin/contracts/utils/Context.sol\":735:745  msg.sender */\n      caller\n        /* \"@openzeppelin/contracts/security/Pausable.sol\":2530:2542  _msgSender() */\n    tag_290:\n        /* \"@openzeppelin/contracts/security/Pausable.sol\":2521:2543  Unpaused(_msgSender()) */\n      mload(0x40)\n      sub(shl(0xa0, 0x01), 0x01)\n        /* \"#utility.yul\":4631:4663   */\n      swap1\n      swap2\n      and\n        /* \"#utility.yul\":4613:4664   */\n      dup2\n      mstore\n        /* \"#utility.yul\":4601:4603   */\n      0x20\n        /* \"#utility.yul\":4586:4604   */\n      add\n        /* \"@openzeppelin/contracts/security/Pausable.sol\":2521:2543  Unpaused(_msgSender()) */\n      mload(0x40)\n      dup1\n      swap2\n      sub\n      swap1\n      log1\n        /* \"@openzeppelin/contracts/security/Pausable.sol\":2433:2550  function _unpause() internal virtual whenPaused {... */\n      jump\t// out\n        /* \"contracts/ERC20.sol\":3900:4508  function _mint(address account, uint256 amount) internal virtual {... */\n    tag_172:\n        /* \"contracts/ERC20.sol\":4008:4018  _maxSupply */\n      sload(0x03)\n        /* \"contracts/ERC20.sol\":3998:4004  amount */\n      dup2\n        /* \"contracts/ERC20.sol\":3983:3995  _totalSupply */\n      sload(0x02)\n        /* \"contracts/ERC20.sol\":3983:4004  _totalSupply + amount */\n      tag_294\n      swap2\n      swap1\n      tag_155\n      jump\t// in\n    tag_294:\n        /* \"contracts/ERC20.sol\":3983:4018  _totalSupply + amount <= _maxSupply */\n      gt\n      iszero\n        /* \"contracts/ERC20.sol\":3975:4042  require(_totalSupply + amount <= _maxSupply, \"ERC20: cap exceeded\") */\n      tag_295\n      jumpi\n      mload(0x40)\n      shl(0xe5, 0x461bcd)\n      dup2\n      mstore\n        /* \"#utility.yul\":11764:11766   */\n      0x20\n        /* \"contracts/ERC20.sol\":3975:4042  require(_totalSupply + amount <= _maxSupply, \"ERC20: cap exceeded\") */\n      0x04\n      dup3\n      add\n        /* \"#utility.yul\":11746:11767   */\n      mstore\n        /* \"#utility.yul\":11803:11805   */\n      0x13\n        /* \"#utility.yul\":11783:11801   */\n      0x24\n      dup3\n      add\n        /* \"#utility.yul\":11776:11806   */\n      mstore\n      shl(0x6a, 0x115490cc8c0e8818d85c08195e18d959591959)\n        /* \"#utility.yul\":11822:11840   */\n      0x44\n      dup3\n      add\n        /* \"#utility.yul\":11815:11864   */\n      mstore\n        /* \"#utility.yul\":11881:11899   */\n      0x64\n      add\n        /* \"contracts/ERC20.sol\":3975:4042  require(_totalSupply + amount <= _maxSupply, \"ERC20: cap exceeded\") */\n      tag_158\n        /* \"#utility.yul\":11562:11905   */\n      jump\n        /* \"contracts/ERC20.sol\":3975:4042  require(_totalSupply + amount <= _maxSupply, \"ERC20: cap exceeded\") */\n    tag_295:\n      sub(shl(0xa0, 0x01), 0x01)\n        /* \"contracts/ERC20.sol\":4060:4081  account != address(0) */\n      dup3\n      and\n        /* \"contracts/ERC20.sol\":4052:4117  require(account != address(0), \"ERC20: mint to the zero address\") */\n      tag_298\n      jumpi\n      mload(0x40)\n      shl(0xe5, 0x461bcd)\n      dup2\n      mstore\n        /* \"#utility.yul\":12112:12114   */\n      0x20\n        /* \"contracts/ERC20.sol\":4052:4117  require(account != address(0), \"ERC20: mint to the zero address\") */\n      0x04\n      dup3\n      add\n        /* \"#utility.yul\":12094:12115   */\n      mstore\n        /* \"#utility.yul\":12151:12153   */\n      0x1f\n        /* \"#utility.yul\":12131:12149   */\n      0x24\n      dup3\n      add\n        /* \"#utility.yul\":12124:12154   */\n      mstore\n        /* \"#utility.yul\":12190:12223   */\n      0x45524332303a206d696e7420746f20746865207a65726f206164647265737300\n        /* \"#utility.yul\":12170:12188   */\n      0x44\n      dup3\n      add\n        /* \"#utility.yul\":12163:12224   */\n      mstore\n        /* \"#utility.yul\":12241:12259   */\n      0x64\n      add\n        /* \"contracts/ERC20.sol\":4052:4117  require(account != address(0), \"ERC20: mint to the zero address\") */\n      tag_158\n        /* \"#utility.yul\":11910:12265   */\n      jump\n        /* \"contracts/ERC20.sol\":4052:4117  require(account != address(0), \"ERC20: mint to the zero address\") */\n    tag_298:\n        /* \"contracts/ERC20.sol\":4128:4177  _beforeTokenTransfer(address(0), account, amount) */\n      tag_301\n        /* \"contracts/ERC20.sol\":4157:4158  0 */\n      0x00\n        /* \"contracts/ERC20.sol\":4161:4168  account */\n      dup4\n        /* \"contracts/ERC20.sol\":4170:4176  amount */\n      dup4\n        /* \"contracts/ERC20.sol\":4128:4148  _beforeTokenTransfer */\n      tag_279\n        /* \"contracts/ERC20.sol\":4128:4177  _beforeTokenTransfer(address(0), account, amount) */\n      jump\t// in\n    tag_301:\n        /* \"contracts/ERC20.sol\":4204:4210  amount */\n      dup1\n        /* \"contracts/ERC20.sol\":4188:4200  _totalSupply */\n      0x02\n      0x00\n        /* \"contracts/ERC20.sol\":4188:4210  _totalSupply += amount */\n      dup3\n      dup3\n      sload\n      tag_302\n      swap2\n      swap1\n      tag_155\n      jump\t// in\n    tag_302:\n      swap1\n      swap2\n      sstore\n      pop\n      pop\n      sub(shl(0xa0, 0x01), 0x01)\n        /* \"contracts/ERC20.sol\":4352:4370  _balances[account] */\n      dup3\n      and\n        /* \"contracts/ERC20.sol\":4352:4361  _balances */\n      0x00\n        /* \"contracts/ERC20.sol\":4352:4370  _balances[account] */\n      dup2\n      dup2\n      mstore\n      0x20\n      dup2\n      dup2\n      mstore\n      0x40\n      dup1\n      dup4\n      keccak256\n        /* \"contracts/ERC20.sol\":4352:4380  _balances[account] += amount */\n      dup1\n      sload\n      dup7\n      add\n      swap1\n      sstore\n        /* \"contracts/ERC20.sol\":4405:4442  Transfer(address(0), account, amount) */\n      mload\n        /* \"#utility.yul\":1258:1283   */\n      dup5\n      dup2\n      mstore\n        /* \"contracts/ERC20.sol\":4405:4442  Transfer(address(0), account, amount) */\n      0xddf252ad1be2c89b69c2b068fc378daa952ba7f163c4a11628f55a4df523b3ef\n      swap2\n        /* \"#utility.yul\":1231:1249   */\n      add\n        /* \"contracts/ERC20.sol\":4405:4442  Transfer(address(0), account, amount) */\n      mload(0x40)\n      dup1\n      swap2\n      sub\n      swap1\n      log3\n        /* \"contracts/EssentialToken.sol\":1609:1702  function mint(address to, uint256 amount) public onlyOwner {... */\n      pop\n      pop\n      jump\t// out\n        /* \"contracts/ERC20.sol\":2856:2943  function burn(uint256 amount) public virtual {... */\n    tag_179:\n        /* \"contracts/ERC20.sol\":2911:2936  _burn(msg.sender, amount) */\n      tag_178\n        /* \"contracts/ERC20.sol\":2917:2927  msg.sender */\n      caller\n        /* \"contracts/ERC20.sol\":2929:2935  amount */\n      dup3\n        /* \"contracts/ERC20.sol\":2911:2916  _burn */\n      tag_307\n        /* \"contracts/ERC20.sol\":2911:2936  _burn(msg.sender, amount) */\n      jump\t// in\n        /* \"contracts/Blacklist.sol\":977:1215  function _unblockAccount (address _account) internal virtual {... */\n    tag_185:\n      sub(shl(0xa0, 0x01), 0x01)\n        /* \"contracts/Blacklist.sol\":1056:1080  _isBlackListed[_account] */\n      dup2\n      and\n      0x00\n      swap1\n      dup2\n      mstore\n        /* \"contracts/Blacklist.sol\":1056:1070  _isBlackListed */\n      0x07\n        /* \"contracts/Blacklist.sol\":1056:1080  _isBlackListed[_account] */\n      0x20\n      mstore\n      0x40\n      swap1\n      keccak256\n      sload\n      0xff\n      and\n        /* \"contracts/Blacklist.sol\":1048:1124  require(_isBlackListed[_account], \"Blacklist: Account is already unblocked\") */\n      tag_309\n      jumpi\n      mload(0x40)\n      shl(0xe5, 0x461bcd)\n      dup2\n      mstore\n        /* \"#utility.yul\":12472:12474   */\n      0x20\n        /* \"contracts/Blacklist.sol\":1048:1124  require(_isBlackListed[_account], \"Blacklist: Account is already unblocked\") */\n      0x04\n      dup3\n      add\n        /* \"#utility.yul\":12454:12475   */\n      mstore\n        /* \"#utility.yul\":12511:12513   */\n      0x27\n        /* \"#utility.yul\":12491:12509   */\n      0x24\n      dup3\n      add\n        /* \"#utility.yul\":12484:12514   */\n      mstore\n        /* \"#utility.yul\":12550:12584   */\n      0x426c61636b6c6973743a204163636f756e7420697320616c726561647920756e\n        /* \"#utility.yul\":12530:12548   */\n      0x44\n      dup3\n      add\n        /* \"#utility.yul\":12523:12585   */\n      mstore\n      shl(0xca, 0x189b1bd8dad959)\n        /* \"#utility.yul\":12601:12619   */\n      0x64\n      dup3\n      add\n        /* \"#utility.yul\":12594:12631   */\n      mstore\n        /* \"#utility.yul\":12648:12667   */\n      0x84\n      add\n        /* \"contracts/Blacklist.sol\":1048:1124  require(_isBlackListed[_account], \"Blacklist: Account is already unblocked\") */\n      tag_158\n        /* \"#utility.yul\":12270:12673   */\n      jump\n        /* \"contracts/Blacklist.sol\":1048:1124  require(_isBlackListed[_account], \"Blacklist: Account is already unblocked\") */\n    tag_309:\n      sub(shl(0xa0, 0x01), 0x01)\n        /* \"contracts/Blacklist.sol\":1134:1158  _isBlackListed[_account] */\n      dup2\n      and\n        /* \"contracts/Blacklist.sol\":1161:1166  false */\n      0x00\n        /* \"contracts/Blacklist.sol\":1134:1158  _isBlackListed[_account] */\n      dup2\n      dup2\n      mstore\n        /* \"contracts/Blacklist.sol\":1134:1148  _isBlackListed */\n      0x07\n        /* \"contracts/Blacklist.sol\":1134:1158  _isBlackListed[_account] */\n      0x20\n      mstore\n      0x40\n      dup1\n      dup3\n      keccak256\n        /* \"contracts/Blacklist.sol\":1134:1166  _isBlackListed[_account] = false */\n      dup1\n      sload\n      not(0xff)\n      and\n      swap1\n      sstore\n        /* \"contracts/Blacklist.sol\":1182:1208  UnblockedAccount(_account) */\n      mload\n      0xa885a62df16bfeabc96ed9b845b30dd4038f039ca1679490125c314222355e3f\n      swap2\n        /* \"contracts/Blacklist.sol\":1161:1166  false */\n      swap1\n        /* \"contracts/Blacklist.sol\":1182:1208  UnblockedAccount(_account) */\n      log2\n        /* \"contracts/Blacklist.sol\":977:1215  function _unblockAccount (address _account) internal virtual {... */\n      pop\n      jump\t// out\n        /* \"contracts/ERC20.sol\":530:811  function init(... */\n    tag_207:\n        /* \"@openzeppelin/contracts/proxy/utils/Initializable.sol\":6931:6951  _checkInitializing() */\n      tag_314\n        /* \"@openzeppelin/contracts/proxy/utils/Initializable.sol\":6931:6949  _checkInitializing */\n      tag_315\n        /* \"@openzeppelin/contracts/proxy/utils/Initializable.sol\":6931:6951  _checkInitializing() */\n      jump\t// in\n    tag_314:\n        /* \"contracts/ERC20.sol\":699:704  _name */\n      0x04\n        /* \"contracts/ERC20.sol\":699:712  _name = name_ */\n      tag_317\n        /* \"contracts/ERC20.sol\":707:712  name_ */\n      dup6\n        /* \"contracts/ERC20.sol\":699:704  _name */\n      dup3\n        /* \"contracts/ERC20.sol\":699:712  _name = name_ */\n      tag_318\n      jump\t// in\n    tag_317:\n      pop\n        /* \"contracts/ERC20.sol\":722:729  _symbol */\n      0x05\n        /* \"contracts/ERC20.sol\":722:739  _symbol = symbol_ */\n      tag_319\n        /* \"contracts/ERC20.sol\":732:739  symbol_ */\n      dup5\n        /* \"contracts/ERC20.sol\":722:729  _symbol */\n      dup3\n        /* \"contracts/ERC20.sol\":722:739  _symbol = symbol_ */\n      tag_318\n      jump\t// in\n    tag_319:\n      pop\n        /* \"contracts/ERC20.sol\":749:758  _decimals */\n      0x06\n        /* \"contracts/ERC20.sol\":749:770  _decimals = decimals_ */\n      dup1\n      sload\n      not(0xff)\n      and\n      0xff\n      swap4\n      swap1\n      swap4\n      and\n      swap3\n      swap1\n      swap3\n      or\n      swap1\n      swap2\n      sstore\n        /* \"contracts/ERC20.sol\":781:791  _maxSupply */\n      0x03\n        /* \"contracts/ERC20.sol\":781:804  _maxSupply = maxSupply_ */\n      sstore\n      pop\n      pop\n        /* \"contracts/ERC20.sol\":530:811  function init(... */\n      jump\t// out\n        /* \"contracts/ERC20.sol\":2949:3108  function burnFrom(address account, uint256 amount) public virtual {... */\n    tag_219:\n        /* \"contracts/ERC20.sol\":3025:3069  _spendAllowance(account, msg.sender, amount) */\n      tag_321\n        /* \"contracts/ERC20.sol\":3041:3048  account */\n      dup3\n        /* \"contracts/ERC20.sol\":3050:3060  msg.sender */\n      caller\n        /* \"contracts/ERC20.sol\":3062:3068  amount */\n      dup4\n        /* \"contracts/ERC20.sol\":3025:3040  _spendAllowance */\n      tag_147\n        /* \"contracts/ERC20.sol\":3025:3069  _spendAllowance(account, msg.sender, amount) */\n      jump\t// in\n    tag_321:\n        /* \"contracts/ERC20.sol\":3079:3101  _burn(account, amount) */\n      tag_171\n        /* \"contracts/ERC20.sol\":3085:3092  account */\n      dup3\n        /* \"contracts/ERC20.sol\":3094:3100  amount */\n      dup3\n        /* \"contracts/ERC20.sol\":3079:3084  _burn */\n      tag_307\n        /* \"contracts/ERC20.sol\":3079:3101  _burn(account, amount) */\n      jump\t// in\n        /* \"contracts/Blacklist.sol\":739:971  function _blockAccount (address _account) internal virtual {... */\n    tag_225:\n      sub(shl(0xa0, 0x01), 0x01)\n        /* \"contracts/Blacklist.sol\":817:841  _isBlackListed[_account] */\n      dup2\n      and\n      0x00\n      swap1\n      dup2\n      mstore\n        /* \"contracts/Blacklist.sol\":817:831  _isBlackListed */\n      0x07\n        /* \"contracts/Blacklist.sol\":817:841  _isBlackListed[_account] */\n      0x20\n      mstore\n      0x40\n      swap1\n      keccak256\n      sload\n      0xff\n      and\n        /* \"contracts/Blacklist.sol\":816:841  !_isBlackListed[_account] */\n      iszero\n        /* \"contracts/Blacklist.sol\":808:883  require(!_isBlackListed[_account], \"Blacklist: Account is already blocked\") */\n      tag_324\n      jumpi\n      mload(0x40)\n      shl(0xe5, 0x461bcd)\n      dup2\n      mstore\n        /* \"#utility.yul\":15004:15006   */\n      0x20\n        /* \"contracts/Blacklist.sol\":808:883  require(!_isBlackListed[_account], \"Blacklist: Account is already blocked\") */\n      0x04\n      dup3\n      add\n        /* \"#utility.yul\":14986:15007   */\n      mstore\n        /* \"#utility.yul\":15043:15045   */\n      0x25\n        /* \"#utility.yul\":15023:15041   */\n      0x24\n      dup3\n      add\n        /* \"#utility.yul\":15016:15046   */\n      mstore\n        /* \"#utility.yul\":15082:15116   */\n      0x426c61636b6c6973743a204163636f756e7420697320616c726561647920626c\n        /* \"#utility.yul\":15062:15080   */\n      0x44\n      dup3\n      add\n        /* \"#utility.yul\":15055:15117   */\n      mstore\n      shl(0xda, 0x1bd8dad959)\n        /* \"#utility.yul\":15133:15151   */\n      0x64\n      dup3\n      add\n        /* \"#utility.yul\":15126:15161   */\n      mstore\n        /* \"#utility.yul\":15178:15197   */\n      0x84\n      add\n        /* \"contracts/Blacklist.sol\":808:883  require(!_isBlackListed[_account], \"Blacklist: Account is already blocked\") */\n      tag_158\n        /* \"#utility.yul\":14802:15203   */\n      jump\n        /* \"contracts/Blacklist.sol\":808:883  require(!_isBlackListed[_account], \"Blacklist: Account is already blocked\") */\n    tag_324:\n      sub(shl(0xa0, 0x01), 0x01)\n        /* \"contracts/Blacklist.sol\":893:917  _isBlackListed[_account] */\n      dup2\n      and\n      0x00\n      dup2\n      dup2\n      mstore\n        /* \"contracts/Blacklist.sol\":893:907  _isBlackListed */\n      0x07\n        /* \"contracts/Blacklist.sol\":893:917  _isBlackListed[_account] */\n      0x20\n      mstore\n      0x40\n      dup1\n      dup3\n      keccak256\n        /* \"contracts/Blacklist.sol\":893:924  _isBlackListed[_account] = true */\n      dup1\n      sload\n      not(0xff)\n      and\n        /* \"contracts/Blacklist.sol\":920:924  true */\n      0x01\n        /* \"contracts/Blacklist.sol\":893:924  _isBlackListed[_account] = true */\n      or\n      swap1\n      sstore\n        /* \"contracts/Blacklist.sol\":940:964  BlockedAccount(_account) */\n      mload\n      0x8632489584ac3cfc9b78cc6c2197c31ca9e3821bfa5ca5c9af28917b92db24d9\n      swap2\n        /* \"contracts/Blacklist.sol\":893:917  _isBlackListed[_account] */\n      swap1\n        /* \"contracts/Blacklist.sol\":940:964  BlockedAccount(_account) */\n      log2\n        /* \"contracts/Blacklist.sol\":739:971  function _blockAccount (address _account) internal virtual {... */\n      pop\n      jump\t// out\n        /* \"@openzeppelin/contracts/security/Pausable.sol\":2186:2301  function _pause() internal virtual whenNotPaused {... */\n    tag_234:\n        /* \"@openzeppelin/contracts/security/Pausable.sol\":1239:1258  _requireNotPaused() */\n      tag_328\n        /* \"@openzeppelin/contracts/security/Pausable.sol\":1239:1256  _requireNotPaused */\n      tag_329\n        /* \"@openzeppelin/contracts/security/Pausable.sol\":1239:1258  _requireNotPaused() */\n      jump\t// in\n    tag_328:\n        /* \"@openzeppelin/contracts/security/Pausable.sol\":2245:2252  _paused */\n      0x06\n        /* \"@openzeppelin/contracts/security/Pausable.sol\":2245:2259  _paused = true */\n      dup1\n      sload\n      not(0xff00)\n      and\n      0x0100\n      or\n      swap1\n      sstore\n        /* \"@openzeppelin/contracts/security/Pausable.sol\":2274:2294  Paused(_msgSender()) */\n      0x62e78cea01bee320cd4e420270b5ea74000d11b0c9f74754ebdbfc544b05a258\n        /* \"@openzeppelin/contracts/security/Pausable.sol\":2281:2293  _msgSender() */\n      tag_290\n        /* \"@openzeppelin/contracts/utils/Context.sol\":735:745  msg.sender */\n      caller\n      swap1\n        /* \"@openzeppelin/contracts/utils/Context.sol\":656:752  function _msgSender() internal view virtual returns (address) {... */\n      jump\n        /* \"contracts/EssentialToken.sol\":1918:2249  function _beforeTokenTransfer(address from, address to, uint256 amount) internal override whenNotPaused {... */\n    tag_279:\n        /* \"@openzeppelin/contracts/security/Pausable.sol\":1239:1258  _requireNotPaused() */\n      tag_334\n        /* \"@openzeppelin/contracts/security/Pausable.sol\":1239:1256  _requireNotPaused */\n      tag_329\n        /* \"@openzeppelin/contracts/security/Pausable.sol\":1239:1258  _requireNotPaused() */\n      jump\t// in\n    tag_334:\n      sub(shl(0xa0, 0x01), 0x01)\n        /* \"contracts/Blacklist.sol\":475:499  _isBlackListed[_account] */\n      dup3\n      and\n        /* \"contracts/Blacklist.sol\":452:456  bool */\n      0x00\n        /* \"contracts/Blacklist.sol\":475:499  _isBlackListed[_account] */\n      swap1\n      dup2\n      mstore\n        /* \"contracts/Blacklist.sol\":475:489  _isBlackListed */\n      0x07\n        /* \"contracts/Blacklist.sol\":475:499  _isBlackListed[_account] */\n      0x20\n      mstore\n      0x40\n      swap1\n      keccak256\n      sload\n      0xff\n      and\n        /* \"contracts/EssentialToken.sol\":2040:2061  !isAccountBlocked(to) */\n      iszero\n        /* \"contracts/EssentialToken.sol\":2032:2105  require(!isAccountBlocked(to), \"BlackList: Recipient account is blocked\") */\n      tag_337\n      jumpi\n      mload(0x40)\n      shl(0xe5, 0x461bcd)\n      dup2\n      mstore\n        /* \"#utility.yul\":15410:15412   */\n      0x20\n        /* \"contracts/EssentialToken.sol\":2032:2105  require(!isAccountBlocked(to), \"BlackList: Recipient account is blocked\") */\n      0x04\n      dup3\n      add\n        /* \"#utility.yul\":15392:15413   */\n      mstore\n        /* \"#utility.yul\":15449:15451   */\n      0x27\n        /* \"#utility.yul\":15429:15447   */\n      0x24\n      dup3\n      add\n        /* \"#utility.yul\":15422:15452   */\n      mstore\n        /* \"#utility.yul\":15488:15522   */\n      0x426c61636b4c6973743a20526563697069656e74206163636f756e7420697320\n        /* \"#utility.yul\":15468:15486   */\n      0x44\n      dup3\n      add\n        /* \"#utility.yul\":15461:15523   */\n      mstore\n      shl(0xca, 0x189b1bd8dad959)\n        /* \"#utility.yul\":15539:15557   */\n      0x64\n      dup3\n      add\n        /* \"#utility.yul\":15532:15569   */\n      mstore\n        /* \"#utility.yul\":15586:15605   */\n      0x84\n      add\n        /* \"contracts/EssentialToken.sol\":2032:2105  require(!isAccountBlocked(to), \"BlackList: Recipient account is blocked\") */\n      tag_158\n        /* \"#utility.yul\":15208:15611   */\n      jump\n        /* \"contracts/EssentialToken.sol\":2032:2105  require(!isAccountBlocked(to), \"BlackList: Recipient account is blocked\") */\n    tag_337:\n      sub(shl(0xa0, 0x01), 0x01)\n        /* \"contracts/Blacklist.sol\":475:499  _isBlackListed[_account] */\n      dup4\n      and\n        /* \"contracts/Blacklist.sol\":452:456  bool */\n      0x00\n        /* \"contracts/Blacklist.sol\":475:499  _isBlackListed[_account] */\n      swap1\n      dup2\n      mstore\n        /* \"contracts/Blacklist.sol\":475:489  _isBlackListed */\n      0x07\n        /* \"contracts/Blacklist.sol\":475:499  _isBlackListed[_account] */\n      0x20\n      mstore\n      0x40\n      swap1\n      keccak256\n      sload\n      0xff\n      and\n        /* \"contracts/EssentialToken.sol\":2123:2146  !isAccountBlocked(from) */\n      iszero\n        /* \"contracts/EssentialToken.sol\":2115:2187  require(!isAccountBlocked(from), \"BlackList: Sender account is blocked\") */\n      tag_341\n      jumpi\n      mload(0x40)\n      shl(0xe5, 0x461bcd)\n      dup2\n      mstore\n        /* \"#utility.yul\":15818:15820   */\n      0x20\n        /* \"contracts/EssentialToken.sol\":2115:2187  require(!isAccountBlocked(from), \"BlackList: Sender account is blocked\") */\n      0x04\n      dup3\n      add\n        /* \"#utility.yul\":15800:15821   */\n      mstore\n        /* \"#utility.yul\":15857:15859   */\n      0x24\n        /* \"#utility.yul\":15837:15855   */\n      dup1\n      dup3\n      add\n        /* \"#utility.yul\":15830:15860   */\n      mstore\n        /* \"#utility.yul\":15896:15930   */\n      0x426c61636b4c6973743a2053656e646572206163636f756e7420697320626c6f\n        /* \"#utility.yul\":15876:15894   */\n      0x44\n      dup3\n      add\n        /* \"#utility.yul\":15869:15931   */\n      mstore\n      shl(0xe2, 0x18dad959)\n        /* \"#utility.yul\":15947:15965   */\n      0x64\n      dup3\n      add\n        /* \"#utility.yul\":15940:15974   */\n      mstore\n        /* \"#utility.yul\":15991:16010   */\n      0x84\n      add\n        /* \"contracts/EssentialToken.sol\":2115:2187  require(!isAccountBlocked(from), \"BlackList: Sender account is blocked\") */\n      tag_158\n        /* \"#utility.yul\":15616:16016   */\n      jump\n        /* \"contracts/EssentialToken.sol\":2115:2187  require(!isAccountBlocked(from), \"BlackList: Sender account is blocked\") */\n    tag_341:\n        /* \"contracts/EssentialToken.sol\":1918:2249  function _beforeTokenTransfer(address from, address to, uint256 amount) internal override whenNotPaused {... */\n      pop\n      pop\n      pop\n      jump\t// out\n        /* \"@openzeppelin/contracts/security/Pausable.sol\":1945:2051  function _requirePaused() internal view virtual {... */\n    tag_288:\n        /* \"@openzeppelin/contracts/security/Pausable.sol\":1685:1692  _paused */\n      sload(0x06)\n      0x0100\n      swap1\n      div\n      0xff\n      and\n        /* \"@openzeppelin/contracts/security/Pausable.sol\":2003:2044  require(paused(), \"Pausable: not paused\") */\n      tag_165\n      jumpi\n      mload(0x40)\n      shl(0xe5, 0x461bcd)\n      dup2\n      mstore\n        /* \"#utility.yul\":16223:16225   */\n      0x20\n        /* \"@openzeppelin/contracts/security/Pausable.sol\":2003:2044  require(paused(), \"Pausable: not paused\") */\n      0x04\n      dup3\n      add\n        /* \"#utility.yul\":16205:16226   */\n      mstore\n        /* \"#utility.yul\":16262:16264   */\n      0x14\n        /* \"#utility.yul\":16242:16260   */\n      0x24\n      dup3\n      add\n        /* \"#utility.yul\":16235:16265   */\n      mstore\n      shl(0x62, 0x14185d5cd8589b194e881b9bdd081c185d5cd959)\n        /* \"#utility.yul\":16281:16299   */\n      0x44\n      dup3\n      add\n        /* \"#utility.yul\":16274:16324   */\n      mstore\n        /* \"#utility.yul\":16341:16359   */\n      0x64\n      add\n        /* \"@openzeppelin/contracts/security/Pausable.sol\":2003:2044  require(paused(), \"Pausable: not paused\") */\n      tag_158\n        /* \"#utility.yul\":16021:16365   */\n      jump\n        /* \"contracts/ERC20.sol\":4514:5169  function _burn(address account, uint256 amount) internal virtual {... */\n    tag_307:\n      sub(shl(0xa0, 0x01), 0x01)\n        /* \"contracts/ERC20.sol\":4597:4618  account != address(0) */\n      dup3\n      and\n        /* \"contracts/ERC20.sol\":4589:4656  require(account != address(0), \"ERC20: burn from the zero address\") */\n      tag_354\n      jumpi\n      mload(0x40)\n      shl(0xe5, 0x461bcd)\n      dup2\n      mstore\n        /* \"#utility.yul\":16572:16574   */\n      0x20\n        /* \"contracts/ERC20.sol\":4589:4656  require(account != address(0), \"ERC20: burn from the zero address\") */\n      0x04\n      dup3\n      add\n        /* \"#utility.yul\":16554:16575   */\n      mstore\n        /* \"#utility.yul\":16611:16613   */\n      0x21\n        /* \"#utility.yul\":16591:16609   */\n      0x24\n      dup3\n      add\n        /* \"#utility.yul\":16584:16614   */\n      mstore\n        /* \"#utility.yul\":16650:16684   */\n      0x45524332303a206275726e2066726f6d20746865207a65726f20616464726573\n        /* \"#utility.yul\":16630:16648   */\n      0x44\n      dup3\n      add\n        /* \"#utility.yul\":16623:16685   */\n      mstore\n      shl(0xf8, 0x73)\n        /* \"#utility.yul\":16701:16719   */\n      0x64\n      dup3\n      add\n        /* \"#utility.yul\":16694:16725   */\n      mstore\n        /* \"#utility.yul\":16742:16761   */\n      0x84\n      add\n        /* \"contracts/ERC20.sol\":4589:4656  require(account != address(0), \"ERC20: burn from the zero address\") */\n      tag_158\n        /* \"#utility.yul\":16370:16767   */\n      jump\n        /* \"contracts/ERC20.sol\":4589:4656  require(account != address(0), \"ERC20: burn from the zero address\") */\n    tag_354:\n        /* \"contracts/ERC20.sol\":4667:4716  _beforeTokenTransfer(account, address(0), amount) */\n      tag_357\n        /* \"contracts/ERC20.sol\":4688:4695  account */\n      dup3\n        /* \"contracts/ERC20.sol\":4705:4706  0 */\n      0x00\n        /* \"contracts/ERC20.sol\":4709:4715  amount */\n      dup4\n        /* \"contracts/ERC20.sol\":4667:4687  _beforeTokenTransfer */\n      tag_279\n        /* \"contracts/ERC20.sol\":4667:4716  _beforeTokenTransfer(account, address(0), amount) */\n      jump\t// in\n    tag_357:\n      sub(shl(0xa0, 0x01), 0x01)\n        /* \"contracts/ERC20.sol\":4752:4770  _balances[account] */\n      dup3\n      and\n        /* \"contracts/ERC20.sol\":4727:4749  uint256 accountBalance */\n      0x00\n        /* \"contracts/ERC20.sol\":4752:4770  _balances[account] */\n      swap1\n      dup2\n      mstore\n      0x20\n      dup2\n      swap1\n      mstore\n      0x40\n      swap1\n      keccak256\n      sload\n        /* \"contracts/ERC20.sol\":4788:4812  accountBalance >= amount */\n      dup2\n      dup2\n      lt\n      iszero\n        /* \"contracts/ERC20.sol\":4780:4851  require(accountBalance >= amount, \"ERC20: burn amount exceeds balance\") */\n      tag_358\n      jumpi\n      mload(0x40)\n      shl(0xe5, 0x461bcd)\n      dup2\n      mstore\n        /* \"#utility.yul\":16974:16976   */\n      0x20\n        /* \"contracts/ERC20.sol\":4780:4851  require(accountBalance >= amount, \"ERC20: burn amount exceeds balance\") */\n      0x04\n      dup3\n      add\n        /* \"#utility.yul\":16956:16977   */\n      mstore\n        /* \"#utility.yul\":17013:17015   */\n      0x22\n        /* \"#utility.yul\":16993:17011   */\n      0x24\n      dup3\n      add\n        /* \"#utility.yul\":16986:17016   */\n      mstore\n        /* \"#utility.yul\":17052:17086   */\n      0x45524332303a206275726e20616d6f756e7420657863656564732062616c616e\n        /* \"#utility.yul\":17032:17050   */\n      0x44\n      dup3\n      add\n        /* \"#utility.yul\":17025:17087   */\n      mstore\n      shl(0xf0, 0x6365)\n        /* \"#utility.yul\":17103:17121   */\n      0x64\n      dup3\n      add\n        /* \"#utility.yul\":17096:17128   */\n      mstore\n        /* \"#utility.yul\":17145:17164   */\n      0x84\n      add\n        /* \"contracts/ERC20.sol\":4780:4851  require(accountBalance >= amount, \"ERC20: burn amount exceeds balance\") */\n      tag_158\n        /* \"#utility.yul\":16772:17170   */\n      jump\n        /* \"contracts/ERC20.sol\":4780:4851  require(accountBalance >= amount, \"ERC20: burn amount exceeds balance\") */\n    tag_358:\n      sub(shl(0xa0, 0x01), 0x01)\n        /* \"contracts/ERC20.sol\":4885:4903  _balances[account] */\n      dup4\n      and\n        /* \"contracts/ERC20.sol\":4885:4894  _balances */\n      0x00\n        /* \"contracts/ERC20.sol\":4885:4903  _balances[account] */\n      dup2\n      dup2\n      mstore\n      0x20\n      dup2\n      dup2\n      mstore\n      0x40\n      dup1\n      dup4\n      keccak256\n        /* \"contracts/ERC20.sol\":4906:4929  accountBalance - amount */\n      dup7\n      dup7\n      sub\n        /* \"contracts/ERC20.sol\":4885:4929  _balances[account] = accountBalance - amount */\n      swap1\n      sstore\n        /* \"contracts/ERC20.sol\":5018:5030  _totalSupply */\n      0x02\n        /* \"contracts/ERC20.sol\":5018:5040  _totalSupply -= amount */\n      dup1\n      sload\n      dup8\n      swap1\n      sub\n      swap1\n      sstore\n        /* \"contracts/ERC20.sol\":5066:5103  Transfer(account, address(0), amount) */\n      mload\n        /* \"#utility.yul\":1258:1283   */\n      dup6\n      dup2\n      mstore\n        /* \"contracts/ERC20.sol\":4885:4894  _balances */\n      swap2\n      swap3\n        /* \"contracts/ERC20.sol\":4885:4903  _balances[account] */\n      swap2\n        /* \"contracts/ERC20.sol\":5066:5103  Transfer(account, address(0), amount) */\n      0xddf252ad1be2c89b69c2b068fc378daa952ba7f163c4a11628f55a4df523b3ef\n      swap2\n        /* \"#utility.yul\":1231:1249   */\n      add\n        /* \"contracts/ERC20.sol\":5066:5103  Transfer(account, address(0), amount) */\n      mload(0x40)\n      dup1\n      swap2\n      sub\n      swap1\n      log3\n        /* \"contracts/EssentialToken.sol\":1918:2249  function _beforeTokenTransfer(address from, address to, uint256 amount) internal override whenNotPaused {... */\n      pop\n      pop\n      pop\n      jump\t// out\n        /* \"@openzeppelin/contracts/proxy/utils/Initializable.sol\":7084:7225  function _checkInitializing() internal view virtual {... */\n    tag_315:\n        /* \"@openzeppelin/contracts/proxy/utils/Initializable.sol\":8870:8891  INITIALIZABLE_STORAGE */\n      0xf0c57e16840df040f15088dc2f81fe391c3923bec73e23a9662efc9c229c6a00\n        /* \"@openzeppelin/contracts/proxy/utils/Initializable.sol\":8560:8600  _getInitializableStorage()._initializing */\n      sload\n      shl(0x40, 0x01)\n      swap1\n      div\n      0xff\n      and\n        /* \"@openzeppelin/contracts/proxy/utils/Initializable.sol\":7146:7219  if (!_isInitializing()) {... */\n      tag_165\n      jumpi\n        /* \"@openzeppelin/contracts/proxy/utils/Initializable.sol\":7191:7208  NotInitializing() */\n      mload(0x40)\n      shl(0xe3, 0x1afcd79f)\n      dup2\n      mstore\n      0x04\n      add\n      mload(0x40)\n      dup1\n      swap2\n      sub\n      swap1\n      revert\n        /* \"@openzeppelin/contracts/security/Pausable.sol\":1767:1873  function _requireNotPaused() internal view virtual {... */\n    tag_329:\n        /* \"@openzeppelin/contracts/security/Pausable.sol\":1685:1692  _paused */\n      sload(0x06)\n      0x0100\n      swap1\n      div\n      0xff\n      and\n        /* \"@openzeppelin/contracts/security/Pausable.sol\":1836:1845  !paused() */\n      iszero\n        /* \"@openzeppelin/contracts/security/Pausable.sol\":1828:1866  require(!paused(), \"Pausable: paused\") */\n      tag_165\n      jumpi\n      mload(0x40)\n      shl(0xe5, 0x461bcd)\n      dup2\n      mstore\n        /* \"#utility.yul\":17377:17379   */\n      0x20\n        /* \"@openzeppelin/contracts/security/Pausable.sol\":1828:1866  require(!paused(), \"Pausable: paused\") */\n      0x04\n      dup3\n      add\n        /* \"#utility.yul\":17359:17380   */\n      mstore\n        /* \"#utility.yul\":17416:17418   */\n      0x10\n        /* \"#utility.yul\":17396:17414   */\n      0x24\n      dup3\n      add\n        /* \"#utility.yul\":17389:17419   */\n      mstore\n      shl(0x82, 0x14185d5cd8589b194e881c185d5cd959)\n        /* \"#utility.yul\":17435:17453   */\n      0x44\n      dup3\n      add\n        /* \"#utility.yul\":17428:17474   */\n      mstore\n        /* \"#utility.yul\":17491:17509   */\n      0x64\n      add\n        /* \"@openzeppelin/contracts/security/Pausable.sol\":1828:1866  require(!paused(), \"Pausable: paused\") */\n      tag_158\n        /* \"#utility.yul\":17175:17515   */\n      jump\n        /* \"#utility.yul\":14:432   */\n    tag_39:\n        /* \"#utility.yul\":163:165   */\n      0x20\n        /* \"#utility.yul\":152:161   */\n      dup2\n        /* \"#utility.yul\":145:166   */\n      mstore\n        /* \"#utility.yul\":126:130   */\n      0x00\n        /* \"#utility.yul\":195:201   */\n      dup3\n        /* \"#utility.yul\":189:202   */\n      mload\n        /* \"#utility.yul\":238:244   */\n      dup1\n        /* \"#utility.yul\":233:235   */\n      0x20\n        /* \"#utility.yul\":222:231   */\n      dup5\n        /* \"#utility.yul\":218:236   */\n      add\n        /* \"#utility.yul\":211:245   */\n      mstore\n        /* \"#utility.yul\":297:303   */\n      dup1\n        /* \"#utility.yul\":292:294   */\n      0x20\n        /* \"#utility.yul\":284:290   */\n      dup6\n        /* \"#utility.yul\":280:295   */\n      add\n        /* \"#utility.yul\":275:277   */\n      0x40\n        /* \"#utility.yul\":264:273   */\n      dup6\n        /* \"#utility.yul\":260:278   */\n      add\n        /* \"#utility.yul\":254:304   */\n      mcopy\n        /* \"#utility.yul\":353:354   */\n      0x00\n        /* \"#utility.yul\":348:350   */\n      0x40\n        /* \"#utility.yul\":339:345   */\n      dup3\n        /* \"#utility.yul\":328:337   */\n      dup6\n        /* \"#utility.yul\":324:346   */\n      add\n        /* \"#utility.yul\":320:351   */\n      add\n        /* \"#utility.yul\":313:355   */\n      mstore\n        /* \"#utility.yul\":423:425   */\n      0x40\n        /* \"#utility.yul\":416:418   */\n      0x1f\n        /* \"#utility.yul\":412:419   */\n      not\n        /* \"#utility.yul\":407:409   */\n      0x1f\n        /* \"#utility.yul\":399:405   */\n      dup4\n        /* \"#utility.yul\":395:410   */\n      add\n        /* \"#utility.yul\":391:420   */\n      and\n        /* \"#utility.yul\":380:389   */\n      dup5\n        /* \"#utility.yul\":376:421   */\n      add\n        /* \"#utility.yul\":372:426   */\n      add\n        /* \"#utility.yul\":364:426   */\n      swap2\n      pop\n      pop\n        /* \"#utility.yul\":14:432   */\n      swap3\n      swap2\n      pop\n      pop\n      jump\t// out\n        /* \"#utility.yul\":437:610   */\n    tag_375:\n        /* \"#utility.yul\":505:525   */\n      dup1\n      calldataload\n      sub(shl(0xa0, 0x01), 0x01)\n        /* \"#utility.yul\":554:585   */\n      dup2\n      and\n        /* \"#utility.yul\":544:586   */\n      dup2\n      eq\n        /* \"#utility.yul\":534:604   */\n      tag_388\n      jumpi\n        /* \"#utility.yul\":600:601   */\n      0x00\n        /* \"#utility.yul\":597:598   */\n      dup1\n        /* \"#utility.yul\":590:602   */\n      revert\n        /* \"#utility.yul\":534:604   */\n    tag_388:\n        /* \"#utility.yul\":437:610   */\n      swap2\n      swap1\n      pop\n      jump\t// out\n        /* \"#utility.yul\":615:915   */\n    tag_42:\n        /* \"#utility.yul\":683:689   */\n      0x00\n        /* \"#utility.yul\":691:697   */\n      dup1\n        /* \"#utility.yul\":744:746   */\n      0x40\n        /* \"#utility.yul\":732:741   */\n      dup4\n        /* \"#utility.yul\":723:730   */\n      dup6\n        /* \"#utility.yul\":719:742   */\n      sub\n        /* \"#utility.yul\":715:747   */\n      slt\n        /* \"#utility.yul\":712:764   */\n      iszero\n      tag_390\n      jumpi\n        /* \"#utility.yul\":760:761   */\n      0x00\n        /* \"#utility.yul\":757:758   */\n      dup1\n        /* \"#utility.yul\":750:762   */\n      revert\n        /* \"#utility.yul\":712:764   */\n    tag_390:\n        /* \"#utility.yul\":783:812   */\n      tag_391\n        /* \"#utility.yul\":802:811   */\n      dup4\n        /* \"#utility.yul\":783:812   */\n      tag_375\n      jump\t// in\n    tag_391:\n        /* \"#utility.yul\":773:812   */\n      swap5\n        /* \"#utility.yul\":881:883   */\n      0x20\n        /* \"#utility.yul\":866:884   */\n      swap4\n      swap1\n      swap4\n      add\n        /* \"#utility.yul\":853:885   */\n      calldataload\n      swap4\n      pop\n      pop\n      pop\n        /* \"#utility.yul\":615:915   */\n      jump\t// out\n        /* \"#utility.yul\":1294:1668   */\n    tag_52:\n        /* \"#utility.yul\":1371:1377   */\n      0x00\n        /* \"#utility.yul\":1379:1385   */\n      dup1\n        /* \"#utility.yul\":1387:1393   */\n      0x00\n        /* \"#utility.yul\":1440:1442   */\n      0x60\n        /* \"#utility.yul\":1428:1437   */\n      dup5\n        /* \"#utility.yul\":1419:1426   */\n      dup7\n        /* \"#utility.yul\":1415:1438   */\n      sub\n        /* \"#utility.yul\":1411:1443   */\n      slt\n        /* \"#utility.yul\":1408:1460   */\n      iszero\n      tag_395\n      jumpi\n        /* \"#utility.yul\":1456:1457   */\n      0x00\n        /* \"#utility.yul\":1453:1454   */\n      dup1\n        /* \"#utility.yul\":1446:1458   */\n      revert\n        /* \"#utility.yul\":1408:1460   */\n    tag_395:\n        /* \"#utility.yul\":1479:1508   */\n      tag_396\n        /* \"#utility.yul\":1498:1507   */\n      dup5\n        /* \"#utility.yul\":1479:1508   */\n      tag_375\n      jump\t// in\n    tag_396:\n        /* \"#utility.yul\":1469:1508   */\n      swap3\n      pop\n        /* \"#utility.yul\":1527:1565   */\n      tag_397\n        /* \"#utility.yul\":1561:1563   */\n      0x20\n        /* \"#utility.yul\":1550:1559   */\n      dup6\n        /* \"#utility.yul\":1546:1564   */\n      add\n        /* \"#utility.yul\":1527:1565   */\n      tag_375\n      jump\t// in\n    tag_397:\n        /* \"#utility.yul\":1294:1668   */\n      swap3\n      swap6\n        /* \"#utility.yul\":1517:1565   */\n      swap3\n      swap5\n      pop\n      pop\n      pop\n        /* \"#utility.yul\":1634:1636   */\n      0x40\n        /* \"#utility.yul\":1619:1637   */\n      swap2\n      swap1\n      swap2\n      add\n        /* \"#utility.yul\":1606:1638   */\n      calldataload\n      swap1\n        /* \"#utility.yul\":1294:1668   */\n      jump\t// out\n        /* \"#utility.yul\":1862:2088   */\n    tag_73:\n        /* \"#utility.yul\":1921:1927   */\n      0x00\n        /* \"#utility.yul\":1974:1976   */\n      0x20\n        /* \"#utility.yul\":1962:1971   */\n      dup3\n        /* \"#utility.yul\":1953:1960   */\n      dup5\n        /* \"#utility.yul\":1949:1972   */\n      sub\n        /* \"#utility.yul\":1945:1977   */\n      slt\n        /* \"#utility.yul\":1942:1994   */\n      iszero\n      tag_400\n      jumpi\n        /* \"#utility.yul\":1990:1991   */\n      0x00\n        /* \"#utility.yul\":1987:1988   */\n      dup1\n        /* \"#utility.yul\":1980:1992   */\n      revert\n        /* \"#utility.yul\":1942:1994   */\n    tag_400:\n      pop\n        /* \"#utility.yul\":2035:2058   */\n      calldataload\n      swap2\n        /* \"#utility.yul\":1862:2088   */\n      swap1\n      pop\n      jump\t// out\n        /* \"#utility.yul\":2093:2279   */\n    tag_77:\n        /* \"#utility.yul\":2152:2158   */\n      0x00\n        /* \"#utility.yul\":2205:2207   */\n      0x20\n        /* \"#utility.yul\":2193:2202   */\n      dup3\n        /* \"#utility.yul\":2184:2191   */\n      dup5\n        /* \"#utility.yul\":2180:2203   */\n      sub\n        /* \"#utility.yul\":2176:2208   */\n      slt\n        /* \"#utility.yul\":2173:2225   */\n      iszero\n      tag_402\n      jumpi\n        /* \"#utility.yul\":2221:2222   */\n      0x00\n        /* \"#utility.yul\":2218:2219   */\n      dup1\n        /* \"#utility.yul\":2211:2223   */\n      revert\n        /* \"#utility.yul\":2173:2225   */\n    tag_402:\n        /* \"#utility.yul\":2244:2273   */\n      tag_403\n        /* \"#utility.yul\":2263:2272   */\n      dup3\n        /* \"#utility.yul\":2244:2273   */\n      tag_375\n      jump\t// in\n    tag_403:\n        /* \"#utility.yul\":2234:2273   */\n      swap4\n        /* \"#utility.yul\":2093:2279   */\n      swap3\n      pop\n      pop\n      pop\n      jump\t// out\n        /* \"#utility.yul\":2284:2411   */\n    tag_376:\n        /* \"#utility.yul\":2345:2355   */\n      0x4e487b71\n        /* \"#utility.yul\":2340:2343   */\n      0xe0\n        /* \"#utility.yul\":2336:2356   */\n      shl\n        /* \"#utility.yul\":2333:2334   */\n      0x00\n        /* \"#utility.yul\":2326:2357   */\n      mstore\n        /* \"#utility.yul\":2376:2380   */\n      0x41\n        /* \"#utility.yul\":2373:2374   */\n      0x04\n        /* \"#utility.yul\":2366:2381   */\n      mstore\n        /* \"#utility.yul\":2400:2404   */\n      0x24\n        /* \"#utility.yul\":2397:2398   */\n      0x00\n        /* \"#utility.yul\":2390:2405   */\n      revert\n        /* \"#utility.yul\":2416:3142   */\n    tag_377:\n        /* \"#utility.yul\":2459:2464   */\n      0x00\n        /* \"#utility.yul\":2512:2515   */\n      dup3\n        /* \"#utility.yul\":2505:2509   */\n      0x1f\n        /* \"#utility.yul\":2497:2503   */\n      dup4\n        /* \"#utility.yul\":2493:2510   */\n      add\n        /* \"#utility.yul\":2489:2516   */\n      slt\n        /* \"#utility.yul\":2479:2534   */\n      tag_406\n      jumpi\n        /* \"#utility.yul\":2530:2531   */\n      0x00\n        /* \"#utility.yul\":2527:2528   */\n      dup1\n        /* \"#utility.yul\":2520:2532   */\n      revert\n        /* \"#utility.yul\":2479:2534   */\n    tag_406:\n        /* \"#utility.yul\":2570:2576   */\n      dup2\n        /* \"#utility.yul\":2557:2577   */\n      calldataload\n        /* \"#utility.yul\":2600:2618   */\n      0xffffffffffffffff\n        /* \"#utility.yul\":2592:2598   */\n      dup2\n        /* \"#utility.yul\":2589:2619   */\n      gt\n        /* \"#utility.yul\":2586:2642   */\n      iszero\n      tag_408\n      jumpi\n        /* \"#utility.yul\":2622:2640   */\n      tag_408\n      tag_376\n      jump\t// in\n    tag_408:\n        /* \"#utility.yul\":2671:2673   */\n      0x40\n        /* \"#utility.yul\":2665:2674   */\n      mload\n        /* \"#utility.yul\":2763:2765   */\n      0x1f\n        /* \"#utility.yul\":2725:2742   */\n      dup3\n      add\n      not(0x1f)\n        /* \"#utility.yul\":2721:2752   */\n      swap1\n      dup2\n      and\n        /* \"#utility.yul\":2754:2756   */\n      0x3f\n        /* \"#utility.yul\":2717:2757   */\n      add\n        /* \"#utility.yul\":2713:2767   */\n      and\n        /* \"#utility.yul\":2701:2768   */\n      dup2\n      add\n        /* \"#utility.yul\":2798:2816   */\n      0xffffffffffffffff\n        /* \"#utility.yul\":2783:2817   */\n      dup2\n      gt\n        /* \"#utility.yul\":2819:2841   */\n      dup3\n      dup3\n      lt\n        /* \"#utility.yul\":2780:2842   */\n      or\n        /* \"#utility.yul\":2777:2865   */\n      iszero\n      tag_410\n      jumpi\n        /* \"#utility.yul\":2845:2863   */\n      tag_410\n      tag_376\n      jump\t// in\n    tag_410:\n        /* \"#utility.yul\":2881:2883   */\n      0x40\n        /* \"#utility.yul\":2874:2896   */\n      mstore\n        /* \"#utility.yul\":2905:2927   */\n      dup2\n      dup2\n      mstore\n        /* \"#utility.yul\":2946:2965   */\n      dup4\n      dup3\n      add\n        /* \"#utility.yul\":2967:2971   */\n      0x20\n        /* \"#utility.yul\":2942:2972   */\n      add\n        /* \"#utility.yul\":2939:2978   */\n      dup6\n      lt\n        /* \"#utility.yul\":2936:2995   */\n      iszero\n      tag_411\n      jumpi\n        /* \"#utility.yul\":2991:2992   */\n      0x00\n        /* \"#utility.yul\":2988:2989   */\n      dup1\n        /* \"#utility.yul\":2981:2993   */\n      revert\n        /* \"#utility.yul\":2936:2995   */\n    tag_411:\n        /* \"#utility.yul\":3055:3061   */\n      dup2\n        /* \"#utility.yul\":3048:3052   */\n      0x20\n        /* \"#utility.yul\":3040:3046   */\n      dup6\n        /* \"#utility.yul\":3036:3053   */\n      add\n        /* \"#utility.yul\":3029:3033   */\n      0x20\n        /* \"#utility.yul\":3021:3027   */\n      dup4\n        /* \"#utility.yul\":3017:3034   */\n      add\n        /* \"#utility.yul\":3004:3062   */\n      calldatacopy\n        /* \"#utility.yul\":3110:3111   */\n      0x00\n        /* \"#utility.yul\":3082:3101   */\n      swap2\n      dup2\n      add\n        /* \"#utility.yul\":3103:3107   */\n      0x20\n        /* \"#utility.yul\":3078:3108   */\n      add\n        /* \"#utility.yul\":3071:3112   */\n      swap2\n      swap1\n      swap2\n      mstore\n        /* \"#utility.yul\":3086:3092   */\n      swap4\n        /* \"#utility.yul\":2416:3142   */\n      swap3\n      pop\n      pop\n      pop\n      jump\t// out\n        /* \"#utility.yul\":3147:3307   */\n    tag_378:\n        /* \"#utility.yul\":3212:3232   */\n      dup1\n      calldataload\n        /* \"#utility.yul\":3268:3281   */\n      dup1\n      iszero\n        /* \"#utility.yul\":3261:3282   */\n      iszero\n        /* \"#utility.yul\":3251:3283   */\n      dup2\n      eq\n        /* \"#utility.yul\":3241:3301   */\n      tag_388\n      jumpi\n        /* \"#utility.yul\":3297:3298   */\n      0x00\n        /* \"#utility.yul\":3294:3295   */\n      dup1\n        /* \"#utility.yul\":3287:3299   */\n      revert\n        /* \"#utility.yul\":3312:4462   */\n    tag_88:\n        /* \"#utility.yul\":3446:3452   */\n      0x00\n        /* \"#utility.yul\":3454:3460   */\n      dup1\n        /* \"#utility.yul\":3462:3468   */\n      0x00\n        /* \"#utility.yul\":3470:3476   */\n      dup1\n        /* \"#utility.yul\":3478:3484   */\n      0x00\n        /* \"#utility.yul\":3486:3492   */\n      dup1\n        /* \"#utility.yul\":3494:3500   */\n      0x00\n        /* \"#utility.yul\":3502:3508   */\n      dup1\n        /* \"#utility.yul\":3555:3558   */\n      0x0100\n        /* \"#utility.yul\":3543:3552   */\n      dup10\n        /* \"#utility.yul\":3534:3541   */\n      dup12\n        /* \"#utility.yul\":3530:3553   */\n      sub\n        /* \"#utility.yul\":3526:3559   */\n      slt\n        /* \"#utility.yul\":3523:3576   */\n      iszero\n      tag_415\n      jumpi\n        /* \"#utility.yul\":3572:3573   */\n      0x00\n        /* \"#utility.yul\":3569:3570   */\n      dup1\n        /* \"#utility.yul\":3562:3574   */\n      revert\n        /* \"#utility.yul\":3523:3576   */\n    tag_415:\n        /* \"#utility.yul\":3595:3624   */\n      tag_416\n        /* \"#utility.yul\":3614:3623   */\n      dup10\n        /* \"#utility.yul\":3595:3624   */\n      tag_375\n      jump\t// in\n    tag_416:\n        /* \"#utility.yul\":3585:3624   */\n      swap8\n      pop\n        /* \"#utility.yul\":3675:3677   */\n      0x20\n        /* \"#utility.yul\":3664:3673   */\n      dup10\n        /* \"#utility.yul\":3660:3678   */\n      add\n        /* \"#utility.yul\":3647:3679   */\n      calldataload\n        /* \"#utility.yul\":3702:3720   */\n      0xffffffffffffffff\n        /* \"#utility.yul\":3694:3700   */\n      dup2\n        /* \"#utility.yul\":3691:3721   */\n      gt\n        /* \"#utility.yul\":3688:3738   */\n      iszero\n      tag_417\n      jumpi\n        /* \"#utility.yul\":3734:3735   */\n      0x00\n        /* \"#utility.yul\":3731:3732   */\n      dup1\n        /* \"#utility.yul\":3724:3736   */\n      revert\n        /* \"#utility.yul\":3688:3738   */\n    tag_417:\n        /* \"#utility.yul\":3757:3807   */\n      tag_418\n        /* \"#utility.yul\":3799:3806   */\n      dup12\n        /* \"#utility.yul\":3790:3796   */\n      dup3\n        /* \"#utility.yul\":3779:3788   */\n      dup13\n        /* \"#utility.yul\":3775:3797   */\n      add\n        /* \"#utility.yul\":3757:3807   */\n      tag_377\n      jump\t// in\n    tag_418:\n        /* \"#utility.yul\":3747:3807   */\n      swap8\n      pop\n      pop\n        /* \"#utility.yul\":3860:3862   */\n      0x40\n        /* \"#utility.yul\":3849:3858   */\n      dup10\n        /* \"#utility.yul\":3845:3863   */\n      add\n        /* \"#utility.yul\":3832:3864   */\n      calldataload\n        /* \"#utility.yul\":3889:3907   */\n      0xffffffffffffffff\n        /* \"#utility.yul\":3879:3887   */\n      dup2\n        /* \"#utility.yul\":3876:3908   */\n      gt\n        /* \"#utility.yul\":3873:3925   */\n      iszero\n      tag_419\n      jumpi\n        /* \"#utility.yul\":3921:3922   */\n      0x00\n        /* \"#utility.yul\":3918:3919   */\n      dup1\n        /* \"#utility.yul\":3911:3923   */\n      revert\n        /* \"#utility.yul\":3873:3925   */\n    tag_419:\n        /* \"#utility.yul\":3944:3996   */\n      tag_420\n        /* \"#utility.yul\":3988:3995   */\n      dup12\n        /* \"#utility.yul\":3977:3985   */\n      dup3\n        /* \"#utility.yul\":3966:3975   */\n      dup13\n        /* \"#utility.yul\":3962:3986   */\n      add\n        /* \"#utility.yul\":3944:3996   */\n      tag_377\n      jump\t// in\n    tag_420:\n        /* \"#utility.yul\":3934:3996   */\n      swap7\n      pop\n      pop\n        /* \"#utility.yul\":4046:4048   */\n      0x60\n        /* \"#utility.yul\":4035:4044   */\n      dup10\n        /* \"#utility.yul\":4031:4049   */\n      add\n        /* \"#utility.yul\":4018:4050   */\n      calldataload\n        /* \"#utility.yul\":4090:4094   */\n      0xff\n        /* \"#utility.yul\":4083:4088   */\n      dup2\n        /* \"#utility.yul\":4079:4095   */\n      and\n        /* \"#utility.yul\":4072:4077   */\n      dup2\n        /* \"#utility.yul\":4069:4096   */\n      eq\n        /* \"#utility.yul\":4059:4114   */\n      tag_421\n      jumpi\n        /* \"#utility.yul\":4110:4111   */\n      0x00\n        /* \"#utility.yul\":4107:4108   */\n      dup1\n        /* \"#utility.yul\":4100:4112   */\n      revert\n        /* \"#utility.yul\":4059:4114   */\n    tag_421:\n        /* \"#utility.yul\":4133:4138   */\n      swap5\n      pop\n        /* \"#utility.yul\":4211:4214   */\n      0x80\n        /* \"#utility.yul\":4196:4215   */\n      dup10\n      add\n        /* \"#utility.yul\":4183:4216   */\n      calldataload\n      swap4\n      pop\n        /* \"#utility.yul\":4315:4318   */\n      0xa0\n        /* \"#utility.yul\":4300:4319   */\n      dup10\n      add\n        /* \"#utility.yul\":4287:4320   */\n      calldataload\n      swap3\n      pop\n        /* \"#utility.yul\":4365:4401   */\n      tag_422\n        /* \"#utility.yul\":4396:4399   */\n      0xc0\n        /* \"#utility.yul\":4381:4400   */\n      dup11\n      add\n        /* \"#utility.yul\":4365:4401   */\n      tag_378\n      jump\t// in\n    tag_422:\n        /* \"#utility.yul\":4355:4401   */\n      swap2\n      pop\n        /* \"#utility.yul\":4420:4456   */\n      tag_423\n        /* \"#utility.yul\":4451:4454   */\n      0xe0\n        /* \"#utility.yul\":4440:4449   */\n      dup11\n        /* \"#utility.yul\":4436:4455   */\n      add\n        /* \"#utility.yul\":4420:4456   */\n      tag_378\n      jump\t// in\n    tag_423:\n        /* \"#utility.yul\":4410:4456   */\n      swap1\n      pop\n        /* \"#utility.yul\":3312:4462   */\n      swap3\n      swap6\n      swap9\n      pop\n      swap3\n      swap6\n      swap9\n      swap1\n      swap4\n      swap7\n      pop\n      jump\t// out\n        /* \"#utility.yul\":4675:4935   */\n    tag_131:\n        /* \"#utility.yul\":4743:4749   */\n      0x00\n        /* \"#utility.yul\":4751:4757   */\n      dup1\n        /* \"#utility.yul\":4804:4806   */\n      0x40\n        /* \"#utility.yul\":4792:4801   */\n      dup4\n        /* \"#utility.yul\":4783:4790   */\n      dup6\n        /* \"#utility.yul\":4779:4802   */\n      sub\n        /* \"#utility.yul\":4775:4807   */\n      slt\n        /* \"#utility.yul\":4772:4824   */\n      iszero\n      tag_426\n      jumpi\n        /* \"#utility.yul\":4820:4821   */\n      0x00\n        /* \"#utility.yul\":4817:4818   */\n      dup1\n        /* \"#utility.yul\":4810:4822   */\n      revert\n        /* \"#utility.yul\":4772:4824   */\n    tag_426:\n        /* \"#utility.yul\":4843:4872   */\n      tag_427\n        /* \"#utility.yul\":4862:4871   */\n      dup4\n        /* \"#utility.yul\":4843:4872   */\n      tag_375\n      jump\t// in\n    tag_427:\n        /* \"#utility.yul\":4833:4872   */\n      swap2\n      pop\n        /* \"#utility.yul\":4891:4929   */\n      tag_428\n        /* \"#utility.yul\":4925:4927   */\n      0x20\n        /* \"#utility.yul\":4914:4923   */\n      dup5\n        /* \"#utility.yul\":4910:4928   */\n      add\n        /* \"#utility.yul\":4891:4929   */\n      tag_375\n      jump\t// in\n    tag_428:\n        /* \"#utility.yul\":4881:4929   */\n      swap1\n      pop\n        /* \"#utility.yul\":4675:4935   */\n      swap3\n      pop\n      swap3\n      swap1\n      pop\n      jump\t// out\n        /* \"#utility.yul\":4940:5320   */\n    tag_136:\n        /* \"#utility.yul\":5019:5020   */\n      0x01\n        /* \"#utility.yul\":5015:5027   */\n      dup2\n      dup2\n      shr\n      swap1\n        /* \"#utility.yul\":5062:5074   */\n      dup3\n      and\n      dup1\n        /* \"#utility.yul\":5083:5144   */\n      tag_430\n      jumpi\n        /* \"#utility.yul\":5137:5141   */\n      0x7f\n        /* \"#utility.yul\":5129:5135   */\n      dup3\n        /* \"#utility.yul\":5125:5142   */\n      and\n        /* \"#utility.yul\":5115:5142   */\n      swap2\n      pop\n        /* \"#utility.yul\":5083:5144   */\n    tag_430:\n        /* \"#utility.yul\":5190:5192   */\n      0x20\n        /* \"#utility.yul\":5182:5188   */\n      dup3\n        /* \"#utility.yul\":5179:5193   */\n      lt\n        /* \"#utility.yul\":5159:5177   */\n      dup2\n        /* \"#utility.yul\":5156:5194   */\n      sub\n        /* \"#utility.yul\":5153:5314   */\n      tag_431\n      jumpi\n        /* \"#utility.yul\":5236:5246   */\n      0x4e487b71\n        /* \"#utility.yul\":5231:5234   */\n      0xe0\n        /* \"#utility.yul\":5227:5247   */\n      shl\n        /* \"#utility.yul\":5224:5225   */\n      0x00\n        /* \"#utility.yul\":5217:5248   */\n      mstore\n        /* \"#utility.yul\":5271:5275   */\n      0x22\n        /* \"#utility.yul\":5268:5269   */\n      0x04\n        /* \"#utility.yul\":5261:5276   */\n      mstore\n        /* \"#utility.yul\":5299:5303   */\n      0x24\n        /* \"#utility.yul\":5296:5297   */\n      0x00\n        /* \"#utility.yul\":5289:5304   */\n      revert\n        /* \"#utility.yul\":5153:5314   */\n    tag_431:\n      pop\n        /* \"#utility.yul\":4940:5320   */\n      swap2\n      swap1\n      pop\n      jump\t// out\n        /* \"#utility.yul\":5325:5452   */\n    tag_379:\n        /* \"#utility.yul\":5386:5396   */\n      0x4e487b71\n        /* \"#utility.yul\":5381:5384   */\n      0xe0\n        /* \"#utility.yul\":5377:5397   */\n      shl\n        /* \"#utility.yul\":5374:5375   */\n      0x00\n        /* \"#utility.yul\":5367:5398   */\n      mstore\n        /* \"#utility.yul\":5417:5421   */\n      0x11\n        /* \"#utility.yul\":5414:5415   */\n      0x04\n        /* \"#utility.yul\":5407:5422   */\n      mstore\n        /* \"#utility.yul\":5441:5445   */\n      0x24\n        /* \"#utility.yul\":5438:5439   */\n      0x00\n        /* \"#utility.yul\":5431:5446   */\n      revert\n        /* \"#utility.yul\":5457:5582   */\n    tag_155:\n        /* \"#utility.yul\":5522:5531   */\n      dup1\n      dup3\n      add\n        /* \"#utility.yul\":5543:5553   */\n      dup1\n      dup3\n      gt\n        /* \"#utility.yul\":5540:5576   */\n      iszero\n      tag_141\n      jumpi\n        /* \"#utility.yul\":5556:5574   */\n      tag_141\n      tag_379\n      jump\t// in\n        /* \"#utility.yul\":5587:5919   */\n    tag_159:\n        /* \"#utility.yul\":5789:5791   */\n      0x20\n        /* \"#utility.yul\":5771:5792   */\n      dup1\n      dup3\n      mstore\n        /* \"#utility.yul\":5828:5829   */\n      0x09\n        /* \"#utility.yul\":5808:5826   */\n      swap1\n      dup3\n      add\n        /* \"#utility.yul\":5801:5830   */\n      mstore\n      shl(0xb9, 0x2737ba1037bbb732b9)\n        /* \"#utility.yul\":5861:5863   */\n      0x40\n        /* \"#utility.yul\":5846:5864   */\n      dup3\n      add\n        /* \"#utility.yul\":5839:5878   */\n      mstore\n        /* \"#utility.yul\":5910:5912   */\n      0x60\n        /* \"#utility.yul\":5895:5913   */\n      add\n      swap1\n        /* \"#utility.yul\":5587:5919   */\n      jump\t// out\n        /* \"#utility.yul\":6954:7329   */\n    tag_380:\n        /* \"#utility.yul\":7042:7043   */\n      0x01\n        /* \"#utility.yul\":7060:7065   */\n      dup2\n        /* \"#utility.yul\":7074:7323   */\n    tag_441:\n        /* \"#utility.yul\":7095:7096   */\n      0x01\n        /* \"#utility.yul\":7085:7093   */\n      dup5\n        /* \"#utility.yul\":7082:7097   */\n      gt\n        /* \"#utility.yul\":7074:7323   */\n      iszero\n      tag_443\n      jumpi\n        /* \"#utility.yul\":7145:7149   */\n      dup1\n        /* \"#utility.yul\":7140:7143   */\n      dup6\n        /* \"#utility.yul\":7136:7150   */\n      div\n        /* \"#utility.yul\":7130:7134   */\n      dup2\n        /* \"#utility.yul\":7127:7151   */\n      gt\n        /* \"#utility.yul\":7124:7174   */\n      iszero\n      tag_445\n      jumpi\n        /* \"#utility.yul\":7154:7172   */\n      tag_445\n      tag_379\n      jump\t// in\n    tag_445:\n        /* \"#utility.yul\":7204:7205   */\n      0x01\n        /* \"#utility.yul\":7194:7202   */\n      dup5\n        /* \"#utility.yul\":7190:7206   */\n      and\n        /* \"#utility.yul\":7187:7236   */\n      iszero\n      tag_446\n      jumpi\n        /* \"#utility.yul\":7218:7234   */\n      swap1\n      dup2\n      mul\n      swap1\n        /* \"#utility.yul\":7187:7236   */\n    tag_446:\n        /* \"#utility.yul\":7301:7302   */\n      0x01\n        /* \"#utility.yul\":7297:7313   */\n      swap4\n      swap1\n      swap4\n      shr\n      swap3\n        /* \"#utility.yul\":7257:7272   */\n      dup1\n      mul\n        /* \"#utility.yul\":7074:7323   */\n      jump(tag_441)\n    tag_443:\n        /* \"#utility.yul\":6954:7329   */\n      swap4\n      pop\n      swap4\n      swap2\n      pop\n      pop\n      jump\t// out\n        /* \"#utility.yul\":7334:8236   */\n    tag_381:\n        /* \"#utility.yul\":7383:7388   */\n      0x00\n        /* \"#utility.yul\":7413:7421   */\n      dup3\n        /* \"#utility.yul\":7403:7483   */\n      tag_448\n      jumpi\n      pop\n        /* \"#utility.yul\":7454:7455   */\n      0x01\n        /* \"#utility.yul\":7468:7473   */\n      jump(tag_141)\n        /* \"#utility.yul\":7403:7483   */\n    tag_448:\n        /* \"#utility.yul\":7502:7506   */\n      dup2\n        /* \"#utility.yul\":7492:7568   */\n      tag_449\n      jumpi\n      pop\n        /* \"#utility.yul\":7539:7540   */\n      0x00\n        /* \"#utility.yul\":7553:7558   */\n      jump(tag_141)\n        /* \"#utility.yul\":7492:7568   */\n    tag_449:\n        /* \"#utility.yul\":7584:7588   */\n      dup2\n        /* \"#utility.yul\":7602:7603   */\n      0x01\n        /* \"#utility.yul\":7597:7656   */\n      dup2\n      eq\n      tag_451\n      jumpi\n        /* \"#utility.yul\":7670:7671   */\n      0x02\n        /* \"#utility.yul\":7665:7839   */\n      dup2\n      eq\n      tag_452\n      jumpi\n        /* \"#utility.yul\":7577:7839   */\n      jump(tag_450)\n        /* \"#utility.yul\":7597:7656   */\n    tag_451:\n        /* \"#utility.yul\":7627:7628   */\n      0x01\n        /* \"#utility.yul\":7618:7628   */\n      swap2\n      pop\n        /* \"#utility.yul\":7641:7646   */\n      pop\n      jump(tag_141)\n        /* \"#utility.yul\":7665:7839   */\n    tag_452:\n        /* \"#utility.yul\":7702:7705   */\n      0xff\n        /* \"#utility.yul\":7692:7700   */\n      dup5\n        /* \"#utility.yul\":7689:7706   */\n      gt\n        /* \"#utility.yul\":7686:7729   */\n      iszero\n      tag_454\n      jumpi\n        /* \"#utility.yul\":7709:7727   */\n      tag_454\n      tag_379\n      jump\t// in\n    tag_454:\n      pop\n      pop\n        /* \"#utility.yul\":7765:7766   */\n      0x01\n        /* \"#utility.yul\":7751:7767   */\n      dup3\n      shl\n        /* \"#utility.yul\":7824:7829   */\n      jump(tag_141)\n        /* \"#utility.yul\":7577:7839   */\n    tag_450:\n      pop\n        /* \"#utility.yul\":7923:7925   */\n      0x20\n        /* \"#utility.yul\":7913:7921   */\n      dup4\n        /* \"#utility.yul\":7910:7926   */\n      lt\n        /* \"#utility.yul\":7904:7907   */\n      0x0133\n        /* \"#utility.yul\":7898:7902   */\n      dup4\n        /* \"#utility.yul\":7895:7908   */\n      lt\n        /* \"#utility.yul\":7891:7927   */\n      and\n        /* \"#utility.yul\":7885:7887   */\n      0x4e\n        /* \"#utility.yul\":7875:7883   */\n      dup5\n        /* \"#utility.yul\":7872:7888   */\n      lt\n        /* \"#utility.yul\":7867:7869   */\n      0x0b\n        /* \"#utility.yul\":7861:7865   */\n      dup5\n        /* \"#utility.yul\":7858:7870   */\n      lt\n        /* \"#utility.yul\":7854:7889   */\n      and\n        /* \"#utility.yul\":7851:7928   */\n      or\n        /* \"#utility.yul\":7848:8051   */\n      iszero\n      tag_455\n      jumpi\n      pop\n        /* \"#utility.yul\":7960:7979   */\n      dup2\n      dup2\n      exp\n        /* \"#utility.yul\":8036:8041   */\n      jump(tag_141)\n        /* \"#utility.yul\":7848:8051   */\n    tag_455:\n        /* \"#utility.yul\":8083:8125   */\n      tag_456\n      not(0x00)\n        /* \"#utility.yul\":8108:8116   */\n      dup5\n        /* \"#utility.yul\":8102:8106   */\n      dup5\n        /* \"#utility.yul\":8083:8125   */\n      tag_380\n      jump\t// in\n    tag_456:\n        /* \"#utility.yul\":8161:8167   */\n      dup1\n        /* \"#utility.yul\":8157:8158   */\n      0x00\n        /* \"#utility.yul\":8153:8159   */\n      not\n        /* \"#utility.yul\":8149:8168   */\n      div\n        /* \"#utility.yul\":8140:8147   */\n      dup3\n        /* \"#utility.yul\":8137:8169   */\n      gt\n        /* \"#utility.yul\":8134:8192   */\n      iszero\n      tag_458\n      jumpi\n        /* \"#utility.yul\":8172:8190   */\n      tag_458\n      tag_379\n      jump\t// in\n    tag_458:\n        /* \"#utility.yul\":8210:8230   */\n      mul\n      swap4\n        /* \"#utility.yul\":7334:8236   */\n      swap3\n      pop\n      pop\n      pop\n      jump\t// out\n        /* \"#utility.yul\":8241:8381   */\n    tag_203:\n        /* \"#utility.yul\":8299:8304   */\n      0x00\n        /* \"#utility.yul\":8328:8375   */\n      tag_403\n        /* \"#utility.yul\":8369:8373   */\n      0xff\n        /* \"#utility.yul\":8359:8367   */\n      dup5\n        /* \"#utility.yul\":8355:8374   */\n      and\n        /* \"#utility.yul\":8349:8353   */\n      dup4\n        /* \"#utility.yul\":8328:8375   */\n      tag_381\n      jump\t// in\n        /* \"#utility.yul\":8386:8554   */\n    tag_205:\n        /* \"#utility.yul\":8459:8468   */\n      dup1\n      dup3\n      mul\n        /* \"#utility.yul\":8490:8499   */\n      dup2\n      iszero\n        /* \"#utility.yul\":8507:8522   */\n      dup3\n      dup3\n      div\n        /* \"#utility.yul\":8501:8523   */\n      dup5\n      eq\n        /* \"#utility.yul\":8487:8524   */\n      or\n        /* \"#utility.yul\":8477:8548   */\n      tag_141\n      jumpi\n        /* \"#utility.yul\":8528:8546   */\n      tag_141\n      tag_379\n      jump\t// in\n        /* \"#utility.yul\":12804:13322   */\n    tag_383:\n        /* \"#utility.yul\":12906:12908   */\n      0x1f\n        /* \"#utility.yul\":12901:12904   */\n      dup3\n        /* \"#utility.yul\":12898:12909   */\n      gt\n        /* \"#utility.yul\":12895:13316   */\n      iszero\n      tag_341\n      jumpi\n        /* \"#utility.yul\":12942:12947   */\n      dup1\n        /* \"#utility.yul\":12939:12940   */\n      0x00\n        /* \"#utility.yul\":12932:12948   */\n      mstore\n        /* \"#utility.yul\":12986:12990   */\n      0x20\n        /* \"#utility.yul\":12983:12984   */\n      0x00\n        /* \"#utility.yul\":12973:12991   */\n      keccak256\n        /* \"#utility.yul\":13056:13058   */\n      0x1f\n        /* \"#utility.yul\":13044:13054   */\n      dup5\n        /* \"#utility.yul\":13040:13059   */\n      add\n        /* \"#utility.yul\":13037:13038   */\n      0x05\n        /* \"#utility.yul\":13033:13060   */\n      shr\n        /* \"#utility.yul\":13027:13031   */\n      dup2\n        /* \"#utility.yul\":13023:13061   */\n      add\n        /* \"#utility.yul\":13092:13096   */\n      0x20\n        /* \"#utility.yul\":13080:13090   */\n      dup6\n        /* \"#utility.yul\":13077:13097   */\n      lt\n        /* \"#utility.yul\":13074:13121   */\n      iszero\n      tag_478\n      jumpi\n      pop\n        /* \"#utility.yul\":13115:13119   */\n      dup1\n        /* \"#utility.yul\":13074:13121   */\n    tag_478:\n        /* \"#utility.yul\":13170:13172   */\n      0x1f\n        /* \"#utility.yul\":13165:13168   */\n      dup5\n        /* \"#utility.yul\":13161:13173   */\n      add\n        /* \"#utility.yul\":13158:13159   */\n      0x05\n        /* \"#utility.yul\":13154:13174   */\n      shr\n        /* \"#utility.yul\":13148:13152   */\n      dup3\n        /* \"#utility.yul\":13144:13175   */\n      add\n        /* \"#utility.yul\":13134:13175   */\n      swap2\n      pop\n        /* \"#utility.yul\":13225:13306   */\n    tag_479:\n        /* \"#utility.yul\":13243:13245   */\n      dup2\n        /* \"#utility.yul\":13236:13241   */\n      dup2\n        /* \"#utility.yul\":13233:13246   */\n      lt\n        /* \"#utility.yul\":13225:13306   */\n      iszero\n      tag_481\n      jumpi\n        /* \"#utility.yul\":13302:13303   */\n      0x00\n        /* \"#utility.yul\":13288:13304   */\n      dup2\n      sstore\n        /* \"#utility.yul\":13269:13270   */\n      0x01\n        /* \"#utility.yul\":13258:13271   */\n      add\n        /* \"#utility.yul\":13225:13306   */\n      jump(tag_479)\n    tag_481:\n        /* \"#utility.yul\":13229:13232   */\n      pop\n      pop\n        /* \"#utility.yul\":12804:13322   */\n      pop\n      pop\n      pop\n      jump\t// out\n        /* \"#utility.yul\":13498:14797   */\n    tag_318:\n        /* \"#utility.yul\":13624:13627   */\n      dup2\n        /* \"#utility.yul\":13618:13628   */\n      mload\n        /* \"#utility.yul\":13651:13669   */\n      0xffffffffffffffff\n        /* \"#utility.yul\":13643:13649   */\n      dup2\n        /* \"#utility.yul\":13640:13670   */\n      gt\n        /* \"#utility.yul\":13637:13693   */\n      iszero\n      tag_485\n      jumpi\n        /* \"#utility.yul\":13673:13691   */\n      tag_485\n      tag_376\n      jump\t// in\n    tag_485:\n        /* \"#utility.yul\":13702:13799   */\n      tag_486\n        /* \"#utility.yul\":13792:13798   */\n      dup2\n        /* \"#utility.yul\":13752:13790   */\n      tag_487\n        /* \"#utility.yul\":13784:13788   */\n      dup5\n        /* \"#utility.yul\":13778:13789   */\n      sload\n        /* \"#utility.yul\":13752:13790   */\n      tag_136\n      jump\t// in\n    tag_487:\n        /* \"#utility.yul\":13746:13750   */\n      dup5\n        /* \"#utility.yul\":13702:13799   */\n      tag_383\n      jump\t// in\n    tag_486:\n        /* \"#utility.yul\":13848:13852   */\n      0x20\n        /* \"#utility.yul\":13879:13881   */\n      0x1f\n        /* \"#utility.yul\":13868:13882   */\n      dup3\n      gt\n        /* \"#utility.yul\":13896:13897   */\n      0x01\n        /* \"#utility.yul\":13891:14540   */\n      dup2\n      eq\n      tag_489\n      jumpi\n        /* \"#utility.yul\":14584:14585   */\n      0x00\n        /* \"#utility.yul\":14601:14607   */\n      dup4\n        /* \"#utility.yul\":14598:14687   */\n      iszero\n      tag_490\n      jumpi\n      pop\n        /* \"#utility.yul\":14653:14672   */\n      dup5\n      dup3\n      add\n        /* \"#utility.yul\":14647:14673   */\n      mload\n        /* \"#utility.yul\":14598:14687   */\n    tag_490:\n      not(0x00)\n        /* \"#utility.yul\":13455:13456   */\n      0x03\n        /* \"#utility.yul\":13451:13462   */\n      dup6\n      swap1\n      shl\n        /* \"#utility.yul\":13447:13471   */\n      shr\n        /* \"#utility.yul\":13443:13472   */\n      not\n        /* \"#utility.yul\":13433:13473   */\n      and\n        /* \"#utility.yul\":13479:13480   */\n      0x01\n        /* \"#utility.yul\":13475:13486   */\n      dup5\n      swap1\n      shl\n        /* \"#utility.yul\":13430:13487   */\n      or\n        /* \"#utility.yul\":14700:14781   */\n      dup5\n      sstore\n        /* \"#utility.yul\":13861:14791   */\n      jump(tag_481)\n        /* \"#utility.yul\":13891:14540   */\n    tag_489:\n        /* \"#utility.yul\":12751:12752   */\n      0x00\n        /* \"#utility.yul\":12744:12758   */\n      dup5\n      dup2\n      mstore\n        /* \"#utility.yul\":12788:12792   */\n      0x20\n        /* \"#utility.yul\":12775:12793   */\n      dup2\n      keccak256\n      not(0x1f)\n        /* \"#utility.yul\":13927:13947   */\n      dup6\n      and\n      swap2\n        /* \"#utility.yul\":14045:14267   */\n    tag_493:\n        /* \"#utility.yul\":14059:14066   */\n      dup3\n        /* \"#utility.yul\":14056:14057   */\n      dup2\n        /* \"#utility.yul\":14053:14067   */\n      lt\n        /* \"#utility.yul\":14045:14267   */\n      iszero\n      tag_495\n      jumpi\n        /* \"#utility.yul\":14141:14160   */\n      dup8\n      dup6\n      add\n        /* \"#utility.yul\":14135:14161   */\n      mload\n        /* \"#utility.yul\":14120:14162   */\n      dup3\n      sstore\n        /* \"#utility.yul\":14248:14252   */\n      0x20\n        /* \"#utility.yul\":14233:14253   */\n      swap5\n      dup6\n      add\n      swap5\n        /* \"#utility.yul\":14201:14202   */\n      0x01\n        /* \"#utility.yul\":14189:14203   */\n      swap1\n      swap3\n      add\n      swap2\n        /* \"#utility.yul\":14075:14087   */\n      add\n        /* \"#utility.yul\":14045:14267   */\n      jump(tag_493)\n    tag_495:\n        /* \"#utility.yul\":14049:14052   */\n      pop\n        /* \"#utility.yul\":14295:14301   */\n      dup5\n        /* \"#utility.yul\":14286:14293   */\n      dup3\n        /* \"#utility.yul\":14283:14302   */\n      lt\n        /* \"#utility.yul\":14280:14481   */\n      iszero\n      tag_496\n      jumpi\n        /* \"#utility.yul\":14356:14375   */\n      dup7\n      dup5\n      add\n        /* \"#utility.yul\":14350:14376   */\n      mload\n      not(0x00)\n        /* \"#utility.yul\":14439:14440   */\n      0x03\n        /* \"#utility.yul\":14435:14449   */\n      dup8\n      swap1\n      shl\n        /* \"#utility.yul\":14451:14454   */\n      0xf8\n        /* \"#utility.yul\":14431:14455   */\n      and\n        /* \"#utility.yul\":14427:14464   */\n      shr\n        /* \"#utility.yul\":14423:14465   */\n      not\n        /* \"#utility.yul\":14408:14466   */\n      and\n        /* \"#utility.yul\":14393:14467   */\n      dup2\n      sstore\n        /* \"#utility.yul\":14280:14481   */\n    tag_496:\n      pop\n      pop\n      pop\n      pop\n        /* \"#utility.yul\":14527:14528   */\n      0x01\n        /* \"#utility.yul\":14511:14525   */\n      swap1\n      dup2\n      shl\n        /* \"#utility.yul\":14507:14529   */\n      add\n        /* \"#utility.yul\":14494:14530   */\n      swap1\n      sstore\n      pop\n        /* \"#utility.yul\":13498:14797   */\n      jump\t// out\n\n    auxdata: 0xa2646970667358221220640dcb08e34af050d7fb2262954e31beb7f990fcec418be9af5e29bd090cb69e64736f6c634300081a0033\n}\n",
				"bytecode": {
					"linkReferences": {},
					"object": "60806040526008805460ff191690553480156018575f80fd5b506006805461ff00191690556119ad806100315f395ff3fe608060405234801561000f575f80fd5b50600436106101a1575f3560e01c8063764776e7116100f3578063a09a160111610093578063ca88bd5b1161006e578063ca88bd5b14610381578063d29d44ee146103ac578063d5abeb01146103bf578063dd62ed3e146103c7575f80fd5b8063a09a160114610349578063a457c2d71461035b578063a9059cbb1461036e575f80fd5b80638456cb59116100ce5780638456cb59146102f4578063883356d9146102fc5780638da5cb5b1461030f57806395d89b4114610341575f80fd5b8063764776e7146102bb57806379cc6790146102ce5780637c0a893d146102e1575f80fd5b8063395093511161015e57806342966c681161013957806342966c681461025d5780634d78fdc6146102705780635c975abb1461028357806370a0823114610293575f80fd5b8063395093511461022d5780633f4ba83a1461024057806340c10f191461024a575f80fd5b806306fdde03146101a5578063095ea7b3146101c357806318160ddd146101e657806323b872dd146101f8578063313ce5671461020b578063392e53cd14610220575b5f80fd5b6101ad6103da565b6040516101ba9190611460565b60405180910390f35b6101d66101d13660046114b0565b61046a565b60405190151581526020016101ba565b6002545b6040519081526020016101ba565b6101d66102063660046114d8565b610480565b60065460405160ff90911681526020016101ba565b6008546101d69060ff1681565b6101d661023b3660046114b0565b6104a1565b6102486104c2565b005b6102486102583660046114b0565b610552565b61024861026b366004611512565b610591565b61024861027e366004611529565b6105e9565b600654610100900460ff166101d6565b6101ea6102a1366004611529565b6001600160a01b03165f9081526020819052604090205490565b6102486102c93660046115f7565b610623565b6102486102dc3660046114b0565b61083a565b6102486102ef366004611529565b610890565b6102486108ca565b6008546101d69062010000900460ff1681565b60085461032990630100000090046001600160a01b031681565b6040516001600160a01b0390911681526020016101ba565b6101ad61094f565b6008546101d690610100900460ff1681565b6101d66103693660046114b0565b61095e565b6101d661037c3660046114b0565b6109e3565b6101d661038f366004611529565b6001600160a01b03165f9081526007602052604090205460ff1690565b6102486103ba366004611529565b6109ef565b6003546101ea565b6101ea6103d53660046116b6565b610a4c565b6060600480546103e9906116e7565b80601f0160208091040260200160405190810160405280929190818152602001828054610415906116e7565b80156104605780601f1061043757610100808354040283529160200191610460565b820191905f5260205f20905b81548152906001019060200180831161044357829003601f168201915b5050505050905090565b5f610476338484610a76565b5060015b92915050565b5f61048c843384610b99565b610497848484610c11565b5060019392505050565b5f336104978185856104b38383610a4c565b6104bd9190611733565b610a76565b600854630100000090046001600160a01b031633146104fc5760405162461bcd60e51b81526004016104f390611746565b60405180910390fd5b60085460ff6101009091041615156001146105485760405162461bcd60e51b815260206004820152600c60248201526b4e6f74205061757361626c6560a01b60448201526064016104f3565b610550610dbe565b565b600854630100000090046001600160a01b031633146105835760405162461bcd60e51b81526004016104f390611746565b61058d8282610e11565b5050565b60085462010000900460ff1615156001146105dd5760405162461bcd60e51b815260206004820152600c60248201526b4e6f74204275726e61626c6560a01b60448201526064016104f3565b6105e681610f2e565b50565b600854630100000090046001600160a01b0316331461061a5760405162461bcd60e51b81526004016104f390611746565b6105e681610f38565b7ff0c57e16840df040f15088dc2f81fe391c3923bec73e23a9662efc9c229c6a008054600160401b810460ff16159067ffffffffffffffff165f811580156106685750825b90505f8267ffffffffffffffff1660011480156106845750303b155b905081158015610692575080155b156106b05760405163f92ee8a960e01b815260040160405180910390fd5b845467ffffffffffffffff1916600117855583156106da57845460ff60401b1916600160401b1785555b60085460ff16156107235760405162461bcd60e51b8152602060048201526013602482015272105b1c9958591e48125b9a5d1a585b1a5cd959606a1b60448201526064016104f3565b8c600860036101000a8154816001600160a01b0302191690836001600160a01b03160217905550600160085f6101000a81548160ff02191690831515021790555086600860026101000a81548160ff02191690831515021790555085600860016101000a81548160ff0219169083151502179055506107c78c8c8c5f198c146107c0576107b18e600a61184c565b6107bb908d61185a565b610ff7565b5f19610ff7565b6107e58d6107d68c600a61184c565b6107e0908c61185a565b610e11565b831561082b57845460ff60401b19168555604051600181527fc7f505b2f371ae2175ee4913f4499e1f2633a7b5936321eed1cdaeb6115181d29060200160405180910390a15b50505050505050505050505050565b60085462010000900460ff1615156001146108865760405162461bcd60e51b815260206004820152600c60248201526b4e6f74204275726e61626c6560a01b60448201526064016104f3565b61058d8282611035565b600854630100000090046001600160a01b031633146108c15760405162461bcd60e51b81526004016104f390611746565b6105e68161104a565b600854630100000090046001600160a01b031633146108fb5760405162461bcd60e51b81526004016104f390611746565b60085460ff6101009091041615156001146109475760405162461bcd60e51b815260206004820152600c60248201526b4e6f74205061757361626c6560a01b60448201526064016104f3565b61055061110b565b6060600580546103e9906116e7565b5f338161096b8286610a4c565b9050838110156109cb5760405162461bcd60e51b815260206004820152602560248201527f45524332303a2064656372656173656420616c6c6f77616e63652062656c6f77604482015264207a65726f60d81b60648201526084016104f3565b6109d88286868403610a76565b506001949350505050565b5f610476338484610c11565b600854630100000090046001600160a01b03163314610a205760405162461bcd60e51b81526004016104f390611746565b600880546001600160a01b039092166301000000026301000000600160b81b0319909216919091179055565b6001600160a01b039182165f90815260016020908152604080832093909416825291909152205490565b6001600160a01b038316610ad85760405162461bcd60e51b8152602060048201526024808201527f45524332303a20617070726f76652066726f6d20746865207a65726f206164646044820152637265737360e01b60648201526084016104f3565b6001600160a01b038216610b395760405162461bcd60e51b815260206004820152602260248201527f45524332303a20617070726f766520746f20746865207a65726f206164647265604482015261737360f01b60648201526084016104f3565b6001600160a01b038381165f8181526001602090815260408083209487168084529482529182902085905590518481527f8c5be1e5ebec7d5bd14f71427d1e84f3dd0314c0f7b2291e5b200ac8c7c3b925910160405180910390a3505050565b5f610ba48484610a4c565b90505f198114610c0b5781811015610bfe5760405162461bcd60e51b815260206004820152601d60248201527f45524332303a20696e73756666696369656e7420616c6c6f77616e636500000060448201526064016104f3565b610c0b8484848403610a76565b50505050565b6001600160a01b038316610c755760405162461bcd60e51b815260206004820152602560248201527f45524332303a207472616e736665722066726f6d20746865207a65726f206164604482015264647265737360d81b60648201526084016104f3565b6001600160a01b038216610cd75760405162461bcd60e51b815260206004820152602360248201527f45524332303a207472616e7366657220746f20746865207a65726f206164647260448201526265737360e81b60648201526084016104f3565b610ce283838361114a565b6001600160a01b0383165f9081526020819052604090205481811015610d595760405162461bcd60e51b815260206004820152602660248201527f45524332303a207472616e7366657220616d6f756e7420657863656564732062604482015265616c616e636560d01b60648201526084016104f3565b6001600160a01b038481165f81815260208181526040808320878703905593871680835291849020805487019055925185815290927fddf252ad1be2c89b69c2b068fc378daa952ba7f163c4a11628f55a4df523b3ef910160405180910390a3610c0b565b610dc6611243565b6006805461ff00191690557f5db9ee0a495bf2e6ff9c91a7834c1ba4fdd244a5e8aa4e537bd38aeae4b073aa335b6040516001600160a01b03909116815260200160405180910390a1565b60035481600254610e229190611733565b1115610e665760405162461bcd60e51b8152602060048201526013602482015272115490cc8c0e8818d85c08195e18d959591959606a1b60448201526064016104f3565b6001600160a01b038216610ebc5760405162461bcd60e51b815260206004820152601f60248201527f45524332303a206d696e7420746f20746865207a65726f20616464726573730060448201526064016104f3565b610ec75f838361114a565b8060025f828254610ed89190611733565b90915550506001600160a01b0382165f81815260208181526040808320805486019055518481527fddf252ad1be2c89b69c2b068fc378daa952ba7f163c4a11628f55a4df523b3ef910160405180910390a35050565b6105e63382611291565b6001600160a01b0381165f9081526007602052604090205460ff16610faf5760405162461bcd60e51b815260206004820152602760248201527f426c61636b6c6973743a204163636f756e7420697320616c726561647920756e604482015266189b1bd8dad95960ca1b60648201526084016104f3565b6001600160a01b0381165f81815260076020526040808220805460ff19169055517fa885a62df16bfeabc96ed9b845b30dd4038f039ca1679490125c314222355e3f9190a250565b610fff6113cc565b600461100b85826118bc565b50600561101884826118bc565b506006805460ff191660ff93909316929092179091556003555050565b611040823383610b99565b61058d8282611291565b6001600160a01b0381165f9081526007602052604090205460ff16156110c05760405162461bcd60e51b815260206004820152602560248201527f426c61636b6c6973743a204163636f756e7420697320616c726561647920626c6044820152641bd8dad95960da1b60648201526084016104f3565b6001600160a01b0381165f81815260076020526040808220805460ff19166001179055517f8632489584ac3cfc9b78cc6c2197c31ca9e3821bfa5ca5c9af28917b92db24d99190a250565b611113611415565b6006805461ff0019166101001790557f62e78cea01bee320cd4e420270b5ea74000d11b0c9f74754ebdbfc544b05a258610df43390565b611152611415565b6001600160a01b0382165f9081526007602052604090205460ff16156111ca5760405162461bcd60e51b815260206004820152602760248201527f426c61636b4c6973743a20526563697069656e74206163636f756e7420697320604482015266189b1bd8dad95960ca1b60648201526084016104f3565b6001600160a01b0383165f9081526007602052604090205460ff161561123e5760405162461bcd60e51b8152602060048201526024808201527f426c61636b4c6973743a2053656e646572206163636f756e7420697320626c6f60448201526318dad95960e21b60648201526084016104f3565b505050565b600654610100900460ff166105505760405162461bcd60e51b815260206004820152601460248201527314185d5cd8589b194e881b9bdd081c185d5cd95960621b60448201526064016104f3565b6001600160a01b0382166112f15760405162461bcd60e51b815260206004820152602160248201527f45524332303a206275726e2066726f6d20746865207a65726f206164647265736044820152607360f81b60648201526084016104f3565b6112fc825f8361114a565b6001600160a01b0382165f908152602081905260409020548181101561136f5760405162461bcd60e51b815260206004820152602260248201527f45524332303a206275726e20616d6f756e7420657863656564732062616c616e604482015261636560f01b60648201526084016104f3565b6001600160a01b0383165f818152602081815260408083208686039055600280548790039055518581529192917fddf252ad1be2c89b69c2b068fc378daa952ba7f163c4a11628f55a4df523b3ef910160405180910390a3505050565b7ff0c57e16840df040f15088dc2f81fe391c3923bec73e23a9662efc9c229c6a0054600160401b900460ff1661055057604051631afcd79f60e31b815260040160405180910390fd5b600654610100900460ff16156105505760405162461bcd60e51b815260206004820152601060248201526f14185d5cd8589b194e881c185d5cd95960821b60448201526064016104f3565b602081525f82518060208401528060208501604085015e5f604082850101526040601f19601f83011684010191505092915050565b80356001600160a01b03811681146114ab575f80fd5b919050565b5f80604083850312156114c1575f80fd5b6114ca83611495565b946020939093013593505050565b5f805f606084860312156114ea575f80fd5b6114f384611495565b925061150160208501611495565b929592945050506040919091013590565b5f60208284031215611522575f80fd5b5035919050565b5f60208284031215611539575f80fd5b61154282611495565b9392505050565b634e487b7160e01b5f52604160045260245ffd5b5f82601f83011261156c575f80fd5b813567ffffffffffffffff81111561158657611586611549565b604051601f8201601f19908116603f0116810167ffffffffffffffff811182821017156115b5576115b5611549565b6040528181528382016020018510156115cc575f80fd5b816020850160208301375f918101602001919091529392505050565b803580151581146114ab575f80fd5b5f805f805f805f80610100898b03121561160f575f80fd5b61161889611495565b9750602089013567ffffffffffffffff811115611633575f80fd5b61163f8b828c0161155d565b975050604089013567ffffffffffffffff81111561165b575f80fd5b6116678b828c0161155d565b965050606089013560ff8116811461167d575f80fd5b94506080890135935060a0890135925061169960c08a016115e8565b91506116a760e08a016115e8565b90509295985092959890939650565b5f80604083850312156116c7575f80fd5b6116d083611495565b91506116de60208401611495565b90509250929050565b600181811c908216806116fb57607f821691505b60208210810361171957634e487b7160e01b5f52602260045260245ffd5b50919050565b634e487b7160e01b5f52601160045260245ffd5b8082018082111561047a5761047a61171f565b6020808252600990820152682737ba1037bbb732b960b91b604082015260600190565b6001815b60018411156117a4578085048111156117885761178861171f565b600184161561179657908102905b60019390931c92800261176d565b935093915050565b5f826117ba5750600161047a565b816117c657505f61047a565b81600181146117dc57600281146117e657611802565b600191505061047a565b60ff8411156117f7576117f761171f565b50506001821b61047a565b5060208310610133831016604e8410600b8410161715611825575081810a61047a565b6118315f198484611769565b805f19048211156118445761184461171f565b029392505050565b5f61154260ff8416836117ac565b808202811582820484141761047a5761047a61171f565b601f82111561123e57805f5260205f20601f840160051c810160208510156118965750805b601f840160051c820191505b818110156118b5575f81556001016118a2565b5050505050565b815167ffffffffffffffff8111156118d6576118d6611549565b6118ea816118e484546116e7565b84611871565b6020601f82116001811461191c575f83156119055750848201515b5f19600385901b1c1916600184901b1784556118b5565b5f84815260208120601f198516915b8281101561194b578785015182556020948501946001909201910161192b565b508482101561196857868401515f19600387901b60f8161c191681555b50505050600190811b0190555056fea2646970667358221220640dcb08e34af050d7fb2262954e31beb7f990fcec418be9af5e29bd090cb69e64736f6c634300081a0033",
					"opcodes": "PUSH1 0x80 PUSH1 0x40 MSTORE PUSH1 0x8 DUP1 SLOAD PUSH1 0xFF NOT AND SWAP1 SSTORE CALLVALUE DUP1 ISZERO PUSH1 0x18 JUMPI PUSH0 DUP1 REVERT JUMPDEST POP PUSH1 0x6 DUP1 SLOAD PUSH2 0xFF00 NOT AND SWAP1 SSTORE PUSH2 0x19AD DUP1 PUSH2 0x31 PUSH0 CODECOPY PUSH0 RETURN INVALID PUSH1 0x80 PUSH1 0x40 MSTORE CALLVALUE DUP1 ISZERO PUSH2 0xF JUMPI PUSH0 DUP1 REVERT JUMPDEST POP PUSH1 0x4 CALLDATASIZE LT PUSH2 0x1A1 JUMPI PUSH0 CALLDATALOAD PUSH1 0xE0 SHR DUP1 PUSH4 0x764776E7 GT PUSH2 0xF3 JUMPI DUP1 PUSH4 0xA09A1601 GT PUSH2 0x93 JUMPI DUP1 PUSH4 0xCA88BD5B GT PUSH2 0x6E JUMPI DUP1 PUSH4 0xCA88BD5B EQ PUSH2 0x381 JUMPI DUP1 PUSH4 0xD29D44EE EQ PUSH2 0x3AC JUMPI DUP1 PUSH4 0xD5ABEB01 EQ PUSH2 0x3BF JUMPI DUP1 PUSH4 0xDD62ED3E EQ PUSH2 0x3C7 JUMPI PUSH0 DUP1 REVERT JUMPDEST DUP1 PUSH4 0xA09A1601 EQ PUSH2 0x349 JUMPI DUP1 PUSH4 0xA457C2D7 EQ PUSH2 0x35B JUMPI DUP1 PUSH4 0xA9059CBB EQ PUSH2 0x36E JUMPI PUSH0 DUP1 REVERT JUMPDEST DUP1 PUSH4 0x8456CB59 GT PUSH2 0xCE JUMPI DUP1 PUSH4 0x8456CB59 EQ PUSH2 0x2F4 JUMPI DUP1 PUSH4 0x883356D9 EQ PUSH2 0x2FC JUMPI DUP1 PUSH4 0x8DA5CB5B EQ PUSH2 0x30F JUMPI DUP1 PUSH4 0x95D89B41 EQ PUSH2 0x341 JUMPI PUSH0 DUP1 REVERT JUMPDEST DUP1 PUSH4 0x764776E7 EQ PUSH2 0x2BB JUMPI DUP1 PUSH4 0x79CC6790 EQ PUSH2 0x2CE JUMPI DUP1 PUSH4 0x7C0A893D EQ PUSH2 0x2E1 JUMPI PUSH0 DUP1 REVERT JUMPDEST DUP1 PUSH4 0x39509351 GT PUSH2 0x15E JUMPI DUP1 PUSH4 0x42966C68 GT PUSH2 0x139 JUMPI DUP1 PUSH4 0x42966C68 EQ PUSH2 0x25D JUMPI DUP1 PUSH4 0x4D78FDC6 EQ PUSH2 0x270 JUMPI DUP1 PUSH4 0x5C975ABB EQ PUSH2 0x283 JUMPI DUP1 PUSH4 0x70A08231 EQ PUSH2 0x293 JUMPI PUSH0 DUP1 REVERT JUMPDEST DUP1 PUSH4 0x39509351 EQ PUSH2 0x22D JUMPI DUP1 PUSH4 0x3F4BA83A EQ PUSH2 0x240 JUMPI DUP1 PUSH4 0x40C10F19 EQ PUSH2 0x24A JUMPI PUSH0 DUP1 REVERT JUMPDEST DUP1 PUSH4 0x6FDDE03 EQ PUSH2 0x1A5 JUMPI DUP1 PUSH4 0x95EA7B3 EQ PUSH2 0x1C3 JUMPI DUP1 PUSH4 0x18160DDD EQ PUSH2 0x1E6 JUMPI DUP1 PUSH4 0x23B872DD EQ PUSH2 0x1F8 JUMPI DUP1 PUSH4 0x313CE567 EQ PUSH2 0x20B JUMPI DUP1 PUSH4 0x392E53CD EQ PUSH2 0x220 JUMPI JUMPDEST PUSH0 DUP1 REVERT JUMPDEST PUSH2 0x1AD PUSH2 0x3DA JUMP JUMPDEST PUSH1 0x40 MLOAD PUSH2 0x1BA SWAP2 SWAP1 PUSH2 0x1460 JUMP JUMPDEST PUSH1 0x40 MLOAD DUP1 SWAP2 SUB SWAP1 RETURN JUMPDEST PUSH2 0x1D6 PUSH2 0x1D1 CALLDATASIZE PUSH1 0x4 PUSH2 0x14B0 JUMP JUMPDEST PUSH2 0x46A JUMP JUMPDEST PUSH1 0x40 MLOAD SWAP1 ISZERO ISZERO DUP2 MSTORE PUSH1 0x20 ADD PUSH2 0x1BA JUMP JUMPDEST PUSH1 0x2 SLOAD JUMPDEST PUSH1 0x40 MLOAD SWAP1 DUP2 MSTORE PUSH1 0x20 ADD PUSH2 0x1BA JUMP JUMPDEST PUSH2 0x1D6 PUSH2 0x206 CALLDATASIZE PUSH1 0x4 PUSH2 0x14D8 JUMP JUMPDEST PUSH2 0x480 JUMP JUMPDEST PUSH1 0x6 SLOAD PUSH1 0x40 MLOAD PUSH1 0xFF SWAP1 SWAP2 AND DUP2 MSTORE PUSH1 0x20 ADD PUSH2 0x1BA JUMP JUMPDEST PUSH1 0x8 SLOAD PUSH2 0x1D6 SWAP1 PUSH1 0xFF AND DUP2 JUMP JUMPDEST PUSH2 0x1D6 PUSH2 0x23B CALLDATASIZE PUSH1 0x4 PUSH2 0x14B0 JUMP JUMPDEST PUSH2 0x4A1 JUMP JUMPDEST PUSH2 0x248 PUSH2 0x4C2 JUMP JUMPDEST STOP JUMPDEST PUSH2 0x248 PUSH2 0x258 CALLDATASIZE PUSH1 0x4 PUSH2 0x14B0 JUMP JUMPDEST PUSH2 0x552 JUMP JUMPDEST PUSH2 0x248 PUSH2 0x26B CALLDATASIZE PUSH1 0x4 PUSH2 0x1512 JUMP JUMPDEST PUSH2 0x591 JUMP JUMPDEST PUSH2 0x248 PUSH2 0x27E CALLDATASIZE PUSH1 0x4 PUSH2 0x1529 JUMP JUMPDEST PUSH2 0x5E9 JUMP JUMPDEST PUSH1 0x6 SLOAD PUSH2 0x100 SWAP1 DIV PUSH1 0xFF AND PUSH2 0x1D6 JUMP JUMPDEST PUSH2 0x1EA PUSH2 0x2A1 CALLDATASIZE PUSH1 0x4 PUSH2 0x1529 JUMP JUMPDEST PUSH1 0x1 PUSH1 0x1 PUSH1 0xA0 SHL SUB AND PUSH0 SWAP1 DUP2 MSTORE PUSH1 0x20 DUP2 SWAP1 MSTORE PUSH1 0x40 SWAP1 KECCAK256 SLOAD SWAP1 JUMP JUMPDEST PUSH2 0x248 PUSH2 0x2C9 CALLDATASIZE PUSH1 0x4 PUSH2 0x15F7 JUMP JUMPDEST PUSH2 0x623 JUMP JUMPDEST PUSH2 0x248 PUSH2 0x2DC CALLDATASIZE PUSH1 0x4 PUSH2 0x14B0 JUMP JUMPDEST PUSH2 0x83A JUMP JUMPDEST PUSH2 0x248 PUSH2 0x2EF CALLDATASIZE PUSH1 0x4 PUSH2 0x1529 JUMP JUMPDEST PUSH2 0x890 JUMP JUMPDEST PUSH2 0x248 PUSH2 0x8CA JUMP JUMPDEST PUSH1 0x8 SLOAD PUSH2 0x1D6 SWAP1 PUSH3 0x10000 SWAP1 DIV PUSH1 0xFF AND DUP2 JUMP JUMPDEST PUSH1 0x8 SLOAD PUSH2 0x329 SWAP1 PUSH4 0x1000000 SWAP1 DIV PUSH1 0x1 PUSH1 0x1 PUSH1 0xA0 SHL SUB AND DUP2 JUMP JUMPDEST PUSH1 0x40 MLOAD PUSH1 0x1 PUSH1 0x1 PUSH1 0xA0 SHL SUB SWAP1 SWAP2 AND DUP2 MSTORE PUSH1 0x20 ADD PUSH2 0x1BA JUMP JUMPDEST PUSH2 0x1AD PUSH2 0x94F JUMP JUMPDEST PUSH1 0x8 SLOAD PUSH2 0x1D6 SWAP1 PUSH2 0x100 SWAP1 DIV PUSH1 0xFF AND DUP2 JUMP JUMPDEST PUSH2 0x1D6 PUSH2 0x369 CALLDATASIZE PUSH1 0x4 PUSH2 0x14B0 JUMP JUMPDEST PUSH2 0x95E JUMP JUMPDEST PUSH2 0x1D6 PUSH2 0x37C CALLDATASIZE PUSH1 0x4 PUSH2 0x14B0 JUMP JUMPDEST PUSH2 0x9E3 JUMP JUMPDEST PUSH2 0x1D6 PUSH2 0x38F CALLDATASIZE PUSH1 0x4 PUSH2 0x1529 JUMP JUMPDEST PUSH1 0x1 PUSH1 0x1 PUSH1 0xA0 SHL SUB AND PUSH0 SWAP1 DUP2 MSTORE PUSH1 0x7 PUSH1 0x20 MSTORE PUSH1 0x40 SWAP1 KECCAK256 SLOAD PUSH1 0xFF AND SWAP1 JUMP JUMPDEST PUSH2 0x248 PUSH2 0x3BA CALLDATASIZE PUSH1 0x4 PUSH2 0x1529 JUMP JUMPDEST PUSH2 0x9EF JUMP JUMPDEST PUSH1 0x3 SLOAD PUSH2 0x1EA JUMP JUMPDEST PUSH2 0x1EA PUSH2 0x3D5 CALLDATASIZE PUSH1 0x4 PUSH2 0x16B6 JUMP JUMPDEST PUSH2 0xA4C JUMP JUMPDEST PUSH1 0x60 PUSH1 0x4 DUP1 SLOAD PUSH2 0x3E9 SWAP1 PUSH2 0x16E7 JUMP JUMPDEST DUP1 PUSH1 0x1F ADD PUSH1 0x20 DUP1 SWAP2 DIV MUL PUSH1 0x20 ADD PUSH1 0x40 MLOAD SWAP1 DUP2 ADD PUSH1 0x40 MSTORE DUP1 SWAP3 SWAP2 SWAP1 DUP2 DUP2 MSTORE PUSH1 0x20 ADD DUP3 DUP1 SLOAD PUSH2 0x415 SWAP1 PUSH2 0x16E7 JUMP JUMPDEST DUP1 ISZERO PUSH2 0x460 JUMPI DUP1 PUSH1 0x1F LT PUSH2 0x437 JUMPI PUSH2 0x100 DUP1 DUP4 SLOAD DIV MUL DUP4 MSTORE SWAP2 PUSH1 0x20 ADD SWAP2 PUSH2 0x460 JUMP JUMPDEST DUP3 ADD SWAP2 SWAP1 PUSH0 MSTORE PUSH1 0x20 PUSH0 KECCAK256 SWAP1 JUMPDEST DUP2 SLOAD DUP2 MSTORE SWAP1 PUSH1 0x1 ADD SWAP1 PUSH1 0x20 ADD DUP1 DUP4 GT PUSH2 0x443 JUMPI DUP3 SWAP1 SUB PUSH1 0x1F AND DUP3 ADD SWAP2 JUMPDEST POP POP POP POP POP SWAP1 POP SWAP1 JUMP JUMPDEST PUSH0 PUSH2 0x476 CALLER DUP5 DUP5 PUSH2 0xA76 JUMP JUMPDEST POP PUSH1 0x1 JUMPDEST SWAP3 SWAP2 POP POP JUMP JUMPDEST PUSH0 PUSH2 0x48C DUP5 CALLER DUP5 PUSH2 0xB99 JUMP JUMPDEST PUSH2 0x497 DUP5 DUP5 DUP5 PUSH2 0xC11 JUMP JUMPDEST POP PUSH1 0x1 SWAP4 SWAP3 POP POP POP JUMP JUMPDEST PUSH0 CALLER PUSH2 0x497 DUP2 DUP6 DUP6 PUSH2 0x4B3 DUP4 DUP4 PUSH2 0xA4C JUMP JUMPDEST PUSH2 0x4BD SWAP2 SWAP1 PUSH2 0x1733 JUMP JUMPDEST PUSH2 0xA76 JUMP JUMPDEST PUSH1 0x8 SLOAD PUSH4 0x1000000 SWAP1 DIV PUSH1 0x1 PUSH1 0x1 PUSH1 0xA0 SHL SUB AND CALLER EQ PUSH2 0x4FC JUMPI PUSH1 0x40 MLOAD PUSH3 0x461BCD PUSH1 0xE5 SHL DUP2 MSTORE PUSH1 0x4 ADD PUSH2 0x4F3 SWAP1 PUSH2 0x1746 JUMP JUMPDEST PUSH1 0x40 MLOAD DUP1 SWAP2 SUB SWAP1 REVERT JUMPDEST PUSH1 0x8 SLOAD PUSH1 0xFF PUSH2 0x100 SWAP1 SWAP2 DIV AND ISZERO ISZERO PUSH1 0x1 EQ PUSH2 0x548 JUMPI PUSH1 0x40 MLOAD PUSH3 0x461BCD PUSH1 0xE5 SHL DUP2 MSTORE PUSH1 0x20 PUSH1 0x4 DUP3 ADD MSTORE PUSH1 0xC PUSH1 0x24 DUP3 ADD MSTORE PUSH12 0x4E6F74205061757361626C65 PUSH1 0xA0 SHL PUSH1 0x44 DUP3 ADD MSTORE PUSH1 0x64 ADD PUSH2 0x4F3 JUMP JUMPDEST PUSH2 0x550 PUSH2 0xDBE JUMP JUMPDEST JUMP JUMPDEST PUSH1 0x8 SLOAD PUSH4 0x1000000 SWAP1 DIV PUSH1 0x1 PUSH1 0x1 PUSH1 0xA0 SHL SUB AND CALLER EQ PUSH2 0x583 JUMPI PUSH1 0x40 MLOAD PUSH3 0x461BCD PUSH1 0xE5 SHL DUP2 MSTORE PUSH1 0x4 ADD PUSH2 0x4F3 SWAP1 PUSH2 0x1746 JUMP JUMPDEST PUSH2 0x58D DUP3 DUP3 PUSH2 0xE11 JUMP JUMPDEST POP POP JUMP JUMPDEST PUSH1 0x8 SLOAD PUSH3 0x10000 SWAP1 DIV PUSH1 0xFF AND ISZERO ISZERO PUSH1 0x1 EQ PUSH2 0x5DD JUMPI PUSH1 0x40 MLOAD PUSH3 0x461BCD PUSH1 0xE5 SHL DUP2 MSTORE PUSH1 0x20 PUSH1 0x4 DUP3 ADD MSTORE PUSH1 0xC PUSH1 0x24 DUP3 ADD MSTORE PUSH12 0x4E6F74204275726E61626C65 PUSH1 0xA0 SHL PUSH1 0x44 DUP3 ADD MSTORE PUSH1 0x64 ADD PUSH2 0x4F3 JUMP JUMPDEST PUSH2 0x5E6 DUP2 PUSH2 0xF2E JUMP JUMPDEST POP JUMP JUMPDEST PUSH1 0x8 SLOAD PUSH4 0x1000000 SWAP1 DIV PUSH1 0x1 PUSH1 0x1 PUSH1 0xA0 SHL SUB AND CALLER EQ PUSH2 0x61A JUMPI PUSH1 0x40 MLOAD PUSH3 0x461BCD PUSH1 0xE5 SHL DUP2 MSTORE PUSH1 0x4 ADD PUSH2 0x4F3 SWAP1 PUSH2 0x1746 JUMP JUMPDEST PUSH2 0x5E6 DUP2 PUSH2 0xF38 JUMP JUMPDEST PUSH32 0xF0C57E16840DF040F15088DC2F81FE391C3923BEC73E23A9662EFC9C229C6A00 DUP1 SLOAD PUSH1 0x1 PUSH1 0x40 SHL DUP2 DIV PUSH1 0xFF AND ISZERO SWAP1 PUSH8 0xFFFFFFFFFFFFFFFF AND PUSH0 DUP2 ISZERO DUP1 ISZERO PUSH2 0x668 JUMPI POP DUP3 JUMPDEST SWAP1 POP PUSH0 DUP3 PUSH8 0xFFFFFFFFFFFFFFFF AND PUSH1 0x1 EQ DUP1 ISZERO PUSH2 0x684 JUMPI POP ADDRESS EXTCODESIZE ISZERO JUMPDEST SWAP1 POP DUP2 ISZERO DUP1 ISZERO PUSH2 0x692 JUMPI POP DUP1 ISZERO JUMPDEST ISZERO PUSH2 0x6B0 JUMPI PUSH1 0x40 MLOAD PUSH4 0xF92EE8A9 PUSH1 0xE0 SHL DUP2 MSTORE PUSH1 0x4 ADD PUSH1 0x40 MLOAD DUP1 SWAP2 SUB SWAP1 REVERT JUMPDEST DUP5 SLOAD PUSH8 0xFFFFFFFFFFFFFFFF NOT AND PUSH1 0x1 OR DUP6 SSTORE DUP4 ISZERO PUSH2 0x6DA JUMPI DUP5 SLOAD PUSH1 0xFF PUSH1 0x40 SHL NOT AND PUSH1 0x1 PUSH1 0x40 SHL OR DUP6 SSTORE JUMPDEST PUSH1 0x8 SLOAD PUSH1 0xFF AND ISZERO PUSH2 0x723 JUMPI PUSH1 0x40 MLOAD PUSH3 0x461BCD PUSH1 0xE5 SHL DUP2 MSTORE PUSH1 0x20 PUSH1 0x4 DUP3 ADD MSTORE PUSH1 0x13 PUSH1 0x24 DUP3 ADD MSTORE PUSH19 0x105B1C9958591E48125B9A5D1A585B1A5CD959 PUSH1 0x6A SHL PUSH1 0x44 DUP3 ADD MSTORE PUSH1 0x64 ADD PUSH2 0x4F3 JUMP JUMPDEST DUP13 PUSH1 0x8 PUSH1 0x3 PUSH2 0x100 EXP DUP2 SLOAD DUP2 PUSH1 0x1 PUSH1 0x1 PUSH1 0xA0 SHL SUB MUL NOT AND SWAP1 DUP4 PUSH1 0x1 PUSH1 0x1 PUSH1 0xA0 SHL SUB AND MUL OR SWAP1 SSTORE POP PUSH1 0x1 PUSH1 0x8 PUSH0 PUSH2 0x100 EXP DUP2 SLOAD DUP2 PUSH1 0xFF MUL NOT AND SWAP1 DUP4 ISZERO ISZERO MUL OR SWAP1 SSTORE POP DUP7 PUSH1 0x8 PUSH1 0x2 PUSH2 0x100 EXP DUP2 SLOAD DUP2 PUSH1 0xFF MUL NOT AND SWAP1 DUP4 ISZERO ISZERO MUL OR SWAP1 SSTORE POP DUP6 PUSH1 0x8 PUSH1 0x1 PUSH2 0x100 EXP DUP2 SLOAD DUP2 PUSH1 0xFF MUL NOT AND SWAP1 DUP4 ISZERO ISZERO MUL OR SWAP1 SSTORE POP PUSH2 0x7C7 DUP13 DUP13 DUP13 PUSH0 NOT DUP13 EQ PUSH2 0x7C0 JUMPI PUSH2 0x7B1 DUP15 PUSH1 0xA PUSH2 0x184C JUMP JUMPDEST PUSH2 0x7BB SWAP1 DUP14 PUSH2 0x185A JUMP JUMPDEST PUSH2 0xFF7 JUMP JUMPDEST PUSH0 NOT PUSH2 0xFF7 JUMP JUMPDEST PUSH2 0x7E5 DUP14 PUSH2 0x7D6 DUP13 PUSH1 0xA PUSH2 0x184C JUMP JUMPDEST PUSH2 0x7E0 SWAP1 DUP13 PUSH2 0x185A JUMP JUMPDEST PUSH2 0xE11 JUMP JUMPDEST DUP4 ISZERO PUSH2 0x82B JUMPI DUP5 SLOAD PUSH1 0xFF PUSH1 0x40 SHL NOT AND DUP6 SSTORE PUSH1 0x40 MLOAD PUSH1 0x1 DUP2 MSTORE PUSH32 0xC7F505B2F371AE2175EE4913F4499E1F2633A7B5936321EED1CDAEB6115181D2 SWAP1 PUSH1 0x20 ADD PUSH1 0x40 MLOAD DUP1 SWAP2 SUB SWAP1 LOG1 JUMPDEST POP POP POP POP POP POP POP POP POP POP POP POP POP JUMP JUMPDEST PUSH1 0x8 SLOAD PUSH3 0x10000 SWAP1 DIV PUSH1 0xFF AND ISZERO ISZERO PUSH1 0x1 EQ PUSH2 0x886 JUMPI PUSH1 0x40 MLOAD PUSH3 0x461BCD PUSH1 0xE5 SHL DUP2 MSTORE PUSH1 0x20 PUSH1 0x4 DUP3 ADD MSTORE PUSH1 0xC PUSH1 0x24 DUP3 ADD MSTORE PUSH12 0x4E6F74204275726E61626C65 PUSH1 0xA0 SHL PUSH1 0x44 DUP3 ADD MSTORE PUSH1 0x64 ADD PUSH2 0x4F3 JUMP JUMPDEST PUSH2 0x58D DUP3 DUP3 PUSH2 0x1035 JUMP JUMPDEST PUSH1 0x8 SLOAD PUSH4 0x1000000 SWAP1 DIV PUSH1 0x1 PUSH1 0x1 PUSH1 0xA0 SHL SUB AND CALLER EQ PUSH2 0x8C1 JUMPI PUSH1 0x40 MLOAD PUSH3 0x461BCD PUSH1 0xE5 SHL DUP2 MSTORE PUSH1 0x4 ADD PUSH2 0x4F3 SWAP1 PUSH2 0x1746 JUMP JUMPDEST PUSH2 0x5E6 DUP2 PUSH2 0x104A JUMP JUMPDEST PUSH1 0x8 SLOAD PUSH4 0x1000000 SWAP1 DIV PUSH1 0x1 PUSH1 0x1 PUSH1 0xA0 SHL SUB AND CALLER EQ PUSH2 0x8FB JUMPI PUSH1 0x40 MLOAD PUSH3 0x461BCD PUSH1 0xE5 SHL DUP2 MSTORE PUSH1 0x4 ADD PUSH2 0x4F3 SWAP1 PUSH2 0x1746 JUMP JUMPDEST PUSH1 0x8 SLOAD PUSH1 0xFF PUSH2 0x100 SWAP1 SWAP2 DIV AND ISZERO ISZERO PUSH1 0x1 EQ PUSH2 0x947 JUMPI PUSH1 0x40 MLOAD PUSH3 0x461BCD PUSH1 0xE5 SHL DUP2 MSTORE PUSH1 0x20 PUSH1 0x4 DUP3 ADD MSTORE PUSH1 0xC PUSH1 0x24 DUP3 ADD MSTORE PUSH12 0x4E6F74205061757361626C65 PUSH1 0xA0 SHL PUSH1 0x44 DUP3 ADD MSTORE PUSH1 0x64 ADD PUSH2 0x4F3 JUMP JUMPDEST PUSH2 0x550 PUSH2 0x110B JUMP JUMPDEST PUSH1 0x60 PUSH1 0x5 DUP1 SLOAD PUSH2 0x3E9 SWAP1 PUSH2 0x16E7 JUMP JUMPDEST PUSH0 CALLER DUP2 PUSH2 0x96B DUP3 DUP7 PUSH2 0xA4C JUMP JUMPDEST SWAP1 POP DUP4 DUP2 LT ISZERO PUSH2 0x9CB JUMPI PUSH1 0x40 MLOAD PUSH3 0x461BCD PUSH1 0xE5 SHL DUP2 MSTORE PUSH1 0x20 PUSH1 0x4 DUP3 ADD MSTORE PUSH1 0x25 PUSH1 0x24 DUP3 ADD MSTORE PUSH32 0x45524332303A2064656372656173656420616C6C6F77616E63652062656C6F77 PUSH1 0x44 DUP3 ADD MSTORE PUSH5 0x207A65726F PUSH1 0xD8 SHL PUSH1 0x64 DUP3 ADD MSTORE PUSH1 0x84 ADD PUSH2 0x4F3 JUMP JUMPDEST PUSH2 0x9D8 DUP3 DUP7 DUP7 DUP5 SUB PUSH2 0xA76 JUMP JUMPDEST POP PUSH1 0x1 SWAP5 SWAP4 POP POP POP POP JUMP JUMPDEST PUSH0 PUSH2 0x476 CALLER DUP5 DUP5 PUSH2 0xC11 JUMP JUMPDEST PUSH1 0x8 SLOAD PUSH4 0x1000000 SWAP1 DIV PUSH1 0x1 PUSH1 0x1 PUSH1 0xA0 SHL SUB AND CALLER EQ PUSH2 0xA20 JUMPI PUSH1 0x40 MLOAD PUSH3 0x461BCD PUSH1 0xE5 SHL DUP2 MSTORE PUSH1 0x4 ADD PUSH2 0x4F3 SWAP1 PUSH2 0x1746 JUMP JUMPDEST PUSH1 0x8 DUP1 SLOAD PUSH1 0x1 PUSH1 0x1 PUSH1 0xA0 SHL SUB SWAP1 SWAP3 AND PUSH4 0x1000000 MUL PUSH4 0x1000000 PUSH1 0x1 PUSH1 0xB8 SHL SUB NOT SWAP1 SWAP3 AND SWAP2 SWAP1 SWAP2 OR SWAP1 SSTORE JUMP JUMPDEST PUSH1 0x1 PUSH1 0x1 PUSH1 0xA0 SHL SUB SWAP2 DUP3 AND PUSH0 SWAP1 DUP2 MSTORE PUSH1 0x1 PUSH1 0x20 SWAP1 DUP2 MSTORE PUSH1 0x40 DUP1 DUP4 KECCAK256 SWAP4 SWAP1 SWAP5 AND DUP3 MSTORE SWAP2 SWAP1 SWAP2 MSTORE KECCAK256 SLOAD SWAP1 JUMP JUMPDEST PUSH1 0x1 PUSH1 0x1 PUSH1 0xA0 SHL SUB DUP4 AND PUSH2 0xAD8 JUMPI PUSH1 0x40 MLOAD PUSH3 0x461BCD PUSH1 0xE5 SHL DUP2 MSTORE PUSH1 0x20 PUSH1 0x4 DUP3 ADD MSTORE PUSH1 0x24 DUP1 DUP3 ADD MSTORE PUSH32 0x45524332303A20617070726F76652066726F6D20746865207A65726F20616464 PUSH1 0x44 DUP3 ADD MSTORE PUSH4 0x72657373 PUSH1 0xE0 SHL PUSH1 0x64 DUP3 ADD MSTORE PUSH1 0x84 ADD PUSH2 0x4F3 JUMP JUMPDEST PUSH1 0x1 PUSH1 0x1 PUSH1 0xA0 SHL SUB DUP3 AND PUSH2 0xB39 JUMPI PUSH1 0x40 MLOAD PUSH3 0x461BCD PUSH1 0xE5 SHL DUP2 MSTORE PUSH1 0x20 PUSH1 0x4 DUP3 ADD MSTORE PUSH1 0x22 PUSH1 0x24 DUP3 ADD MSTORE PUSH32 0x45524332303A20617070726F766520746F20746865207A65726F206164647265 PUSH1 0x44 DUP3 ADD MSTORE PUSH2 0x7373 PUSH1 0xF0 SHL PUSH1 0x64 DUP3 ADD MSTORE PUSH1 0x84 ADD PUSH2 0x4F3 JUMP JUMPDEST PUSH1 0x1 PUSH1 0x1 PUSH1 0xA0 SHL SUB DUP4 DUP2 AND PUSH0 DUP2 DUP2 MSTORE PUSH1 0x1 PUSH1 0x20 SWAP1 DUP2 MSTORE PUSH1 0x40 DUP1 DUP4 KECCAK256 SWAP5 DUP8 AND DUP1 DUP5 MSTORE SWAP5 DUP3 MSTORE SWAP2 DUP3 SWAP1 KECCAK256 DUP6 SWAP1 SSTORE SWAP1 MLOAD DUP5 DUP2 MSTORE PUSH32 0x8C5BE1E5EBEC7D5BD14F71427D1E84F3DD0314C0F7B2291E5B200AC8C7C3B925 SWAP2 ADD PUSH1 0x40 MLOAD DUP1 SWAP2 SUB SWAP1 LOG3 POP POP POP JUMP JUMPDEST PUSH0 PUSH2 0xBA4 DUP5 DUP5 PUSH2 0xA4C JUMP JUMPDEST SWAP1 POP PUSH0 NOT DUP2 EQ PUSH2 0xC0B JUMPI DUP2 DUP2 LT ISZERO PUSH2 0xBFE JUMPI PUSH1 0x40 MLOAD PUSH3 0x461BCD PUSH1 0xE5 SHL DUP2 MSTORE PUSH1 0x20 PUSH1 0x4 DUP3 ADD MSTORE PUSH1 0x1D PUSH1 0x24 DUP3 ADD MSTORE PUSH32 0x45524332303A20696E73756666696369656E7420616C6C6F77616E6365000000 PUSH1 0x44 DUP3 ADD MSTORE PUSH1 0x64 ADD PUSH2 0x4F3 JUMP JUMPDEST PUSH2 0xC0B DUP5 DUP5 DUP5 DUP5 SUB PUSH2 0xA76 JUMP JUMPDEST POP POP POP POP JUMP JUMPDEST PUSH1 0x1 PUSH1 0x1 PUSH1 0xA0 SHL SUB DUP4 AND PUSH2 0xC75 JUMPI PUSH1 0x40 MLOAD PUSH3 0x461BCD PUSH1 0xE5 SHL DUP2 MSTORE PUSH1 0x20 PUSH1 0x4 DUP3 ADD MSTORE PUSH1 0x25 PUSH1 0x24 DUP3 ADD MSTORE PUSH32 0x45524332303A207472616E736665722066726F6D20746865207A65726F206164 PUSH1 0x44 DUP3 ADD MSTORE PUSH5 0x6472657373 PUSH1 0xD8 SHL PUSH1 0x64 DUP3 ADD MSTORE PUSH1 0x84 ADD PUSH2 0x4F3 JUMP JUMPDEST PUSH1 0x1 PUSH1 0x1 PUSH1 0xA0 SHL SUB DUP3 AND PUSH2 0xCD7 JUMPI PUSH1 0x40 MLOAD PUSH3 0x461BCD PUSH1 0xE5 SHL DUP2 MSTORE PUSH1 0x20 PUSH1 0x4 DUP3 ADD MSTORE PUSH1 0x23 PUSH1 0x24 DUP3 ADD MSTORE PUSH32 0x45524332303A207472616E7366657220746F20746865207A65726F2061646472 PUSH1 0x44 DUP3 ADD MSTORE PUSH3 0x657373 PUSH1 0xE8 SHL PUSH1 0x64 DUP3 ADD MSTORE PUSH1 0x84 ADD PUSH2 0x4F3 JUMP JUMPDEST PUSH2 0xCE2 DUP4 DUP4 DUP4 PUSH2 0x114A JUMP JUMPDEST PUSH1 0x1 PUSH1 0x1 PUSH1 0xA0 SHL SUB DUP4 AND PUSH0 SWAP1 DUP2 MSTORE PUSH1 0x20 DUP2 SWAP1 MSTORE PUSH1 0x40 SWAP1 KECCAK256 SLOAD DUP2 DUP2 LT ISZERO PUSH2 0xD59 JUMPI PUSH1 0x40 MLOAD PUSH3 0x461BCD PUSH1 0xE5 SHL DUP2 MSTORE PUSH1 0x20 PUSH1 0x4 DUP3 ADD MSTORE PUSH1 0x26 PUSH1 0x24 DUP3 ADD MSTORE PUSH32 0x45524332303A207472616E7366657220616D6F756E7420657863656564732062 PUSH1 0x44 DUP3 ADD MSTORE PUSH6 0x616C616E6365 PUSH1 0xD0 SHL PUSH1 0x64 DUP3 ADD MSTORE PUSH1 0x84 ADD PUSH2 0x4F3 JUMP JUMPDEST PUSH1 0x1 PUSH1 0x1 PUSH1 0xA0 SHL SUB DUP5 DUP2 AND PUSH0 DUP2 DUP2 MSTORE PUSH1 0x20 DUP2 DUP2 MSTORE PUSH1 0x40 DUP1 DUP4 KECCAK256 DUP8 DUP8 SUB SWAP1 SSTORE SWAP4 DUP8 AND DUP1 DUP4 MSTORE SWAP2 DUP5 SWAP1 KECCAK256 DUP1 SLOAD DUP8 ADD SWAP1 SSTORE SWAP3 MLOAD DUP6 DUP2 MSTORE SWAP1 SWAP3 PUSH32 0xDDF252AD1BE2C89B69C2B068FC378DAA952BA7F163C4A11628F55A4DF523B3EF SWAP2 ADD PUSH1 0x40 MLOAD DUP1 SWAP2 SUB SWAP1 LOG3 PUSH2 0xC0B JUMP JUMPDEST PUSH2 0xDC6 PUSH2 0x1243 JUMP JUMPDEST PUSH1 0x6 DUP1 SLOAD PUSH2 0xFF00 NOT AND SWAP1 SSTORE PUSH32 0x5DB9EE0A495BF2E6FF9C91A7834C1BA4FDD244A5E8AA4E537BD38AEAE4B073AA CALLER JUMPDEST PUSH1 0x40 MLOAD PUSH1 0x1 PUSH1 0x1 PUSH1 0xA0 SHL SUB SWAP1 SWAP2 AND DUP2 MSTORE PUSH1 0x20 ADD PUSH1 0x40 MLOAD DUP1 SWAP2 SUB SWAP1 LOG1 JUMP JUMPDEST PUSH1 0x3 SLOAD DUP2 PUSH1 0x2 SLOAD PUSH2 0xE22 SWAP2 SWAP1 PUSH2 0x1733 JUMP JUMPDEST GT ISZERO PUSH2 0xE66 JUMPI PUSH1 0x40 MLOAD PUSH3 0x461BCD PUSH1 0xE5 SHL DUP2 MSTORE PUSH1 0x20 PUSH1 0x4 DUP3 ADD MSTORE PUSH1 0x13 PUSH1 0x24 DUP3 ADD MSTORE PUSH19 0x115490CC8C0E8818D85C08195E18D959591959 PUSH1 0x6A SHL PUSH1 0x44 DUP3 ADD MSTORE PUSH1 0x64 ADD PUSH2 0x4F3 JUMP JUMPDEST PUSH1 0x1 PUSH1 0x1 PUSH1 0xA0 SHL SUB DUP3 AND PUSH2 0xEBC JUMPI PUSH1 0x40 MLOAD PUSH3 0x461BCD PUSH1 0xE5 SHL DUP2 MSTORE PUSH1 0x20 PUSH1 0x4 DUP3 ADD MSTORE PUSH1 0x1F PUSH1 0x24 DUP3 ADD MSTORE PUSH32 0x45524332303A206D696E7420746F20746865207A65726F206164647265737300 PUSH1 0x44 DUP3 ADD MSTORE PUSH1 0x64 ADD PUSH2 0x4F3 JUMP JUMPDEST PUSH2 0xEC7 PUSH0 DUP4 DUP4 PUSH2 0x114A JUMP JUMPDEST DUP1 PUSH1 0x2 PUSH0 DUP3 DUP3 SLOAD PUSH2 0xED8 SWAP2 SWAP1 PUSH2 0x1733 JUMP JUMPDEST SWAP1 SWAP2 SSTORE POP POP PUSH1 0x1 PUSH1 0x1 PUSH1 0xA0 SHL SUB DUP3 AND PUSH0 DUP2 DUP2 MSTORE PUSH1 0x20 DUP2 DUP2 MSTORE PUSH1 0x40 DUP1 DUP4 KECCAK256 DUP1 SLOAD DUP7 ADD SWAP1 SSTORE MLOAD DUP5 DUP2 MSTORE PUSH32 0xDDF252AD1BE2C89B69C2B068FC378DAA952BA7F163C4A11628F55A4DF523B3EF SWAP2 ADD PUSH1 0x40 MLOAD DUP1 SWAP2 SUB SWAP1 LOG3 POP POP JUMP JUMPDEST PUSH2 0x5E6 CALLER DUP3 PUSH2 0x1291 JUMP JUMPDEST PUSH1 0x1 PUSH1 0x1 PUSH1 0xA0 SHL SUB DUP2 AND PUSH0 SWAP1 DUP2 MSTORE PUSH1 0x7 PUSH1 0x20 MSTORE PUSH1 0x40 SWAP1 KECCAK256 SLOAD PUSH1 0xFF AND PUSH2 0xFAF JUMPI PUSH1 0x40 MLOAD PUSH3 0x461BCD PUSH1 0xE5 SHL DUP2 MSTORE PUSH1 0x20 PUSH1 0x4 DUP3 ADD MSTORE PUSH1 0x27 PUSH1 0x24 DUP3 ADD MSTORE PUSH32 0x426C61636B6C6973743A204163636F756E7420697320616C726561647920756E PUSH1 0x44 DUP3 ADD MSTORE PUSH7 0x189B1BD8DAD959 PUSH1 0xCA SHL PUSH1 0x64 DUP3 ADD MSTORE PUSH1 0x84 ADD PUSH2 0x4F3 JUMP JUMPDEST PUSH1 0x1 PUSH1 0x1 PUSH1 0xA0 SHL SUB DUP2 AND PUSH0 DUP2 DUP2 MSTORE PUSH1 0x7 PUSH1 0x20 MSTORE PUSH1 0x40 DUP1 DUP3 KECCAK256 DUP1 SLOAD PUSH1 0xFF NOT AND SWAP1 SSTORE MLOAD PUSH32 0xA885A62DF16BFEABC96ED9B845B30DD4038F039CA1679490125C314222355E3F SWAP2 SWAP1 LOG2 POP JUMP JUMPDEST PUSH2 0xFFF PUSH2 0x13CC JUMP JUMPDEST PUSH1 0x4 PUSH2 0x100B DUP6 DUP3 PUSH2 0x18BC JUMP JUMPDEST POP PUSH1 0x5 PUSH2 0x1018 DUP5 DUP3 PUSH2 0x18BC JUMP JUMPDEST POP PUSH1 0x6 DUP1 SLOAD PUSH1 0xFF NOT AND PUSH1 0xFF SWAP4 SWAP1 SWAP4 AND SWAP3 SWAP1 SWAP3 OR SWAP1 SWAP2 SSTORE PUSH1 0x3 SSTORE POP POP JUMP JUMPDEST PUSH2 0x1040 DUP3 CALLER DUP4 PUSH2 0xB99 JUMP JUMPDEST PUSH2 0x58D DUP3 DUP3 PUSH2 0x1291 JUMP JUMPDEST PUSH1 0x1 PUSH1 0x1 PUSH1 0xA0 SHL SUB DUP2 AND PUSH0 SWAP1 DUP2 MSTORE PUSH1 0x7 PUSH1 0x20 MSTORE PUSH1 0x40 SWAP1 KECCAK256 SLOAD PUSH1 0xFF AND ISZERO PUSH2 0x10C0 JUMPI PUSH1 0x40 MLOAD PUSH3 0x461BCD PUSH1 0xE5 SHL DUP2 MSTORE PUSH1 0x20 PUSH1 0x4 DUP3 ADD MSTORE PUSH1 0x25 PUSH1 0x24 DUP3 ADD MSTORE PUSH32 0x426C61636B6C6973743A204163636F756E7420697320616C726561647920626C PUSH1 0x44 DUP3 ADD MSTORE PUSH5 0x1BD8DAD959 PUSH1 0xDA SHL PUSH1 0x64 DUP3 ADD MSTORE PUSH1 0x84 ADD PUSH2 0x4F3 JUMP JUMPDEST PUSH1 0x1 PUSH1 0x1 PUSH1 0xA0 SHL SUB DUP2 AND PUSH0 DUP2 DUP2 MSTORE PUSH1 0x7 PUSH1 0x20 MSTORE PUSH1 0x40 DUP1 DUP3 KECCAK256 DUP1 SLOAD PUSH1 0xFF NOT AND PUSH1 0x1 OR SWAP1 SSTORE MLOAD PUSH32 0x8632489584AC3CFC9B78CC6C2197C31CA9E3821BFA5CA5C9AF28917B92DB24D9 SWAP2 SWAP1 LOG2 POP JUMP JUMPDEST PUSH2 0x1113 PUSH2 0x1415 JUMP JUMPDEST PUSH1 0x6 DUP1 SLOAD PUSH2 0xFF00 NOT AND PUSH2 0x100 OR SWAP1 SSTORE PUSH32 0x62E78CEA01BEE320CD4E420270B5EA74000D11B0C9F74754EBDBFC544B05A258 PUSH2 0xDF4 CALLER SWAP1 JUMP JUMPDEST PUSH2 0x1152 PUSH2 0x1415 JUMP JUMPDEST PUSH1 0x1 PUSH1 0x1 PUSH1 0xA0 SHL SUB DUP3 AND PUSH0 SWAP1 DUP2 MSTORE PUSH1 0x7 PUSH1 0x20 MSTORE PUSH1 0x40 SWAP1 KECCAK256 SLOAD PUSH1 0xFF AND ISZERO PUSH2 0x11CA JUMPI PUSH1 0x40 MLOAD PUSH3 0x461BCD PUSH1 0xE5 SHL DUP2 MSTORE PUSH1 0x20 PUSH1 0x4 DUP3 ADD MSTORE PUSH1 0x27 PUSH1 0x24 DUP3 ADD MSTORE PUSH32 0x426C61636B4C6973743A20526563697069656E74206163636F756E7420697320 PUSH1 0x44 DUP3 ADD MSTORE PUSH7 0x189B1BD8DAD959 PUSH1 0xCA SHL PUSH1 0x64 DUP3 ADD MSTORE PUSH1 0x84 ADD PUSH2 0x4F3 JUMP JUMPDEST PUSH1 0x1 PUSH1 0x1 PUSH1 0xA0 SHL SUB DUP4 AND PUSH0 SWAP1 DUP2 MSTORE PUSH1 0x7 PUSH1 0x20 MSTORE PUSH1 0x40 SWAP1 KECCAK256 SLOAD PUSH1 0xFF AND ISZERO PUSH2 0x123E JUMPI PUSH1 0x40 MLOAD PUSH3 0x461BCD PUSH1 0xE5 SHL DUP2 MSTORE PUSH1 0x20 PUSH1 0x4 DUP3 ADD MSTORE PUSH1 0x24 DUP1 DUP3 ADD MSTORE PUSH32 0x426C61636B4C6973743A2053656E646572206163636F756E7420697320626C6F PUSH1 0x44 DUP3 ADD MSTORE PUSH4 0x18DAD959 PUSH1 0xE2 SHL PUSH1 0x64 DUP3 ADD MSTORE PUSH1 0x84 ADD PUSH2 0x4F3 JUMP JUMPDEST POP POP POP JUMP JUMPDEST PUSH1 0x6 SLOAD PUSH2 0x100 SWAP1 DIV PUSH1 0xFF AND PUSH2 0x550 JUMPI PUSH1 0x40 MLOAD PUSH3 0x461BCD PUSH1 0xE5 SHL DUP2 MSTORE PUSH1 0x20 PUSH1 0x4 DUP3 ADD MSTORE PUSH1 0x14 PUSH1 0x24 DUP3 ADD MSTORE PUSH20 0x14185D5CD8589B194E881B9BDD081C185D5CD959 PUSH1 0x62 SHL PUSH1 0x44 DUP3 ADD MSTORE PUSH1 0x64 ADD PUSH2 0x4F3 JUMP JUMPDEST PUSH1 0x1 PUSH1 0x1 PUSH1 0xA0 SHL SUB DUP3 AND PUSH2 0x12F1 JUMPI PUSH1 0x40 MLOAD PUSH3 0x461BCD PUSH1 0xE5 SHL DUP2 MSTORE PUSH1 0x20 PUSH1 0x4 DUP3 ADD MSTORE PUSH1 0x21 PUSH1 0x24 DUP3 ADD MSTORE PUSH32 0x45524332303A206275726E2066726F6D20746865207A65726F20616464726573 PUSH1 0x44 DUP3 ADD MSTORE PUSH1 0x73 PUSH1 0xF8 SHL PUSH1 0x64 DUP3 ADD MSTORE PUSH1 0x84 ADD PUSH2 0x4F3 JUMP JUMPDEST PUSH2 0x12FC DUP3 PUSH0 DUP4 PUSH2 0x114A JUMP JUMPDEST PUSH1 0x1 PUSH1 0x1 PUSH1 0xA0 SHL SUB DUP3 AND PUSH0 SWAP1 DUP2 MSTORE PUSH1 0x20 DUP2 SWAP1 MSTORE PUSH1 0x40 SWAP1 KECCAK256 SLOAD DUP2 DUP2 LT ISZERO PUSH2 0x136F JUMPI PUSH1 0x40 MLOAD PUSH3 0x461BCD PUSH1 0xE5 SHL DUP2 MSTORE PUSH1 0x20 PUSH1 0x4 DUP3 ADD MSTORE PUSH1 0x22 PUSH1 0x24 DUP3 ADD MSTORE PUSH32 0x45524332303A206275726E20616D6F756E7420657863656564732062616C616E PUSH1 0x44 DUP3 ADD MSTORE PUSH2 0x6365 PUSH1 0xF0 SHL PUSH1 0x64 DUP3 ADD MSTORE PUSH1 0x84 ADD PUSH2 0x4F3 JUMP JUMPDEST PUSH1 0x1 PUSH1 0x1 PUSH1 0xA0 SHL SUB DUP4 AND PUSH0 DUP2 DUP2 MSTORE PUSH1 0x20 DUP2 DUP2 MSTORE PUSH1 0x40 DUP1 DUP4 KECCAK256 DUP7 DUP7 SUB SWAP1 SSTORE PUSH1 0x2 DUP1 SLOAD DUP8 SWAP1 SUB SWAP1 SSTORE MLOAD DUP6 DUP2 MSTORE SWAP2 SWAP3 SWAP2 PUSH32 0xDDF252AD1BE2C89B69C2B068FC378DAA952BA7F163C4A11628F55A4DF523B3EF SWAP2 ADD PUSH1 0x40 MLOAD DUP1 SWAP2 SUB SWAP1 LOG3 POP POP POP JUMP JUMPDEST PUSH32 0xF0C57E16840DF040F15088DC2F81FE391C3923BEC73E23A9662EFC9C229C6A00 SLOAD PUSH1 0x1 PUSH1 0x40 SHL SWAP1 DIV PUSH1 0xFF AND PUSH2 0x550 JUMPI PUSH1 0x40 MLOAD PUSH4 0x1AFCD79F PUSH1 0xE3 SHL DUP2 MSTORE PUSH1 0x4 ADD PUSH1 0x40 MLOAD DUP1 SWAP2 SUB SWAP1 REVERT JUMPDEST PUSH1 0x6 SLOAD PUSH2 0x100 SWAP1 DIV PUSH1 0xFF AND ISZERO PUSH2 0x550 JUMPI PUSH1 0x40 MLOAD PUSH3 0x461BCD PUSH1 0xE5 SHL DUP2 MSTORE PUSH1 0x20 PUSH1 0x4 DUP3 ADD MSTORE PUSH1 0x10 PUSH1 0x24 DUP3 ADD MSTORE PUSH16 0x14185D5CD8589B194E881C185D5CD959 PUSH1 0x82 SHL PUSH1 0x44 DUP3 ADD MSTORE PUSH1 0x64 ADD PUSH2 0x4F3 JUMP JUMPDEST PUSH1 0x20 DUP2 MSTORE PUSH0 DUP3 MLOAD DUP1 PUSH1 0x20 DUP5 ADD MSTORE DUP1 PUSH1 0x20 DUP6 ADD PUSH1 0x40 DUP6 ADD MCOPY PUSH0 PUSH1 0x40 DUP3 DUP6 ADD ADD MSTORE PUSH1 0x40 PUSH1 0x1F NOT PUSH1 0x1F DUP4 ADD AND DUP5 ADD ADD SWAP2 POP POP SWAP3 SWAP2 POP POP JUMP JUMPDEST DUP1 CALLDATALOAD PUSH1 0x1 PUSH1 0x1 PUSH1 0xA0 SHL SUB DUP2 AND DUP2 EQ PUSH2 0x14AB JUMPI PUSH0 DUP1 REVERT JUMPDEST SWAP2 SWAP1 POP JUMP JUMPDEST PUSH0 DUP1 PUSH1 0x40 DUP4 DUP6 SUB SLT ISZERO PUSH2 0x14C1 JUMPI PUSH0 DUP1 REVERT JUMPDEST PUSH2 0x14CA DUP4 PUSH2 0x1495 JUMP JUMPDEST SWAP5 PUSH1 0x20 SWAP4 SWAP1 SWAP4 ADD CALLDATALOAD SWAP4 POP POP POP JUMP JUMPDEST PUSH0 DUP1 PUSH0 PUSH1 0x60 DUP5 DUP7 SUB SLT ISZERO PUSH2 0x14EA JUMPI PUSH0 DUP1 REVERT JUMPDEST PUSH2 0x14F3 DUP5 PUSH2 0x1495 JUMP JUMPDEST SWAP3 POP PUSH2 0x1501 PUSH1 0x20 DUP6 ADD PUSH2 0x1495 JUMP JUMPDEST SWAP3 SWAP6 SWAP3 SWAP5 POP POP POP PUSH1 0x40 SWAP2 SWAP1 SWAP2 ADD CALLDATALOAD SWAP1 JUMP JUMPDEST PUSH0 PUSH1 0x20 DUP3 DUP5 SUB SLT ISZERO PUSH2 0x1522 JUMPI PUSH0 DUP1 REVERT JUMPDEST POP CALLDATALOAD SWAP2 SWAP1 POP JUMP JUMPDEST PUSH0 PUSH1 0x20 DUP3 DUP5 SUB SLT ISZERO PUSH2 0x1539 JUMPI PUSH0 DUP1 REVERT JUMPDEST PUSH2 0x1542 DUP3 PUSH2 0x1495 JUMP JUMPDEST SWAP4 SWAP3 POP POP POP JUMP JUMPDEST PUSH4 0x4E487B71 PUSH1 0xE0 SHL PUSH0 MSTORE PUSH1 0x41 PUSH1 0x4 MSTORE PUSH1 0x24 PUSH0 REVERT JUMPDEST PUSH0 DUP3 PUSH1 0x1F DUP4 ADD SLT PUSH2 0x156C JUMPI PUSH0 DUP1 REVERT JUMPDEST DUP2 CALLDATALOAD PUSH8 0xFFFFFFFFFFFFFFFF DUP2 GT ISZERO PUSH2 0x1586 JUMPI PUSH2 0x1586 PUSH2 0x1549 JUMP JUMPDEST PUSH1 0x40 MLOAD PUSH1 0x1F DUP3 ADD PUSH1 0x1F NOT SWAP1 DUP2 AND PUSH1 0x3F ADD AND DUP2 ADD PUSH8 0xFFFFFFFFFFFFFFFF DUP2 GT DUP3 DUP3 LT OR ISZERO PUSH2 0x15B5 JUMPI PUSH2 0x15B5 PUSH2 0x1549 JUMP JUMPDEST PUSH1 0x40 MSTORE DUP2 DUP2 MSTORE DUP4 DUP3 ADD PUSH1 0x20 ADD DUP6 LT ISZERO PUSH2 0x15CC JUMPI PUSH0 DUP1 REVERT JUMPDEST DUP2 PUSH1 0x20 DUP6 ADD PUSH1 0x20 DUP4 ADD CALLDATACOPY PUSH0 SWAP2 DUP2 ADD PUSH1 0x20 ADD SWAP2 SWAP1 SWAP2 MSTORE SWAP4 SWAP3 POP POP POP JUMP JUMPDEST DUP1 CALLDATALOAD DUP1 ISZERO ISZERO DUP2 EQ PUSH2 0x14AB JUMPI PUSH0 DUP1 REVERT JUMPDEST PUSH0 DUP1 PUSH0 DUP1 PUSH0 DUP1 PUSH0 DUP1 PUSH2 0x100 DUP10 DUP12 SUB SLT ISZERO PUSH2 0x160F JUMPI PUSH0 DUP1 REVERT JUMPDEST PUSH2 0x1618 DUP10 PUSH2 0x1495 JUMP JUMPDEST SWAP8 POP PUSH1 0x20 DUP10 ADD CALLDATALOAD PUSH8 0xFFFFFFFFFFFFFFFF DUP2 GT ISZERO PUSH2 0x1633 JUMPI PUSH0 DUP1 REVERT JUMPDEST PUSH2 0x163F DUP12 DUP3 DUP13 ADD PUSH2 0x155D JUMP JUMPDEST SWAP8 POP POP PUSH1 0x40 DUP10 ADD CALLDATALOAD PUSH8 0xFFFFFFFFFFFFFFFF DUP2 GT ISZERO PUSH2 0x165B JUMPI PUSH0 DUP1 REVERT JUMPDEST PUSH2 0x1667 DUP12 DUP3 DUP13 ADD PUSH2 0x155D JUMP JUMPDEST SWAP7 POP POP PUSH1 0x60 DUP10 ADD CALLDATALOAD PUSH1 0xFF DUP2 AND DUP2 EQ PUSH2 0x167D JUMPI PUSH0 DUP1 REVERT JUMPDEST SWAP5 POP PUSH1 0x80 DUP10 ADD CALLDATALOAD SWAP4 POP PUSH1 0xA0 DUP10 ADD CALLDATALOAD SWAP3 POP PUSH2 0x1699 PUSH1 0xC0 DUP11 ADD PUSH2 0x15E8 JUMP JUMPDEST SWAP2 POP PUSH2 0x16A7 PUSH1 0xE0 DUP11 ADD PUSH2 0x15E8 JUMP JUMPDEST SWAP1 POP SWAP3 SWAP6 SWAP9 POP SWAP3 SWAP6 SWAP9 SWAP1 SWAP4 SWAP7 POP JUMP JUMPDEST PUSH0 DUP1 PUSH1 0x40 DUP4 DUP6 SUB SLT ISZERO PUSH2 0x16C7 JUMPI PUSH0 DUP1 REVERT JUMPDEST PUSH2 0x16D0 DUP4 PUSH2 0x1495 JUMP JUMPDEST SWAP2 POP PUSH2 0x16DE PUSH1 0x20 DUP5 ADD PUSH2 0x1495 JUMP JUMPDEST SWAP1 POP SWAP3 POP SWAP3 SWAP1 POP JUMP JUMPDEST PUSH1 0x1 DUP2 DUP2 SHR SWAP1 DUP3 AND DUP1 PUSH2 0x16FB JUMPI PUSH1 0x7F DUP3 AND SWAP2 POP JUMPDEST PUSH1 0x20 DUP3 LT DUP2 SUB PUSH2 0x1719 JUMPI PUSH4 0x4E487B71 PUSH1 0xE0 SHL PUSH0 MSTORE PUSH1 0x22 PUSH1 0x4 MSTORE PUSH1 0x24 PUSH0 REVERT JUMPDEST POP SWAP2 SWAP1 POP JUMP JUMPDEST PUSH4 0x4E487B71 PUSH1 0xE0 SHL PUSH0 MSTORE PUSH1 0x11 PUSH1 0x4 MSTORE PUSH1 0x24 PUSH0 REVERT JUMPDEST DUP1 DUP3 ADD DUP1 DUP3 GT ISZERO PUSH2 0x47A JUMPI PUSH2 0x47A PUSH2 0x171F JUMP JUMPDEST PUSH1 0x20 DUP1 DUP3 MSTORE PUSH1 0x9 SWAP1 DUP3 ADD MSTORE PUSH9 0x2737BA1037BBB732B9 PUSH1 0xB9 SHL PUSH1 0x40 DUP3 ADD MSTORE PUSH1 0x60 ADD SWAP1 JUMP JUMPDEST PUSH1 0x1 DUP2 JUMPDEST PUSH1 0x1 DUP5 GT ISZERO PUSH2 0x17A4 JUMPI DUP1 DUP6 DIV DUP2 GT ISZERO PUSH2 0x1788 JUMPI PUSH2 0x1788 PUSH2 0x171F JUMP JUMPDEST PUSH1 0x1 DUP5 AND ISZERO PUSH2 0x1796 JUMPI SWAP1 DUP2 MUL SWAP1 JUMPDEST PUSH1 0x1 SWAP4 SWAP1 SWAP4 SHR SWAP3 DUP1 MUL PUSH2 0x176D JUMP JUMPDEST SWAP4 POP SWAP4 SWAP2 POP POP JUMP JUMPDEST PUSH0 DUP3 PUSH2 0x17BA JUMPI POP PUSH1 0x1 PUSH2 0x47A JUMP JUMPDEST DUP2 PUSH2 0x17C6 JUMPI POP PUSH0 PUSH2 0x47A JUMP JUMPDEST DUP2 PUSH1 0x1 DUP2 EQ PUSH2 0x17DC JUMPI PUSH1 0x2 DUP2 EQ PUSH2 0x17E6 JUMPI PUSH2 0x1802 JUMP JUMPDEST PUSH1 0x1 SWAP2 POP POP PUSH2 0x47A JUMP JUMPDEST PUSH1 0xFF DUP5 GT ISZERO PUSH2 0x17F7 JUMPI PUSH2 0x17F7 PUSH2 0x171F JUMP JUMPDEST POP POP PUSH1 0x1 DUP3 SHL PUSH2 0x47A JUMP JUMPDEST POP PUSH1 0x20 DUP4 LT PUSH2 0x133 DUP4 LT AND PUSH1 0x4E DUP5 LT PUSH1 0xB DUP5 LT AND OR ISZERO PUSH2 0x1825 JUMPI POP DUP2 DUP2 EXP PUSH2 0x47A JUMP JUMPDEST PUSH2 0x1831 PUSH0 NOT DUP5 DUP5 PUSH2 0x1769 JUMP JUMPDEST DUP1 PUSH0 NOT DIV DUP3 GT ISZERO PUSH2 0x1844 JUMPI PUSH2 0x1844 PUSH2 0x171F JUMP JUMPDEST MUL SWAP4 SWAP3 POP POP POP JUMP JUMPDEST PUSH0 PUSH2 0x1542 PUSH1 0xFF DUP5 AND DUP4 PUSH2 0x17AC JUMP JUMPDEST DUP1 DUP3 MUL DUP2 ISZERO DUP3 DUP3 DIV DUP5 EQ OR PUSH2 0x47A JUMPI PUSH2 0x47A PUSH2 0x171F JUMP JUMPDEST PUSH1 0x1F DUP3 GT ISZERO PUSH2 0x123E JUMPI DUP1 PUSH0 MSTORE PUSH1 0x20 PUSH0 KECCAK256 PUSH1 0x1F DUP5 ADD PUSH1 0x5 SHR DUP2 ADD PUSH1 0x20 DUP6 LT ISZERO PUSH2 0x1896 JUMPI POP DUP1 JUMPDEST PUSH1 0x1F DUP5 ADD PUSH1 0x5 SHR DUP3 ADD SWAP2 POP JUMPDEST DUP2 DUP2 LT ISZERO PUSH2 0x18B5 JUMPI PUSH0 DUP2 SSTORE PUSH1 0x1 ADD PUSH2 0x18A2 JUMP JUMPDEST POP POP POP POP POP JUMP JUMPDEST DUP2 MLOAD PUSH8 0xFFFFFFFFFFFFFFFF DUP2 GT ISZERO PUSH2 0x18D6 JUMPI PUSH2 0x18D6 PUSH2 0x1549 JUMP JUMPDEST PUSH2 0x18EA DUP2 PUSH2 0x18E4 DUP5 SLOAD PUSH2 0x16E7 JUMP JUMPDEST DUP5 PUSH2 0x1871 JUMP JUMPDEST PUSH1 0x20 PUSH1 0x1F DUP3 GT PUSH1 0x1 DUP2 EQ PUSH2 0x191C JUMPI PUSH0 DUP4 ISZERO PUSH2 0x1905 JUMPI POP DUP5 DUP3 ADD MLOAD JUMPDEST PUSH0 NOT PUSH1 0x3 DUP6 SWAP1 SHL SHR NOT AND PUSH1 0x1 DUP5 SWAP1 SHL OR DUP5 SSTORE PUSH2 0x18B5 JUMP JUMPDEST PUSH0 DUP5 DUP2 MSTORE PUSH1 0x20 DUP2 KECCAK256 PUSH1 0x1F NOT DUP6 AND SWAP2 JUMPDEST DUP3 DUP2 LT ISZERO PUSH2 0x194B JUMPI DUP8 DUP6 ADD MLOAD DUP3 SSTORE PUSH1 0x20 SWAP5 DUP6 ADD SWAP5 PUSH1 0x1 SWAP1 SWAP3 ADD SWAP2 ADD PUSH2 0x192B JUMP JUMPDEST POP DUP5 DUP3 LT ISZERO PUSH2 0x1968 JUMPI DUP7 DUP5 ADD MLOAD PUSH0 NOT PUSH1 0x3 DUP8 SWAP1 SHL PUSH1 0xF8 AND SHR NOT AND DUP2 SSTORE JUMPDEST POP POP POP POP PUSH1 0x1 SWAP1 DUP2 SHL ADD SWAP1 SSTORE POP JUMP INVALID LOG2 PUSH5 0x6970667358 0x22 SLT KECCAK256 PUSH5 0xDCB08E34A CREATE POP 0xD7 0xFB 0x22 PUSH3 0x954E31 0xBE 0xB7 0xF9 SWAP1 0xFC 0xEC COINBASE DUP12 0xE9 0xAF MCOPY 0x29 0xBD MULMOD 0xC 0xB6 SWAP15 PUSH5 0x736F6C6343 STOP ADDMOD BYTE STOP CALLER "
				},
				"gasEstimates": {
					"creation": {
						"codeDepositCost": "1314600",
						"executionCost": "49803",
						"totalCost": "1364403"
					},
					"external": {
						"_transferOwnership(address)": "26797",
						"allowance(address,address)": "infinite",
						"approve(address,uint256)": "24639",
						"balanceOf(address)": "2648",
						"blockAccount(address)": "30234",
						"burn(uint256)": "infinite",
						"burnFrom(address,uint256)": "infinite",
						"decimals()": "2400",
						"decreaseAllowance(address,uint256)": "27012",
						"increaseAllowance(address,uint256)": "27024",
						"initialize(address,string,string,uint8,uint256,uint256,bool,bool)": "infinite",
						"isAccountBlocked(address)": "2590",
						"isBurnable()": "2387",
						"isInitialized()": "2443",
						"isPausable()": "2365",
						"maxSupply()": "2379",
						"mint(address,uint256)": "infinite",
						"name()": "infinite",
						"owner()": "2436",
						"pause()": "infinite",
						"paused()": "2403",
						"symbol()": "infinite",
						"totalSupply()": "2348",
						"transfer(address,uint256)": "57750",
						"transferFrom(address,address,uint256)": "infinite",
						"unblockAccount(address)": "30202",
						"unpause()": "infinite"
					},
					"internal": {
						"_beforeTokenTransfer(address,address,uint256)": "infinite"
					}
				},
				"methodIdentifiers": {
					"_transferOwnership(address)": "d29d44ee",
					"allowance(address,address)": "dd62ed3e",
					"approve(address,uint256)": "095ea7b3",
					"balanceOf(address)": "70a08231",
					"blockAccount(address)": "7c0a893d",
					"burn(uint256)": "42966c68",
					"burnFrom(address,uint256)": "79cc6790",
					"decimals()": "313ce567",
					"decreaseAllowance(address,uint256)": "a457c2d7",
					"increaseAllowance(address,uint256)": "39509351",
					"initialize(address,string,string,uint8,uint256,uint256,bool,bool)": "764776e7",
					"isAccountBlocked(address)": "ca88bd5b",
					"isBurnable()": "883356d9",
					"isInitialized()": "392e53cd",
					"isPausable()": "a09a1601",
					"maxSupply()": "d5abeb01",
					"mint(address,uint256)": "40c10f19",
					"name()": "06fdde03",
					"owner()": "8da5cb5b",
					"pause()": "8456cb59",
					"paused()": "5c975abb",
					"symbol()": "95d89b41",
					"totalSupply()": "18160ddd",
					"transfer(address,uint256)": "a9059cbb",
					"transferFrom(address,address,uint256)": "23b872dd",
					"unblockAccount(address)": "4d78fdc6",
					"unpause()": "3f4ba83a"
				}
			},
			"storageLayout": {
				"storage": [
					{
						"astId": 584,
						"contract": "contracts/EssentialToken.sol:EssentialToken",
						"label": "_balances",
						"offset": 0,
						"slot": "0",
						"type": "t_mapping(t_address,t_uint256)"
					},
					{
						"astId": 590,
						"contract": "contracts/EssentialToken.sol:EssentialToken",
						"label": "_allowances",
						"offset": 0,
						"slot": "1",
						"type": "t_mapping(t_address,t_mapping(t_address,t_uint256))"
					},
					{
						"astId": 592,
						"contract": "contracts/EssentialToken.sol:EssentialToken",
						"label": "_totalSupply",
						"offset": 0,
						"slot": "2",
						"type": "t_uint256"
					},
					{
						"astId": 594,
						"contract": "contracts/EssentialToken.sol:EssentialToken",
						"label": "_maxSupply",
						"offset": 0,
						"slot": "3",
						"type": "t_uint256"
					},
					{
						"astId": 596,
						"contract": "contracts/EssentialToken.sol:EssentialToken",
						"label": "_name",
						"offset": 0,
						"slot": "4",
						"type": "t_string_storage"
					},
					{
						"astId": 598,
						"contract": "contracts/EssentialToken.sol:EssentialToken",
						"label": "_symbol",
						"offset": 0,
						"slot": "5",
						"type": "t_string_storage"
					},
					{
						"astId": 600,
						"contract": "contracts/EssentialToken.sol:EssentialToken",
						"label": "_decimals",
						"offset": 0,
						"slot": "6",
						"type": "t_uint8"
					},
					{
						"astId": 271,
						"contract": "contracts/EssentialToken.sol:EssentialToken",
						"label": "_paused",
						"offset": 1,
						"slot": "6",
						"type": "t_bool"
					},
					{
						"astId": 501,
						"contract": "contracts/EssentialToken.sol:EssentialToken",
						"label": "_isBlackListed",
						"offset": 0,
						"slot": "7",
						"type": "t_mapping(t_address,t_bool)"
					},
					{
						"astId": 1205,
						"contract": "contracts/EssentialToken.sol:EssentialToken",
						"label": "isInitialized",
						"offset": 0,
						"slot": "8",
						"type": "t_bool"
					},
					{
						"astId": 1207,
						"contract": "contracts/EssentialToken.sol:EssentialToken",
						"label": "isPausable",
						"offset": 1,
						"slot": "8",
						"type": "t_bool"
					},
					{
						"astId": 1209,
						"contract": "contracts/EssentialToken.sol:EssentialToken",
						"label": "isBurnable",
						"offset": 2,
						"slot": "8",
						"type": "t_bool"
					},
					{
						"astId": 1211,
						"contract": "contracts/EssentialToken.sol:EssentialToken",
						"label": "owner",
						"offset": 3,
						"slot": "8",
						"type": "t_address"
					}
				],
				"types": {
					"t_address": {
						"encoding": "inplace",
						"label": "address",
						"numberOfBytes": "20"
					},
					"t_bool": {
						"encoding": "inplace",
						"label": "bool",
						"numberOfBytes": "1"
					},
					"t_mapping(t_address,t_bool)": {
						"encoding": "mapping",
						"key": "t_address",
						"label": "mapping(address => bool)",
						"numberOfBytes": "32",
						"value": "t_bool"
					},
					"t_mapping(t_address,t_mapping(t_address,t_uint256))": {
						"encoding": "mapping",
						"key": "t_address",
						"label": "mapping(address => mapping(address => uint256))",
						"numberOfBytes": "32",
						"value": "t_mapping(t_address,t_uint256)"
					},
					"t_mapping(t_address,t_uint256)": {
						"encoding": "mapping",
						"key": "t_address",
						"label": "mapping(address => uint256)",
						"numberOfBytes": "32",
						"value": "t_uint256"
					},
					"t_string_storage": {
						"encoding": "bytes",
						"label": "string",
						"numberOfBytes": "32"
					},
					"t_uint256": {
						"encoding": "inplace",
						"label": "uint256",
						"numberOfBytes": "32"
					},
					"t_uint8": {
						"encoding": "inplace",
						"label": "uint8",
						"numberOfBytes": "1"
					}
				}
			},
			"userdoc": {
				"kind": "user",
				"methods": {},
				"version": 1
			}
		}
	}
}